:020000040800F2
:10000000F8D400209D010008A73400084528000806
:10001000A5340008AD0300082365000800000000B7
:10002000000000000000000000000000054600087D
:100030005116000800000000053800081D470008A0
:10004000B7010008B7010008B7010008B7010008B0
:10005000B7010008B7010008B7010008B7010008A0
:100060005D200008B7010008B7010008B7010008CB
:10007000B7010008B7010008B7010008B512000871
:10008000B7010008B7010008B7010008B701000870
:10009000B7010008B7010008B7010008B701000860
:1000A000B7010008B7010008B7010008B701000850
:1000B000B7010008B7010008B7010008B701000840
:1000C000B7010008B7010008B7010008B701000830
:1000D000B701000871490008B70100088D49000800
:1000E00019200008B7010008B7010008B70100088F
:1000F000B7010008B7010008B7010008B701000800
:10010000B7010008B7010008B7010008B7010008EF
:10011000B7010008B7010008B7010008B7010008DF
:10012000B7010008B7010008B7010008B7010008CF
:10013000B7010008B7010008B7010008B7010008BF
:10014000B7010008B7010008B7010008B7010008AF
:10015000B7010008B7010008B7010008B70100089F
:10016000B7010008B701000831350008253500083F
:10017000493500083D350008B7010008B7010008FF
:10018000B7010008B7010008DFF80CD000F066F8EE
:1001900000480047518D0008F8D4002006488047E9
:1001A00006480047FEE7FEE7FEE7FEE7FEE7FEE75C
:1001B000FEE7FEE7FEE7FEE72D470008890100089D
:1001C00040EA01039B0703D009E008C9121F08C0D9
:1001D000042AFAD203E011F8013B00F8013B521E59
:1001E000F9D27047D2B201E000F8012B491EFBD2D0
:1001F00070470022F6E710B513460A460446194632
:10020000FFF7F0FF204610BD421C10F8011B00292B
:10021000FBD1801A704730B504460020034600E049
:100220005B1C934203D2E05CCD5C401BF8D030BD38
:1002300030B50B46014600202022012409E021FAB6
:1002400002F59D4205D303FA02F5491B04FA02F5B3
:100250002844151EA2F10102F1DC30BD064C074D09
:1002600006E0E06840F0010394E807009847103486
:10027000AC42F6D3FFF78CFFFC9202081C930208F5
:1002800070B58C1810F8015B15F0070301D110F858
:10029000013B2A1106D110F8012B03E010F8016B85
:1002A00001F8016B5B1EF9D12B0705D40023521E08
:1002B0000DD401F8013BFAE710F8013BCB1A921C70
:1002C00003E013F8015B01F8015B521EF9D5A1426E
:1002D000D8D3002070BD000038B50121480503F0D7
:1002E00093FA1F4D0021284601F04AF8284601F0F4
:1002F000B3F81C4900240C601B4848608C60402007
:10030000C8604FF6FE7008614C6128158861400096
:10031000C861800008624C62000188620420C862E3
:10032000032008634C638C63284601F067F90122BF
:100330001021284601F048F90B48012202210C380F
:1003400003F0E0FF0F208DF800008DF801408DF8DC
:10035000024001208DF80300684603F0A5F838BD7F
:1003600070600240B40A00200C38004010B50C4AFE
:10037000906011610B4C1146204601F03FF90121BC
:10038000204600F0FDFF08480088400506D40648D6
:100390000121BDE810401C3802F064BB10BD000014
:1003A000B40A0020706002401C380040FEE770B5BF
:1003B00000254FF4803400E0641E24B1802003F057
:1003C000A5FB0028F8D02CB140F2FF5003F068FBE9
:1003D000284670BD032070BD70B5054600243B491A
:1003E000086800E0086810F0450FFBD0410705D50C
:1003F0000324042003F054FB204670BDC00705D041
:100400000124012003F04CFB204670BD03F078FB73
:10041000A84201D0102070BD40F2FF5003F040FB15
:10042000002003F085FB2A49084201D1204670BD17
:10043000002801DA1C2070BD410001D5092070BDE3
:10044000810001D50A2070BDC10001D50B2070BD0F
:10045000010101D50C2070BD410101D50D2070BDF9
:10046000C10101D50E2070BD010201D50F2070BD64
:10047000410201D5102070BD810201D5112070BD4F
:10048000C10201D5122070BD010301D5132070BD3A
:10049000410301D5142070BD810301D5152070BD25
:1004A000C10301D5162070BD010401D5172070BD10
:1004B000410401D5182070BD810401D5192070BDFB
:1004C000000701D51A2070BD204670BD342C0140B4
:1004D00008E0FFFD10B500240E4A116800E0116825
:1004E00011F0450FFBD0480705D50324042003F085
:1004F000D7FA204610BDC80705D00124012003F01B
:10050000CFFA204610BD40F2FF5003F0C9FA204652
:1005100010BD0000342C014010B500240A4A1168B7
:1005200000E0116811F0450FFBD0480705D5032402
:10053000042003F0B5FA204610BD40F2FF5003F04E
:10054000AFFA204610BD0000342C014070B50646BD
:100550000C4600251C4A106800E0106810F0450F9A
:10056000FBD0410705D50324042003F099FA204667
:1005700070BDC00705D00124012003F091FA204688
:1005800070BD03F0BDFAB04201D0102070BD40F242
:10059000FF5003F085FA002003F0CAFA10F4604F10
:1005A00003D0810405D5132070BD000C208028469F
:1005B00070BD410401D5102070BD000401D50F208D
:1005C00070BD284670BD0000342C014010B50020DD
:1005D0004FF480310D4B1A6801E0491E1A6812F081
:1005E000450F01D10029F8D109B1510705D50324E0
:1005F000042003F055FA204610BD5106FCD5002416
:10060000402003F04DFA204610BD0000342C01407C
:100610007FB504460121880303F02EF90A4D2846D0
:1006200003F07AFE02940020ADF80200ADF8040059
:10063000ADF80C006815ADF80000ADF8060069468D
:10064000284602F01BFA7FBD003800401FB501218B
:10065000480503F011F9114C2188C8071CD0204629
:1006600002F030F90021ADF804104BF6FF71ADF83F
:1006700006103321ADF808102115ADF80A10090154
:10068000ADF80C10064900910121204602F0F6F861
:100690006946204602F07AF91FBD00000054004070
:1006A000A08601007CB501214FF4837003F0ACF803
:1006B0002A4800884FF00005C0074FF002041AD105
:1006C0004FF4107000908DF804408DF80540012023
:1006D0008DF806008DF80750214E6946304601F02E
:1006E000D1FE04220621304601F00AFF042209212E
:1006F000304601F005FF0B2000908DF804408DF886
:1007000005408DF806508DF80750164E6946304664
:1007100001F0B8FE05220021304601F0F1FE05226D
:100720000121304601F0ECFE05220321304601F0A4
:10073000E7FE402000908DF804408DF805408DF8CC
:1007400006508DF80750084C6946204601F09AFE85
:1007500005220621204601F0D3FE7CBD0054004056
:100760000004024000200240000802402DE9F0474A
:1007700005460F469046FFF795FF00F05DF9FFF73D
:1007800065FF012000F088F8414EC108716100F05A
:100790000700B0610121022000F086F90446012D16
:1007A00055D0022D5BD0032D61D04FF00509042DEB
:1007B00065D00521042000F077F9044486F8009004
:1007C0008121052000F070F904440421062000F086
:1007D0006BF90444384600F049F9022D0ED0062189
:1007E0000F2000F061F904440021242000F05CF99E
:1007F00004440021252000F057F904449E210220E2
:1008000000F052F9044400210A2000F04DF904449C
:1008100004210E2000F048F904440021272000F0B4
:1008200043F904440F211F2000F03EF904440A213B
:100830001A2000F039F904440A211B2000F034F991
:1008400004444046FFF7E4FE2046BDE8F087FA2165
:10085000042000F029F90444FA203070B0E7AF21F9
:10086000042000F021F90444AF203070A8E7AA2149
:10087000042000F019F90444AA203070A0E70521F3
:10088000042000F011F9044486F8009098E7000075
:100890002C010020002070472DE9F0470746604CEE
:1008A0004FF49610E0604FF40035DFF8788107E0F0
:1008B000E168481EE06003D2BDE8F04700F0BEB832
:1008C0002946404602F048F80028F1D1012140466F
:1008D00002F02AF84FF48055E560534E07E0E168D6
:1008E000481EE06003D2BDE8F04700F0A7B83146EB
:1008F000404601F0B4FF0028F1D0C1460022942107
:10090000484602F0A4F8E560DFF8208107E0E168DE
:10091000481EE06003D2BDE8F04700F08FB84146C2
:10092000484601F09CFF0028F1D0C84639464046B1
:1009300002F096F8E5603E4F07E0E168481EE0608F
:1009400003D2BDE8F04700F079B83946404602F0DE
:1009500003F80028F1D00121404601F0E5FFE560F1
:1009600007E0E268501EE06003D2BDE8F04700F007
:1009700065B83146404601F072FF0028F1D00122EF
:100980009421404602F063F8E560294EB61E07E068
:10099000E268501EE06003D2BDE8F04700F04EB8B8
:1009A0003146404601F0D8FF0028F1D000214046F2
:1009B00001F049FF1B49183108880121404601F028
:1009C000BFFFE5601A4E3C3607E0E268521EE26067
:1009D00003D2BDE8F04700F031B83146404601F09F
:1009E000BBFF0028F1D0404602F02EF80646E56035
:1009F00007E0E1684A1EE26003D2BDE8F04700F07C
:100A00001DB8B8F800008005F3D40121404601F07C
:100A10001AFF0849404601F02EFF3046BDE8F08736
:100A20002C01002000540040010003008200070058
:100A300004000010000400107047000002F032FAB9
:100A4000C0884FF6FF7101EAC00002A102F094F9DC
:100A5000FEE700002020434F444543204932432015
:100A6000204552524F5220200000000070B5E62869
:100A70000CD9A0F1E704E1B2202000F015F80546FA
:100A8000E1B2212000F010F8284470BD00F11904F3
:100A9000E1B2202000F008F80546E1B2212000F084
:100AA00003F8284470BD00002DE9F04706460D46C6
:100AB000404C4FF49617E7604FF40038DFF8F8A089
:100AC00007E0E168481EE06003D2BDE8F047FFF7A9
:100AD000B5BF4146504601F03FFF0028F1D101214A
:100AE000504601F021FF4FF48058C4F80C80DFF825
:100AF000CC9007E0E168481EE06003D2BDE8F04713
:100B0000FFF79CBF4946504601F0A9FE0028F1D0EE
:100B100000229421504601F09AFFC4F80C80DFF8BF
:100B2000A09007E0E168481EE06003D2BDE8F0470E
:100B3000FFF784BF4946504601F091FE0028F1D0EE
:100B40003146504601F08CFFC4F80C80DFF870800D
:100B5000A8F1020807E0E168481EE06003D2BDE8A2
:100B6000F047FFF76BBF4146504601F078FE002882
:100B7000F1D02946504601F073FFE760114F05E0C0
:100B8000E168491EE16001D2FFF758FF394650463F
:100B900001F0E2FE0028F3D00121504601F0D0FE22
:100BA0003046FFF779FEA84202D00120BDE8F08769
:100BB0000020FBE72C01002000540040010003004E
:100BC000820007000400001010B50B4603F07F02FE
:100BD00002EB82011C0600EBC10102D501F58E710A
:100BE00001E001F55D710A70DA094A7005F026FA34
:100BF000002010BD10B50A46110602F07F0306D58D
:100C000003EB830100EBC10101F58E7105E002EBFE
:100C1000820100EBC10101F55D7100248C700B7045
:100C2000D2094A7005F0ECF9002010BD70B50D46F0
:100C300005F07F0404EB84012E0600EBC10102D510
:100C400001F58E7101E001F55D710C70ED094D70DB
:100C50008A60CB7005B1CC80022B01D100220A71D1
:100C600005F094F9002070BD10B501F07F0404EB8D
:100C7000840100EBC10101F55D71CA604B61002385
:100C80008B614B700C70C378012B00D10A610A781C
:100C90001AB105F01BFA002010BD05F0D6F8FAE7EE
:100CA000002261F30A120069016811430160704774
:100CB00010B50A46110602F07F0306D503EB830147
:100CC00000EBC10101F58E7105E002EB820100EB42
:100CD000C10101F55D7101248C700B70D2094A705D
:100CE00005F0D4F9002010BD70B501F07F0404EBCD
:100CF000840100EBC10101F58E7101254D700C706E
:100D0000CA600A6100228A614B61002C03D005F0A1
:100D1000DDF9002070BD05F098F8FAE738B5044613
:100D2000204605F06DF8E068C5680095204605F09E
:100D3000FFFA01460020032911D00120A0704020B5
:100D4000A08025F4705000F5A0500090E168009854
:100D5000C8604FF40050E1684861012038BDA070C0
:100D60004FF40070A08025F4705000F510500090F2
:100D7000ECE70000F8B50546002400200090284666
:100D800005F005FB064658E0F00754D0E1B22846CE
:100D900000F032FA0090C0071CD0012101FA04F2E1
:100DA0002869436B93434363009105EB840080699A
:100DB00081602448E1B20068426828469047E8789C
:100DC000012807D134B995F81101042802D1284629
:100DD00005F0C0F80098000705D50820009005EB45
:100DE0008401896988600098C00605D510200090AC
:100DF00005EB8401896988600098400605D540208C
:100E0000009005EB8401896988600098800705D50A
:100E10000220009005EB8401896988600098000633
:100E200009D52146284600F005FA8020009005EB00
:100E3000840189698860641C7608002EA4D1012091
:100E4000F8BD0000A40100202DE9FC410546002466
:100E500000200190284605F0A0FA0646274F47E0FB
:100E6000F00743D0E1B2284605F09DFA0190C00793
:100E700026D00121019105EB8400426D9160E97853
:100E800001290DD1406D0069009004EB840105EB50
:100E9000C101C0F31200D1F87C23101AC1F88C03F1
:100EA0003868E1B2026828469047E878012807D1FF
:100EB00034B995F81101052802D1284605F04AF801
:100EC0000198800705D50220019005EB8401496D4A
:100ED00088600198000709D53868816828468847E6
:100EE0000820019005EB8401496D8860641C760838
:100EF000002EB5D10120BDE8FC810000A401002036
:100F000038B50446A07A002809D0D4F80C0120F0A6
:100F1000020020F001000090D4F80C110860206954
:100F2000416821F00101416005480068816920465F
:100F300088474FF00040E1684861012038BD00005B
:100F4000A40100207CB5054610200190E868816965
:100F500021F010018161E868006A009000F00F0143
:100F600001EB810105EBC10404F55D74C0F343415D
:100F7000072923D2DFE801F02222042222221600D0
:100F800047F6F071084219D0C0F30A1632462846D7
:100F9000E16805F010FAE0683044E060A069304490
:100FA000A0610BE0082205F2CC51284605F003FAB7
:100FB0000099A069C1F30A110844A061E868816939
:100FC00041F01001816101207CBD000010B5044694
:100FD000044920460968C96888470821E0684161DA
:100FE000012010BDA40100201FB504460020009080
:100FF00094F812010090174800684169204688471C
:101000002069806801904FF400610391E2685161AA
:10101000A17AE1B1C0071AD094F81501012816D1C0
:101020009DF80000032812D1D4F80C01016841F0AA
:101030000101016003200290D4F80C01016841F025
:10104000030101600448016841F00601016004B039
:10105000012010BDA401002010ED00E070B586B0A5
:1010600004460025059504950395029500950126F3
:1010700001962069416821F001014160002120466C
:1010800005F034F90020FF2206E004EB80018B69B3
:101090009A60496D8A60401C61788142F5D8216967
:1010A0004FF0FF308861ADF81460ADF8166021692B
:1010B0000598C86145F0080040F0010040F00200CA
:1010C000216948612169C1F8840045F0010040F0C0
:1010D000080040F002002169086121694864206924
:1010E000016821F4FE610160204604F033FF4FF4F3
:1010F0008050E168486104480068016920468847DB
:1011000006B0012070BD0000A401002070B50446A7
:10111000204605F061F9012584F81251002084F879
:101120001401002240230DE002EB820104EBC10117
:1011300001F58E714D700A70CA80C8708B60C860EE
:101140004861521C61789142EED800220DE002EB1A
:10115000820104EBC10101F55D7148700A70CA801B
:10116000C8708B60C8604861521C61789142EED8AB
:10117000204604F03DFE204604F0FAFC0021204603
:1011800005F08CF9204604F045FD2046BDE870408E
:1011900005F086B810B50446054920460968C969B6
:1011A00088474FF48011E0684161012010BD0000C4
:1011B000A401002010B50446054920460968096AC3
:1011C00088474FF40011E0684161012010BD000024
:1011D000A401002038B50546E8684468009460071B
:1011E00004D504480068816A28468847E868446056
:1011F000012038BDA401002002691369526BCA4066
:1012000002F0010243EAC21200EB810080698068AB
:101210001040704710B50446054920460968496AE0
:1012200088474FF08041E0684161012010BD000017
:10123000A40100202DE9F84380460E4600200090CE
:1012400006EB860008EBC00404F58E74D4E90501B2
:10125000401AA168814200D20846C01C4FEA90099A
:1012600008EB8607B8698069009016E0D51AA26875
:10127000AA4200D21546E81C4FEA9009ABB2F2B27E
:101280004046E16805F039F9E0682844E060A0696B
:101290002844A061B86980690090009880B24845F0
:1012A00005D9D4E90523934201D2002ADED10120D9
:1012B000BDE8F8832DE9F041224C234F2146384602
:1012C00000F068F900282DD0204DA86860B338469A
:1012D00000F058F90028FAD12146384600F03AF8D3
:1012E0001B48296981604FF48036A968741EB14299
:1012F00000D3214601611649384600F07FF90121EB
:10130000384600F03DF8A868B04201D2014600E03E
:1013100021462A6902EB41012961B04200D204460C
:10132000001BA860BDE8F0810021384600F028F8D5
:101330002146384600F00EF82869BDE8F04100214A
:1013400000F062BE20000020706002402C010020EE
:10135000B40A0020074A904201D2074801E005483C
:101360001038064A8B0001EA020101D5C1607047BE
:101370008160704710640240006002407D0F7D0F65
:10138000002904D0016841F0010101607047016843
:1013900021F00101016070472DE9F04F8FB02B481B
:1013A00000F05AF8294800F0EDF80028FAD1274853
:1013B000303000F051F82548303000F0E3F80028D4
:1013C000F9D1002400944FF0C8400190204D0295BF
:1013D000802603964BF6803704974FF40078CDF8BB
:1013E000148006944FF40069CDF81C904FF4005A15
:1013F000CDF820A009940A944FF0040BCDF82CB03E
:1014000003200C900D940E946946104800F0F6F8F5
:10141000009410480190029503960497CDF814802B
:101420000694CDF81C90CDF820A009940A94CDF82C
:101430002CB003200C900D940E9404486946303073
:1014400000F0DCF80FB0BDE8F08F00002864024027
:1014500002000068007701642DE9F043016821F083
:10146000010101600021016041608160C160016192
:10147000212141613E493E4A10394FF03D089042DA
:1014800003D1C1F80880BDE8F083394A4FF4746590
:101490001832904201D18D60F5E7354A4FF4741649
:1014A0003032904201D18E60EDE7314A4FF07467DF
:1014B0004832904201D18F60E5E72D4B2D4A6033D1
:1014C000984201D1CA60DEE7294C2B4B7834A04208
:1014D00001D1CB60D7E7DFF898C0284C0CF1900C15
:1014E000604501D1CC60CEE7DFF884904FF03D5CE1
:1014F00009F1A809484502D1C1F80CC0C3E7204949
:10150000DFF87C900839484502D1C1F80080BAE77D
:10151000DFF86C8008F11808404501D10D60B2E792
:10152000174D3035A84201D10E60ACE7144D483557
:10153000A84201D10F60A6E7114D11496035091F7E
:10154000A84201D10A609EE70D4A7832904201D14B
:101550000B6098E70A4A9032904201D10C6092E702
:10156000074AA83290428ED1C1F800C08BE7000034
:10157000106002403D000020400F002000003D2090
:1015800010640240014600200968C90700D001200C
:101590007047000002460020084B9A4201D2084AD8
:1015A00001E0064A103A8B0001D5526800E012684B
:1015B000044B1A400A4200D00120704710640240D8
:1015C000006002407D0F7D0F0B0609D522B14369F3
:1015D00043F08003436103E0436923F080034361E8
:1015E000802905D001F01E011AB102680A43026089
:1015F000704702688A4302607047000030B5036894
:10160000124A1340CC680A682243D1E905452C43AD
:101610002243CC6922430C6A22434C6A22438C6ADF
:1016200022434C6B22438C6B22431A430260426973
:1016300022F00703D1E90B2422431A4342610A69CD
:1016400042604A6882608968C16030BD3F801CF09A
:101650007047000001B50348009981608168002946
:10166000FCD108BD0000002010B500F003F900F027
:1016700019FB10484068C0B94FF4784001F054FDA0
:1016800001F010FCC0880CA100EB800080B201F0DA
:1016900073FB01F007FCC0884FF6FF7100EB4000C0
:1016A00001EA400009A101F067FBBDE810400120FC
:1016B00000F096BD980000202020204574686572D7
:1016C0006E657420496E697420202000202020203F
:1016D00020206661696C65642020202020200000A5
:1016E000184A506803681146002B896808DB0368B4
:1016F000DB0505D548608868401C8860012070477C
:101700000368002B0EDB03689B050BD50368DB0524
:1017100008D4086000204860012088605068C068D4
:1017200050600DE00368002B0ADB03689B0507D4BB
:101730000368DB0504D48B685B1C8B60C068506059
:1017400000207047580100200649002804D088690D
:1017500040F0020088617047886920F002008861CB
:1017600070470000009002402DE9F0410023124F25
:1017700078604FF0004C44F2F458561E14E000EB31
:101780004314C4F800C0C4F80480C3EBC31505EBD0
:10179000450501EB8505A560B34203D204F12005A0
:1017A000E56000E0E0605B1C9342E8D30349C86059
:1017B0000348B860BDE8F081580100200090024065
:1017C000B84700200649002804D0886940F400503A
:1017D00088617047886920F4005088617047000074
:1017E00000900240F0B500230E4C20604FF48017AB
:1017F000561E11E000EB43142760C3EBC31505EB45
:10180000450501EB8505A560B34203D204F120052F
:10181000E56000E0E0605B1C9342EBD302490861A5
:10182000F0BD0000580100200090024002680A4309
:101830000260704710B501214C06204601F0F2FF0E
:101840002046BDE81040002101F0ECBF01B581B099
:101850000198009002E00098401E00900098002837
:10186000F9D10CBD0248816941F480118161704752
:10187000009002407CB5012140F2E71001F0C4FF66
:101880000121880302F014F84FF4807400940320BF
:101890008DF8050002208DF8040000208DF8060068
:1018A0008DF80700454D6946284600F0EBFD002104
:1018B000A00302F06BF8002002F0A6FE8621009142
:1018C0006946284600F0DEFD0B220121284600F083
:1018D00017FE0B220221284600F012FE0B220721E0
:1018E000284600F00DFE0094354C6946204600F075
:1018F000C9FD0B220821204600F002FE3E20009088
:10190000304C6946204600F0BDFD0B2201212046E7
:1019100000F0F6FD0B220221204600F0F1FD0B2223
:101920000321204600F0ECFD0B220421204600F0AC
:10193000E7FD0B220521204600F0E2FD4FF4D040E8
:101940000090214C6946204600F09CFD0B22114678
:10195000204600F0D5FD0B220D21204600F0D0FDE1
:101960000B220E21204600F0CBFDCC200090174C1E
:101970006946204600F086FD0B220221204600F039
:10198000BFFD0B220321204600F0BAFD0B220621E9
:10199000204600F0B5FD0B220721204600F0B0FDE7
:1019A000201500900A4C6946204600F06BFD0B2282
:1019B0000A21204600F0A4FD7CBD0000000002408A
:1019C000000402400008024000180240001C0240CF
:1019D00000200240002003490968C90700D0012007
:1019E00070470000009002401EB500210191029155
:1019F0000B4B59680A68C2F30D42121F00929A6895
:101A00009468012C03D912689268019201E08A68F7
:101A100001920291C96859609DE80E000EC01EBD7A
:101A2000580100202DE9F04186B004468846002781
:101A300005970097824E306920F01C0501A801F03F
:101A400053FF02987F49804A0144914202D245F0F7
:101A5000080516E07D497E4A0144914202D245F0D4
:101A60000C050EE07B497C4A0144914209D37B4935
:101A700008447B49884202D245F0040501E045F064
:101A8000100535614FF400420021404600F050FA45
:101A9000C0B17448FFF7DAFE206880B3724D009839
:101AA000401C00900121404600F0B0F9400702D4EC
:101AB0000098A842F3D30098A84205D1002006B0B0
:101AC000BDE8F0810020FAE700974FF48052002132
:101AD000404600F02DFA08B90020F0E70098401CBD
:101AE00000900121404600F091F9800602D4009850
:101AF000A842F3D30098A84202D10020DFE713E008
:101B000000971021404600F081F9410703D54FF4BA
:101B10000061216200E02762800701D5676114E05F
:101B20004FF48040606110E0206A0021C0F3CF02D2
:101B30006069C0F34F000243404600F0F9F9002805
:101B40007CD06FF07F40FFF781FE3168474801404D
:101B5000D4E901021043E26854F8103F1A431043DD
:101B600062681043A2681043E26810432269104380
:101B700062691043A2691043E2691043226A10436C
:101B8000626A143410430843306054F8140F6168DB
:101B90000843D4E9021211430843216908436169EB
:101BA0000843A1690843E16908437060206AB06096
:101BB000606AF060B1694FF641700140D4E90B02F0
:101BC0001043238D626B42EA03421043A26B104321
:101BD000E26B10430843B061D4E910010843F0619F
:101BE00023488169234A1140D4E912231A43D4E9D6
:101BF00014352B431A43A36D1A43E36D1A43236E26
:101C00001A43636E1A43A36E1A430A438261D4E9EE
:101C10001B121143626F54F8783F1A4311436268F4
:101C200041EA8201A268114341F4000101600168A8
:101C300041F080010160012041E7FFE700203EE71D
:101C40000080024000D3CEFEC0E1E40040F1E9FD97
:101C500040787D0100796CFC005A6202001F0AFA8C
:101C600080F0FA02FFFF0F00FFFF04000F8120FF4A
:101C700000900240233FDEF80A794B7942EA0322C2
:101C8000074B184402640A78CB7842EA03628B78E7
:101C900049781B0443EA01210A434264704700006B
:101CA0000080024000B5AFB001214FF0606001F04C
:101CB000ABFDFFF7BFFD00F0D5F8FFF78BFE012865
:101CC000FBD0684600F0E7F8012000900020079064
:101CD0004FF400710A910B900E9011901390149094
:101CE00015902090090421910A11239225902690A5
:101CF00004202890299180032A9080012B90401283
:101D00002C9040002E9001216846FFF78BFE02497F
:101D100048602FB000BD0000980000200649002850
:101D200004D0086840F0040008607047086820F09C
:101D30000400086070470000008002400649002847
:101D400004D0086840F0080008607047086820F078
:101D5000080008607047000000800240F0B50023D2
:101D6000284D29680A68002A01DA0020F0BD40F2F7
:101D7000F456B04208D9B0FBF6F2B0FBF6F406FB1D
:101D8000140414B1521C00E00122012A2CD10A686B
:101D900042F040520A60C0F30C004860086840F00E
:101DA00000400860C868286021E023B92C682768D3
:101DB00047F0805727604E60541EA3420ED10C6836
:101DC00044F000540C60C2F10104C4EBC41404EBF1
:101DD000440400EB8404C4F30C044C600C6844F02D
:101DE00000440C60C9685B1C9342DED3296006483E
:101DF0004169490703D50421416100214160012067
:101E0000F0BD0000580100200090024018B50022EB
:101E10000092124A136903F01C044FF6FF7303EAA1
:101E2000C02323434FF4F86000EA8110184320F0E8
:101E3000020040F00100106109490098401C009028
:101E40001069C00702D000988842F6D300988842F3
:101E500001D1002018BD506980B218BD0080024039
:101E6000FFFF04000248016841F001010160704772
:101E70000090024000B50120FFF760FFFFF7F2FC81
:101E80000120FFF74BFF0120FFF79CFC01205DF8CC
:101E900004EBFFF759BC0121016000214160816022
:101EA000C16001614FF4804242618161C161D21021
:101EB000026241628162C162016341638163C16305
:101EC00040220264202242648164C164016541654C
:101ED0008165C1650166802242668166C1660167CF
:101EE00041678167C167D204C0F880205210C0F8F2
:101EF0008420C0F888101311C0F88C30C0F89010FE
:101F0000C0F89410C0F89810C0F89C10C0F8A01049
:101F1000C0F8A4205212C0F8A8209201C0F8AC204A
:101F20005212C0F8B020C0F8B410C0F8B810704712
:101F300038B500230093124B1C6904F01C054FF6C2
:101F4000FF7404EAC0242C434FF4F86000EA8110C7
:101F5000204340F0020040F001005A611861094935
:101F60000098401C00901869C00702D00098884271
:101F7000F6D30098884201D1002038BD012038BD39
:101F800000800240FFFF040010B5642901D96421DC
:101F900005E0C1EB01216423B1FBF3F1C9B2FEF707
:101FA000E5FB08B1012010BDFEF796F9002010BD39
:101FB0002DE9F04106460F46124D78086860FEF79D
:101FC00069FC69684FF6FF74B1F5003F01D249081A
:101FD00000E021463046FEF7C9F969684FF48032C7
:101FE000914201D2084600E02046C0EB5700A860AD
:101FF000914200D3214606EB410028610020BDE854
:10200000F08100002C01002001490248FFF7D0BFF9
:10201000F61A0F0028C1000810B54FF4004000F078
:102020002DF840B10C48007808B907F00FFE4FF4C6
:10203000807000F01DF84FF48044204600F01EF838
:10204000002807D0012000F067F82046BDE81040C6
:1020500000F00EB810BD00009800002010B504205C
:1020600000F006F8BDE81040012002F05DBA000063
:102070000149086070470000143C014001460020FF
:10208000024A12680A4200D001207047143C014005
:1020900030B51B4A83790168002B2AD013688B4323
:1020A0001360111D0B680468A3430B600179114490
:1020B0000B68046823430B60114C083421680368E3
:1020C00099432160231D19680568A9431960417966
:1020D000102905D011440A68006802430A6030BD27
:1020E0002168026811432160196800680143196082
:1020F00030BD0079104402688A43026030BD0000A0
:10210000003C014008B500200090D02000F004FB06
:10211000684600F085FA08BD10B51221FFF776FE7B
:10212000800435D51B4C2078C04320704FF4784094
:1021300000F0FAFF20784FF6FF74A0B100F0B2FE75
:10214000C08815A100EB800080B200F015FE00F001
:10215000A9FEC08816A100EB400004EA4000BDE8DB
:10216000104000F009BE00F09DFEC0880AA100EBFF
:10217000800080B200F000FE00F094FEC08812A142
:1021800000EB400004EA4000BDE8104000F0F4BD60
:1021900010BD00009800002020204E6574776F72FB
:1021A0006B204361626C6520697320200000000091
:1021B0002020202020756E706C7567676564202074
:1021C00020202020000000002020206E6F77206358
:1021D0006F6E6E656374656420202020000000002F
:1021E00010B5044611212046FFF710FE40F003020F
:1021F00011212046FFF79CFE60B112212046FFF717
:1022000005FE40F0200212212046FFF791FE18B192
:10221000012010BD002010BD002010BD8000A0F1E5
:10222000C040002904D0016841F0010101607047FD
:102230000168024A1140016070470000FEFF0F0074
:1022400010B5D0E901121143D0E903231A43114319
:102250004269114382691143C2691143026A114301
:10226000426A1143826A1143C26A1143026B1143ED
:1022700002689200A2F1C04211608168082907D16A
:1022800001688900A1F1C0410A6842F040020A6079
:10229000416BD1E9002342EA03128B688C891B024F
:1022A00043EA04431A430B8A42EA03520B7D8969CD
:1022B00042EA03620A430168491C8900A1F1C04156
:1022C0000A60C16AB1F5804F08D000686FF07041B4
:1022D0008000A0F1C040C0F8041110BD816BD1E9AD
:1022E000002342EA03128B680C8A1B0243EA045360
:1022F0001A430B7D896942EA036200680A43800041
:10230000A0F1C040C0F8042110BD00002DE9FC4739
:102310000E460024002700970197574D4FF0080AFA
:10232000C5F800A0102068604FF04009C5F808907B
:10233000EF604FF48068C5F81080284601F01EFC5D
:102340001020FEF749F8002832D14C4800890004DB
:10235000286037206860C5F80890EF60C5F81080E5
:10236000284601F00BFC3720FEF736F800281FD175
:10237000411E05F114000160C0F804A03021816005
:102380000221C16007610121416101F095FB2F60CD
:1023900033206860C5F80890EF60C5F810802846C3
:1023A00001F0ECFB3320FEF717F80546280001D0BA
:1023B000BDE8FC874FF4001A6F46DFF8C48040F296
:1023C0002A6908E0504601F0A1FB20B101F0D0FBE2
:1023D00047F82400641CD8F8000010EA090FF1D077
:1023E000082001F093FB20B1082001F059FB0420E4
:1023F000DEE7022001F08AFB20B1022001F050FB51
:102400000220D5E7202001F081FB20B1202001F03F
:1024100047FB0620CCE74FF40074204601F076FB22
:1024200020B1204601F03CFB0720C1E740F2FF50FD
:1024300001F036FB00980099000601F47F4140EA64
:102440000120009901F47F0140EA1120009940EA3F
:102450001160706001980199000601F47F4140EA23
:102460000120019901F47F0140EA1120019940EA1D
:102470001160306028469BE7880A00201401002084
:10248000342C01402DE9F041002201274FF0030CCC
:1024900007FA02F50B682B40AB422CD106685300BB
:1024A0000CFA03F4A64306600E79D0F800809E4033
:1024B00046EA080606600E79012E01D0022E12D1DE
:1024C0008668A64386604E79D0F808809E4046EA2A
:1024D000080686604668AE43466045688E79964039
:1024E000B6B235434560C568A543C560CC799C400C
:1024F000C3681C43C460521C102AC9D3BDE8F081D4
:1025000010B54B07DB0E9A40C90800EB8100016A49
:102510000F249C40A1430162016A1143016210BD76
:102520000246002012690A4200D0012070470000D4
:102530001CB56A460F21312005F076FD9DF800009C
:1025400032280FD0332817D03B281FD03F2827D060
:1025500000F0A8FCC08817A100EB001080B200F0CA
:102560000BFC1CBD00F09EFCC08818A100EB001005
:1025700080B200F001FC1CBD00F094FCC08819A1E1
:1025800000EB001080B200F0F7FB1CBD00F08AFCED
:10259000C08819A100EB001080B200F0EDFB1CBD5B
:1025A00000F080FCC08819A100EB001080B200F0A0
:1025B000E3FB1CBD204753656E736F72203A2064A5
:1025C0006574656374206572726F7200204753658D
:1025D0006E736F72203A204C4953333331444C4868
:1025E00000000000204753656E736F72203A204C44
:1025F0004953334448000000204753656E736F729F
:10260000203A204C4953333331444C002047536522
:102610006E736F72203A204C495333445348000084
:102620002DE9F8430546002000906946012002F09C
:10263000C9F8344F0121384600F038F901213846F5
:1026400000F072F9304C4FF440566660DFF8BC8001
:1026500004E06268521E6260521C0DD0414638464A
:1026600000F07AF90028F4D001229121384600F0D8
:10267000EEF96660264E07E00220BDE8F883626846
:10268000521E6260521C16D03146384600F0E7F800
:102690000028F4D00121384600F0FCF81D4E01213D
:1026A0003046FEF76DFE4FF4C0406060DFF85C809E
:1026B00008F11F0806E00220DFE76268521E626030
:1026C000521C1DD041463046FEF764FF0028F4D06E
:1026D0000121384600F034F900213046FEF750FE63
:1026E0000021384600F0D6F841463046FEF732FE6B
:1026F0009DF8000028709DF8000028700120BCE7BC
:102700000220BAE70054004004010020010000103C
:1027100002000300106002402DE9F0410746294EF7
:102720000121304600F000F9274C4FF44055656018
:10273000DFF8988004E06068401E6060401C0ED0A6
:102740004146304600F008F90028F4D000229021DC
:10275000304600F07CF96560DFF8748007E0022005
:10276000BDE8F0816068401E6060401C0FD04146AB
:10277000304600F074F80028F4D03946304600F0B6
:102780006FF96560114D114F7F35FF1C06E0022087
:10279000E6E76268521E6260521C05D02946304648
:1027A00000F0DAF810B107E00220D9E739463046E8
:1027B00000F0D2F80028ECD00121304600F0C0F83B
:1027C0000120CDE70054004004010020010000106A
:1027D00082000700F0B4194D297801290AD0E96870
:1027E0000026B1F5006F00D1EE60D5E902219142DB
:1027F00002D12E70F0BC704703D9C1F500622A6186
:1028000002E0A2EB01022A612A694FF400739A42A6
:1028100007D98CB201F50071E960A2F500722A6156
:1028200004E08CB293B21144E9602E610121297059
:1028300003490A19F0BC8121FEF756BABC010020F9
:10284000974C0020FEE7002904D0018841F4806104
:1028500001807047018821F4806101807047034640
:1028600000209A8A1B8B1B041A4322F07F4291435B
:1028700000D101207047C94381827047002904D0EC
:10288000018841F0010101807047018821F00101B8
:1028900001807047002904D0818841F40061818063
:1028A0007047818821F4006181807047002904D03D
:1028B000818841F4805181807047818821F4805162
:1028C0008180704710B5154988420AD101214C0515
:1028D000204600F0DFFF2046BDE81040002100F058
:1028E000D9BF0F4988420AD101218C05204600F04A
:1028F000D1FF2046BDE81040002100F0CBBF0949C0
:1029000088420AD10121CC05204600F0C3FF2046B1
:10291000BDE81040002100F0BDBF10BD00540040D4
:1029200000580040005C0040002904D0018841F4B8
:10293000807101807047018821F4807101807047A7
:10294000002904D0018841F400710180704701889A
:1029500021F40071018070470CB5024600200092FE
:102960000A0F019221F07F41019A002A03D0009AB8
:102970001432009203E0090C009A18320092009A77
:1029800012680A4200D001200CBD00007FB5044649
:102990000D46A08820F03F06684600F0A5FF02988B
:1029A0002749B0FBF1F189B20E43A680228822F0BC
:1029B00001022280234B2A689A4209D85200B0FBB8
:1029C000F2F080B2042800D20420491C218423E0C4
:1029D000EB88A3F53F46FF3E0BD002EBC20303EBAF
:1029E0000212B0FBF2F080B240F48040020506D043
:1029F00007E002EB4202B0FBF2F080B2F6E740F0F3
:102A0000010040F400404FF4967251434FF47A7243
:102A1000B1FBF2F1491C2184A083208840F0010021
:102A2000208020884FF6F5310840A9886A89114333
:102A300001432180A8892989084320817FBD0000A6
:102A400040420F00A0860100008AC0B27047002AF1
:102A500002D041F0010101E001F0FE010182704766
:102A600001827047002904D0818B41F48061818309
:102A70007047818B21F4806181837047F0B5022219
:102A800000230124858B4FF24006354085830225C3
:102A90000584858B8E68022E38D08A8802B1022484
:102AA0002A4A13681B0203D5136823F4000313603A
:102AB000264A7C321368C3F388131268C2F3027685
:102AC000224A121F126802F03F02214FB7FBF2F2B6
:102AD0005A43B2FBF6F2CB88B3F5007F2BD06301EB
:102AE000B2FBF3F202EB82028B685200B2FBF3F20C
:102AF000521D92B20A23B2FBF3F202F00103D21A82
:102B0000C2F34F024FF6FF7404EA0323941EFE2C17
:102B100001D302220023CC881A43144304840A8878
:102B20004B881A438B8889890B431A432A4342F402
:102B300000618183F0BD120A02EB82028B685200B1
:102B4000B2FBF3F2521D92B2D4E700000838024003
:102B500040787D0110B54FF0D0412C200880FEF761
:102B60001BFC0B4C01212046FEF70AFC2046FEF719
:102B700009FD0028FAD1064C012130342046FEF729
:102B8000FFFB2046FEF7FEFC0028FAD110BD000036
:102B9000286402400021054A054B926822F8110082
:102BA000491C9942FAD3FFF7D5BF0000D00000209E
:102BB000007701002DE9F0414FF4C87141430E4602
:102BC00000EBC00202EB0015134F4FF4C87000EB8E
:102BD0000512B86803E07B8820F81130491C8A424E
:102BE000F9D801244FF448780EE004EBC40000EB60
:102BF0000410B96806EB001001EB400001EB451131
:102C00004246FDF7DDFA641C7868C088A042ECD823
:102C1000BDE8F041FFF79EBFD00000201CB50121A8
:102C2000782000F0F1FD4CF23370009002208DF816
:102C300004008DF8050000208DF806008DF80700CF
:102C40003F4C69462046FFF71DFC0C220021204620
:102C5000FFF756FC0C2201212046FFF751FC0C2205
:102C600004212046FFF74CFC0C2205212046FFF7EB
:102C700047FC0C2208212046FFF742FC0C220921C8
:102C80002046FFF73DFC0C220A212046FFF738FCC6
:102C90000C220E212046FFF733FC0C220F21204688
:102CA000FFF72EFC4FF680700090264C69462046B8
:102CB000FFF7E8FB0C2207212046FFF721FC0C223E
:102CC00008212046FFF71CFC0C2209212046FFF7B3
:102CD00017FC0C220A212046FFF712FC0C220B21C4
:102CE0002046FFF70DFC0C2211462046FFF708FC9A
:102CF0000C220D212046FFF703FC0C220E2120465A
:102D0000FFF7FEFB0C220F212046FFF7F9FB012005
:102D100000900D4C69462046FFF7B4FB0C220021C1
:102D20002046FFF7EDFB20150090084C6946204631
:102D3000FFF7A8FB0C220A212046FFF7E1FB1CBD90
:102D4000000C024000100240001402400018024033
:102D500010B404460B46203AD2B2064840680168D7
:102D6000C088504301EB4002214610BC184600F0D9
:102D70001FB80000D00000202DE9F04180460D462C
:102D800000240A4E4FF4C87708E021464046FFF77A
:102D9000DFFF70688088204484B26D1C2A780AB1F5
:102DA000BC42F2D3BDE8F041FFF7D4BED000002012
:102DB0002DE9F0470024DFF89080D8E901C73CE016
:102DC000002335E00C26B5FBF6F6F6004FF080093F
:102DD00009FA06F932F8146049FA03F919EA060FFC
:102DE00001D10C2D08D94FF0010909FA03F916EAAF
:102DF000090F0FD10C2D0DD9B8F802600D1905EB94
:102E0000C50A00EB03090AEB051509EB051527F8C0
:102E100015600CE0B8F800600D1905EBC50A00EB71
:102E200003090AEB051509EB051527F815605B1C6E
:102E3000BCF804509D42C5D8641CBCF80630A342BF
:102E4000BED8BDE8F0870000D000002000B597B0E4
:102E50000121084600F002FD0120019000200290AF
:102E60000921039104900590069007900421089190
:102E700009900A9010210B910C900D900E900F90DC
:102E800010900902119112901390149001A81590BE
:102E9000169008A8FFF7D4F901210420FFF7BEF926
:102EA00017B000BD0148406870470000D000002006
:102EB00070B50121880500F0A7FC26494FF0C840F5
:102EC00088604FF40001FDF794F9FFF7A7FEFFF7C4
:102ED000BDFFFEF761FA012003F0FCFD4FF0D04486
:102EE00001262680D0202080072060806680082070
:102EF0006080D120208000256580712060801920AD
:102F00006080D22020806680442060801120208054
:102F10000A2003F0DFFD36202080282060803A2040
:102F20002080552060802A20208065806580668012
:102F30008F2060802B202080658065806580EF2059
:102F4000608029202080BDE8704002480C3000F0ED
:102F5000E5B80000D000002008484FF6FF718180DE
:102F60000021C180018141818181C18101220270E2
:102F700041708170C17001827047000064010020BF
:102F800010B5FFF7E9FFBDE810400020FFF702BED3
:102F900070B505461F2000F0B9F8FFF783FF04461F
:102FA000E088C0F1F00080B2FFF704FEE088294617
:102FB000C0F1F00080B2FFF7DFFEBDE870400020F6
:102FC00000F0A4B82DE9F0418EB0074600243D463C
:102FD0000020FFF7DFFD234800F0A0F8FFF762FFB5
:102FE00006464FF6FF78404600F09EF81F2000F09E
:102FF0008DF800E0641C15F8010B0028FAD1B088A8
:103000004FF4C873B3FBF0F1A14201D2B3FBF0F46B
:103010000021202201A84254491C3229FBD300215F
:1030200008E0B2887D5CB3FBF2F2121B01EB5202A6
:103030008554491CA142F4D30020FFF7BBFDF08862
:1030400001A9FFF799FEF08808EA4000FFF7B2FDFA
:10305000002000F05BF8044800F060F80EB0BDE816
:10306000F0810000E4000020EC0000202DE9F04792
:103070000024FFF717FF0746224DDFF88C8069898F
:1030800008291AD22889814217D301EB810000EB6D
:10309000C10008EB8000408E00F046F86889FA888D
:1030A00000EB800101EBC00108EB8101BDE8F047B6
:1030B000C01C424390B2FFF75FBE2889814201D213
:1030C000093189B208391FFA81F9092604EB09018F
:1030D000B1FBF6F006FB101101EB810000EBC10023
:1030E00008EB8005688E00F01FF8F888E21C50435A
:1030F000294680B2FFF740FE641CE4B2092CE5D3F8
:10310000BDE8F08764010020C447002001B5BDF888
:1031100000000149488008BDD000002001494860F6
:1031200070470000D000002001B5BDF80000014943
:10313000088008BDD000002070B58CB0724C00260D
:103140004FF6FF752078002857D0012853D16F49DA
:103150004868E060002873D002202070084604F020
:10316000D3FAE068010E8DF82010C0F307448DF803
:103170002140C0F307238DF82230C2B28DF82320FE
:10318000CDE9004162A103A803F0E6FAFFF78AFE49
:10319000C08805EA8000FFF70DFDFFF783FEC088B9
:1031A00000EB800080B2FFF705FDFFF77BFEC088D3
:1031B00000EB400005EA4000FFF7FCFCFFF772FE61
:1031C000C08857A1C0EBC00080B2FFF7D5FDFFF764
:1031D00069FEC08858A105EAC000FFF7CDFDFFF7E2
:1031E00061FEC08803A900EBC00080B2FFF7C4FDF8
:1031F000002001F08DF90CB070BD444804F02EFAA7
:10320000E66001202070FFF74DFEC08850A105EA5E
:103210008000FFF7B1FDFFF745FEC08852A100EB2B
:10322000800080B2FFF7A8FDFFF73CFEC08854A1E4
:1032300000EB400005EA4000FFF79EFDDBE7FFE7FB
:10324000086AC07C0428D6D9032020702F4804F0D7
:103250005BFA514804F0D7FE0B906FF0FF0004F0CA
:10326000D2FE0A904C48093804F0CDFE099009AB13
:103270000AAA0BA9254806F026F8FFF713FEC08816
:1032800046A1C0EBC00080B2FFF776FD0A208DF8A2
:1032900020008DF82160A8238DF82230C0228DF8FF
:1032A0002320CDE9006043A103A803F055FAFFF7FE
:1032B000F9FDC08805EA8000FFF77CFCFFF7F2FD0E
:1032C000C08800EB800080B2FFF774FCFFF7EAFDD6
:1032D000C08800EB400005EA4000FFF76BFCFFF7F9
:1032E000E1FDC08837A105EAC000FFF745FDFFF703
:1032F000D9FDC08803A900EBC00080B2FFF73CFDF8
:10330000002001F005F976E7800000204C0900203C
:103310002025642E25642E25642E256400000000DF
:1033200049502061646472657373206173736967C7
:103330006E65642000000000202062792061204436
:1033400048435020736572766572202000000000AB
:1033500020202020204C6F6F6B696E6720666F7293
:10336000202020200000000020202020204448436E
:1033700050207365727665722020202000000000C6
:103380002020202020706C6561736520776169744E
:103390002E2E2E20000000000A00A8C02020202091
:1033A000444843502074696D656F75742020202057
:1033B00000000000202025642E25642E25642E2583
:1033C0006400000020205374617469632049502018
:1033D00061646472657373202020000000B587B0BB
:1033E00005F022FE05F008FF0020069005900490ED
:1033F00009490A4ACDE90121009004AB05AA06A9B2
:10340000074805F035FF064805F06EFF044805F053
:10341000BCFF07B000BD0000117D00086D7D0008F5
:103420004C09002031B51B4C00986168401AFA28FD
:1034300003D30098606008F09FFA0098A168401AD2
:1034400041F28831884203D30098A06004F038FC30
:1034500000982169401AB0F5FA7F0DD300982061D9
:1034600003F044FD2078022806D0032804D0002071
:1034700001F05AF8FFF760FE00986169401A4EF6B5
:103480006021884205D300986061BDE8384003F0B0
:10349000CFBB38BD80000020014804F07BBC000099
:1034A0004C090020FEE7704730B50F23C278012594
:1034B0000178002A1FD0154A126802F4E062C2F5B2
:1034C000E062C2F30722C2F10404D3404278A24072
:1034D00084781C401443220101F1E02181F800248A
:1034E000007800F01F018D404009800000F1E020CD
:1034F000C0F8005130BD01F01F0085404809800030
:1035000000F1E020C0F8805130BD00000CED00E07B
:103510000249084302490860704700000000FA05AC
:103520000CED00E0014801F06DBD000048030020F3
:10353000014801F0AFBD000048030020014801F040
:10354000D5BD00004803002010B50A48807A002845
:1035500009D00948016821F00601016001F0E6F890
:10356000044802F0B6FFBDE810404FF48010FEF7AB
:103570007FBD00004803002010ED00E070B598B05A
:103580000121782000F040F90121084600F066F999
:10359000984E0C2200213046FEF7B2FF0C2201218A
:1035A0003046FEF7ADFF0C2204213046FEF7A8FF9F
:1035B0000C2205213046FEF7A3FF0C2208213046DD
:1035C000FEF79EFF0C2209213046FEF799FF0C22E0
:1035D0000A213046FEF794FF0C220B213046FEF7FD
:1035E0008FFF0C2211463046FEF78AFF0C220D2178
:1035F0003046FEF785FF0C220E213046FEF780FF95
:103600000C220F213046FEF77BFF4FF633710091FD
:1036100002258DF8045003218DF8051000248DF843
:1036200006408DF8074069463046FEF72BFF724E84
:103630000C2200213046FEF763FF0C2201213046A8
:10364000FEF75EFF0C2202213046FEF759FF0C22E6
:1036500003213046FEF754FF0C2204213046FEF7CA
:103660004FFF0C2205213046FEF74AFF0C220621AF
:103670003046FEF745FF0C2207213046FEF740FF9B
:103680000C2208213046FEF73BFF0C220921304670
:10369000FEF736FF0C220A213046FEF731FF0C22DE
:1036A0000B213046FEF72CFF0C2211463046FEF768
:1036B00027FF0C220D213046FEF722FF0C220E219F
:1036C0003046FEF71DFF0C220F213046FEF718FF93
:1036D0004FF6FF71009169463046FEF7D3FE474E24
:1036E0000C2200213046FEF70BFF0C220121304650
:1036F000FEF706FF0C2202213046FEF701FF0C22E6
:1037000003213046FEF7FCFE0C2204213046FEF772
:10371000F7FE0C2205213046FEF7F2FE0C22114680
:103720003046FEF7EDFE0C220D213046FEF7E8FE96
:103730000C220E213046FEF7E3FE0C220F2130460C
:10374000FEF7DEFE4FF23F01009169463046FEF77C
:1037500099FE2B4E0C2200213046FEF7D1FE0C22A2
:1037600001213046FEF7CCFE0C2202213046FEF746
:10377000C7FE0C2203213046FEF7C2FE0C220421B4
:103780003046FEF7BDFE0C2205213046FEF7B8FE9E
:103790000C2209213046FEF7B3FE40F23F21009192
:1037A00069463046FEF76EFE029503940B200490A6
:1037B0000120059006940794089409950A94042022
:1037C0000B9010200C900D940E940F941094119463
:1037D0000002129013941494159402A81690179056
:1037E00009A8FEF72DFD01210220FEF717FD18B0F4
:1037F00070BD0000000C02400010024000140240A6
:103800000018024070470000054A002903D01168E3
:1038100001431160704711688143116070470000D7
:1038200030380240054A002903D011680143116075
:1038300070471168814311607047000010380240E2
:10384000054A002903D011680143116070471168CF
:10385000814311607047000034380240054A002956
:1038600003D01168014311607047116881431160F2
:103870007047000038380240054A002903D011681B
:103880000143116070471168814311607047000067
:1038900040380240054A002903D0116801431160F5
:1038A0007047116881431160704700002038024062
:1038B000054A002903D0116801431160704711685F
:1038C000814311607047000044380240054A0029D6
:1038D00003D0116801431160704711688143116082
:1038E000704700002438024070B5244B196801F07D
:1038F0000C01234C00291ED0224E04291DD008297A
:103900001DD00460196801F0F00109091E4A545CD9
:103910000168E14041601C6804F4E054A40A145DAD
:1039200021FA04F484601B6803F460435B0BD25CEF
:10393000D140C16070BD0460E4E70660E2E70F4A71
:10394000121F1168C1F38055116801F03F0135B1B4
:10395000B6FBF1F11468C4F38814614305E0B4FBCD
:10396000F1F11468C4F3881461431268C2F3014290
:10397000521C5200B1FBF2F10160C3E7083802406B
:103980000024F40040787D0148010020034B1A68B0
:1039900022F0EC6208431043186070470838024078
:1039A0000649002804D0086840F004000860704709
:1039B000086820F004000860704700000008065006
:1039C0002DE9FC470646002400940194002000F0F5
:1039D000AFF8800102D50E20BDE8FC872E4D694668
:1039E000288980B2FEF792FC0028F5D137202B4FB2
:1039F0004FF0060A4FF040094FF48068012E22D0A4
:103A00000199C90345D52989090439607860C7F847
:103A10000890FC60C7F81080384600F0AFF83720F7
:103A2000FCF7DAFC0028D7D13C60C7F804A0C7F83F
:103A30000890FC60C7F81080384600F09FF8062018
:103A4000FCF7CAFCC8E70199490320D52989090474
:103A500039607860C7F80890FC60C7F810800F489C
:103A600000F08CF83720FCF7B7FC0028B4D1022016
:103A70003860C7F804A0C7F80890FC60C7F8108049
:103A8000064800F07BF80620FCF7A6FCA4E72520FA
:103A9000A2E72520A0E7000014010020880A0020EA
:103AA0000149086070470000382C01400149086056
:103AB00070470000A080254210B50A4A01681160D5
:103AC000121D41681160141D216821F0F701D0E931
:103AD00002231A43D0E9043003431A430A43226005
:103AE00010BD0000242C014010B50121CC0220465D
:103AF000FFF7ECFE2046BDE810400021FFF7E6BED0
:103B000001480068C0B27047102C014001460020F7
:103B1000024A12680A4200D001207047342C01404A
:103B20000248006800F0030070470000002C0140CC
:103B300008B50349084400900098006808BD0000DB
:103B4000142C014030B5094B196847F6FF629143C8
:103B5000027D8468C568224344682C43224304687C
:103B60000069224302430A431A6030BD042C01401D
:103B70000148006870470000802C014010B5084AD9
:103B800001681160141D21686FF30A01D0E9012357
:103B90001A43D0E9033003431A430A43226010BD9D
:103BA000082C01400149086070470000002C0140CA
:103BB0002DE9F041014600241C484068032805D047
:103BC00038B1012805D0022803D02DE02720BDE818
:103BD000F081B1F5805F0CD04FF400670026144DE2
:103BE000B94212D10120FFF7EBFE0446200002D0BB
:103BF0001AE02720EBE72E752E606E60AE60EF6056
:103C00002E610B48FFF79EFF0EE00020FFF7D8FE65
:103C10000446200008D12E752E606E60AE60EE6006
:103C20002E610348FFF78EFF2046D0E714010020E5
:103C3000700A00202DE9F04397494F6880F85670CC
:103C40000989A0F85410DFF854C2DCF800100A0EFD
:103C500093090370C2F38303437002F0030282707E
:103C60000A0CC2700A0A02714171DCF80420110EBC
:103C70000901C180C2F30741C38843EA1113C3801D
:103C800001F00F010172C2F30721CB094372C1F3A6
:103C900080138372C1F34013C372C1F30013037323
:103CA0000023437364460126D4F80880002F4FEAAE
:103CB0001864C8F30745C8F3072904D0012F02D0C0
:103CC000022F3AD051E08907090D0161D1B2026992
:103CD00042EA81010161016941EA94110161C4F381
:103CE000C201017504F00701417569098175C5F3C9
:103CF0008201C175A907490F01764946027E42EA51
:103D0000D11202760269521C047EA41C06FA04F940
:103D1000A2FB094703FB09774FEAE97502FB05752A
:103D2000027A06FA02F70765A4FB072905FB079547
:103D300004FB0354C0E9122417E09106890A0161CB
:103D4000016941EA04210161016929430161494690
:103D50000269521C43F10004E40444EA5234D204E0
:103D6000C0E912244FF4007202651C30C1F38012C6
:103D700000F8032C8906490E00F8021C08F0FF0128
:103D800010F8022C42EAD11200F8022C01F07F0157
:103D900000F8011CDCF80C20110ECC090470C1F3F2
:103DA00041144470C1F3820484708907090FC17003
:103DB000C2F30741C47844EA9114C470C1F34014BB
:103DC0000471437101F001018171C2F30721CC0933
:103DD000C471C1F380140472C1F340144472C1F37E
:103DE00000148472C1F38104C47201F003010173F1
:103DF000D1B2490841738673284A103211680C0EFB
:103E000004740C0C24024482C1F30724458A254320
:103E100045820906416151680C0E456945EA044432
:103E20004461C1F30744456945EA04244461C1F390
:103E30000724456925434561017691680C0E447657
:103E40000C0C2406C461C1F30724C56945EA044487
:103E5000C461C9B2C46944EA0121C161D1680A0ED2
:103E6000C4691443C461C1F3074290F8204044EA96
:103E7000121480F820401207120D4284C1F3072269
:103E8000448C14434484C9B2490880F8241080F853
:103E900025601846BDE8F08314010020E8090020E1
:103EA00038B50024009400F0F5F8FFF71DFE4FF43C
:103EB000006529462748FEF733FB012808D000F0AB
:103EC00049F900909DF8000068B19DF8000038BDE8
:103ED000FEF7E8FFC08820A1C0EB001080B2FEF71B
:103EE0004BFF292038BD00F049F800909DF80000F4
:103EF00010B19DF8000038BD1A4804750460446094
:103F00008460C4600461FFF71DFE16485838FFF74F
:103F100091FE00909DF8000040B9124800215838E9
:103F2000B0F85400000400F0D7F900909DF80000AC
:103F300018B92846FFF73CFE0090FEF7B3FFC08893
:103F400009A1C0EB001080B2FEF716FF9DF800003B
:103F500038BD000000140240204E4F20434152441F
:103F600000000000700A0020204341524420494EC6
:103F7000495449414C495A45204F4B002DE9F84FCF
:103F8000002401200090FFF7CBFDE0B1DFF8FC80BA
:103F900000263F4DD8F804004FF0C0094FF4806769
:103FA00004282AD02E6002206860C5F80890EE60D0
:103FB0002F612846FFF7E2FDFCF78CFA044620004B
:103FC00003D0BDE8F88F2520FBE70020FFF7B0FD08
:103FD000DFF8BCA0AAF1900ACAF800000420FFF79D
:103FE000A7FDCAF804000820FFF7A2FDCAF80800E0
:103FF0000C20FFF79DFDCAF80C00D8F8040028B18A
:10400000012803D0062801D0022811D12E600320F8
:1040100068604020A860EE602F611D48FFF7AEFD8C
:1040200069460320FCF792FA0446200000D0C8E756
:10403000D8F80400042826D0BDF80000C8F808000D
:104040000004286009206860C5F80890EE602F61C0
:104050000F48FFF793FDFCF73DFA0446200000D01F
:10406000AFE70020FFF764FD094DA03D2860042064
:10407000FFF75EFD68600820FFF75AFDA8600C207E
:10408000FFF756FDE86020469BE700001401002082
:10409000880A00202DE9FC4101212C20FFF7B4FB08
:1040A000294D0C2208212846FEF72AFA0C22092164
:1040B0002846FEF725FA0C220A212846FEF720FAA8
:1040C0000C220B212846FEF71BFA0C22114628462B
:1040D000FEF716FA1D4F0C2202213846FEF710FAA1
:1040E0004FF47060009002218DF805108DF80410D7
:1040F00000248DF8064001268DF8076069462846A1
:10410000FEF7C0F90420009069463846FEF7BAF978
:10411000A81400908DF8074069462846FEF7B2F9CA
:10412000ED1400958DF804408DF807606946084845
:10413000FEF7A8F901212846FFF7BAFB01218805FF
:10414000FFF762FBBDE8FC8100080240000C024062
:10415000001402402DE9F84F00270097BB460024C9
:10416000A24600255948762101750760476087609F
:10417000C7600761FFF7E6FC0320FFF713FD01208E
:10418000FFF794FC514E183637607760B760F760E0
:104190004FF48069C6F810903046FFF7EFFCFCF74B
:1041A00006F900909DF8000018B19DF80000BDE8E8
:1041B000F88F4FF4D5703060082070604FF04008E1
:1041C000C6F80880F760C6F8109040481830FFF72E
:1041D000D5FCFCF7FBF900909DF8000018B33760A0
:1041E00037207060C6F80880F760C6F8109037482E
:1041F0001830FFF7C3FC3720FCF7EEF8009037606B
:1042000037207060C6F80880F760C6F810902F4815
:104210001830FFF7B3FC3720FCF7DEF800909DF86C
:10422000000090B34FE02A48012141608D07E6E786
:10423000376037207060C6F80880F760C6F81090C5
:1042400022481830FFF79AFC3720FCF7C5F8009099
:104250009DF8000010B19DF80000A8E71D48284314
:10426000306029207060C6F80880F760C6F81090AA
:1042700016481830FFF782FCFCF74EF900909DF8C5
:10428000000018B19DF8000091E706E00020FFF75C
:104290004FFC83464FEADB7A641CBAF1000F03D16E
:1042A0004FF6FF708442C3D34FF6FF70844204D3AD
:1042B0001B2000909DF8000079E71BF0804F02D092
:1042C0000348022141609DF8000070E7700A002059
:1042D000140100200000108010B5094A106007206A
:1042E0005060402090600020D0604FF480601061EA
:1042F0001046FFF743FCBDE810400720FCF76CB800
:10430000880A0020002A03D082880A4382807047EE
:1043100082888A438280704710B52A4988420AD130
:10432000841401212046FFF7D1FA2046BDE8104051
:104330000021FFF7CBBA244988420AD10414012195
:104340002046FFF7A7FA2046BDE810400021FFF7FE
:10435000A1BA1E4988420AD1C41301212046FFF7A1
:1043600099FA2046BDE810400021FFF793BA18499A
:1043700088420AD1441401212046FFF7A7FA2046BB
:10438000BDE810400021FFF7A1BA124988420AD1C6
:1043900001210C052046FFF799FA2046BDE81040A0
:1043A0000021FFF793BA0C4988420AD101214C053C
:1043B0002046FFF78BFA2046BDE810400021FFF7AA
:1043C00085BA10BD0030014000380040003C00407C
:1043D0000034014000500140005401402DE9FE43EB
:1043E0000446884625208DF8000000258DF80150F0
:1043F0008DF8025001268DF803606846FFF754F8E7
:104400002E492E48091D50F8240051F82410084365
:104410000121FFF7F9F929480121001F50F8240074
:10442000FFF746FA2548264F083810F81420001FD9
:1044300030F8141057F82400FEF762F81F4807F10F
:104440000409801F10F81420001F30F8141059F8C8
:104450002400FEF755F88DF80A508DF80B60022500
:104460008DF808501548103830F8140001908DF878
:10447000095057F8240001A9FEF704F88DF80850F8
:104480000E480E3830F81400019059F8240001A9A4
:10449000FDF7F8FF3D1F414655F8240000F0DEFA15
:1044A00055F82400012100F08BFA012240F2255139
:1044B000044800F0B8FABDE8FE8300001C6E020854
:1044C000AC000020001001401CB504460E4801213C
:1044D00050F82400FFF798F90B480A3830F8140018
:1044E000009001208DF8040000218DF806108DF851
:1044F000070002208DF805000448694650F82400A2
:10450000FDF7C0FF1CBD00004C6E0208B400002087
:104510000349044A31F8101052F820000183704713
:10452000426E0208B4000020044951F820104A6984
:10453000034B33F8100042404A617047B40000203A
:10454000426E02080349044A31F8101052F8200064
:10455000FDF7E6BF246E0208C400002070B586B0E7
:1045600004460E462548012150F82400FFF74CF977
:1045700001218803FFF79CF900258DF814508DF870
:1045800017501E48383830F8140004901C4804A90D
:1045900050F82400FDF776FF012E2DD1174826385C
:1045A00010F81410801F10F8140000F033F81348AE
:1045B000323830F8140002908DF80C501CB10C20E9
:1045C0008DF80D0002E008208DF80D0001258DF812
:1045D0000E5002A8FDF75CFD0848203810F81400C2
:1045E0008DF804000F208DF805008DF806008DF879
:1045F000075001A8FEF758FF06B070BD5C6E0208B8
:10460000C4000020704700000149086070470000A6
:10461000DC00274210B58A07120F0F23934021F0C8
:1046200003040649214401F608010C689C430C6010
:104630000B68904003430B6010BD00000030014048
:104640000CB50022019200922F49086840F4803096
:1046500008604FF4A043086800F40030009001980F
:10466000401C0190009810B901989842F3D1086855
:10467000800302D50120009000E000922248009AB9
:104680000830012A2FD1204A4032136843F080536A
:1046900013601E4A136843F44043136002680260CB
:1046A000026842F400420260026842F4A0520260D2
:1046B000031F174A1A600A6842F080720A600A688B
:1046C0009201FCD5134B40F205621A60026822F099
:1046D00003020260026842F0020202600268C2F352
:1046E0008102022AFAD1026822F40002026006481E
:1046F000094A84300260086840F0806008600868F9
:104700000001FCD50CBD00000038024000700040E4
:1047100019544007003C02408040003010B500F0C2
:104720001DF9BDE8104000F011B9000010B51248A5
:10473000016841F4700101601048016841F0010115
:1047400001600E4A00210832116002680C4B1A40C9
:104750000260031D0B4A1A60026822F48022026084
:1047600006480C300160FFF76BFF03494FF0006013
:104770008039086010BD000088ED00E0003802407C
:10478000FFFFF6FE1030002408B50021009104213F
:1047900001EB0010C0B2FDF7BFFF6846FDF740FF18
:1047A0009DF800009DF80110800040EA911008BDBE
:1047B00010B500F07BF8012000F096F8FDF7A2FCA0
:1047C000002010BD30B58FB004460D4601214805CC
:1047D000FFF71AF84FF0007000901748019002950B
:1047E00000210591001506900791089109910A9101
:1047F00004200B900C910D910E91012C0FD0002CE8
:104800000BD140200390012004900C4C2046FCF773
:1048100023FE69462046FCF7F1FE0FB030BD039140
:1048200002200490054C903C2046FCF715FE69469A
:104830002046FCF7E3FEF0E710540040A060024081
:1048400030B585B001210220FEF7DEFF012188038B
:10485000FFF72EF80425039500248DF810408DF8FD
:10486000134003A91048FDF70DFE02210120FFF7B8
:10487000D1FE00958DF804400C208DF80500012430
:104880008DF806406846FDF703FC08208DF8080007
:104890000F208DF809008DF80A008DF80B4002A852
:1048A000FEF702FE05B030BD000402401FB5002037
:1048B000ADF804004BF6FF70ADF80600A020ADF88F
:1048C00008004FF48060ADF80A000001ADF80C005C
:1048D0000348009069460348FEF758F81FBD0000E2
:1048E000A08601000054004010B5FFF7A9FF00208A
:1048F00010BD000010B50C20FFF746FF04460D2048
:10490000FFF742FF104A11888C4201D9611A00E07A
:10491000091B8BB25188884201D9411A00E0091A5B
:1049200089B21944052901D914805080064C108899
:10493000083460805088A0800E20FFF725FFE080BB
:10494000FDF7E0FB204610BD04010020024801688D
:104950000A310160704700000000002003488168B0
:10496000002902D08168491E816070470000002044
:1049700010B5054C204600F0CFF800F07F0120462E
:10498000BDE8104000F0CCB80010014010B50B4C51
:1049900040F22551204600F026F818B100210846C3
:1049A00001F074FE0821204600F016F8002804D01B
:1049B0002046BDE8104000F0AFB810BD0010014027
:1049C000002904D0818941F4005181817047818997
:1049D00021F40051818170470246002012880A426A
:1049E00000D00120704770B5002440F66A12C1F370
:1049F000421301F01F05012606FA05F2012B0CD027
:104A0000022B0DD0838A1340090A8E400088304063
:104A10000BB100B10124204670BD83891340F3E738
:104A2000038A1340F0E710B540F66A13C1F342134E
:104A300001F01F040121A140012B07D0022B07D058
:104A400014303AB102680A43026010BD0C30F8E736
:104A50001030F6E702688A43026010BD7FB5044655
:104A60000D46208A20F44051E88808432082A0891E
:104A700041F20C618843A9882A8911436A8902435B
:104A80001143A181A08A20F44071A8890843A08223
:104A90006846FEF729FF1E48844202D01D48844222
:104AA00001D1039800E00298A189090408D500EB20
:104AB000C00101EB001029684900B0FBF1F007E0EC
:104AC00000EBC00101EB001029688900B0FBF1F098
:104AD0006422B0FBF2F109010B096FF018056B437A
:104AE00000EB8300A3891D044FF0320307D503EBCD
:104AF000C000B0FBF2F000F00700084306E003EB53
:104B00000010B0FBF2F000F00F00084320817FBDE1
:104B100000100140001401408088C0F30800704775
:104B2000C1F308018180704710B5D0F8E4255268C0
:104B30009047002010BD10B5044694F812010228D9
:104B400006D0032804D02046BDE8104000F023B86A
:104B5000488801280CD10020C4F81801D4F8E405D5
:104B60008268204690472046BDE8104000F053B8C8
:104B700010BD10B5002413460A460021FCF774F856
:104B8000204610BD10B5002413460A460021FCF74C
:104B9000ABF8204610BD10B5044680212046FCF736
:104BA00087F800212046FCF783F82046BDE8104036
:104BB00001F0D0B910B50024C0F89423C0F89023B8
:104BC000032380F8113113460A460021FCF74CF804
:104BD000204610BD70B505460024052085F811015A
:104BE00000231A4619462846FCF73EF8284601F0ED
:104BF000B1F9204670BD10B50024C0F83C21C0F8C2
:104C00003821022380F8113113460A460021FCF7AF
:104C10006BF8204610BD70B505460024042085F8C9
:104C2000110100231A4619462846FCF75DF828466C
:104C300001F090F9204670BD70B50546002908D0F6
:104C4000D5F8E40542698AB395F81201032845D0E6
:104C500046E005F58E7495F811010026022833D13F
:104C6000E169A06881420FD9081AE061E87801285B
:104C700003D1D4E902100844E060A08BE16882B25D
:104C80002846FFF77FFF1FE0216AB1FBF0F200FB2F
:104C9000121262B981420AD3606A814207D20022AD
:104CA00011462846FFF76EFF66620DE015E0D5F865
:104CB000E405C16829B195F81201032801D12846FD
:104CC00088472846FFF786FF95F81601012807D187
:104CD000284600F0B1FA85F8166101E028469047B1
:104CE000002070BD70B50546002908D0D5F8E40550
:104CF00082690AB395F8120103282CD02DE005F53E
:104D00005D7495F81101032827D1E169A0688142FB
:104D100013D9081AE061E878012803D1D4E9021018
:104D20000844E060E169A068814200D2084682B28E
:104D30002846E168FFF71DFF0FE0D5F8E40501699B
:104D400029B195F81201032801D128468847284641
:104D5000FFF761FF01E028469047002070BD00206A
:104D6000704710B50446D4F8E80540698047012033
:104D700084F81501002010BD10B50446D4F8E805EC
:104D800080698047D4F8E4050021426820469047B6
:104D9000002084F8150110BDCA88012A01D0FFF750
:104DA000FABE90F81221022A03D0032A05D0FFF799
:104DB000F2BE01220349FFF71EBF012200F58871F0
:104DC000FFF719BFB401002038B504460D466888C6
:104DD000010A082972D2DFE801F09F04152D9F9F78
:104DE0006A81D4F8EC15A0780A68694690470146B4
:104DF000E888402803D094F8120101287DD10820CA
:104E000000907AE0D4F8E415A0788A6A6946904761
:104E10000146A078012808D1227A012A05D1D4F8C8
:104E2000E415CA6A69469047014602204870C4F8F2
:104E3000F01562E0C0B2062834D2DFE800F0030BC0
:104E4000131B232BD4F8EC15A0784A6869469047C9
:104E5000014652E0D4F8EC15A0788A68694690477C
:104E600001464AE0D4F8EC15A078CA686946904734
:104E7000014642E0D4F8EC15A0780A6969469047EB
:104E800001463AE0D4F8EC15A0784A6969469047A3
:104E9000014632E0D4F8EC15A0788A69694690475B
:104EA00001462AE029462046FFF775FE38BDA07866
:104EB00028B129462046FFF76EFE38BD2CE0D4F815
:104EC000E4158A6A694690471649827B0A71C27B5B
:104ED0004A71007C88710A2000900EE0A07820B111
:104EE00029462046FFF757FEE7E7D4F8E415CA6ADB
:104EF00069469047014607204870BDF80000002829
:104F0000DBD0EA88002AD8D0824200D9024600923B
:104F10002046FFF770FED0E729462046FFF73BFE0C
:104F2000CBE700005A000020002102E0491CC9B272
:104F3000401C0278002AF9D10846704790F81221E7
:104F4000022A03D0032A01D0FFF725BE0649012219
:104F5000CA60D0F818210AB10322CA6002490222AD
:104F60000C31FFF748BE0000AC01002070B50446CC
:104F70000D461646002C16D02046FFF7D5FF02211D
:104F800001EB40003080287003210220697000236B
:104F900006E0411CC9B22A54641C481CC0B26B54C0
:104FA0002278002AF5D170BD2DE9F0410446069F14
:104FB000884616461D46204600F026FD2046FFF78F
:104FC000CEFEC4F8E455C4F8E875C4F8EC65414673
:104FD0002046FCF79BF8D4F8E80500688047204697
:104FE000BDE8F04100F0DCBC10B5D0F8E415096A6A
:104FF0008847002010BD10B5D0F8E415496A8847ED
:10500000002010BD38B504462069426C416BC1F3E5
:10501000400142EAC112E169896811400091C90763
:105020000DD0416B21F00201416301200090E16944
:105030008860174801210068426820469047009820
:10504000800703D502200090E1698860009800077E
:1050500003D508200090E16988600098C00603D558
:1050600010200090E16988600098400603D5402038
:105070000090E16988600098000607D5012120466C
:10508000FCF7D8F880200090E1698860012038BDE5
:10509000A40100201CB50446A16D88682269D2F8DD
:1050A000842010400190C00715D001200190886035
:1050B000E078012809D1A06D00690090D4F8A4130C
:1050C000C0F31200081AC4F8B403074801210068AD
:1050D0000268204690470198800703D5022001907E
:1050E000A16D886001201CBDA40100207CB506468E
:1050F0000024304601F03DF9002854D0304601F03C
:1051000041F90546019000284FD0280303D53046C9
:10511000FBF79AFE0446680303D53046FBF72AFEE8
:105120000443A80703D502200090F1684861002DD0
:1051300003DA3046FBF7E4FE0443280503D5304686
:10514000FBF752FF0443280703D53046FBF73EFF29
:105150000443E80603D53046FBF7F4FE0443E804B5
:1051600003D53046FBF77AFF0443A80403D5304645
:10517000FBF7D4FD0443E80203D53046FCF70AF8F8
:105180000443A80203D53046FCF714F80443680032
:1051900003D53046FCF73EF80443680703D5304694
:1051A000FCF718F8044320467CBD00207CBD90F835
:1051B000CC250A7090F8CD254A7090F8CE2590F84D
:1051C000CF3502EB03224A8090F8D02590F8D135F4
:1051D00002EB03228A8090F8D22590F8D33502EBB7
:1051E000032292B2CA80C0F84021012180F8111137
:1051F000704710B504460023402219462046FBF7AD
:1052000015FD0023402280212046FBF70FFD0120E1
:1052100084F81201D4F8E815A0784968884700207E
:1052200010BD10B50446D4F8E80500698047032096
:1052300084F81201002010BD02490968006941602C
:1052400000207047A801002010B5D0F8E415C96906
:10525000002900D08847002010BD70B5044688881A
:10526000002801D1C88820B12046BDE87040FFF772
:1052700092BC887800F07F0594F8120103280DD0C5
:1052800084F8145129462046FBF70AFD2046FFF713
:10529000C2FC45B1022084F8120170BD2046BDE871
:1052A0007040FFF778BC012084F8120170BD10B582
:1052B0000446D4F8E405026820469047D4F8E8058F
:1052C00080688047002010BD70B504460846284D10
:1052D00081782970012905D901462046BDE8704032
:1052E000FFF759BC94F81221022A07D0032A18D0DC
:1052F00001462046BDE87040FFF74DBC61B184F81F
:105300001011032084F812012046FFF7D0FF204639
:10531000BDE87040FFF77FBC2046BDE87040FFF756
:105320007ABC91B194F8100188421BD00146204606
:10533000FFF7FAFB297884F810112046FFF7B7FF32
:105340002046BDE87040FFF766BC022084F81201D9
:1053500084F810112046FFF7E7FB2046BDE87040B7
:10536000FFF759BC2046BDE87040FFF754BC000071
:10537000AC01002038B5044648880122012810D02D
:1053800002283CD1888810F0FF0F38D12169496884
:105390000091000A062828D2DFE800F0270F141930
:1053A0001E23C4F81821D4F8E405826820469047EB
:1053B0002046BDE83840FFF72EBC21F070001030C9
:1053C000009012E021F07000203000900DE021F0FC
:1053D00070003030009008E021F070004030009004
:1053E00003E021F070005030009005480099016002
:1053F00084F816212046BDE83840FFF70CBC38BDC4
:10540000A80100201CB5044669462046FFF7CFFEE0
:105410009DF8002012F01F010AD001290DD00229A9
:1054200010D002F080012046FBF742FC00201CBD9A
:105430006946204600F00BF8F8E76946204600F080
:10544000BBF8F3E76946204600F026F8EEE710B512
:1054500000244A780A2A1BD2DFE802F011171A1436
:105460001A08051A0E0BFFF7AFFC13E0FFF7F5FE65
:1054700010E0FFF729FF0DE0FFF78EFC0AE0FFF7D1
:105480005DFD07E0FFF776FF04E0FFF754FB01E066
:10549000FFF781FB204610BD70B504460D4600267F
:1054A0002979687800284BD0012825D0032851D1CC
:1054B00094F81201022806D003280BD02946204672
:1054C000FFF769FB46E009B3802943D02046FBF78C
:1054D000EFFB3FE0688828B921B1802902D020463F
:1054E000FBF7E6FBD4F8E40529468268204690479E
:1054F0002046FFF790FB2DE094F81201022806D019
:1055000003280BD029462046FFF745FB22E009B3CC
:1055100080291FD02046FBF7CBFB1BE06888C8B969
:1055200051B1802908D02046FBF764FBD4F8E4058C
:1055300029468268204690472046FFF76CFB09E029
:1055400094F81201022807D003280DD029462046DE
:10555000FFF721FB304670BD0029FBD08029F9D030
:105560002046FBF7A5FBF5E7124A08064FF00005B9
:105570004FF001030CD501F07F0000EB800004EB3D
:10558000C00090F81E0108B153600BE0556009E0BF
:1055900001EB810004EBC00090F8760308B1536082
:1055A00000E0556003490222091D2046FFF723FB56
:1055B000D0E70000AC01002070B504460D4600267F
:1055C00094F81201032805D029462046FFF7E3FA94
:1055D000304670BD287901280CD8D4F8E405294656
:1055E000826820469047E8880028F1D12046FFF7DE
:1055F00012FBEDE729462046FFF7CDFAE8E710B5A4
:1056000000F589700178417004210170D0F8D6044A
:10561000C0688047002010BD10B5002806D00A469B
:10562000054906A0FFF7A2FC034810BD0A4602493F
:1056300002A0FFF79BFCF7E7984900205643502053
:10564000436F6E666967000003494FF6FF7008807C
:1056500002A001F071B80000680100203E2056430E
:105660005020496E7465726661636520636F6E6673
:105670006967757265642E0A0000000003494FF6E1
:10568000FF70088002A001F057B8000068010020F8
:105690003E205553422044657669636520436F6E12
:1056A0006E65637465642E0A000000001220088095
:1056B000004870474800002003494FF6FF700880FB
:1056C00002A001F039B80000680100203E205553C7
:1056D000422044657669636520446973636F6E6E2A
:1056E00065637465642E0A00002804D0012805D083
:1056F00004A0FDF74DBC0CA0FDF74ABC13A0FDF7BC
:1057000047BC0000202020202055534220446576CD
:10571000696365204C6962726172792076312E313D
:105720002E30205B3F3F5D0020202020205553423B
:1057300020446576696365204C69627261727920E4
:1057400076312E312E30205B48535D002020202002
:105750002055534220446576696365204C69627226
:105760006172792076312E312E30205B46535D00F8
:1057700003494FF6FF70088002A000F0DDBF000073
:10578000680100203E2055534220446576696365D8
:1057900020696E2049646C65204D6F64652E0A0097
:1057A00003494FF6FF70088002A000F0C5BF00005B
:1057B000680100203E2055534220446576696365A8
:1057C00020696E2053757370656E64204D6F64653B
:1057D0002E0A000010B50020FEF776FE0120FEF72D
:1057E00073FE0220FEF770FE0320FEF76DFEFDF74C
:1057F0005FFBFDF7C5FB07A0FDF7E4FB0B494FF688
:10580000FF7008800AA000F097FFBDE8104010A0CC
:10581000FDF7BEBB20555342204F5447204853202C
:105820005643502044657669636500006801002096
:105830003E2055534220646576696365206C696239
:105840007261727920737461727465642E0A00004B
:10585000202020202055534220446576696365202E
:105860004C6962726172792076312E312E300000DF
:1058700010B5002806D00A46054906A0FFF776FBBA
:10588000034810BD0A46024902A0FFF76FFBF7E785
:105890009849002056435020496E746572666163D2
:1058A0006500000004200880004870474400002084
:1058B00010B50A46024903A0FFF758FB004810BD87
:1058C0009849002053544D6963726F656C65637429
:1058D000726F6E696373000010B5002806D00A4627
:1058E000054906A0FFF742FB034810BD0A460249DE
:1058F0000BA0FFF73BFBF7E79849002053544D33CB
:1059000032205669727475616C20436F6D506F72EE
:105910007420696E204653204D6F646500000000BE
:1059200053544D3332205669727475616C20436F45
:105930006D506F727420696E204853206D6F6465DE
:105940000000000010B5002806D00A46054906A050
:10595000FFF70CFB034810BD0A46024906A0FFF7FB
:1059600005FBF7E7984900203030303030303030D8
:1059700030353043000000003030303030303030CF
:105980003035304200000000432008800048704756
:10599000E4010020432008800048704727020020CF
:1059A00038B54FF4C0652846FDF7B2FD4D208DF89F
:1059B000000001248DF8014003218DF802108DF8BC
:1059C00003406846FDF770FD2846FDF7A1FD4A211A
:1059D0008DF800108DF8014002208DF802008DF83E
:1059E00003406846FDF760FD2846FDF791FD4B201A
:1059F0008DF800008DF801408DF802408DF80340CD
:105A00006846FDF751FD38BD2DE9FC5F012140F2EC
:105A10008710FDF7F9FE494F0A2203213846FCF7AB
:105A20006FFD0A2205213846FCF76AFDDFF8108178
:105A30000A2200214046FCF763FD0A22012140466C
:105A4000FCF75EFD0A2205214046FCF759FD0A22BB
:105A500011464046FCF754FD0A220B214046FCF754
:105A60004FFD0A220C214046FCF74AFD0A220D2177
:105A70004046FCF745FDDFF8CC900A220421484659
:105A8000FCF73EFDDFF8C0A00A220B215046FCF7D0
:105A900037FDDFF8B8B00A2200215846FCF730FD88
:105AA0002020009003248DF8054002258DF8045035
:105AB00069463846FCF7E6FC082000908DF8054062
:105AC0008DF8045000268DF806608DF80760694651
:105AD0003846FCF7D7FC43F6234000908DF805408C
