:020000040800F2
:10000000583B01209D010008CB0E00083109000873
:10001000C90E000899020008292700080000000006
:10002000000000000000000000000000ED250008B6
:100030002506000800000000310F0008C92600084E
:10004000B7010008B7010008B7010008B7010008B0
:10005000B7010008B7010008B7010008B7010008A0
:10006000B7010008B7010008B7010008B701000890
:10007000B7010008B7010008B7010008B701000880
:10008000B7010008B7010008B7010008B701000870
:10009000B7010008B7010008B7010008B701000860
:1000A000B7010008B7010008B7010008B701000850
:1000B000B7010008B7010008B7010008B701000840
:1000C000B7010008B7010008B7010008B701000830
:1000D000B7010008B7010008B7010008B701000820
:1000E000B7010008B7010008B7010008B701000810
:1000F000B7010008B7010008B7010008B701000800
:10010000B7010008D9110008B7010008B7010008BD
:10011000B7010008B7010008B7010008B7010008DF
:10012000B7010008B7010008B7010008290400085A
:10013000B7010008B7010008B7010008B7010008BF
:10014000B7010008B7010008B7010008B7010008AF
:10015000B7010008B7010008B7010008B70100089F
:10016000B7010008B7010008B7010008B70100088F
:10017000B7010008B7010008B7010008B70100087F
:10018000B7010008B7010008DFF80CD000F03CF818
:100190000048004779380008583B0120064880474E
:1001A00006480047FEE7FEE7FEE7FEE7FEE7FEE75C
:1001B000FEE7FEE7FEE7FEE7CD260008890100081E
:1001C00040EA01039B0703D009E008C9121F08C0D9
:1001D000042AFAD203E011F8013B00F8013B521E59
:1001E000F9D27047D2B201E000F8012B491EFBD2D0
:1001F00070470022F6E710B513460A460446194632
:10020000FFF7F0FF204610BD064C074D06E0E06802
:1002100040F0010394E8070098471034AC42F6D34D
:10022000FFF7B6FF40BD020860BD020810B5002010
:1002300002F0B8F9012002F0B5F9022002F0B2F99B
:10024000032002F0AFF901F0A7FF00F035FD04A094
:1002500000F06CFD07A000F037FD002010BD00008D
:100260004641545F4653202B206D6963726F53449F
:100270000000000020202020202020204641542083
:100280004653206578616D706C65202076312E3084
:100290002E30726334000000FEE7000070B537496D
:1002A00005460024086810F0450FFBD0410702D531
:1002B0000324042003E0C00704D00124204600F0FA
:1002C00025FF59E000F05EFFA8422BD140F2FF501D
:1002D00000F01CFF002000F077FF294908424BD0B6
:1002E000002801DA1C2070BD410001D5092070BD35
:1002F000810001D50A2070BDC10001D50B2070BD61
:10030000010101D50C2070BD410101D50D2070BD4A
:10031000C10101D50E2070BD010201D50F2070BDB5
:10032000410201D5102070BD810201D5112070BDA0
:10033000C10201D5122070BD010301D5132070BD8B
:10034000410301D5142070BD810301D5152070BD76
:10035000C10301D5162070BD010401D5172070BD61
:10036000410401D5182070BD810401D5192070BD4C
:10037000000701D51A2070BD204670BD342C014005
:1003800008E0FFFD10B50B480024016811F0450F8F
:10039000FBD0480702D50324042003E0C80705D09A
:1003A0000124204600F0B2FE204610BD40F2FF506E
:1003B000F8E70000342C014070B50C461949064698
:1003C0000025086810F0450FFBD0410702D5032433
:1003D000042003E0C00705D00124204600F096FE6B
:1003E000204670BD00F0CEFEB04212D140F2FF5068
:1003F00000F08CFE002000F0E7FE10F4604F03D008
:10040000810404D5132070BD000C208007E0410456
:1004100001D5102070BD000401D50F2070BD284605
:1004200070BD0000342C014001F004BC074A90422A
:1004300001D2074801E005481038064A8B0001EA5E
:10044000020101D5C16070478160704710640240AD
:10045000006002407D0F7D0F0029016802D041F04D
:10046000010101E021F00101016070472DE9F04335
:10047000016821F00101016000210160416081609B
:10048000C1600161212141613C493C4A3D2510394F
:10049000904202D18D60BDE8F083384A4FF4746613
:1004A0001832904201D18E60F5E7344A4FF4741748
:1004B0003032904201D18F60EDE7304A4FF0746CDA
:1004C0004832904202D1C1F808C0E4E72B4B2C4AD5
:1004D0006033984201D1CA60DDE7284C294B78345B
:1004E000A04201D1CB60D6E7DFF89080264C08F11E
:1004F0009008404501D1CC60CDE7DFF880804FF017
:100500003D5908F1A808404502D1C1F80C90C2E756
:100510001E49DFF878800839404501D10D60BAE7FF
:100520001A4D1835A84201D10E60B4E7174D303589
:10053000A84201D10F60AEE7144D4835A84202D160
:10054000C1F800C0A7E7114D10496035091FA84246
:1005500001D10A609FE70D4A7832904201D10B60C9
:1005600099E70A4A9032904201D10C6093E7074A1A
:10057000A83290428FD1C1F800908CE71060024001
:100580003D000020400F002000003D20106402408C
:100590000029016802D041F0200101E021F0200192
:1005A000016070470B0607D5436912B143F0800321
:1005B00001E023F080034361802908D0002A02680B
:1005C00001F01E0101D00A4300E08A430260704737
:1005D00030B50368124ACC6813400A682243D1E957
:1005E00005452C432243CC6922430C6A22434C6AC2
:1005F00022438C6A22434C6B22438C6B22431A4366
:100600000260426922F00703D1E90B2422431A4316
:1006100042610A6942604A6882608968C16030BD8F
:100620003F801CF07047000001B581B0044901987B
:1006300048430090002801D0401EFAE70CBD00009E
:10064000A08601008000A0F1C0400029016802D00E
:1006500041F0010101E0024A1140016070470000D1
:10066000FEFF0F0010B5D0E901121143D0E90323BA
:100670001A4311434269114382691143C26911430C
:10068000026A1143426A1143826A1143C26A1143EA
:10069000026B114302689200A2F1C04211608168AE
:1006A000082907D101688900A1F1C0410A6842F018
:1006B00040020A60416BD1E9002342EA03128B68D1
:1006C0008C891B0243EA04431A430B8A42EA035211
:1006D0000B7D896942EA03620A4301688900A1F13E
:1006E000C0414A60C16AB1F5804F08D000686FF020
:1006F00070418000A0F1C040C0F8041110BD816BB2
:10070000D1E9002342EA03128B680C8A1B0243EAF8
:1007100004531A430B7D896942EA036200680A4365
:100720008000A0F1C040C0F8042110BD2DE9FC5F9D
:100730000025484C00954FF4806801954027C4F887
:100740001080C4E902750E464FF0080B1021C4E971
:1007500000B1A946204600F069FD1020FFF79EFD7C
:1007600000284CD13C48BA464F460089000420601E
:100770003720C4E9010AC4E90398204600F056FD79
:100780003720FFF78BFD002839D1411E04F11400FA
:10079000C0E9001B302181600221C0E9031701215B
:1007A000416100F0CBFC3320C4F808A0C4E900701C
:1007B000C4E90378204600F039FD3320FFF76EFDD1
:1007C00004001CD1254F4FF4001AE94640F22A6874
:1007D000386810EA080F0AD1504600F0D9FC00280A
:1007E000F6D000F01DFD49F825006D1CF0E708204B
:1007F00000F0CEFC28B1082000F088FC0420BDE801
:10080000FC9F022000F0C4FC20B1022000F07EFC1E
:100810000220F4E7202000F0BBFC20B1202000F0F3
:1008200075FC0620EBE74FF40075284600F0B0FC9D
:1008300020B1284600F06AFC0720E0E740F2FF50B4
:1008400000F064FC009800BA7060019800BA306053
:100850002046D4E7300100204C000020342C014019
:10086000F0B50023012403270D6804FA03F21540B4
:10087000954242D1D0F800C05E0007FA06F52CEA96
:10088000050CC0F800C091F804C0D0F800E00CFAE4
:1008900006FC4CEA0E0CC0F800C091F804C0BCF194
:1008A000010F02D0BCF1020F1FD1D0F808C02CEA12
:1008B000050CC0F808C091F805C0D0F808E00CFAA3
:1008C00006FC4CEA0E0CC0F808C0D0F804C02CEAB4
:1008D000020CC0F804C0426891F806C00CFA03FC90
:1008E0001FFA8CFC42EA0C024260C268AA43C26052
:1008F000CA79C568B2402A43C2605B1C102BB3D3CF
:10090000F0BD4B07DB0E9A40C90810B500EB810023
:10091000016A0F249C40A1430162016A11430162F4
:1009200010BD0246002012690A4200D00120704723
:10093000FEE730B50546002440F23F11204600F0A6
:100940009BFA4FF0D041222008804FF496304D8022
:10095000641C8442FBD330BD70B5064640F23F14A0
:10096000084D08E020222146304600F0A7F86868CC
:100970008088201A84B26968601C80B289888842A5
:10098000F0D270BD2C0000201CB50121782000F0B1
:10099000D1FA4CF23370009002208DF804008DF8EB
:1009A000050000208DF80600404C8DF807006946D0
:1009B0002046FFF755FF0C2200212046FFF7A1FF3C
:1009C0000C2201212046FFF79CFF0C220421204627
:1009D000FFF797FF0C2205212046FFF792FF0C221C
:1009E00008212046FFF78DFF0C2209212046FFF742
:1009F00088FF0C220A212046FFF783FF0C220E21DC
:100A00002046FFF77EFF0C220F212046FFF779FFDB
:100A10004FF68070264C009069462046FFF720FF75
:100A20000C2207212046FFF76CFF0C2208212046EC
:100A3000FFF767FF0C2209212046FFF762FF0C2217
:100A40000A212046FFF75DFF0C220B212046FFF70D
:100A500058FF0C2211462046FFF753FF0C220D21B0
:100A60002046FFF74EFF0C220E212046FFF749FFDC
:100A70000C220F212046FFF744FF01200D4C00906F
:100A800069462046FFF7ECFE0C2200212046FFF7C6
:100A900038FF2015084C009069462046FFF7E0FE1D
:100AA0000C220A212046FFF72CFF1CBD000C02403F
:100AB000001002400014024000180240064B10B41F
:100AC0005B68203AD2B21C68DB88534304EB4302D4
:100AD00010BC00F033B800002C000020F0B50D462B
:100AE000074640F23F140A4E08E021463846FFF719
:100AF000E5FF70688088201A84B26D1C2A78002A6D
:100B000005D07168601C80B289888842EDD2F0BD42
:100B10002C00002070B50546002440F23F1120460D
:100B200000F0AAF900F0C6F94FF49636288800F0D4
:100B3000BDF9641CAD1CB442F8D370BD2DE9F0437F
:100B4000904689460026054600F096F94FF0D047BA
:100B5000184C29E02220388000201BE00C23B1FB38
:100B6000F3F34FEAC30C802303FA0CF338F816C0F2
:100B7000034113EA0C0F01D10C2906D9012383404C
:100B80001CEA030F03D10C2901D9618800E02188F8
:100B90007980401C91888142E0D86D1CADB24946F5
:100BA000284600F069F9761C6268D088B042D1D836
:100BB000BDE8F0832C00002070B50546002440F20B
:100BC0003F11204600F058F900F074F94FF49636C2
:100BD000288800F06BF9641C6D1CB442F8D370BD1A
:100BE000F0B50546002440F23F11204600F044F9DC
:100BF0004FF0D043222018800B4801224FF4166C8E
:100C00005FF0000155F8247002FA01F6374201D175
:100C1000468800E006885E80491C2029F2D3641CC7
:100C20006445EDD3F0BD00002C00002000B501218B
:100C300097B0084600F08AF905200F90002009219E
:100C4000CDE91001149004211590CDE90010129007
:100C50001021CDE90201139004900590069009023D
:100C60000790CDE908010A900B900C900FA80D9009
:100C70000E906846FFF7F6FC01210420FFF7E2FC26
:100C800017B000BD01484068704700002C000020EC
:100C900008484FF6FF7181800021C18001814181A8
:100CA0008181C1810122027041708170C170018215
:100CB000704700006C00002010B5FFF7E9FFBDE8A9
:100CC00010400020FFF735BE70B505468AB01F20E2
:100CD00000F0CAF8FFF7D6FF0446002069464FF43B
:100CE000A072202302E00B54401CC0B2A688B2FBC5
:100CF000F6F6761E8642F6DCA088B2FBF0F00844D9
:100D0000002100F8011CE0886946C0F1F00080B2C3
:100D1000FFF7E4FEE0882946C0F1F00080B2FFF75B
:100D2000DDFE002000F0A0F80AB070BD70B588B0FC
:100D30000021034600E0491C13F8012B002AFAD1D8
:100D40001A2900D91A21002220246B469C54521CD7
:100D50001B2AFBD30022C1F11B0404E0855C02EBDB
:100D60005406521C9D558A42F8D30020FFF7E1FD3E
:100D7000104800F08DF8FFF785FF04464FF6FF7529
:100D8000284600F08BF81F2000F06EF80020FFF7D7
:100D9000E3FDE0886946FFF7A1FEE08805EA400030
:100DA000FFF7DAFD002000F05FF8034800F070F86C
:100DB00008B070BD3C000020440000202DE9F04741
:100DC0000024FFF75FFF234D0646234F68890B2859
:100DD0001AD22989884217D300EB800101EBC000A9
:100DE00007EB8000408E00F059F86889F28800EB2C
:100DF000800101EBC00107EB8101BDE8F047C01C99
:100E0000424390B2FFF76ABE2989884201D20C3072
:100E100080B20B3885B2B8464FF00C096119B1FBAE
:100E2000F9F209FB121000EB800101EBC00108EBA5
:100E30008107788E00F032F8F088E21C5043394682
:100E400080B2FFF74BFE641CE4B20C2CE6D3BDE885
:100E5000F08700006C000020E83201204FF0D04104
:100E6000088048887047000001B5BDF800000149BE
:100E7000488008BD2C0000200B4600B5014620200C
:100E800000F01DF8194621205DF804EB00F017B8BA
:100E900001494860704700002C00002001B5BDF8F2
:100EA00000000149088008BD2C0000204FF0D0410F
:100EB000488070474FF0D0412220088070474FF0A3
:100EC000D042108051807047FEE7704730B50F2246
:100ED000C47801780123FCB1144C246801F1E021AD
:100EE00004F4E064C4F5E064C4F30724C4F1040529
:100EF000E2404478AC408578154025432A0181F8CA
:100F00000024007800F01F018B404009800000F1B0
:100F1000E020C0F8003130BD01F01F0083404809D7
:100F2000800000F1E020C0F8803130BD0CED00E021
:100F300070470000044A0029116801D0014300E015
:100F4000814311607047000030380240044A002994
:100F5000116801D0014300E0814311607047000037
:100F600038380240044A0029116801D0014300E0EA
:100F7000814311607047000044380240044A002950
:100F8000116801D0014300E0814311607047000007
:100F90002438024070B500F0B5FB134C4FF6FF75D6
:100FA00038B14FF47840208010A001F0BFFB11A0B1
:100FB00015E047F6FF76268016A001F0B7FB2580E6
:100FC00000F0F0FA00280DD11848016821F0706196
:100FD0000160016841F0A0610160268014A001F069
:100FE000A5FB258070BD0000700000204552524FC7
:100FF000523A20005344494F20534420696E69748B
:1010000069616C697A6174696F6E206661696C658B
:1010100064200A00275344494F20534420696E74CA
:1010200069616C697A65640A000000000438024056
:101030002753776974636820746F20686967682D27
:101040007370656564206D6F64650A002DE9FC4767
:101050000025804600952846019500F0B5F88001EE
:1010600002D50E20BDE8FC87264F6946388980B23C
:10107000FFF75CFB0028F5D13720234C402601996F
:101080004FF0060A4FF48069B8F1010F1FD0C90371
:1010900035D53989C4F810900904C4E90010C4E9B1
:1010A0000265204600F0C2F83720FFF7F7F8002865
:1010B000D8D1C4E9005AC4F8109000BFC4E9026551
:1010C000114800F0B3F80620FFF7E8F8CAE7490333
:1010D00015D53989C4F810900904C4E90010C4E991
:1010E0000265094800F0A2F83720FFF7D7F800287A
:1010F000B8D10220C4F81090C4E9000ADEE7252028
:10110000B0E700004C0000203001002001490860D9
:1011100070470000382C014001490860704700000A
:10112000382C01400149C1F8A000704700802542D9
:1011300001490860704700008C85254210B50A4AB5
:1011400001681160121D41681160121D116821F0C3
:10115000F703D0E902142143D0E9044004432143BA
:101160001943116010BD0000242C014010B501216D
:10117000CC022046FFF702FF2046BDE810400021C8
:10118000FFF7FCBE01480068C0B27047102C014058
:10119000034A0146002012680A4200D0012070472D
:1011A000342C0140034A0146002012680A4200D054
:1011B00001207047342C01400248006800F0030011
:1011C00070470000002C014008B502490844009017
:1011D000006808BD142C014000F040BD044A0029FD
:1011E000116801D0014300E08143116070470000A5
:1011F0003C2C014030B5094B1A6847F6FF618A4321
:10120000017D8468C568214344682C4321430468F8
:101210000069214301431143196030BD042C014092
:101220000148006870470000802C014010B5084A52
:1012300001681160121D1168CB0AD0E90114214325
:10124000D0E903400443DB0221431943116010BD80
:10125000082C01400149086070470000002C014043
:1012600008B501208DF80000C1020548FFF759FBC1
:1012700010B100208DF800009DF8000008BD0000AE
:10128000001402402DE9F04101461948002640684B
:10129000032813D018B1012801D0022825D1B1F5B7
:1012A000805F0BD04FF400670025124CB9420ED17D
:1012B0000120FFF7CBFE060003D016E02720BDE893
:1012C000F081257525606560C4E9025709E00020BA
:1012D000FFF7BCFE060008D1257525606560A56096
:1012E000E56004482561FFF785FF3046E7E7000029
:1012F0004C000020180100202DE9F0439849DFF848
:101300006492D1F804C080F856C00989A0F854103E
:10131000D9F800100A0E94090470C2F383044470D3
:1013200002F0030282700A0CC2700A0A0271417153
:10133000D9F80470390E0901C180C288C7F307418A
:1013400042EA1112C28001F00F010172C7F30722B5
:10135000D1094172C2F380118172C2F34011C1728E
:10136000C2F300110173002141734B469D680123B4
:101370002E0EC5F30744C5F30728BCF1000F06D0B5
:10138000BCF1010F03D0BCF1020F3BD052E0920739
:10139000120D0261FAB2076947EA8202026102692C
:1013A00042EA96120261C6F3C202027506F0070213
:1013B000427562098275C4F38202C275A207520F98
:1013C0000276047E424644EAD21404760469077E1B
:1013D000BF1C03FA07F6641CA4FB06784FEAE67C00
:1013E00001FB068604FB0C6690F808C003FA0CF4B7
:1013F000A7FB04C8046506FB048407FB0144C0E99D
:1014000012C417E0BA06920A0261026942EA062291
:10141000026102692243026104694246641C41F18F
:101420000006F60446EA5436E404C0E912464FF4D6
:1014300000740465C2F3801444769206520E00F8DC
:101440001A2FEAB2057845EAD21500F8015B02F0DE
:101450007F0200F8012BD9F80C40220ED50900F8C4
:10146000015BC2F3411500F8015BC2F3820500F88D
:10147000015B9207120F02700578C4F3074245EA38
:10148000921500F8015BC2F340150570417002F03F
:1014900001028270C4F30722D509C570C2F380151A
:1014A0000571C2F340154571C2F300158571C2F391
:1014B0008105C57102F003020272C4F34602427252
:1014C0008372284C10342268150E0573150C2D02FA
:1014D000C581C689C2F307252E43C6811206026163
:1014E00062680669150E46EA054505610669C2F39C
:1014F000074546EA052505610669C2F307252E431F
:1015000006610275A268150E4575150C2D068561DC
:101510008669C2F3072546EA054585618569D2B229
:1015200045EA02228261E268856945EA12658561C1
:10153000057FC2F3074445EA141505772407240DF7
:10154000C483C58BC2F307242543C583C2F3460277
:1015500080F8202080F821300846BDE8F0830000A4
:101560004C0000209000002008B500200090FFF7FC
:1015700077FE012803D1684600F08CFC08B1FF20FB
:1015800008BD0098C0F3432008BD10B5FFF7ECFF7D
:10159000042803D0FF2803D0012010BD002010BD77
:1015A000022010BD2DE9F04393B0002500954021A5
:1015B00002A80195FEF71DFE4E4802AE05700561BA
:1015C000C5604D490D600089694680B2FFF7AEF8ED
:1015D000002856D1019911F0407F52D0474C4FF06E
:1015E00040081021E4E8028140464FF4806984E815
:1015F00021024248083CFFF719FE1020FEF74EFE7C
:1016000000283ED1471E3D48602114300760C0E9E4
:1016100001810221C0E9031501214161FFF78EFD1F
:10162000374820600620C4E90108C4E9035933485B
:10163000FFF7FCFD0620FEF731FE002821D12E4DDC
:101640004FF40049083540F22A68286810EA080F6C
:101650000FD14846FFF79CFD0028F6D05FF000044C
:10166000FFF7DEFD46F82400641C082CF8D3203672
:10167000EBE70820FFF78CFD30B10820FFF746FDAF
:10168000042013B0BDE8F0830220FFF781FD20B1F4
:101690000220FFF73BFD0220F3E72020FFF778FD53
:1016A00020B12020FFF732FD0620EAE74FF4007456
:1016B0002046FFF76DFD20B12046FFF727FD0720EC
:1016C000DFE74FF4001403E0FFF7AAFD01C67F1E19
:1016D0002046FFF75DFD08B1002FF5D140F2FF5025
:1016E000FFF714FD9DF81500800701D50020C8E71D
:1016F0002720C6E74C0000202C2C014030010020A0
:1017000001FFFF8038B500248DF8004000F040F95B
:10171000FFF72CFD00F09CF98DF800009DF800000B
:1017200058BB00F02FF88DF800009DF8000020BB9A
:1017300013480475046044608460C4600461FFF76A
:1017400059FD0F485838FFF7D7FD8DF800009DF878
:10175000000048B90A4800215838B0F85400000485
:1017600000F082FB8DF800009DF8000028B94FF4CE
:101770000060FFF787FD8DF800009DF8000038BD80
:10178000180100202DE9F84F01200025ADF80000D8
:10179000FFF712FDA8B3DFF8E090D9F804000428A1
:1017A00068D0364C4FF0C00A00260220C4F808A0CA
:1017B000C4E900604FF48068C4E903682046FFF77D
:1017C00035FDFEF7DFFD05001DD1FFF7FDFCA4F19F
:1017D000900738600420FFF7F7FC78600820FFF7D7
:1017E000F3FCB8600C20FFF7EFFCF860D9F80400B8
:1017F0004F4650B1012808D0062806D0022804D050
:1018000013E0FFE72520BDE8F88F0320E4E802603D
:10181000402084E841011948083CFFF707FD69466C
:101820000320FEF7C9FD0500EDD17868042821D01A
:10183000BDF80000B860000420600920C4E9010A76
:10184000C4E903680D48FFF7F1FCFEF79BFD0500B6
:10185000D9D1FFF7B9FC094CA03C20600420FFF768
:10186000B3FC60600820FFF7AFFCA0600C20FFF71E
:10187000ABFCE0602846C6E74C00002030010020A9
:1018800030B51F4D04468FB04FF0FA512846FEF791
:10189000CDFD00212846FEF7DFFD2846FEF7E6FDD8
:1018A0004FF0006000901748CDE90104002003903C
:1018B00029150490CDE90501890007918900CDE93A
:1018C00008104FF440300A9004200B9003200C9035
:1018D00048020D9080100E9069462846FEF778FE6B
:1018E000012210212846FEF75DFE20212846FEF742
:1018F0004FFE01212846FEF7AFFD0FB030BD0000BE
:1019000058640240802C014030B51F4D04468FB012
:101910004FF0FA512846FEF789FD00212846FEF7D0
:101920009BFD2846FEF7A2FD4FF00060009017488F
:10193000CDE9010440200390002029150490CDE951
:101940000501890007918900CDE908104FF4403066
:101950000A9004200B9003200C9048020D908010F8
:101960000E9069462846FEF733FE012210212846D4
:10197000FEF718FE20212846FEF70AFE0121284620
:10198000FEF76AFD0FB030BD58640240802C014064
:101990002DE9FC4101212C20FFF7CCFA294E0C2225
:1019A00008213046FEF7ADFF0C2209213046FEF734
:1019B000A8FF0C220A213046FEF7A3FF0C220B21C0
:1019C0003046FEF79EFF0C2211463046FEF799FF87
:1019D0001D4F0C2202213846FEF793FF4FF4706032
:1019E000009002208DF805008DF8040000248DF889
:1019F000064001258DF8075069463046FEF730FF56
:101A00000420009069463846FEF72AFF280300901C
:101A10008DF8074069463046FEF722FFEE028DF84A
:101A2000044000968DF8075069460848FEF718FFF5
:101A300001213046FFF796FA01218805FFF77AFA6F
:101A4000BDE8FC8100080240000C02400014024086
:101A50002DE9FC5F00258DF8005072487621A946DB
:101A60000175056045608560C560A8460561FFF7A2
:101A7000C1FB0320FFF7EEFB0120FFF753FB694C8E
:101A80004FF4806B1834204625606560A560C4E97A
:101A9000035BFFF7CBFB4FF4803A0027564601E08B
:101AA000761E10D08020FFF773FB0028F8D056B1C7
:101AB00040F2FF50FFF72AFB8DF800709DF8000000
:101AC000002854D101E00327F6E74FF4D5702060D9
:101AD00008204027C4E901075248C4E9035B5E4679
:101AE0001830FFF7A3FB504B002051461A684FF007
:101AF000370B02E04C4A1268491E12F0450F06D01F
:101B000009B1510706D54FF0030A042007E0002968
:101B1000F0D1F8E7510605D54FF0000A4020FFF755
:101B2000F5FA50468DF800009DF8000000B3A7605C
:101B3000C4E9005B3B48C4E903561830FFF776FB65
:101B40003720FEF7ABFB8DF80000A760C4E9005B0F
:101B50003448C4E90356DA461830FFF767FB3720EC
:101B6000FEF79CFB8DF800009DF8000088B355E05F
:101B70002E4801214FF080484160E6E7A760C4E9A4
:101B8000005A2848C4E903561830FFF74FFB3720A6
:101B9000FEF784FB8DF800009DF8000078BB244917
:101BA00048EA010020602920C4E901071D48C4E972
:101BB00003561830FFF73AFB00201B4901900868D4
:101BC00010F0450FFBD0400704D5032001900420FE
:101BD00002E011E040F2FF50FFF798FA01988DF80B
:101BE00000009DF8000050B90020FFF7EDFAC10F8A
:101BF00009F1010904D005E04FF6FF7BBEE70DE0D7
:101C0000D945BBD3D94503D31B208DF8000005E08F
:101C100010F0804F02D00548022141609DF800007D
:101C2000BDE8FC9F18010020342C01404C0000202E
:101C3000000010800748006810F0C05F08D0064917
:101C40000120486103484FF0C2515830FEF7EEBB07
:101C500070470000006402404C00002070B54FF453
:101C600080752846FFF79EFA1F4C38B1002020707F
:101C70002846FFF751FA012020612EE00220FFF7ED
:101C800091FA20B10220FFF747FA022024E0082051
:101C9000FFF788FA20B10820FFF73EFA04201BE086
:101CA0002020FFF77FFA20B12020FFF735FA062029
:101CB00012E01020FFF776FA20B11020FFF72CFA7F
:101CC000052009E04FF400752846FFF76BFA20B1B4
:101CD0002846FFF721FA0720207000214CF23A3005
:101CE000FFF77CFA207870BD4C0000202DE9F0470A
:101CF000284C0025089F1646984681462570256188
:101D0000E56025480560012140F22A30FFF766FAB8
:101D10000120FFF70DFA39464846FFF7B1FD60682C
:101D2000022803D10702760A46EAC8561B4C4FF038
:101D300040091020C4F80890C4E900704FF480688E
:101D4000C4E903582046FFF771FA1020FEF7A6FAFF
:101D500000281CD1411E04F11400C0E90017902195
:101D600081600221C0E9031501214161FFF7E6F915
:101D70001120C4F80890C4E90060C4E90358204663
:101D8000FFF754FABDE8F0471120FEF787BABDE827
:101D9000F08700004C0000202C2C01403001002076
:101DA0002DE9F05F2D4CDDE90A764FF0000815466D
:101DB0009946824684F80080C4F810804FF0010BE9
:101DC000C4F80CB02649C1F80080594640F22A30C8
:101DD000FFF704FA06FB07F15046FFF751FD01201B
:101DE000FFF7A6F96068022803D107026D0A45EAE9
:101DF000C9551C4C4FF0400A1020C4F808A0C4E993
:101E000000704FF480692046C4E90389FFF70EFA99
:101E10001020FEF743FA00281ED1411E04F11400E1
:101E20007E43E0E80216902102C00221464680E887
:101E3000420804F11400FFF781F91220C4F808A049
:101E4000C4E90050C4E903692046FFF7EFF9BDE893
:101E5000F05F1220FEF722BABDE8F09F4C00002090
:101E60002C2C014030010020094910B508600720E2
:101E70004860402088600020C8604FF4806008619E
:101E80000846FFF7D3F9BDE810400720FEF706BA71
:101E90003001002070B504001AD00E480E490089A8
:101EA000000408600D204860402088600020C86061
:101EB0004FF4806008610846FFF7B8F90D20FEF77F
:101EC000EDF9050003D1FFF77FF92060284670BDCA
:101ED000262070BD4C00002030010020084810B5BD
:101EE00000210C22C0E900124022C0E902211101A8
:101EF0000161FFF79BF9BDE810400C20FEF7CEB959
:101F0000300100202DE9F0410026751E2846154CB1
:101F100000E0401E616929B9216919B9217809B920
:101F20000028F6D1002767610F4800E06D1E0168A8
:101F3000890401D5002DF9D1E068012803D1FFF70C
:101F4000CDFF0646E760354300D1042640F2FF503E
:101F5000FFF7DCF8207810B12078BDE8F08130463A
:101F6000FBE700004C000020342C01402DE9F0413B
:101F70000026751E2846154C00E0401E616929B9EF
:101F8000216919B9217809B90028F6D100276761BC
:101F90000F4800E06D1E0168C90401D5002DF9D17C
:101FA000E068012803D1FFF799FF0646E760354353
:101FB00000D1042640F2FF50FFF7A8F8207810B1B6
:101FC0002078BDE8F0813046FBE700004C0000209F
:101FD000342C01402DE9F047284D0024089F164677
:101FE000984681462C702C61EC60254804600121E4
:101FF00040F22A30FFF7F2F839464846FFF784FCF2
:102000000120FFF795F86868022803D10702760AD5
:1020100046EAC8561B4D4FF040091020C5F80890FD
:10202000C5E900704FF48068C5E903482846FFF70A
:10203000FDF81020FEF732F900281DD11820C5F850
:102040000890C5E90060C5E903482846FFF7EEF8A7
:102050001820FEF723F900280ED105F11401401EC7
:10206000C1E900079020C1E902040120C1E9044050
:102070000846FFF763F82046BDE8F0874C000020D3
:102080002C2C0140300100202DE9F05F3F4CDDE9B0
:102090000A764FF0000815469946824684F800807B
:1020A000C4F810800121E1603949C1F800800121A4
:1020B00040F22A30FFF792F806FB07F15046FFF78F
:1020C00023FC0120FFF734F86068022803D10702DF
:1020D0006D0A45EAC9552F4C10204FF0400980C4C5
:1020E000C2464FF4806B84E8010E201F241FFFF7C7
:1020F0009DF81020FEF7D2F8002844D12348C846A6
:10210000211D0089D946000420603720C4F810B092
:1021100081E801052046FFF789F83720FEF7BEF871
:10212000002830D1C4F808801720C4E90060C4E951
:1021300003A9C346D0462046FFF778F81720FEF7DC
:10214000ADF800281FD11920C4F808B0C4E9005028
:102150004546C4E903892046FFF768F81920FEF7D1
:102160009DF800280FD104F11401401E7E43C1E9FF
:1021700000069020C1E902050120C1E9045008468B
:10218000FEF7DCFF2846BDE8F09F00004C00002071
:102190002C2C0140300100202DE9F84F0020009048
:1021A000FEF7F2FBFEF742FD052000F081FD002066
:1021B000FEF754FEA0F513414FF480774FF4E0652D
:1021C00040F2022341F2B07640F2371840F239195A
:1021D0004FF4E85A40F23F1B41F2180400902039B6
:1021E00002D0491F7DD0D4E14FF40041E520FEF735
:1021F00066FE01210020FEF762FE39460120FEF74F
:102200005EFE29460220FEF75AFE41F2300103200D
:10221000FEF755FE00210420FEF751FE1946082066
:10222000FEF74DFE00210920FEF749FE00210A209D
:10223000FEF745FE00210C20FEF741FE00210D2097
:10224000FEF73DFE00210F20FEF739FE0021102091
:10225000FEF735FE00211120FEF731FE002112208D
:10226000FEF72DFE00211320FEF729FE142000F0BA
:102270001FFD31461020FEF722FE41461120FEF7D9
:102280001EFE052000F014FD49461220FEF717FE41
:10229000052000F00DFD51461320FEF710FE13211E
:1022A0002920FEF70CFE052000F002FD0021202071
:1022B000FEF705FE00212120FEF701FE0721302058
:1022C000FEF7FDFD07213120FEF7F9FD0721322041
:1022D000FEF7F5FD07213520FEF7F1FD0721362039
:1022E00000E06BE0FEF7EBFD29463720FEF7E7FD47
:1022F00029463820FEF7E3FD29463920FEF7DFFDA9
:1023000029463C20FEF7DBFD4FF4F8513D20FEF757
:10231000D6FD00215020FEF7D2FDEF215120FEF71F
:10232000CEFD00215220FEF7CAFD59465320FEF78C
:10233000C6FD4FF41C516020FEF7C1FD0121612054
:10234000FEF7BDFD00216A20FEF7B9FD00218020C7
:10235000FEF7B5FD00218120FEF7B1FD00218220AE
:10236000FEF7ADFD00218320FEF7A9FD00218420AA
:10237000FEF7A5FD00218520FEF7A1FD102190208C
:10238000FEF79DFD00219220FEF799FD0321932089
:10239000FEF795FD4FF488719520FEF790FD002122
:1023A0009720FEF78CFD00219820FEF788FD21463E
:1023B0000320FEF784FD40F27311E7E001210020C5
:1023C000FEF77DFD39460120FEF779FD2946022002
:1023D000FEF775FD21460320FEF771FD0021042064
:1023E000FEF76DFD19460820FEF769FD0021092062
:1023F000FEF765FD00210A20FEF761FD00210C209B
:10240000FEF75DFD00210D20FEF759FD00210F2094
:10241000FEF755FD00211020FEF751FD002111208F
:10242000FEF74DFD00211220FEF749FD002113208B
:10243000FEF745FD142000F03BFC31461020FEF76E
:102440003EFD41461120FEF73AFD052000F030FC2C
:1024500049461220FEF733FD052000F029FC5146C5
:102460001320FEF72CFD13212920FEF728FD05205F
:1024700000F01EFC00212020FEF721FD002121207C
:10248000FEF71DFD07213020FEF719FD40F2023155
:102490003120FEF714FD40F2051319463220FEF7F5
:1024A0000EFD40F2062529463520FEF708FD40F6D0
:1024B000080631463620FEF702FD29463720FEF792
:1024C000FEFC40F204513820FEF7F9FC07213920C8
:1024D000FEF7F5FC19463C20FEF7F1FC31463D20A5
:1024E000FEF7EDFC00215020FEF7E9FCEF21512022
:1024F000FEF7E5FC00215220FEF7E1FC594653208F
:10250000FEF7DDFC4FF427416020FEF7D8FC0121E7
:102510006120FEF7D4FC00216A20FEF7D0FC0021E8
:102520008020FEF7CCFC00218120FEF7C8FC0021B2
:102530008220FEF7C4FC00218320FEF7C0FC0021AE
:102540008420FEF7BCFC00218520FEF7B8FC10219A
:102550009020FEF7B4FC00219220FEF7B0FC03218E
:102560009320FEF7ACFC4FF488719520FEF7A7FC92
:1025700000219720FEF7A3FC00219820FEF79FFC86
:1025800021460320FEF79BFC40F233110720FEF7A3
:1025900096FC0348A0F108014860BDE8F88F0000F0
:1025A000340000201CB504460E48012150F82400D8
:1025B000FEF7C0FC0B4800210A3830F814000090E8
:1025C00001208DF804008DF806108DF80700022018
:1025D0008DF805000448694650F82400FEF740F9DC
:1025E0001CBD0000043C00081000002070470000E3
:1025F0000CB500222E4901920092086840F4803008
:1026000008604FF4A063086800F40030009001985F
:10261000401C0190009810B901989842F3D10868C5
:102620008303244841D501220092224A383213689C
:1026300043F080531360204A136843F480431360CF
:1026400002680260026842F400420260026842F4DA
:10265000A0520260031F194A1A600A6842F0807291
:102660000A600A689201FCD5154B40F205621A60B7
:10267000026822F003020260026842F00202026075
:102680000268C2F38102022AFAD1026822F400022F
:102690000260084A0B487C321060086840F0806095
:1026A000086008680001FCD50CBD0092EDE7000051
:1026B00000380240083802400070004019544007BA
:1026C000003C02408040003070470000124810B5C6
:1026D000016841F4700101601048016841F0010196
:1026E00001600E4A00210832116002680C4B1A404A
:1026F0000260031D0B4A1A60026822F48022026005
:1027000006480C300160FFF773FF03494FF000608B
:102710008039086010BD000088ED00E000380240FC
:10272000FFFFF6FE10300024FEE70000014A0249D8
:1027300000F013B8553600088C00002002E008C8ED
:10274000121F08C1002AFAD170477047002001E02B
:1027500001C1121F002AFBD170472DE9F041164636
:102760000F460446002503E03946B047641C6D1C43
:1027700020780028F8D12846BDE8F08110B504463D
:102780000A464078012304F1300100F0EDFC08B165
:10279000032010BDB4F82E02A0F52A41553901D00E
:1027A000022010BD94F86600B4F8671040EA0121D9
:1027B0000848B0EB012F08D094F88210B4F88320B9
:1027C00041EA0221B0EB012F01D1002010BD012010
:1027D00010BD00000046415400E0401C02780AB1E0
:1027E0008A42FAD1D0B270472DE9F04716460A4620
:1027F00001680D78303D092D02D84B783A2B01D075
:10280000002506E0891C0160022D02D30B20BDE8E3
:10281000F087774850F82540146094B1207820B1B3
:10282000607800F0EFFCC1070DD04FF0000984F88C
:102830000090E8B2607000F071FCC10708D003207E
:10284000E5E70C20E3E70EB1400704D40020DEE703
:102850001EB1400701D50A20D9E700210D462046C8
:10286000FFF78CFF01280CD104F5F7700179E9B36B
:10287000017AD0F8090041EA002529462046FFF7F1
:102880007DFF032801D088BB01E00120BFE7B4F839
:102890003B00B0F5007F58D1B4F8460028B994F851
:1028A0005400D4F8551040EA0120E06194F840103B
:1028B0008446E170012901D0022946D1484394F8A9
:1028C0003D10A17091B14B1E19423ED1B4F8412088
:1028D0002281130739D1B4F843602EB994F85030EF
:1028E000D4F8516043EA0626E78F00E02DE067B395
:1028F0003B1803EB12139E4227D3F61AB6FBF1F1F5
:1029000019B3012640F6F678414500D302264FF66A
:10291000F678414500D303262B44A362891CEB19AA
:10292000A1612362032E12D07AB118446062022E94
:1029300018D001F0010001EB410100EB510000BF94
:1029400000F2FF10BCEB502F0ED20D205FE7002AE3
:10295000FBD194F85C00D4F85D2040EA022060626C
:102960008800EDE74800EBE74FF0FF30C4E9039043
:102970004F46032E31D16771B4F86000012342192C
:102980006261607804F1300100F0EEFB28BBB4F81E
:102990002E02A0F52A4155391FD194F83000D4F801
:1029A000311040EA01201349884216D194F81402EC
:1029B000D4F8151240EA01200F4988420DD194F84D
:1029C0001C02D4F81D1240EA0120E06094F81802BD
:1029D000D4F8191240EA0120206105492670091F28
:1029E0000888401C0880E080E76227712EE700001D
:1029F0008400002052526141727241618269891ED5
:102A0000921E8A4201D800207047826A807801FBBA
:102A1000002070472DE9F0410F00064606D000F077
:102A2000CCFE022809D20120BDE8F081F46814B17F
:102A3000B069A04205D8012403E0B1698142F3D80E
:102A40003C462546B0696D1CA84202D80225022CDE
:102A50000AD32946304600F0B0FE38B1411CE3D01D
:102A60000128E1D0A542EDD10020DDE76FF07042F2
:102A70002946304600F0DAFF30B957B12A463946C8
:102A8000304600F0D3FF20B101280BD001252846A5
:102A9000CAE7F5603069411CF9D0401E3061012061
:102AA0007071F4E74FF0FF35F1E700002DE9F84FC2
:102AB000884682460D6800E06D1C28782F28FBD0E0
:102AC0005C28F9D00024DAF81C702646A85D761C34
:102AD000202817D32F2815D05C2813D0FF2C32D2F2
:102AE000012100F055FD5FEA00092CD0B9F1800FFB
:102AF00004D2014668A0FFF76FFE20BB27F81490B0
:102B0000641CE3E7AA19C8F80020202801D2042594
:102B100017E0002515E000BF07EB440030F8020C79
:102B200020280DD02E280BD06CB1002027F81400DF
:102B30000B222021DAF8180000F03BFF002606E007
:102B4000641E002CE8D10620BDE8F88F761C37F80B
:102B500016002028FAD02E28F8D01EB145F0030523
:102B600000E0641E2CB107EB440030F8020C2E2864
:102B7000F7D1002081464FF0080B009037F816007F
:102B800006F101065FEA000824D0B8F1200F04D056
:102B9000B8F12E0F04D1A64202D045F00305EDE7AF
:102BA0000098584501D2A6421AD1BBF10B0F0FD0A5
:102BB000A64201D045F003050CD84FF00800009064
:102BC0004FEA896026464FF00B0B4FEA1069D5E7B4
:102BD00045F00305DAF818000178E52938D039E026
:102BE0004046B8F1800F10D3002100F0D1FC5FEA1D
:102BF000000805D02B4901EB080010F8800C804636
:102C000045F00205B8F1000F04D0014626A0FFF7F9
:102C1000E3FD20B14FF05F0845F003050FE0A8F198
:102C20004100192802D849F0020908E0A8F1610022
:102C3000192804D8413049F001091FFA80F8DAF860
:102C40001820009902F801800098401C009095E738
:102C500005210170BBF1080F03D14FEA89604FEAEB
:102C60001069C9F38100032803D06FEA09018907BD
:102C700001D145F00205A90709D409F00301012992
:102C800001D145F01005012801D145F00805DAF819
:102C90001800C572002057E7222A3A3C3E3F7C7F4D
:102CA00000000000FDB702082B2C3B3D5B5D0000DF
:102CB00001B581B00449019848430090002801D033
:102CC000401EFAE70CBD0000A08601002DE9F84F78
:102CD0000546002100F0E2F9002879D14FF0FF0B02
:102CE000D9462969286800F06BFE06000ED16C6990
:102CF000207850B1E17AE52801F03F0103D00A07BE
:102D000005D50F2909D0FF204DE0042672E00F29D8
:102D100003D0B9F1000F4BD04FE0E96981B342060F
:102D200006D594F80DB020F04000EA8881462A8448
:102D3000484536D1627B5A4533D100912078A04670
:102D400020F04000401E00EB80010027DFF8ACA01F
:102D500001EBC006012400BF1AF8071001EB0800C0
:102D6000008874B100F030FC0446FF2E19D20098A0
:102D700030F81600761C00F027FCA04211D104E0C8
:102D80002FE0A0F57F41FF390BD17F1C0D2FE3D33E
:102D900098F80000400608D53CB1009830F81600BD
:102DA00018B1FF20C0B281461DE0A9F10100F9E78A
:102DB000204600F0E9FE58451CD04FF6FF702884ED
:102DC000A8694FF0FF09C17AC9070CD10A2102E0B6
:102DD00011E0491E06D314F8013B10F8012B9A1A92
:102DE000F7D000E032B10021284600F009F80600D3
:102DF0003FF477AF3046BDE8F88F0000F0B7020827
:102E00002DE9F0410446C0880F46401C0604360CEC
:102E10002DD0206958B331075ED1401C2061E16894
:102E2000206829B18278521E12EA161F04D053E09E
:102E30000089B0421BD94FE000F0BFFC05460128D5
:102E40001AD9681C33D020688169A9423ED877B16D
:102E5000E168FFF7DFFD05000CD0012D0CD0681CE8
:102E600025D00021206800F0ABFD00BB06E0042067
:102E7000BDE8F0810720FBE70220F9E720684FF466
:102E800000720021303000F094FD29462068FFF7E1
:102E9000B5FD216800274FF00108C8620FE000BFB0
:102EA00080F804800021206800F08AFD08B101202C
:102EB000DEE72068C16A491C7F1CFFB2C16220683E
:102EC0008178B942ECD8C16AC91BC162E560294664
:102ED0002068FFF793FD2061E68006F00F013022A5
:102EE000206802EB4111084460610020C0E7000047
:102EF0002DE9FF5F04460C22D4E906763946684680
:102F000000F04EFD9DF80B00C00719D00020F872AC
:102F10000125E0612B4632466946384600F018FC30
:102F20002046FFF7D3FE18B96D1CADB2642DF1D366
:102F3000642D0BD004280AD19DF80B00F872E661CD
:102F40009DF80B00800711D5002005E0072004B094
:102F5000BDE8F09F401C80B236F810100029F9D16E
:102F60000D211930B0FBF1F086B200E001260021FE
:102F7000204600F093F80028E9D10027B8462169DF
:102F8000206800F01DFD05000BD160690078E52880
:102F900008D038B1002701212046FFF731FF050096
:102FA000EDD077E00FB9B4F806807F1CBFB2B7420E
:102FB000F1D1012E55D94146204600F06FF80500A9
:102FC00068D1A06900F0E0FD761E1FFA86FB039031
:102FD0002169206800F0F4FC05005BD16169D4F838
:102FE0001C90039848730F20C872002008738876DD
:102FF0000BF0FF0AC876AAF1010000EB800202EB99
:10300000C00500234FF6FF7E234E4A1C01E06045B9
:1030100003D039F81500F4466D1CF75CC85516F856
:103020000380070A08F8027000B960465B1C0D2B8C
:10303000EDD3704502D039F8150008B94AF0400ABE
:1030400081F800A021680120087100212046FFF7C7
:10305000D7FE05001ED1ABF1010080B25FEA000B84
:10306000B6D12169206800F0ABFC050012D1666979
:1030700020220021304600F09CFC0B223046A16942
:1030800000F08EFCA069C07A00F01800307321684F
:103090000120087128465AE7F0B7020870B50D46BE
:1030A000C1808168044601291ED0206882698A4255
:1030B0001AD921B90278032A04D1416A11B1807862
:1030C000060117E0E1600189A9420DD9406A17E0C5
:1030D000206800F072FB0146401C07D0022903D390
:1030E00020688069884203D8022070BD012070BD2D
:1030F000A81B85B2B542EBD2E1602068FFF77EFCE9
:1031000000EB1510206105F00F013022206802EB62
:10311000411108446061002070BD000038B5114DB8
:1031200001242C70E0B931208DF8000000208DF8CA
:1031300001008DF802008DF803406846FDF7C6FED9
:103140003B208DF800008DF801406846FDF7BEFE7B
:10315000FEF786F8012803D1287820F001002870B6
:10316000287838BD640000202DE9F043244DADF5EA
:10317000037D1C46174688460026A8BBFEF770F85C
:10318000012804D003200DF5037DBDE8F0835FEA3C
:1031900088714FF400701CD08146641EE4B22AD3BB
:1031A00038194202002302A8CDF80090FEF79EFDD8
:1031B000FEF7A8FE064601E06D1E1DD3FEF7E5F9F9
:1031C0000028F9D108EB44204A4602A9FCF7F8FF91
:1031D000E3E7CDE900047A0200234046FEF7E0FD74
:1031E000FEF790FE064602E006E06D1E04D3FEF7F1
:1031F000CCF90028F9D10EB10120C4E70020C2E7C4
:10320000A086010010B50A4C0121217070B9FEF7AB
:1032100027F8012803D0207840F002002070FEF744
:10322000B4F918B9207820F001002070207810BD82
:10323000640000202DE9F043254DADF5037D1C46CB
:1032400090460F460026B0BBFEF70AF8012804D0CE
:1032500003200DF5037DBDE8F083B9074FF400703E
:103260001DD08146641EE4B22CD307EB44214E46A8
:103270004A4602A8FCF7A4FF08EB04004202002320
:1032800002A80096FEF7A6FEFEF770FE064601E0D5
:103290006D1E18D3FEF779F90028E3D0F8E7CDE9E1
:1032A00000044FEA482200233846FEF7EDFEFEF701
:1032B0005DFE064602E006E06D1E04D3FEF765F9EA
:1032C0000028F9D10EB10120C3E70020C1E70000BA
:1032D000A086010010B5022801D30B2010BD064BBB
:1032E000002453F8202002B1147001B10C7043F88F
:1032F0002010002010BD0000840000202DE9F747B9
:103300008DB04FF00009074602F01F06C0F800908C
:1033100026F0010269460EA8FFF766FA050009A823
:1033200006904548079004D168460E9900F05EF972
:103330000546059C0DB904B9062516F01C0F50D0A2
:1033400055B1042D03D16846FFF7D2FD0546059C13
:1033500046F0080655B16AE0E07A10F0110F01D08E
:10336000072564E0700701D5082560E0300746D5E1
:1033700000F07FFAA073010AE173010C2174000EC2
:10338000607484F80B9084F81C9084F81D9084F885
:103390001E9084F81F90A28A618B84F81A9084F89A
:1033A0001B9062F31F4184F814905FEA010884F8CF
:1033B000159000994FF00100087141461DD000980A
:1033C000D0F82CA000F0AFFB050030D10099A8F197
:1033D0000100C8605146009800F0F2FA05000AD0DA
:1033E00025E025BBE07AC10601D504251FE0B10721
:1033F00001D5C007B4D1300701D546F020060098AA
:10340000C06AC7E90704BE71A18A608B61F31F40DF
:103410003861207FD4F81D1040EA0120C7E90290EE
:10342000C7F81890009838600098C088B88010B02D
:103430002846BDE8F0870000583501202DE9F05FEF
:103440000F46002119600446818898461546006899
:1034500000F0A7FB002803D1A079010602D50220C5
:10346000BDE8F09FC00708D0D4E90210401A04F16B
:103470002409854200D9054684E00720F0E7A068CA
:10348000C10567D122689178491E01EA502111F0E7
:10349000FF0609D120B31046616900F08EF90228B9
:1034A00020D3411C4ED0606161692068FFF7A6FA05
:1034B000C0B100EB060B680A5FEA000A29D0206859
:1034C00006EB0A0281788A4201D9A1EB060A0AF0CA
:1034D000FF0340785A463946FFF746FE90BB06E0A8
:1034E0002069DCE7A07940F08000A071B7E7A079FF
:1034F00040060BD5A169A1EB0B00504506D207EBA6
:1035000040204FF40072494600F04AFA4FEA4A263A
:103510002EE0A2695A451BD0A07940060AD5206842
:10352000012349464078FFF785FE58B9A07920F07D
:103530004000A071206801235A4640784946FFF7B1
:1035400013FE28B1A07940F08000A071012087E728
:10355000C4F818B02089C0F30800C0F50076AE4268
:1035600000D92E46011932463846243100F018FAA7
:10357000A06837443044A060D8F80000AD1B304448
:10358000C8F80000002D7FF47AAF002068E7000043
:10359000802804D30B4A51B1FF2801D9002070477D
:1035A00002EB4000A0F58050B0F8000F704732F8F1
:1035B0001130834203D0491C89B28029F7D380316E
:1035C000C8B270477EB802080021064B00E0491CD3
:1035D00033F81120002A04D08242F8D1024830F892
:1035E000110070477EB902085EBB020873B504463D
:1035F000019801782F2901D05C2901D1401C01904C
:103600000025A56001980078202805D200212046D9
:10361000FFF744FD65617CBD01A92046FFF746FA2E
:103620000028F8D12046FFF751FBA169C97A28B1DB
:103630000428F0D14907EED405207CBD4907FCD40D
:103640006069C17AC906F7D5818A408B61F31F4052
:10365000A060E1E72DE9F05F0646FDF713FB3A4C69
:103660000246A07800286CD160780025012806D198
:10367000E0896081A08920816570E570258291884C
:103680004FF4A07ABAFBF1F1E088304BF7B28142F7
:1036900009D90A2E07D0618901EB810202EBC10131
:1036A00003EB81014AE0B4F808C061898C4505D379
:1036B00094F80080B8F1000F0AD0257001EB810C5E
:1036C0000CEBC10C4FF0200B994603EB8C0C10E077
:1036D0000CF1010C1FFA8CFCA4F808C0BCF10C0F13
:1036E000ECD12581EAE7E3880CF803B05B1CE380AA
:1036F000401CB2F80480BAFBF8F38342F3D801EB24
:10370000810000EBC10109EB8100A2884286E580BF
:10371000FDF754FB6089401C80B260810C2803D106
:1037200065810120208120700A2E0AD0608900EB7B
:10373000800101EBC001E08809EB81010F54401CBE
:10374000E0803046BDE8F09F6C000020E8320120A8
:103750007CB516461C4605460B2200F021F9052CC7
:1037600009D9600836F8021B00EBC430084484B263
:1037700030880028F5D107214FEA0D0304F00F002F
:103780003030392800D9C01D5854491E2409F5D1BC
:103790007E205854002200E0521C8A4202D2A85CCB
:1037A0002028F9D1082902D2585C491C00E02020C9
:1037B000A854521C082AF5D37CBD2DE9F0410D46D2
:1037C0000446022902D3A069A84202D80120BDE81C
:1037D000F0812078012804D0022826D0032837D190
:1037E0002FE0206A05EB550600EB5621204600F03D
:1037F000E7F868BBC6F308002044761C90F83070E8
:10380000206A00EB5621204600F0DAF800BBC6F330
:1038100008002044E90790F8300047EA002001D072
:103820000009D4E7C0F30B00D1E7206A00EB1521B3
:10383000204600F0C5F858B9E8B204EB4000008E0D
:10384000C5E7206A00EBD511204600F0B9F810B1A9
:103850004FF0FF30BBE740F2FF1000EA8500204444
:1038600090F83010D0F8310041EA002020F070408C
:10387000ADE700207047000008B5002000904FF42D
:1038800080712A48FCF7B5FC294C2A482146FCF7F0
:10389000B0FCFCF7CBFCFDF77DFBFEF77DFC4FF6A3
:1038A000FF752846FDF745F80020FDF7DDFA2846AC
:1038B000FDF7F4FA20490020FFF70CFD28B1FDF7D1
:1038C000E1F91EA10020FDF709F9112222A12648E5
:1038D000FFF714FD28B1FDF7D5F9C08823A1FDF746
:1038E000FDF8284B224613491F48FFF7A7FD38B1C2
:1038F000FDF7C8F9C08824A105EA4000FDF7EEF8FD
:103900000C48FDF76DF96420FCF78EFE0948FDF7C1
:1039100053F96420FCF788FE2048FDF7FBF864208B
:10392000FCF782FE6420FCF77FFEE9E7E831012026
:10393000362C01005C010020942D012043616E2093
:103940006E6F74206D6F756E742053442043415226
:103950004420212121000000303A2F70686F746FDD
:103960002E626D7000000000C42F012043616E20A4
:103970006E6F74206F70656E2066696C6520212102
:10398000210000006800002043616E206E6F7420EB
:10399000726561642066696C65000000F05F000874
:1039A00004E000BF11F8013B00F8013B521EF9D2C0
:1039B0007047C9B201E000F8011B521EFBD27047EC
:1039C0002DE9F041C56A0F460446BD422BD021794E
:1039D00004F13008D9B1607801232A464146FFF747
:1039E00029FCE0B900202071D4E907100844A8425E
:1039F0000DD9E67809E0E0690123054460782A469C
:103A00004146FFF717FC761EF6B2012EF3D857B1E8
:103A1000607801233A464146FFF7A6FB10B101202A
:103A2000BDE8F081E7620020FAE700002DE9F047E9
:103A300017460D460446022902D3A069A84202D8BF
:103A40000220BDE8F087217807F0FF084FF0010958
:103A5000012908D0022938D0032947D05FF002009D
:103A600084F80490EDE7206A05EB550600EB56213B
:103A70002046FFF7A5FF0028F2D1C6F30800204436
:103A80003030E90703D0017868F31F1100E03946B0
:103A9000017084F80490206A761C00EB56212046C1
:103AA000FFF78EFF0028DBD1C6F308012144303137
:103AB000EA0702D0C7F3071205E00A78C7F3032329
:103AC00002F0F0021A430A70CAE7206A00EB1521DF
:103AD0002046FFF775FF0028C2D1E9B204EB41018F
:103AE0003A0A81F8308081F83120B9E7206A00EB8A
:103AF000D5112046FFF764FF0028B1D140F2FF1135
:103B000001EA85010A194FF07043D2F8311003EA37
:103B10000121394302F8301F0B0A53700B0C9370CC
:103B2000090ED1709CE72DE9F0410E4607460229A7
:103B300018D3B869B04215D900254FF001081DE02F
:103B400031463846FFF739FE04001AD0012C09D05F
:103B5000601C09D0002231463846FFF767FF050098
:103B60000FD103E002250CE001250AE03869411C71
:103B700003D0401C386187F805802646B869B042FA
:103B8000DED82846BDE8F081014600200B2243081C
:103B900003EBC01011F8013B521E1844C0B2F6D11D
:103BA000704710B520B1027812B1C2888A4201D0A4
:103BB000092010BD4078FFF725FBC007F9D003208E
:103BC00010BD00000002000409000A000700070001
:103BD00010000000010000000100000001000020B2
:103BE00000010100002000010000020008000000A8
:103BF0000D000800060028001700800000010002E8
:103C00000004000020000000200000002000000050
:103C1000200000000100000004000000000100007E
:103C20000000000000000000000000000000000094
:103C30000000000000000000000000000000000084
:103C40000000000000000000000000000000000074
:103C500000008001800180018001800180018001DD
:103C6000800180018001800180018001000000004E
:103C70008001800100000000000000000000000042
:103C800000000000CC00CC00CC00CC00CC00CC006C
:103C90000000000000000000000000000000000024
:103CA0000000000000000000000000000000000014
:103CB000000000000000000000000000600C600C2C
:103CC000600C30063006FE1FFE1F30063807180352
:103CD000FE1FFE1F180318038C018C018C010000CD
:103CE00000008000E003F80F9C0E8C1C8C188C00E8
:103CF0009800F801E007800E801C8C188C189C1826
:103D0000B80CF00FE003800080000000000000000D
:103D10000000000000000E181B0C110C110611060B
:103D2000110311039B018E01C038C06C60446044D4
:103D3000304430441844186C0C3800000000000077
:103D40000000E001F0033807180618063003F00100
:103D5000F000F8009C310E33061E061C061C063FC0
:103D6000FC73F021000000000000000000000000D3
:103D7000000000000C000C000C000C000C000C00FB
:103D80000000000000000000000000000000000033
:103D90000000000000000000000000000000000023
:103DA0000000000200038001C000C000600060004D
:103DB0003000300030003000300030003000300083
:103DC00060006000C000C00080010003000200002D
:103DD000000020006000C00080018001000300039B
:103DE00000060006000600060006000600060006A3
:103DF0000003000380018001C0006000200000007B
:103E0000000000000000000000000000C000C00032
:103E1000D806F807E0013003380700000000000072
:103E20000000000000000000000000000000000092
:103E30000000000000000000000000008001800180
:103E4000800180018001FC3FFC3F800180018001F6
:103E50008001800100000000000000000000000060
:103E60000000000000000000000000000000000052
:103E70000000000000000000000000000000000042
:103E800000008001800100010001800000000000AE
:103E90000000000000000000000000000000000022
:103EA0000000000000000000E007E0070000000044
:103EB0000000000000000000000000000000000002
:103EC00000000000000000000000000000000000F2
:103ED00000000000000000000000000000000000E2
:103EE0000000C000C0000000000000000000000052
:103EF0000000000C000C0006000600060003000392
:103F000000038003800180018001C000C000C00068
:103F100060006000000000000000000000000000E1
:103F20000000E003F007380E180C0C180C180C18E1
:103F30000C180C180C180C180C180C18180C380E3F
:103F4000F007E00300000000000000000000000097
:103F5000000000018001C001F0019801880180018A
:103F60008001800180018001800180018001800149
:103F7000800180010000000000000000000000003F
:103F80000000E003F80F180C0C180C1800180018AB
:103F9000000C000600038001C00060003000180023
:103FA000FC1FFC1F000000000000000000000000DB
:103FB0000000E001F807180E0C0C0C0C000C0006B9
:103FC000C003C007000C001800180C180C18180CBF
:103FD000F807E003000000000000000000000000FF
:103FE0000000000C000E000F000F800DC00C600CD4
:103FF000600C300C180C0C0CFC3FFC3F000C000C4F
:10400000000C000C00000000000000000000000098
:104010000000F80FF80F180018000C00EC03FC0764
:104020001C0E001C0018001800180C181C0C180E90
:10403000F807E0030000000000000000000000009E
:104040000000C007F00F381C181818000C00CC0333
:10405000EC0F3C0E1C1C0C180C180C18181C380EFD
:10406000F007E00300000000000000000000000076
:104070000000FC1FFC1F000C00060006000380036C
:104080008001C001C000E0006000600070003000EE
:1040900030003000000000000000000000000000C0
:1040A0000000E003F007380E180C180C180C380646
:1040B000F007F007180C0C180C180C180C18380C1A
:1040C000F80FE00300000000000000000000000006
:1040D0000000E003F007380E1C0C0C180C180C182C
:1040E0001C1C381EF81BE0190018000C000C1C0EDC
:1040F000F807F001000000000000000000000000D0
:1041000000000000000000000000000080018001AD
:10411000000000000000000000000000000000009F
:10412000800180010000000000000000000000008D
:10413000000000000000000000000000800180017D
:10414000000000000000000000000000000000006F
:1041500080018001000100018000000000000000DB
:10416000000000000000000000000000000000004F
:104170000010001C800FE003F8001800F800E003B6
:10418000800F001C00100000000000000000000074
:10419000000000000000000000000000000000001F
:1041A000F81F000000000000F81F000000000000E1
:1041B00000000000000000000000000000000000FF
:1041C00000000000000000000000000000000000EF
:1041D00008003800F001C007001F0018001FC007CA
:1041E000F00138000800000000000000000000009E
:1041F0000000E003F80F180C0C180C180018000C45
:10420000000600038001C000C000C00000000000E4
:10421000C000C0000000000000000000000000001E
:1042200000000000E00718180420C229224A1144A7
:1042300009440944094409221113E20C02400420F4
:104240001818E00700000000000000000000000057
:10425000000080038003C006C006C006600C600C2E
:10426000301830183018F83FF83F1C700C600C60A4
:1042700006C006C0000000000000000000000000B2
:104280000000FC03FC0F0C0C0C180C180C180C0C88
:10429000FC07FC0F0C180C300C300C300C300C18D8
:1042A000FC1FFC07000000000000000000000000F0
:1042B0000000C007F01F38381C300C700660060084
:1042C0000600060006000600060006600C701C30A2
:1042D000F01FE007000000000000000000000000E8
:1042E0000000FE03FE0F060E061806180630063004
:1042F0000630063006300630063006180618060E60
:10430000FE0FFE030000000000000000000000009F
:104310000000FC3FFC3F0C000C000C000C000C00EB
:10432000FC1FFC1F0C000C000C000C000C000C000F
:10433000FC3FFC3F00000000000000000000000007
:104340000000F83FF83F1800180018001800180087
:10435000F81FF81F1800180018001800180018009F
:10436000180018000000000000000000000000001D
:104370000000E00FF83F3C780E6006E007C0030045
:10438000030003FE03FE03C007C006C00EC03CF0DE
:10439000F83FE00F000000000000000000000000F7
:1043A00000000C300C300C300C300C300C300C3069
:1043B000FC3FFC3F0C300C300C300C300C300C301F
:1043C0000C300C3000000000000000000000000075
:1043D0000000800180018001800180018001800156
:1043E00080018001800180018001800180018001C5
:1043F00080018001000000000000000000000000BB
:104400000000000600060006000600060006000682
:104410000006000600060006000618061806380703
:10442000F003E001000000000000000000000000B8
:10443000000006300618060C060606038601C600B4
:1044400066007600DE008E0106030606060C0618DE
:1044500006300660000000000000000000000000C0
:1044600000001800180018001800180018001800A4
:10447000180018001800180018001800180018007C
:10448000F81FF81F000000000000000000000000FE
:1044900000000EE01EF01EF01EF036D836D836D8DA
:1044A00036D866CC66CC66CCC6C6C6C6C6C6C6C638
:1044B00086C386C30000000000000000000000006A
:1044C00000000C301C303C303C306C306C30CC3058
:1044D000CC308C310C330C330C360C360C3C0C3C91
:1044E0000C380C300000000000000000000000004C
:1044F0000000E007F81F1C380E70066003C003C000
:1045000003C003C003C003C003C006600E701C38A4
:10451000F81FE0070000000000000000000000009D
:104520000000FC0FFC1F0C380C300C300C300C3031
:104530000C18FC1FFC070C000C000C000C000C00FD
:104540000C000C0000000000000000000000000053
:104550000000E007F81F1C380E70066003E003C07F
:1045600003C003C003C003C007E006630E3F1C3C4A
:10457000F83FE0F700C0000000000000000000006D
:104580000000FE0FFE1F06380630063006300638E3
:10459000FE1FFE0706030606060C06180618063060
:1045A000063006600000000000000000000000006F
:1045B0000000E003F80F1C0C0C180C180C001C0079
:1045C000F803E00F001E0038063006300E301C1CC9
:1045D000F80FE007000000000000000000000000ED
:1045E0000000FE7FFE7F800180018001800180014C
:1045F00080018001800180018001800180018001B3
:1046000080018001000000000000000000000000A8
:1046100000000C300C300C300C300C300C300C30F6
:104620000C300C300C300C300C300C300C301818B6
:10463000F81FE0070000000000000000000000007C
:10464000000003600630063006300C180C180C18F9
:10465000180C180C380E3006300670076003600323
:10466000C001C001000000000000000000000000C8
:1046700000000360C361C361C361663366336633A0
:104680006633663366336C1B6C1B6C1B2C1A3C1E2A
:10469000380E380E0000000000000000000000008E
:1046A00000000FE00C7018303018700C600EC0075E
:1046B00080038003C003E006700C301C18180C3017
:1046C0000E6007E000000000000000000000000095
:1046D000000003C006600C301C383818300C60062F
:1046E000E007C0038001800180018001800180011A
:1046F00080018001000000000000000000000000B8
:104700000000FC7FFC7F006000300018000C0006F9
:1047100000038001C0006000300018000C0006009B
:10472000FE7FFE7F0000000000000000000000008F
:104730000000E003E00360006000600060006000D3
:104740006000600060006000600060006000600069
:1047500060006000600060006000E003E0030000B3
:10476000000030003000600060006000C000C00049
:10477000C000C0018001800180010003000300032C
:10478000000600060000000000000000000000001D
:104790000000E003E0030003000300030003000344
:1047A00000030003000300030003000300030003F1
:1047B00000030003000300030003E003E003000024
:1047C00000000000C001C001600360036003300608
:1047D0003006180C180C000000000000000000005B
:1047E00000000000000000000000000000000000C9
:1047F00000000000000000000000000000000000B9
:1048000000000000000000000000000000000000A8
:104810000000FFFFFFFF000000000000000000009C
:1048200000000C000C000C000C000C000C00000040
:104830000000000000000000000000000000000078
:104840000000000000000000000000000000000068
:10485000000000000000000000000000F003F80766
:104860001C0C0C0C000FF00FF80C0C0C0C0C1C0F9B
:10487000F80FF01800000000000000000000000029
:10488000000018001800180018001800D803F80FCE
:10489000380C181818181818181818181818380C70
:1048A000F80FD80300000000000000000000000026
:1048B000000000000000000000000000C003F0073E
:1048C000300E180C1800180018001800180C300EC4
:1048D000F007C0030000000000000000000000001E
:1048E000000000180018001800180018C01BF01F66
:1048F000301C181818181818181818181818301C00
:10490000F01FC01B000000000000000000000000BD
:10491000000000000000000000000000C003F00FD5
:10492000300C1818F81FF81F180018003818301C21
:10493000F00FC007000000000000000000000000B1
:104940000000800FC00FC000C000C000F007F007DB
:10495000C000C000C000C000C000C000C000C00057
:10496000C000C000000000000000000000000000C7
:10497000000000000000000000000000E00DF80F43
:10498000180E0C0C0C0C0C0C0C0C0C0C0C0C180E4B
:10499000F80FE00D000C0C0C1C06F807F0010000ED
:1049A000000018001800180018001800D807F80FA9
:1049B000381C181818181818181818181818181853
:1049C0001818181800000000000000000000000087
:1049D0000000C000C000000000000000C000C000D7
:1049E000C000C000C000C000C000C000C000C000C7
:1049F000C000C00000000000000000000000000037
:104A00000000C000C000000000000000C000C000A6
:104A1000C000C000C000C000C000C000C000C00096
:104A2000C000C000C000C000C000F8007800000056
:104A300000000C000C000C000C000C000C0C0C0610
:104A40000C038C01CC006C00FC009C018C030C035B
:104A50000C060C0C0000000000000000000000002C
:104A60000000C000C000C000C000C000C000C00006
:104A7000C000C000C000C000C000C000C000C00036
:104A8000C000C000000000000000000000000000A6
:104A90000000000000000000000000007C3CFF7EE1
:104AA000C7E383C183C183C183C183C183C183C180
:104AB00083C183C10000000000000000000000006E
:104AC0000000000000000000000000009807F80F40
:104AD000381C181818181818181818181818181832
:104AE0001818181800000000000000000000000066
:104AF000000000000000000000000000C003F00FF4
:104B0000300C181818181818181818181818300C0D
:104B1000F00FC003000000000000000000000000D3
:104B2000000000000000000000000000D803F80FA3
:104B3000380C181818181818181818181818380CCD
:104B4000F80FD8031800180018001800180000000B
:104B5000000000000000000000000000C01BF01F6B
:104B6000301C181818181818181818181818301C8D
:104B7000F01FC01B001800180018001800180000D3
:104B8000000000000000000000000000B007F0037B
:104B90007000300030003000300030003000300055
:104BA00030003000000000000000000000000000A5
:104BB000000000000000000000000000E003F0031F
:104BC000380E180C3800F003C007000C180C380E13
:104BD000F007E003000000000000000000000000FB
:104BE000000000008000C000C000C000F007F00717
:104BF000C000C000C000C000C000C000C000C000B5
:104C0000C007800700000000000000000000000056
:104C10000000000000000000000000001818181834
:104C20001818181818181818181818181818381CE0
:104C3000F01FE0190000000000000000000000006C
:104C40000000000000000000000000000C18180C1C
:104C5000180C180C30063006300660036003600341
:104C6000C001C001000000000000000000000000C2
:104C7000000000000000000000000000C141C14130
:104C8000C3616363636363633636363636361C1C32
:104C90001C1C1C1C000000000000000000000000A4
:104CA0000000000000000000000000001C38381C5C
:104CB000300C600660036003600360036006300C24
:104CC000381C1C380000000000000000000000003C
:104CD0000000000000000000000000001830301844
:104CE00030187018600C600CE00CC006C006800321
:104CF0008003800380018001C001F000700000008B
:104D0000000000000000000000000000FC1FFC1F6D
:104D1000000C000600038001C00060003000180095
:104D2000FC1FFC1F0000000000000000000000004D
:104D3000000000038001C000C000C000C000C0002F
:104D4000C00060006000300060004000C000C00093
:104D5000C000C000C000C0008001000300000000CF
:104D600000008001800180018001800180018001BC
:104D7000800180018001800180018001800180012B
:104D8000800180018001800180018001800100009C
:104D900000006000C000C00180018001800180012E
:104DA0008001000300030006000300018001800170
:104DB0008001800180018001C000600000000000CF
:104DC00000000000000000000000000000000000E3
:104DD000F010F81F080F00000000000000000000A5
:104DE00000000000000000000000000000000000C3
:104DF00000000000000000000000000000000000B3
:104E00000000000000000000000000200020002042
:104E100000200020002000200000002000000000F2
:104E20000000005000500050000000000000000092
:104E3000000000000000000000000009000900124E
:104E4000007F0012007F00120024002400000000F8
:104E50000010003800540050005000380014005476
:104E60000054003800100000000080300049004964
:104E7000004AC032200520092009C01000000000AF
:104E80000000000C0012001200140018002500237E
:104E90000023801D00000000000000400040004092
:104EA0000000000000000000000000000000000002
:104EB000000000080010001000200020002000204A
:104EC0000020002000100010000000400020002002
:104ED0000010001000100010001000100020002032
:104EE00000000020007000200050000000000000C2
:104EF00000000000000000000000000000000008AA
:104F00000008007F0008000800000000000000000A
:104F10000000000000000000000000000000000091
:104F20000000002000200040000000000000000001
:104F30000000000000700000000000000000000001
:104F40000000000000000000000000000000000061
:104F50000000002000000000000000100010001001
:104F60000020002000200020004000400000000041
:104F700000000010002800440044004400440044A5
:104F80000028001000000000000000100030005059
:104F900000100010001000100010001000000000B1
:104FA0000000003000480044000400080010002009
:104FB0000040007C000000000000003000480004B9
:104FC0000008001000080044004800300000000005
:104FD0000000000800180018002800280048007C85
:104FE00000080008000000000000003C0020004015
:104FF0000070004800040044004800300000000039
:1050000000000018002400400050006800440044E4
:1050100000280010000000000000007C00040008D0
:1050200000100010001000200020002000000000F0
:105030000000001000280044002800100028004450
:1050400000280010000000000000001000280044AC
:105050000044002C00140004004800300000000050
:105060000000000000000020000000000000000020
:1050700000000020000000000000000000000020F0
:1050800000000000000000000000002000200040A0
:10509000000000000004000800300040003000085C
:1050A0000004000000000000000000000000007C80
:1050B00000000000007C0000000000000000000074
:1050C000000000000040002000180004001800202C
:1050D00000400000000000000000003800640044B0
:1050E0000004000800100010000000100000000084
:1050F0000000800F4010A02EA051205120512051BF
:105100002053C04D2020401000000008001400145F
:1051100000140022003E0022004100410000000077
:105120000000003C002200220022003C002200225D
:105130000022003C000000000000000E00110021D1
:1051400000200020002000210011000E00000000BF
:105150000000003C0022002100210021002100214C
:105160000022003C000000000000003E0020002063
:105170000020003E002000200020003E0000000033
:105180000000003E002000200020003C0020002005
:1051900000200020000000000000000E001100218F
:1051A00000200027002100210011000E0000000057
:1051B00000000021002100210021003F00210021EA
:1051C000002100210000000000000020002000203D
:1051D000002000200020002000200020000000000F
:1051E0000000000800080008000800080008004847
:1051F00000480030000000000000002200240028C9
:1052000000280038002800240024002200000000AC
:1052100000000020002000200020002000200020AE
:105220000020003E0000000000008020803180311E
:105230008031802A802A802A802A80240000000071
:105240000000002100310031002900290025002341
:1052500000230021000000000000000C00120021CB
:1052600000210021002100210012000C000000009C
:105270000000003C002200220022003C0020002010
:1052800000200020000000000000000C001200219F
:1052900000210021002100210016000D0001000066
:1052A0000000003E002100210021003E00240022D9
:1052B00000218020000000000000001C00220022CD
:1052C0000020001C000200220022001C0000000040
:1052D0000000003E00080008000800080008000860
:1052E000000800080000000000000021002100214B
:1052F00000210021002100210012000C000000000C
:10530000000000410041002200220022001400148D
:10531000001400080000000000004044404A402AF9
:10532000802A802A802A802A802A0011000000001A
:1053300000000041002200140014000800140014B2
:105340000022004100000000000000410022002275
:105350000014000800080008000800080000000011
:105360000000007E00020004000800100010002071
:105370000040007E000000000000003000200020FF
:10538000002000200020002000200020002000201D
:1053900000000040004000200020002000200020ED
:1053A000001000100000000000000060002000203D
:1053B00000200020002000200020002000200020ED
:1053C0000000001000280028002800440000000011
:1053D00000000000000000000000000000000000CD
:1053E0000000000000000000000000000000007E3F
:1053F000004000200000000000000000000000004D
:105400000000000000000000000000000000003864
:1054100000440004003C00440044003C0000000044
:105420000000004000400058006400440044004474
:105430000064005800000000000000000000003080
:1054400000480040004000400048003000000000DC
:105450000000000400040034004C004400440044F8
:10546000004C003400000000000000000000003884
:1054700000440044007C004000440038000000006C
:1054800000000060004000E000400040004000409C
:105490000040004000000000000000000000003458
:1054A000004C004400440044004C0034000400441C
:1054B00000000040004000580064004400440044E4
:1054C00000440044000000000000004000000040D4
:1054D000004000400040004000400040000000004C
:1054E000000000400000004000400040004000403C
:1054F00000400040004000400000004000400048E4
:1055000000500060005000500048004800000000BB
:1055100000000040004000400040004000400040CB
:1055200000400040000000000000000000000052A9
:10553000006D004900490049004900490000000091
:1055400000000000000000580064004400440044D3
:10555000004400440000000000000000000000388B
:1055600000440044004400440044003800000000AF
:1055700000000000000000580064004400440044A3
:1055800000640058004000400000000000000034AB
:10559000004C004400440044004C0034000400046B
:1055A000000000000000005000600040004000408B
:1055B000004000400000000000000000000000303B
:1055C00000480040003000080048003000000000A3
:1055D00000000040004000E000400040004000406B
:1055E00000400060000000000000000000000044D7
:1055F0000044004400440044004C0034000000001B
:10560000000000000000004400440028002800289A
:105610000028001000000000000000000000004909
:1056200000490055005500550055002200000000BB
:10563000000000000000004400280028001000289E
:1056400000280044000000000000000000000044AA
:10565000004400280028002800100010001000104E
:10566000000000000000007800080010002000206A
:105670000040007800000000000000100020002022
:1056800000200020004000200020002000200020FA
:10569000000000200020002000200020002000202A
:1056A00000200020002000200000004000200020FA
:1056B00000200020001000200020002000200020FA
:1056C000000000000000000000740058000000000E
:1056D000000000000000000000000000007000500A
:1056E00000500050005000500050007000000000BA
:1056F00000000000000000000000000000000000AA
:105700000000000000000000000000000000100089
:105710001000100010001000100000001000000029
:105720000000000000002800280028000000000001
:105730000000000000000000000000000000140055
:1057400014003E00140028007C00280028000000FF
:105750000000000010003800540050003800140011
:105760001400540038001000000000000000440045
:10577000A800A800500014001A002A00240000000D
:105780000000000000002000500050002000E80051
:1057900098009800600000000000000000008000F9
:1057A00080008000000000000000000000000000F9
:1057B00000000000000040008000800080008000A9
:1057C0008000800080008000000000000000800059
:1057D00040004000400040004000400040004000C9
:1057E0000000000000004000E0004000A0000000B9
:1057F00000000000000000000000000000000000A9
:10580000000020002000F800200020000000000020
:105810000000000000000000000000000000000088
:1058200000000000400040000000000000000000F8
:105830000000000000000000C000000000000000A8
:105840000000000000000000000000000000000058
:1058500000000000400000000000000000002000E8
:1058600020002000400040008000800080000000F8
:105870000000000000006000900090009000900088
:105880009000900060000000000000000000200078
:105890006000A00020002000200020002000000068
:1058A00000000000000060009000100010002000C8
:1058B00040008000F00000000000000000006000D8
:1058C00090001000600010001000900060000000C8
:1058D0000000000000001000300050005000900058
:1058E000F800100010000000000000000000700030
:1058F00040008000E00010001000900060000000F8
:10590000000000000000600090008000A000D000B7
:105910009000900060000000000000000000F00017
:105920001000200020002000400040004000000047
:1059300000000000000060009000900060009000F7
:105940009000900060000000000000000000600077
:1059500090009000B0005000100090006000000027
:1059600000000000000000000000400000000000F7
:1059700000000000400000000000000000000000E7
:105980000000400000000000000000004000400057
:105990000000000000000000000010006000800017
:1059A0006000100000000000000000000000000087
:1059B00000000000F0000000F00000000000000007
:1059C00000000000000000000000800060001000E7
:1059D0006000800000000000000000000000600087
:1059E0009000100020004000400000004000000037
:1059F0000000000000001C0022005B00A500A500C4
:105A0000A500A5009E00410000000000000020004D
:105A100050005000500050007000880088000000C6
:105A2000000000000000F00088008800F0008800FE
:105A300088008800F000000000000000000038002E
:105A4000440084008000800084004400380000008E
:105A5000000000000000E00090008800880088003E
:105A600088009000E0000000000000000000F80046
:105A700080008000F800800080008000F8000000B6
:105A8000000000000000780040004000700040006E
:105A9000400040004000000000000000000038000E
:105AA0004400840080009C00840044003800000012
:105AB000000000000000880088008800F8008800CE
:105AC00088008800880000000000000000008000BE
:105AD0008000800080008000800080008000000046
