:020000040800F2
:10000000D01000209D0100088D0C0008310C000864
:10001000890C00083B020008611C00080000000079
:10002000000000000000000000000000F9100008BF
:10003000DF09000800000000290D0008291200084F
:10004000B7010008B7010008B7010008B7010008B0
:10005000B7010008B7010008B7010008B7010008A0
:10006000B7010008B7010008B7010008B701000890
:10007000B7010008B7010008B7010008B701000880
:10008000B7010008B7010008B7010008B701000870
:1000900041020008B7010008B7010008B7010008D5
:1000A000B7010008B7010008B7010008B701000850
:1000B000B7010008B7010008B7010008B701000840
:1000C000B7010008B7010008B7010008B701000830
:1000D000B7010008B7010008B70100089512000831
:1000E000B7010008B7010008B7010008B701000810
:1000F000B7010008B7010008B7010008B701000800
:10010000B7010008B7010008B7010008B7010008EF
:10011000B7010008B7010008B7010008B7010008DF
:10012000B7010008B7010008B7010008B7010008CF
:10013000B7010008B7010008B7010008B7010008BF
:10014000B7010008B7010008B7010008B7010008AF
:10015000B7010008B7010008B7010008B70100089F
:10016000B7010008B7010008B7010008B70100088F
:10017000B7010008B7010008B7010008B70100087F
:10018000B7010008B7010008DFF80CD000F018F83C
:1001900000480047251F0008D0100020064880476F
:1001A00006480047FEE7FEE7FEE7FEE7FEE7FEE75C
:1001B000FEE7FEE7FEE7FEE72D12000889010008D2
:1001C000064C074D06E0E06840F0010394E80700A4
:1001D00098471034AC42F6D3FFF7DAFFD02200087C
:1001E000F022000870B58C1810F8015B15F00703B9
:1001F00001D110F8013B2A1106D110F8012B03E0C0
:1002000010F8016B01F8016B5B1EF9D12B0705D4C7
:100210000023521E0DD401F8013BFAE710F8013B10
:10022000CB1A921C03E013F8015B01F8015B521E2C
:10023000F9D5A142D8D3002070BD00BFFEE7000071
:1002400010B50D4A00210D4800F0F1F90A48006888
:1002500040F2213188420ED10748007A58B9064849
:10026000807A012807D10449C87A00F0E3FC0248EB
:10027000C07A0349087010BDA80100200064004046
:10028000000000201CB50121082000F04FFD0922CC
:1002900000212A4800F036FC09220121274800F0FD
:1002A00031FC0320009002208DF804008DF8050039
:1002B00000208DF8060001208DF8070069461F48D0
:1002C00000F0D8FB0121480600F040FD1C4800F07A
:1002D0003FF800201B498871C87108724872887203
:1002E000C8728870C8700520087107204871022004
:1002F0000880134800F011F9002013498872C87271
:10030000012008730020088048808880C880088108
:1003100001204873084600F037F840F221300B49BD
:10032000086001204860002048720872012088722D
:1003300001220221024800F0E7F81CBD000C024037
:100340000064004078010020840100209401002016
:1003500010B504460B48844209D10121480600F03B
:1003600005FD00214FF0007000F000FD08E00121C4
:10037000880600F0FBFC00214FF0806000F0F6FCE6
:1003800010BD00000064004010B50021837A0122F6
:1003900002FA03F13D4A126842F001023B4B1A6037
:1003A0003A4A1C3212688A43384B1C331A60027B6B
:1003B000CAB9364A0C3212688A43344B0C331A607D
:1003C0004288C38842EA0343304A4032847A42F882
:1003D00034300288838842EA03432C4A4032847ACC
:1003E00002EBC4025360027B012A19D1274A0C3266
:1003F00012680A43254B0C331A604288038842EA8C
:100400000343224A4032847A42F83430C2888388D7
:1004100042EA03431D4A4032847A02EBC40253602D
:10042000C27A3AB9194A121D12688A43174B1B1D2A
:100430001A6006E0154A121D12680A43134B1B1D71
:100440001A60028932B9114A143212688A430F4B7A
:1004500014331A600289012A06D10C4A1432126838
:100460000A430A4B14331A60427B012A06D1074A19
:100470001C3212680A43054B1C331A60034A126887
:1004800022F00102014B1A6010BD0000006600401E
:1004900010B50246002001F4700343B19369C1F323
:1004A000130423400BB101202DE000202BE001F0CC
:1004B000807343B15368C1F3130423400BB101208F
:1004C00021E000201FE001F0006343B19368C1F315
:1004D000130423400BB1012015E0002013E001F0CC
:1004E000007343B1D368C1F3130423400BB101205F
:1004F00009E0002007E01369C1F3130423400BB1A6
:10050000012000E0002010BD1AB143690B43436194
:1005100002E043698B434361704730B502460020D7
:100520000023146824F002041460146844F00104E9
:10053000146000E05B1C546804F001041CB94FF621
:10054000FF74A342F6D1546804F001040CB90020F2
:100550006CE08C79012C04D1146844F080041460A0
:1005600003E0146824F080041460CC79012C04D1D9
:10057000146844F04004146003E0146824F040045C
:1005800014600C7A012C04D1146844F02004146027
:1005900003E0146824F0200414604C7A012C04D188
:1005A000146844F01004146003E0146824F010048C
:1005B00014608C7A012C04D1146844F0080414608F
:1005C00003E0146824F008041460CC7A012C04D1F0
:1005D000146844F00404146003E0146824F0040474
:1005E00014608C78A407CD7844EA05640D7944EA58
:1005F00005444D7944EA05540D886D1E2C43D461A1
:10060000146824F001041460002300E05B1C5468AB
:1006100004F001041CB14FF6FF74A342F6D15468F4
:1006200004F001040CB1002000E0012030BD10B541
:1006300000F5D87303EB01131B6803F00403137276
:10064000137A53B900F5D87303EB01131B6840F21A
:10065000FF7404EA5353136009E000F5D87303EB09
:1006600001131B686FF0604404EAD303536000F584
:10067000D87303EB01131B6803F00203537200F5F8
:10068000D87303EB01135B6803F00F03937200F55B
:10069000D87303EB01135B681B0AD37400F5D8739E
:1006A00003EB01139B68D37200F5D87303EB0113BE
:1006B0009B681C0A147300F5D87303EB01139B6845
:1006C0001C0C547300F5D87303EB01139B681B0ECD
:1006D000937300F5D87303EB0113DB68D37300F554
:1006E000D87303EB0113DB681C0A147400F5D8738C
:1006F00003EB0113DB681C0C547400F5D87303EB97
:100700000113DB681B0E937421B9C36843F0200307
:10071000C36003E0036943F02003036110BD10B51B
:1007200002460020936803F08063B3F1806F00D12C
:1007300010E0936803F00063B3F1006F01D1012072
:1007400008E0936803F08053B3F1805F01D1022089
:1007500000E00420042874D002F5C07303EB0013FA
:100760001B6803F0010402F5C07303EB00131C6067
:100770000B7A7BB94B7A0C8843EA445302F5C07478
:1007800004EB00142468234302F5C07404EB001446
:10079000236010E00B7A4C6843EAC4034C7A23438D
:1007A00002F5C07404EB00142468234302F5C074FE
:1007B00004EB001423608B7A03F00F038B7202F5B5
:1007C000C07303EB00135B6823F00F0402F5C073E2
:1007D00003EB00135C6002F5C07303EB00135B686E
:1007E0008C7A234302F5C07404EB001463608B7BA6
:1007F0001C064B7B44EA03440B7B44EA0323CC7A7C
:10080000234302F5C07404EB0014A3608B7C1C0628
:100810004B7C44EA03440B7C44EA0323CC7B234314
:1008200002F5C07404EB0014E36002F5C07303EB3F
:1008300000131B6843F0010402F5C07303EB0013BF
:100840001C6010BD70B506460C4604F08000802880
:1008500008D104F07F0000EB800106F58E7000EBFC
:10086000C10507E004F07F0000EB800106F55D7034
:1008700000EBC10504F07F00287004F08000C0097F
:1008800068702946304601F063F8002070BD2DE9FC
:10089000F04106460D4690461F4605F08000802830
:1008A00008D105F07F0000EB800106F58E7000EBAB
:1008B000C10407E005F07F0000EB800106F55D70E4
:1008C00000EBC10405F07F00207005F08000C00936
:1008D0006070C4F80880E770607808B12078E08024
:1008E000022F01D1002020712146304600F0D8FFB0
:1008F0000020BDE8F0812DE9F04105460E4617467F
:10090000984606F07F0000EB800105F55D7000EB76
:10091000C104E760C4F814800020A061607006F094
:100920007F002070E878012800D12761207820B965
:100930002146284600F0D8FE03E02146284601F073
:1009400074F80020BDE8F08170B506460C4604F04E
:100950008000802808D104F07F0000EB800106F5BC
:100960008E7000EBC10505E004EB840106F55D70B7
:1009700000EBC1050120A87004F07F002870C4F3CB
:10098000C01068702946304601F01DF8002070BD87
:100990002DE9F04107460D461646984605F07F00C2
:1009A00000EB800107F58E7000EBC1040120607040
:1009B00005F07F002070E66026610020A061C4F889
:1009C0001480207820B92146384600F08DFE03E0DF
:1009D0002146384601F029F80020BDE8F081704733
:1009E000002123498279002A3AD00A461268036816
:1009F0009A430B461A600A1D126803689A430B1D3E
:100A00001A60027911440A6803681A430A60184A96
:100A10000832126803689A43154B08331A601A1D8E
:100A2000126803689A43124B0C331A604279102AF9
:100A30000ED11A1F126803681A430D4B08331A604F
:100A40001A1D126803681A43094B0C331A600DE033
:100A50000749427911440A6803681A430A6005E0AD
:100A6000027911440A6803689A430A6070470000DB
:100A7000003C0140F0B50A4600210023002400BFDD
:100A80003DE0012505FA01F3156805EA03049C42DF
:100A900034D105684F000326BE40B5430560157983
:100AA0004E00B5400668354305601579012D02D02A
:100AB0001579022D16D185684F000326BE40B54337
:100AC000856055794E00B540866835438560456838
:100AD00001268E40B5434560456896798E40B6B292
:100AE00035434560C5684F000326BE40B543C56029
:100AF000D5794E00B540C6683543C560491C1029FC
:100B0000BFD3F0BDF0B5002300244D07ED0E02FA6F
:100B100005F3CE1000F1200555F826504E07F70ECC
:100B20000F26BE40B543CF1000F1200646F82750EF
:100B3000CE1000F1200555F8265045EA0304CE10EA
:100B400000F1200545F82640F0BD0246002013695B
:100B50000B400BB1012000E00020704770B5064645
:100B60002E480078012856D02D480068B0F5006F57
:100B700002D100202A4908602948006829490968EB
:100B8000884203D100202549087070BD24480068C0
:100B900024490968884206D921480068C0F50060E8
:100BA0002149086006E01F4800681D490968401A8D
:100BB0001D4908601C480068B0F5007F11D918482D
:100BC000008884B24FF400751548006800F5007085
:100BD0001349086014480068A0F5007012490860C5
:100BE0000FE00F48008884B20F48008885B20C4897
:100BF00000680D49096808440949086000200A494D
:100C00000860012005490870084802192B46812117
:100C10003046FFF7BDFE00BFB7E70000B000002080
:100C2000A8000020A4000020AC000020CB0400207D
:100C300000BFFEE710B50446002000F0D9F90120FE
:100C400000F0D6F9022000F0D3F9032000F0D0F92B
:100C5000012C06D0022C08D0032C0AD0042C10D171
:100C60000BE0002000F0D0F90CE0012000F0CCF9FE
:100C700008E0022000F0C8F904E0032000F0C4F905
:100C800000E000BF00BF10BD00BFFEE7704708B521
:100C900014208DF8000000208DF801008DF802006E
:100CA00001208DF80300684600F002F808BD00003E
:100CB00070B5002100230F22C4781CB3174C2468A0
:100CC00004F4E064C4F5E064C4F30721C1F1040452
:100CD000E3B20A4144789C40E1B284781440214355
:100CE0000C07210E0E4C05786155047804F01F05A1
:100CF0000124AC4005786D11AD0005F1E025C5F883
:100D0000004109E0047804F01F050124AC40054DC2
:100D10000678761145F8264070BD00000CED00E025
:100D200000E400E080E100E07047000029B1064ADD
:100D300012680243044B1A6004E0034A12688243BB
:100D4000014B1A60704700003038024029B1064A52
:100D500012680243044B1A6004E0034A126882439B
:100D6000014B1A60704700004038024029B1064A22
:100D700012680243044B1A6004E0034A126882437B
:100D8000014B1A60704700002038024029B1064A22
:100D900012680243044B1A6004E0034A126882435B
:100DA000014B1A607047000044380240F0B5002142
:100DB00000220024022500260223324F3F6807F05C
:100DC0000C0121B1042905D0082937D105E02E4FA7
:100DD000076036E02D4F076033E02A4F3F1F3F6822
:100DE000C7F38056274F3F1F3F6807F03F036EB1A0
:100DF000264FB7FBF3F7DFF88CC0ACF1040CDCF83E
:100E000000C0CCF3881C07FB0CF40CE01E4FB7FBB2
:100E1000F3F7DFF870C0ACF1040CDCF800C0CCF3E1
:100E2000881C07FB0CF4174F3F1F3F68C7F30147AF
:100E30007F1C7D00B4FBF5F7076002E0124F0760EE
:100E400000BF00BF0F4F3F6807F0F0010909104FC6
:100E50007A5C0768D74047600A4F3F6807F4E05163
:100E6000890A0B4F7A5C4768D7408760054F3F6817
:100E700007F46041490B064F7A5C4768D740C7606A
:100E8000F0BD0000083802400024F40040787D01E5
:100E9000880000203EB504460D4625208DF8000050
:100EA00000208DF801008DF8020001208DF803006C
:100EB0006846FFF7FDFE2E4951F824102D4A52F8DE
:100EC000242041EA02000121FFF730FF2A4951F8AE
:100ED00024000121FFF75AFF284B13F81420284B58
:100EE00033F81410274B53F82400FFF70BFE264B62
:100EF00013F81420254B33F81410254B53F8240015
:100F0000FFF700FE00208DF80A0001208DF80B008D
:100F100002208DF808001F4830F8140001900220CC
:100F20008DF80900174951F8240001A9FFF7A2FD27
:100F300002208DF80800184830F814000190144978
:100F400051F8240001A9FFF795FD144951F8240038
:100F5000294600F01DFA114951F82400012100F042
:100F6000AFF9012240F225510D4800F0ECF93EBDE9
:100F7000BC220008C0220008B8220008CC220008C9
:100F8000C82200087C000020CE220008CA220008E7
:100F900080000020C4220008C6220008780000203B
:100FA000001001401CB504460E4951F824000121EF
:100FB000FFF7BCFE0C4830F81400009001208DF8BB
:100FC000040000208DF8060001208DF807000220A3
:100FD0008DF80500054951F824006946FFF74AFDE0
:100FE0001CBD00007C220008742200085C00002068
:100FF000034931F81010034A52F8202051837047FA
:10100000742200085C000020034931F81010034AE4
:1010100052F8202011837047742200085C000020E1
:1010200010B50446044A32F81410044A52F8240059
:10103000FFF78BFD10BD00008C2200086C00002023
:1010400030B585B004460D46244951F824000121ED
:10105000FFF76CFE01218803FFF798FE00208DF852
:1010600010008DF813001E4830F8140003901D493D
:1010700051F8240003A9FFF7FDFC012D2CD11A4AD9
:1010800012F81410194A12F8140000F037F8184832
:1010900030F81400019000208DF808001CB10C20DD
:1010A0008DF8090002E008208DF8090001208DF874
:1010B0000A0001A8FFF794FC0E4810F814008DF800
:1010C00000000F208DF801008DF8020001208DF83E
:1010D00003006846FFF7ECFD05B030BD9422000820
:1010E0008C2200086C000020AC220008A622000818
:1010F000A0220008B22200087047000030B500228C
:101100008B071C0F0F2303FA04F20B4B8C1053F8C0
:1011100024309343084C8D1044F8253023468C101E
:1011200053F824308C07240F00FA04F42343024CB4
:101130008D1044F8253030BD083801400CB5002032
:10114000019000903448006840F4803032490860D3
:1011500000BF3148006800F4003000900198401C46
:101160000190009818B90198B0F5A04FF1D12A4824
:10117000006800F4003010B10120009001E0002070
:1011800000900098012846D123484030006840F084
:1011900080502149403108602048006840F44040B8
:1011A0001E4908601C48083000681B490831086067
:1011B0000846006840F4004008600846006840F4B3
:1011C000A05008601648091F0860081F006840F01A
:1011D0008070091F086000BF0F48006800F00070B1
:1011E0000028F9D040F205700E4908600A4808301E
:1011F000006820F0030008490831086008460068CC
:1012000040F00200086000BF03480830006800F0AA
:101210000C000828F8D10CBD0038024000700040D6
:1012200019544007003C02407047000010B51548B3
:10123000006840F47000134908601348006840F0EB
:1012400001001149086000200F49083108600E486C
:1012500000680E4908400C4908600D48091D0860E7
:10126000081F006820F48020091F0860002006493C
:101270000C310860FFF762FF4FF0006001498039D0
:10128000086010BD88ED00E000380240FFFFF6FE68
:101290001030002410B540F22551084800F029F81C
:1012A00018B10021084600F0CDFD0821034800F0E8
:1012B00013F810B1014800F0D5F810BD001001403E
:1012C00021B1828942F40052828104E082894DF684
:1012D000FF731A408281704702460020B1F5007FFB
:1012E00000D100BF13880B400BB1012000E00020AB
:1012F000704770B50246002400230025002040F608
:101300006A16B14200D100BFC1F3421501F01F03BC
:10131000012606FA03F3012D02D19689334006E037
:10132000022D02D1168A334001E0968A33400C1216
:10133000012606FA04F41688344013B10CB10120DA
:1013400000E0002070BDF0B5034600240026002513
:10135000002040F66A17B94200D100BF1846C1F319
:10136000421401F01F06012707FA06F5012C01D1EE
:101370000C3004E0022C01D1103000E014301AB11E
:1013800007682F43076002E00768AF430760F0BDBE
:101390002DE9FF4705460E460024A14600BFA046A2
:1013A000B08900B100BF2C8A24F44054F088044373
:1013B0002C82AC8941F20C608443B08831890843A7
:1013C000718908430443AC81AC8A24F44074B08929
:1013D0000443AC826846FFF7E9FC2048854202D00E
:1013E0001F48854202D1DDF80C9001E0DDF808903D
:1013F000A88900F4004040B109EBC90000EB0910D6
:1014000031684900B0FBF1F707E009EBC90000EBD8
:10141000091031688900B0FBF1F76420B7FBF0F0E8
:1014200004012009642101FB1078A88900F4004020
:1014300040B1322000EBC800B0FBF1F000F0070033
:10144000044308E0322000EB08106421B0FBF1F007
:1014500000F00F0004432C81BDE8FF87001001401D
:101460000014014001468888C0F308007047C1F3AA
:1014700008028280704770B504460D4680212046E0
:10148000FFF762FA00212046FFF75EFA204600F0DF
:10149000D6F970BD2DE9F04104460E4615460027E9
:1014A000C4F89453C4F89053032140F2111001552D
:1014B0002B46324600212046FFF71DFA3846BDE88C
:1014C000F0812DE9F04104460E4615460027C4F888
:1014D0003C51C4F83851022140F2111001552B46FD
:1014E000324600212046FFF753FA3846BDE8F08126
:1014F0000146002002E0421CD0B2491C0A78002AB2
:10150000F9D170472DE9F04104460D4617460026F3
:10151000FCB12046FFF7ECFF022101EB40003880D0
:101520003A783046711CCEB22A5403223046711CE0
:10153000CEB22A540AE014F8012B3046711CCEB208
:101540002A5400223046711CCEB22A54207800283A
:10155000F1D1BDE8F081000070B505460C462DB90B
:101560002246064906A0FFF7CDFF04E022460349C4
:1015700003A0FFF7C7FF014870BD0000CC010020A9
:1015800056435020436F6E66696700000246122082
:1015900008800148704700003C00002070B50546F7
:1015A0000C462DB92246064906A0FFF7ABFF04E022
:1015B0002246034903A0FFF7A5FF014870BD0000C4
:1015C000CC01002056435020496E746572666163F9
:1015D00065000000024604200880014870470000B2
:1015E0005800002070B505460C462246024903A06B
:1015F000FFF788FF004870BDCC01002053544D69AF
:1016000063726F656C656374726F6E6963730000FB
:1016100070B505460C462DB92246064906A0FFF7CF
:1016200071FF04E0224603490CA0FFF76BFF01485D
:1016300070BD0000CC01002053544D333220566958
:10164000727475616C20436F6D506F727420696E97
:10165000204853206D6F64650000000053544D33E3
:1016600032205669727475616C20436F6D506F72D1
:101670007420696E204653204D6F646500000000A1
:1016800070B505460C462DB92246064906A0FFF75F
:1016900039FF04E02246034907A0FFF733FF014862
:1016A00070BD0000CC0100203030303030303030A0
:1016B00030353042000000003030303030303030D3
:1016C00030353043000000000246432008800148C6
:1016D00070470000EC0000200246432008800148CB
:1016E000704700002F010020FEB5024600200024B4
:1016F0000025029500954D78012D52D193691D6802
:1017000002951D6900954D6955B9009D25F07F052D
:101710000095009D25F4C01505F50025009516E0FF
:101720008E684D69B54207D98D684D610E7A009D6E
:1017300066F30605009504E00E7D009D66F3060540
:101740000095009D25F4C01505F500250095009D28
:101750001D61D578012D06D10F7802F1180555F8D5
:1017600027500E696E61029D25F0806505F1806548
:101770000295029D25F0004505F100450295029D68
:101780001D60D578002D59D14D69002D56D00E78A9
:101790000125B5402C4315696D6B254316697563AA
:1017A0004CE00E7802F1540555F826502D6802954C
:1017B0000E7802F1540555F826502D6900954D69B3
:1017C0005DB90E7A009D66F306050095009D25F42F
:1017D000C01505F5002500950CE08D684D610E7A69
:1017E000009D66F306050095009D25F4C01505F5DE
:1017F000002500950F7802F1540555F82750009EFA
:101800002E61D578012D06D10F7802F1540555F8D7
:1018100027500E696E61029D25F0806505F1806597
:101820000295029D25F0004505F1004502950F78CF
:1018300002F1540555F82750029E2E60FEBD0EB5EC
:1018400000210191019921F04041A1F180410191D4
:10185000019921F4C01101F500210191019921F0B4
:101860007F0118310191019A416D0A61C178012906
:1018700015D10021009100F2CC51426D5161416DB2
:1018800009680091009921F0004101F100410091A7
:101890004FF080210091009A416D0A6000BF0EBD9B
:1018A0003CB5024600200024019400944C78012CA1
:1018B0000CD10D7802F1180454F825300D7801246C
:1018C000AC40009D64F30F0500950BE00D7802F12C
:1018D000540454F825300D780124AC40009D64F385
:1018E0001F4500951C680194019CC4F3C034E4B901
:1018F0000D89019C65F30A040194CD78019C65F380
:10190000934401948D79019C65F399540194019C51
:1019100024F0805404F180540194019C24F4004488
:1019200004F500440194019C1C600C78012C08D142
:10193000D47A34B91469E46B009D2C431569EC63C7
:1019400005E01469E469009D2C431569EC613CBD18
:101950003CB5024600200024019400944C78012CF0
:101960000CD10D7802F1180454F825300D780124BB
:10197000AC40009D64F30F0500950BE00D7802F17B
:10198000540454F825300D780124AC40009D64F3D4
:101990001F450095019C24F400440194019C1C60A7
:1019A0000C78012C08D1D47A34B91469E46B009D09
:1019B000AC431569EC6305E01469E469009DAC4330
:1019C0001569EC613CBD38B503460A460020002489
:1019D00000945478012C18D1157803F1180454F8A8
:1019E00025100C680094009CE40F2CB1009C24F09E
:1019F000804404F180440094009C24F4001404F515
:101A000000140094009C0C600EE0157803F154045F
:101A100054F825100C680094009C24F4001404F57C
:101A200000140094009C0C6038BDFEB505460C46C1
:101A300000260027002002900190607801287ED1C6
:101A4000217805F1180050F82100006802902178F3
:101A500005F1180050F8210000690190606948B94B
:101A600001986FF3120001900121019861F3DC40AD
:101A7000019017E06169019861F3120001906069BB
:101A8000401EA1680844B0FBF1F1019861F3DC400D
:101A90000190E078012805D1019820F0C04000F1C4
:101AA00000500190227805F1180050F822000199A9
:101AB0000161E878012807D1227805F1180050F873
:101AC0002200216941610DE0E07801280AD06069B7
:101AD00040B12178012000FA01F72869406B3843B2
:101AE00029694863E078012813D12869806800904B
:101AF0000098C0F3002030B9029820F0005000F1A7
:101B00000050029005E0029820F0805000F18050D3
:101B10000290029820F0806000F1806002900298AC
:101B200020F0004000F100400290227805F11800FA
:101B300050F8220002990160E078012800E008E0F6
:101B40006CD1A08A83B222782846E16800F068F858
:101B500064E0217805F1540050F8210000680290FB
:101B6000217805F1540050F8210000690190606966
:101B700050B9A168019861F3120001900121019808
:101B800061F3DC40019013E0A068401E61690844E5
:101B9000A168B0FBF1F1019861F3DC40019001987C
:101BA000C0F3C940A1684843019960F31201019153
:101BB000227805F1540050F8220001990161E8787B
:101BC000012806D1227805F1540050F8220021693D
:101BD0004161E07801280ED1607930B1029820F09F
:101BE000005000F10050029005E0029820F0805073
:101BF00000F180500290029820F0806000F1806037
:101C00000290029820F0004000F1004002902278FB
:101C100005F1540050F82200029901603046FEBDE3
:101C20002DE9F04104460026E078B0B900270020F5
:101C3000DD1C4FEAE57805EB98784FEAA80704F138
:101C4000D00555F822C000BF04E00D68CCF8005064
:101C5000401C091DB842F8D300BF3046BDE8F081F2
:101C600000BFFEE710B50446BCB94FF4E1303C4973
:101C7000086000208880C8804FF4C0600881002080
:101C800088810C2048810020FFF704F9012240F2EE
:101C900025513448FFF757FB5FE03348007920B106
:101CA000012806D002280ED108E000202C49C88067
:101CB0000EE04FF440502A49C88009E04FF400502C
:101CC0002749C88004E00020FFF7CCFF022010BDA8
:101CD00000BF2548407920B1012806D002280ED146
:101CE00008E000201E4908810EE04FF480601C4986
:101CF000088109E04FF4C0601949088104E0002020
:101D0000FFF7B0FF0220E2E700BF174880790728FD
:101D100002D0082810D103E000201149888010E08B
:101D20000F48008918B900200D49888003E04FF45E
:101D300080500B49888004E00020FFF793FF0220C9
:101D4000C5E700BF08480068054908600020888191
:101D50000C2048810020FFF79DF80020B7E7000025
:101D6000BC010020001001400400002070B50546B1
:101D70000C461646042D15D007DC7DB1012D0ED082
:101D8000022D0DD0032D3FD10BE0202D0BD0212DA6
:101D90001FD0222D36D0232D36D134E035E034E06B
:101DA00033E032E031E02078617840EA0120A17828
:101DB00040EA0140E17840EA016015490860207975
:101DC000087160794871A07988710120FFF74AFF96
:101DD0001BE00F48007820700D480088000A6070F2
:101DE0000B480068000CA07009480068000EE07005
:101DF000074800792071064840796071044880796D
:101E0000A07102E001E000E000BF00BF002070BD53
:101E10000400002070B505460E4600240BE0295D45
:101E20000748FFF724FB00BF80210548FFF754FA5D
:101E30000028F9D0641CB442F1D3002070BD00002A
:101E40000010014070B504460D46134880790728FC
:101E500009D11248FFF706FB00F07F001049114A34
:101E6000126888540AE00C488079082806D10B488B
:101E7000FFF7F8FA0A490B4A1268885409480068C3
:101E8000401C0849086008460068B0F5006F01D1A1
:101E900000200860002070BD0400002000100140F8
:101EA000CB040020A40000200020704708B54FF4A8
:101EB000E1301249086000208880C8804FF4C0607B
:101EC0000881002088810C2048810020FEF7E2FF75
:101ED000012240F225510A48FFF735FA25208DF8F6
:101EE000000000208DF801008DF8020001208DF81F
:101EF00003006846FEF7DCFE002008BDBC010020A0
:101F00000010014002E008C8121F08C1002AFAD1DF
:101F100070477047002001E001C1121F002AFBD169
:101F200070470000FEF7B3FE0020FFF73BF80120EA
:101F3000FFF738F80220FFF735F80320FFF732F8F3
:101F400000210220FFF77CF8FEF79CF937E031E032
:101F50001B480078042803D100201949087029E0A3
:101F600017490978491CC9B2154A11700846FEF78D
:101F700061FE134800781349C8721348FEF7CFFB7F
:101F800000BF12491048FEF783FA0028F9D10F4923
:101F9000FF310D48FEF77CFA0028F2D10C490A48BF
:101FA000FEF776FA0028ECD100BF0220FFF738F8E0
:101FB0000128FAD10220FFF733F80028C8D0C6E77D
:101FC000000000209401002000640040010000385F
:101FD000000001382DE9F04106460F461D48007803
:101FE000012834D11C48006818B90020194908702C
:101FF0002DE019480068B0F5007F11D91748008816
:1020000084B24FF400751548006800F5007013495C
:10201000086011480068A0F500700F4908600FE0E3
:102020000E48008884B20C48008885B20B480068CE
:102030000949096808440949086000200649086000
:10204000074802192B4681213046FEF7A1FC0020EB
:10205000BDE8F081B0000020AC000020A800002006
:10206000CB04002070B504460D4605EB850104F550
:102070005D7000EBC100008B86B2074831460269F3
:10208000064890474FF40073044A01212046FEF7AA
:1020900032FC002070BD00000C000020CB020020AC
:1020A00070B504460D4681212046FEF7CBFB012189
:1020B0002046FEF7C7FB82212046FEF7C3FB0249FC
:1020C00048688047002070BD0C00002010B5044611
:1020D00008480068FF280AD007488368074808496D
:1020E0000268044800689847FF2002490860002001
:1020F00010BD0000B40000200C000020B80000203B
:102100009C00002070B505460E4602231A0281216C
:102110002846FEF7BCFB02231A0201212846FEF7DF
:10212000B6FB0323082282212846FEF7B0FB084CA9
:1021300002202071002060710649086880474FF432
:102140000073054A01212846FEF7D5FB002070BD2B
:102150003C0000200C000020CB02002010B50446FB
:10216000074801680068401C054A1060282905D10D
:102170000020114608602046FEF7F0FC002010BD4C
:10218000740100202DE9F04105460C463A26334FF4
:10219000207800F0600070B3202826D1E088D8B104
:1021A000207800F0800058B1E28860782C498B6874
:1021B0002C499847E2882B492846FFF782F911E01D
:1021C000607829490860E08828490860E288254944
:1021D0002846FFF75FF905E06078214900228B6807
:1021E000114698470020BDE8F08121462846FFF7B8
:1021F00042F90220F7E7FFE76078062804D00A28B2
:1022000016D00B2826D119E060882121B1EB202FB0
:1022100008D1124F0937E0883A2801DD3A2000E062
:10222000E0880646324639462846FFF74AF911E06B
:1022300001220F492846FFF744F90BE0A078012856
:1022400003DAA0780A49086003E021462846FFF730
:1022500012F900BF00BF0020C5E70000F500002014
:102260000C0000209C000020B4000020B8000020DA
:1022700098000020800000010002000420000000FF
:1022800020000000200000002000000001000020CD
:102290000001000001000000040000000001000037
:1022A00001000020000100000200080000000D00F5
:1022B00008000600280017001000000001000000C0
:1022C000010000000002000409000A0007000700E6
:1022D000F02200080000002078010000E40100085E
:1022E000C823000878010020580F0000141F0008C0
:1022F0005133C201120813AD1E1B08A904136D1D32
:102300001B0845081A1504138D151B08D5041AE57A
:10231000041311161B0881041A590C1A9D04131278
:1023200001320216408304405748080201020301AB
:102330000A061212011504030904BC140240041118
:1023400019041A08041A20044B10011039046119E9
:10235000422A0404051C0607080972FF130521140C
:1023600008A1201B088508411ACD0C13D51F1B0896
:1023700065085A5D14411AC9B41AD9041C090243EC
:10238000A7111BC0329B196D190B1B05248814055E
:10239000240110090104240202052406170107057F
:1023A0008203081C100904DD320A1D07050102D54D
:1023B0002C070581072B0907430A220443BAFF4370
:0823C00019E5294379EC000046
:040000050800018965
:00000001FF
