:020000040800F2
:10000000B00400209D0100087908000815050008CB
:100010007508000835020008C51900080000000036
:100020000000000000000000000000002918000887
:1000300039020008000000000109000859190008F1
:10004000B7010008B7010008B7010008B7010008B0
:10005000B7010008B70100083B020008B70100081B
:10006000B7010008B7010008B7010008B701000890
:10007000B7010008B7010008B7010008B701000880
:10008000B7010008B7010008B7010008B701000870
:10009000B7010008B7010008B7010008B701000860
:1000A000B7010008B7010008B7010008B701000850
:1000B000B7010008B7010008B7010008B701000840
:1000C000B7010008B7010008B7010008B701000830
:1000D000B7010008B7010008B7010008B701000820
:1000E00051020008F50A0008B7010008B70100082E
:1000F000B7010008B7010008B7010008B701000800
:10010000B7010008B7010008B7010008B7010008EF
:10011000B7010008B7010008B7010008B7010008DF
:10012000B7010008B7010008B7010008B7010008CF
:10013000B7010008B7010008B7010008B7010008BF
:10014000B7010008B7010008B7010008B7010008AF
:10015000B7010008B7010008B7010008B70100089F
:10016000B7010008B7010008B7010008B70100088F
:10017000B7010008B7010008B7010008B70100087F
:10018000B7010008B7010008DFF80CD000F040F814
:1001900000480047951B0008B0040020064880472F
:1001A00006480047FEE7FEE7FEE7FEE7FEE7FEE75C
:1001B000FEE7FEE7FEE7FEE75D190008890100089B
:1001C000D2B201E000F8012B491EFBD27047002299
:1001D000F6E710B513460A4604461946FFF7F0FF46
:1001E000204610BD30B50B460146002020220124D8
:1001F00009E021FA02F59D4205D303FA02F5491BF5
:1002000004FA02F52844151EA2F10102F1DC30BD0A
:10021000064C074D06E0E06840F0010394E8070053
:1002200098471034AC42F6D3FFF7B2FF9C46000863
:10023000BC46000800BFFEE7704710B5012000F083
:100240001BF820B100F032FC012000F00FF810BDC7
:1002500010B54FF4005000F00FF828B100F078FF0F
:100260004FF4005000F002F810BD00000149086092
:1002700070470000143C014001460020034A126808
:100280000A400AB1012000E000207047143C014000
:10029000002123498279002A3AD00A46126803686D
:1002A0009A430B461A600A1D126803689A430B1D95
:1002B0001A60027911440A6803681A430A60184AEE
:1002C0000832126803689A43154B08331A601A1DE6
:1002D000126803689A43124B0C331A604279102A51
:1002E0000ED11A1F126803681A430D4B08331A60A7
:1002F0001A1D126803681A43094B0C331A600DE08B
:100300000749427911440A6803681A430A6005E004
:10031000027911440A6803689A430A607047000032
:10032000003C014051B18200A2F1C042126842F08B
:1003300001038200A2F1C042136009E08200A2F131
:10034000C0421268034B1A408300A3F1C0431A60F5
:1003500070470000FEFF0F00D0E901121143C26890
:100360001143026911434269114382691143C26911
:100370001143026A1143426A1143826A1143C26AFD
:100380001143026B114302689200A2F1C042116056
:10039000816808290BD101688900A1F1C041096871
:1003A00041F0400201688900A1F1C0410A60416B3F
:1003B0000968426B526841EA0211426B926841EA55
:1003C0000221426B928941EA0241426B128A41EA60
:1003D0000251426B127D41EA0261426B9269114304
:1003E0000268521C9200A2F1C0421160C16AB1F5CC
:1003F000804F1BD1816B0968826B526841EA021100
:10040000826B926841EA0221826B128A41EA0251B0
:10041000826B127D41EA0261826B9269114302682C
:100420009200A2F1C042C2F8041107E06FF07042DE
:1004300001688900A1F1C041C1F804217047F0B5FD
:100440000A4600210023002400BF3DE0012505FAF3
:1004500001F3156805EA03049C4234D105684F0096
:100460000326BE40B543056015794E00B5400668C9
:10047000354305601579012D02D01579022D16D16D
:1004800085684F000326BE40B543856055794E0010
:10049000B540866835438560456801268E40B54382
:1004A0004560456896798E40B6B235434560C5686B
:1004B0004F000326BE40B543C560D5794E00B54018
:1004C000C6683543C560491C1029BFD3F0BDF0B5DF
:1004D000002300244D07ED0E02FA05F3CE1000F1C3
:1004E000200555F826504E07F70E0F26BE40B5439F
:1004F000CF1000F1200646F82750CE1000F120055D
:1005000055F8265045EA0304CE1000F1200545F8C1
:100510002640F0BD00BFFEE730B50446002540F29E
:100520003F11002000F07EF900F09AF900BF03E0CF
:100530004FF0D04044806D1CB5F5963FF8D330BDE8
:100540001CB50121782000F0DDF94CF233700090E9
:1005500002208DF804008DF8050000208DF80600BB
:100560008DF8070069463E48FFF769FF0C2200211D
:100570003B48FFF7ACFF0C2201213948FFF7A7FFEA
:100580000C2204213648FFF7A2FF0C220521344833
:10059000FFF79DFF0C2208213148FFF798FF0C223E
:1005A00009212F48FFF793FF0C220A212C48FFF75F
:1005B0008EFF0C220E212A48FFF789FF0C220F2103
:1005C0002748FFF784FF4FF6807000906946254862
:1005D000FFF735FF0C2207212248FFF778FF0C2296
:1005E00008212048FFF773FF0C2209211D48FFF75F
:1005F0006EFF0C220A211B48FFF769FF0C220B211A
:100600001848FFF764FF0C2211461648FFF75FFFFA
:100610000C220D211348FFF75AFF0C220E2111481E
:10062000FFF755FF0C220F210E48FFF750FF012066
:10063000009069460C48FFF702FF0C2200210A488F
:10064000FFF745FF4FF48060009069460748FFF7C9
:10065000F6FE0C220A210548FFF739FF1CBD0000F9
:10066000000C02400010024000140240001802403A
:1006700070B505460E461446A4F12000C4B20748E2
:100680000068016805480068C088604301EB4002CB
:100690003146284600F02AF870BD000058000020BE
:1006A00070B506460C4640F23F150AE0227829460E
:1006B0003046FFF7DDFF0C4800688088281A85B2B5
:1006C000641C681C80B2084909688988884201DB7B
:1006D000012000E00020217809B1012100E0002183
:1006E00008400028E2D170BD580000202DE9F043F9
:1006F00007468946164600240025A046B8464946C6
:10070000404600F08FF800BF39E000F0A9F800255E
:1007100027E01E48006880880C2190FBF1F0C100A2
:1007200080208840284136F81410084020B9174826
:10073000006880880C280ADD36F814000121A940E1
:10074000084048B91148006880880C2804DD10482A
:10075000008800F081F803E00E48008800F07CF883
:100760006D1C0A4800688088A842D2D808F10100B0
:100770001FFA80F84946404600F054F8641C0348CC
:100780000068C088A042C0D8BDE8F08358000020AF
:100790005E0000205C00002000B597B001210846F3
:1007A00000F0C0F80520019000200290092003907D
:1007B00000200490059006900790042008900020E7
:1007C00009900A9010200B9000200C900D900E9034
:1007D0000F9010904FF480501190002012901390C1
:1007E000149001A81590169008A8FFF7B5FD0121F7
:1007F0000420FFF797FD17B000BD00000148006816
:10080000704700005800002001464FF0D0400180A2
:100810004088704701B5BDF800000149088008BD57
:100820005E00002010B503460C461946202000F05B
:100830001CF82146212000F018F810BD014908607D
:10084000704700005800002001B5BDF800000149C4
:10085000088008BD5C0000204FF0D0414880704700
:1008600022204FF0D041088070474FF0D0421080D6
:100870005180704700BFFEE77047000070B500214F
:1008800000230F22C4781CB3174C246804F4E064DE
:10089000C4F5E064C4F30721C1F10404E3B20A41E2
:1008A00044789C40E1B28478144021430C07210E27
:1008B0000E4C05786155047804F01F050124AC4006
:1008C00005786D11AD0005F1E025C5F8004109E09E
:1008D000047804F01F050124AC40054D067876111C
:1008E00045F8264070BD00000CED00E000E400E09B
:1008F00080E100E0014908627047000000000E42FC
:100900007047000029B1064A12680243044B1A607E
:1009100004E0034A12688243014B1A6070470000EA
:100920003038024029B1064A12680243044B1A606B
:1009300004E0034A12688243014B1A6070470000CA
:100940003838024029B1064A12680243044B1A6043
:1009500004E0034A12688243014B1A6070470000AA
:100960004038024029B1064A12680243044B1A601B
:1009700004E0034A12688243014B1A60704700008A
:100980004438024010B501460022002300204A11DD
:10099000012A02D10A4C236808E0022A03D1084C3C
:1009A0007034236802E0064C7434236801F01F029F
:1009B000012494401C400CB1012000E0002010BD37
:1009C000003802400021094A11701170012802D03C
:1009D000042808D103E00121044A117004E0052134
:1009E000024A117000E000BF00BF7047703802403B
:1009F00001490860704700003C0E4742002100F4A6
:100A00004072B2F5407F08D1094A116821F4F8110B
:100A1000084A02401143064A1160054A68321268CA
:100A2000C0F30B031A43024B68331A60704700008F
:100A300008380240FFFCFF0F38B50246002400943E
:100A400000230020CA24184D2C6053242C6041B18F
:100A5000154C1C3C24681443134D1C3D2C60012094
:100A60001EE0114C1C3C246894430F4D1C3D2C602F
:100A700000BF0D4C183C246804EA1223009C641C3F
:100A80000094009CB4F5803F01D0002BF1D0064CBF
:100A9000183C246804EA12240CB9002000E001206C
:100AA000FF24014D2C6038BD2428004000B58FB0D4
:100AB000342102A8FFF78BFB084A4FF48071002015
:100AC00000F00EF9054880780090044843780278D9
:100AD00003A102A800F078FF0FB000BD6C00002059
:100AE00025302E32643A25302E32643A25302E32AB
:100AF0006400000010B54FF4805000F02BF950B1A5
:100B0000002000F023FE4FF4805000F02DF84FF449
:100B10000030FFF7ABFB10BD014600BF080900EB3A
:100B20008000420001F00F001044C0B2704701463F
:100B3000002204E0501CC2B2A1F10A00C1B20A298D
:100B4000F8DA100741EA10607047000081B241F006
:100B50008001044A126802F0800262EA0101014A3F
:100B6000116070470C280040002101098AB242F050
:100B70008002044B1B6803F0800363EA0202014B0E
:100B80001A6070470C28004008B501210807FFF7DC
:100B9000D9FE0120FFF7AEFE0120FFF713FF00BFD3
:100BA0004120FFF7EFFE0028FAD04FF48070FFF7E6
:100BB00025FFFF202C4908607F202C490860012078
:100BC000FFF716FF00F042FB2848006828494860FC
:100BD00025480068886000200860084600F034F965
:100BE00000202449C870052008702020487030205B
:100BF000887031200873002088604FF00040486002
:100C00000A46C10D012000F061F90121080300F03E
:100C1000E9F801210802FFF70FFF4FF48070FFF79A
:100C200095FF13208DF8030001208DF8010011209D
:100C30008DF8020006208DF800006946012000F0C2
:100C4000BBF900200C49C8700520087020204870AE
:100C500000208870012000F013FA43F2F2210020F6
:100C600000F024FB08BD0000080000200400002064
:100C7000600000206C0000200000002008B5002269
:100C8000009200200021104A126802F04002CAB906
:100C9000421E0D4B1A6000BF0B4A126802F0400161
:100CA000009A521C0092009AB2F5803F01D00029B0
:100CB000F2D0054A126802F040020AB1012002E0B7
:100CC000002000E0012008BD0C2800400348006817
:100CD00020F0800001490860704700000C280040A7
:100CE0002DE9F04106460F4614460025B7F5807FF2
:100CF00002D11748056802E01548001D0568C5F3D4
:100D000005402070C5F30620607005F07F00A070DC
:100D100005F48000000CE070C5F30560207305F059
:100D20008040A06005F0803060607EB92078FFF7D9
:100D3000F3FE20706078FFF7EFFE6070A078FFF799
:100D4000EBFEA070207BFFF7E7FE2073BDE8F0818B
:100D50001C28004030B501460020002200230C4C26
:100D6000246804F004020A4C383C24680C4002EA6F
:100D7000D13544EA0503064C343C246804EA1112D8
:100D80001BB194B20CB1012000E0002030BD000086
:100D90004028004070B506460C4600250F48006804
:100DA0000F4900EA0105C5F305402070C5F3062090
:100DB000607005F07F00A07005F48000000CE0700A
:100DC0005EB92078FFF7A8FE20706078FFF7A4FED8
:100DD0006070A078FFF7A0FEA07070BD00280040F2
:100DE0007F7F7F00CA22174B1A6053221A6091B18D
:100DF000144A1C3A126820F004031A43114B1C3B9E
:100E00001A60104A1C32126800F004031A430D4B9A
:100E10001C331A6011E00B4A1C3A126820F00403DC
:100E20009A43084B1C3B1A60064A1C32126800F0B9
:100E300004039A43034B1C331A60FF22014B1A60D0
:100E4000704700002428004030B504460025CA2021
:100E50001549086053200860FFF710FF00B91DE036
:100E600011481C38006820F040000F491C39086008
:100E700008460068216808430B491C3908600A4984
:100E80001439A068086008460068A18840EA01405B
:100E9000054914390860FFF719FF0125FF200249B1
:100EA0000860284630BD00002428004008B50146EF
:100EB0000020009004480090009800EB8100009012
:100EC0000098006808BD0000502800402DE9F0415E
:100ED00005460E461446002765B93648006800F0FE
:100EE000400000B102E00020E07000BFA06800B93F
:100EF00019E018E02F48006800F0400020B1207889
:100F0000FFF70AFE074602E00020E07000BFA0687D
:100F100020B9207BFFF700FE074604E0207BFFF7A7
:100F2000FBFD074600BF95B120780004617840EAD8
:100F30000120A1780843E17840EA0140217B40EAA2
:100F40000160A1680843616840EA01071BE020785E
:100F5000FFF7EDFD4FEA00486078FFF7E8FD48EA4B
:100F60000028A078FFF7E3FD48EA0008E07848EAA7
:100F70000048207BFFF7DBFD48EA0060A1680843DA
:100F8000616840EA0107CA200A491C310860532001
:100F90000860B6F5807F03D106481430076002E090
:100FA000044818300760FF2002491C310860BDE882
:100FB000F0810000082800402DE9F04105460C466C
:100FC000002600274DB9607800F01000102804D1E9
:100FD000607820F010000A30607005B908E0607891
:100FE000FFF79AFD0646A078FFF796FD064600BF7C
:100FF00055B1E0780004617840EA0120A178084307
:10100000217840EA413611E0E078FFF790FD4FEAA1
:1010100000486078FFF78BFD48EA0028A078FFF7CA
:1010200086FD48EA0008207848EA4036CA2012497E
:10103000086053200860FFF721FE08B9002714E07C
:101040000E4830400C4920390860FFF73FFE0A483F
:101050001C38006800F0200030B900F0F7F808B93B
:10106000002702E0012700E00127FF200249086075
:101070003846BDE8F0810000242800403FFFFF0013
:101080002DE9F04105460C46002600274DB92E48B3
:10109000006800F0400000B102E00020E07000BFF6
:1010A0000DE02948006800F0400020B12078FFF7EB
:1010B00033FD064602E00020E07000BF00BF55B1DE
:1010C00020780004617840EA0120A1780843E178A3
:1010D00040EA014611E02078FFF729FD4FEA004879
:1010E0006078FFF724FD48EA0028A078FFF71FFD8D
:1010F00048EA0008E07848EA0046CA2012491C3154
:10110000086053200860FFF7B9FD08B9002713E015
:101110000E4830400C4908390860FFF7D7FD0A48EF
:10112000006800F0200030B900F090F808B90027FE
:1011300002E0012700E00127FF2003491C3108607D
:101140003846BDE8F0810000082800407F7F7F001E
:101150001FB537490020FFF71DFE35488078009005
:1011600033484378027833A1374800F02DFC00F073
:10117000ABF8002003902E4800780A2190FBF1F094
:101180003030C0B28DF80C002948007890FBF1F2A5
:1011900001FB12003030C0B28DF80D00002002902B
:1011A0002348407890FBF1F03030C0B28DF8080051
:1011B0001F48407890FBF1F201FB12003030C0B2C2
:1011C0008DF80900002001901948807890FBF1F01B
:1011D0003030C0B28DF804001548807890FBF1F2F1
:1011E00001FB12003030C0B28DF805000020FFF77F
:1011F00093F90020FFF70EFB4FF6FF70FFF724FB7B
:10120000FFF7FCFA002403A92046FFF749FAFFF78D
:10121000F5FAC48802A92046FFF742FAFFF7EEFA72
:10122000C0884004040C01A92046FFF739FA1FBD0D
:101230000000002025302E32643A25302E32643AE8
:1012400025302E32640000007C00002008B500220A
:10125000009200200021CA22134B1A6053221A6008
:10126000114A183A126822F0A0020F4B183B1A607C
:1012700000BF0D4A183A126802F02001009A521C71
:101280000092009AB2F5003F01D00029F1D0064A41
:10129000183A126802F020020AB1012000E0002092
:1012A000FF22014B1A6008BD2428004008B5002227
:1012B0000092044A0092009A02EB80020092009A87
:1012C000116008BD5028004008B500200090FFF7CD
:1012D00037F9FFF761FA052000F04AFC0020FFF71C
:1012E00093FA009049F22031009888427ED14FF461
:1012F0000041E520FFF7B9FA01210020FFF7B5FA18
:101300004FF480710120FFF7B0FA4FF4E061022042
:10131000FFF7ABFA41F230010320FFF7A6FA0021F4
:101320000420FFF7A2FA40F202210820FFF79DFAFD
:1013300000210920FFF799FA00210A20FFF795FA0A
:1013400000210C20FFF791FA00210D20FFF78DFA04
:1013500000210F20FFF789FA00211020FFF785FAFE
:1013600000211120FFF781FA00211220FFF77DFAFA
:1013700000211320FFF779FA142000F0F9FB41F265
:10138000B0711020FFF771FA40F237111120FFF70A
:101390006CFA052000F0ECFB40F239111220FFF747
:1013A00064FA052000F0E4FB4FF4E8511320FFF746
:1013B0005CFA13212920FFF758FA052000F0D8FB2A
:1013C00000212020FFF751FA00212120FFF74DFADC
:1013D00006213020FFF749FA40F201113120FFF7D2
:1013E00044FA03213220FFF740FA00E07BE04FF49B
:1013F00083713520FFF739FA40F602313620FFF7C6
:1014000034FA40F202313720FFF72FFA40F2077129
:101410003820FFF72AFA07213920FFF726FA4FF480
:10142000C0613C20FFF721FA40F20B213D20FFF77D
:101430001CFA00215020FFF718FAEF215120FFF786
:1014400014FA00215220FFF710FA40F23F11532006
:10145000FFF70BFA4FF41C516020FFF706FA012149
:101460006120FFF702FA00216A20FFF7FEF9002150
:101470008020FFF7FAF900218120FFF7F6F900211B
:101480008220FFF7F2F900218320FFF7EEF9002117
:101490008420FFF7EAF900218520FFF7E6F9102103
:1014A0009020FFF7E2F900219220FFF7DEF90321F7
:1014B0009320FFF7DAF94FF488719520FFF7D5F9FB
:1014C00000219720FFF7D1F900219820FFF7CDF9EF
:1014D00041F218010320FFF7C8F940F27311072009
:1014E000FFF7C3F9F9E049F2253100988842F9D1B4
:1014F00001210020FFF7B9F94FF480710120FFF7B7
:10150000B4F94FF4E0610220FFF7AFF941F218019E
:101510000320FFF7AAF900210420FFF7A6F940F203
:1015200002210820FFF7A1F900210920FFF79DF90A
:1015300000210A20FFF799F900210C20FFF795F907
:1015400000210D20FFF791F900210F20FFF78DF901
:1015500000211020FFF789F900211120FFF785F9FC
:1015600000211220FFF781F900211320FFF77DF9F8
:10157000142000F0FDFA41F2B0711020FFF775F968
:1015800040F237111120FFF770F9052000F0F0FA52
:1015900040F239111220FFF768F9052000F0E8FA4F
:1015A0004FF4E8511320FFF760F913212920FFF7CA
:1015B0005CF9052000F0DCFA00212020FFF755F946
:1015C00000212120FFF751F907213020FFF74DF9C5
:1015D00040F202313120FFF748F940F20511322084
:1015E000FFF743F940F206213520FFF73EF940F6B8
:1015F00008013620FFF739F940F206213720FFF7BE
:1016000034F940F204513820FFF72FF9072139202F
:10161000FFF72BF940F205113C20FFF726F940F6C1
:1016200008013D20FFF721F900215020FFF71DF9A7
:10163000EF215120FFF719F900215220FFF715F98A
:1016400040F23F115320FFF710F94FF4274160207B
:10165000FFF70BF901216120FFF707F900216A204C
:10166000FFF703F900218020FFF7FFF80021812018
:10167000FFF7FBF800218220FFF7F7F80021832015
:10168000FFF7F3F800218420FFF7EFF80021852011
:10169000FFF7EBF810219020FFF7E7F800219220E8
:1016A000FFF7E3F803219320FFF7DFF84FF4887189
:1016B0009520FFF7DAF800219720FFF7D6F80021F0
:1016C0009820FFF7D2F841F218010320FFF7CDF878
:1016D00040F233110720FFF7C8F80248FFF7AEF8D1
:1016E00008BD0000380000201CB504460E4951F822
:1016F00024000121FFF706F90C4830F8140000908F
:1017000001208DF8040000208DF8060001208DF8DE
:10171000070002208DF80500054951F824006946AC
:10172000FEF78DFE1CBD0000781C0008701C000830
:101730000C000020034931F81010034A52F8202011
:1017400011837047701C00080C000020064951F8F6
:1017500020104969054A32F810205140024A52F8D7
:1017600020205161704700000C000020701C000810
:1017700030B585B004460D46244951F824000121B6
:10178000FFF7C0F801218803FFF7ECF800208DF87F
:1017900010008DF813001E4830F8140003901D4906
:1017A00051F8240003A9FEF74AFE012D2CD11A4A54
:1017B00012F81410194A12F8140000F037F81848FB
:1017C00030F81400019000208DF808001CB10C20A6
:1017D0008DF8090002E008208DF8090001208DF83D
:1017E0000A0001A8FEF754FD0E4810F814008DF809
:1017F00000000F208DF801008DF8020001208DF807
:1018000003006846FFF73AF805B030BD901C0008A9
:10181000881C00081C000020A81C0008A21C00084E
:101820009C1C0008AE1C00087047000030B5002268
:101830008B071C0F0F2303FA04F20B4B8C1053F889
:1018400024309343084C8D1044F8253023468C10E7
:1018500053F824308C07240F00FA04F42343024C7D
:101860008D1044F8253030BD083801400CB50020FB
:10187000019000903448006840F48030324908609C
:1018800000BF3148006800F4003000900198401C0F
:101890000190009818B90198B0F5A04FF1D12A48ED
:1018A000006800F4003010B10120009001E0002039
:1018B00000900098012846D123484030006840F04D
:1018C00080502149403108602048006840F4404081
:1018D0001E4908601C48083000681B490831086030
:1018E0000846006840F4004008600846006840F47C
:1018F000A05008601648091F0860081F006840F0E3
:101900008070091F086000BF0F48006800F0007079
:101910000028F9D040F205700E4908600A480830E6
:10192000006820F003000849083108600846006894
:1019300040F00200086000BF03480830006800F073
:101940000C000828F8D10CBD00380240007000409F
:1019500019544007003C02407047000010B515487C
:10196000006840F47000134908601348006840F0B4
:1019700001001149086000200F49083108600E4835
:1019800000680E4908400C4908600D48091D0860B0
:10199000081F006820F48020091F08600020064905
:1019A0000C310860FFF762FF4FF000600149803999
:1019B000086010BD88ED00E000380240FFFFF6FE31
:1019C0001030002400BFFEE70FB4084B10B504A987
:1019D00002AA039800F01CF8044602A9002000F0B7
:1019E000C1F8204610BC5DF814FB0000651B000820
:1019F00002E008C8121F08C1002AFAD170477047D8
:101A0000002001E001C1121F002AFBD17047000035
:101A10002DE9FF4F89B09B460446002506E02528A6
:101A20000BD05A460B999047641C6D1C20780028F7
:101A3000F5D10DB02846BDE8F08F0027B846012249
:101A4000474900E0074314F8013F203B02FA03F046
:101A50000842F7D120782E2819D114F8010F47F049
:101A600004072A280ED06FF02F022078A0F1300151
:101A700009290CD808EB880102EB410100EB0108B1
:101A8000641CF2E70A98641C50F8048B0A902078D2
:101A90000028CED0642808D0692806D075281ED02A
:101AA0005A460B9990476D1C58E00A994FF00A0965
:101AB00001C90A91002802DA40422D2102E03905CD
:101AC00004D52B218DF82010012103E0F90704D063
:101AD0002021F7E78A4608AE0DE00021FAE70A99CF
:101AE0004FF00A0901C90A91F7E74946FEF77AFB68
:101AF000303106F8011D0028F7D1ADEB060000F1EA
:101B00002009780701D44FF00108C84502DDA8EB91
:101B1000090000E000208046002706E008A85A4699
:101B2000C05D0B9990476D1C7F1C5745F6DB04E0A8
:101B300030205A460B9990476D1CB8F10001A8F16E
:101B40000108F5DC05E016F8010B5A460B999047A1
:101B50006D1CB9F10001A9F10109F4DC641C65E711
:101B6000092801000A68531C0B60107070470000C0
:101B700001B581B0002000900549019848430090CC
:101B800002E00098401E009000980028F9D10CBD9A
:101B9000A08601000EB501210846FFF7E9FD0121ED
:101BA0000020FFF7E5FD0020FFF79EFD0120FFF775
:101BB0009BFD0220FFF798FD0320FFF795FD012014
:101BC000FFF7B8FD0020FFF771F943F2F2218842D8
:101BD00006D0FEF7D9FFFFF7BBFAFEF767FF23E059
:101BE0007B20FEF7CFFE18B10220FFF7A3FD06E031
:101BF0007A20FEF7C7FE10B10320FFF79BFD0121FD
:101C00000807FEF79FFE0120FEF774FEFFF71EFB9C
:101C10004FF48070FEF79AFF4FF40030FEF726FB7A
:101C2000FFF796FAFEF742FF4FF40030FEF71EFB77
:101C30004FF40030009000208DF8040008208DF84B
:101C4000050001208DF806006846FEF721FB2920DB
:101C50008DF8080000208DF809008DF80A00012099
:101C60008DF80B0002A8FEF709FE00BFFEE700009A
:101C7000800000010002000420000000200000009D
:101C800020000000200000000100002000010000F2
:101C9000010000000400000000010000010000201D
:101CA000000100000200080000000D00080006000E
:101CB00028001700100000000100000001000000D3
:101CC0000002000409000A000700070000000000ED
:101CD0000000000000000000000000000000000004
:101CE00000000000000000000000000000000000F4
:101CF0000000000000000000000000000000800163
:101D000080018001800180018001800180018001CB
:101D100080018001800180010000000080018001BD
:101D200000000000000000000000000000000000B3
:101D3000CC00CC00CC00CC00CC00CC0000000000DB
:101D40000000000000000000000000000000000093
:101D50000000000000000000000000000000000083
:101D60000000000000000000600C600C600C3006F9
:101D70003006FE1FFE1F300638071803FE1FFE1F29
:101D8000180318038C018C018C01000000008000F6
:101D9000E003F80F9C0E8C1C8C188C009800F80146
:101DA000E007800E801C8C188C189C18B80CF00F63
:101DB000E003800080000000000000000000000040
:101DC00000000E181B0C110C110611061103110353
:101DD0009B018E01C038C06C604460443044304484
:101DE0001844186C0C380000000000000000E001EE
:101DF000F0033807180618063003F001F000F80069
:101E00009C310E33061E061C061C063FFC73F02197
:101E100000000000000000000000000000000000C2
:101E20000C000C000C000C000C000C00000000006A
:101E300000000000000000000000000000000000A2
:101E40000000000000000000000000000000000290
:101E500000038001C000C00060006000300030005E
:101E60003000300030003000300030006000600092
:101E7000C000C0008001000300020000000020003C
:101E80006000C0008001800100030003000600061E
:101E90000006000600060006000600060003000318
:101EA00080018001C00060002000000000000000F0
:101EB0000000000000000000C000C000D806F807C5
:101EC000E0013003380700000000000000000000BF
:101ED0000000000000000000000000000000000002
:101EE00000000000000000008001800180018001EE
:101EF0008001FC3FFC3F8001800180018001800166
:101F000000000000000000000000000000000000D1
:101F100000000000000000000000000000000000C1
:101F20000000000000000000000000000000800130
:101F3000800100010001800000000000000000009E
:101F40000000000000000000000000000000000091
:101F500000000000E007E0070000000000000000B3
:101F60000000000000000000000000000000000071
:101F70000000000000000000000000000000000061
:101F80000000000000000000000000000000C00091
:101F9000C000000000000000000000000000000C75
:101FA000000C000600060006000300030003800387
:101FB000800180018001C000C000C000600060009E
:101FC0000000000000000000000000000000E0032E
:101FD000F007380E180C0C180C180C180C180C18EC
:101FE0000C180C180C180C18180C380EF007E0031D
:101FF00000000000000000000000000000000001E0
:102000008001C001F00198018801800180018001F8
:1020100080018001800180018001800180018001B8
:102020000000000000000000000000000000E003CD
:10203000F80F180C0C180C1800180018000C0006EB
:1020400000038001C000600030001800FC1FFC1F6E
:102050000000000000000000000000000000E0019F
:10206000F807180E0C0C0C0C000C0006C003C0077F
:10207000000C001800180C180C18180CF807E003D6
:102080000000000000000000000000000000000C44
:10209000000E000F000F800DC00C600C600C300CA7
:1020A000180C0C0CFC3FFC3F000C000C000C000C4E
:1020B0000000000000000000000000000000F80F19
:1020C000F80F180018000C00EC03FC071C0E001C95
:1020D0000018001800180C181C0C180EF807E00364
:1020E0000000000000000000000000000000C00729
:1020F000F00F381C181818000C00CC03EC0F3C0E25
:102100001C1C0C180C180C18181C380EF007E003D7
:102110000000000000000000000000000000FC1FA4
:10212000FC1F000C00060006000380038001C001B4
:10213000C000E0006000600070003000300030003F
:102140000000000000000000000000000000E003AC
:10215000F007380E180C180C180C3806F007F007AA
:10216000180C0C180C180C180C18380CF80FE0038D
:102170000000000000000000000000000000E0037C
:10218000F007380E1C0C0C180C180C181C1C381EF0
:10219000F81BE0190018000C000C1C0EF807F001E9
:1021A000000000000000000000000000000000002F
:1021B000000000000000000080018001000000001D
:1021C000000000000000000000000000800180010D
:1021D00000000000000000000000000000000000FF
:1021E00000000000000000008001800100000000ED
:1021F00000000000000000000000000080018001DD
:10220000000100018000000000000000000000004C
:102210000000000000000000000000000010001C92
:10222000800FE003F8001800F800E003800F001CA6
:10223000001000000000000000000000000000008E
:10224000000000000000000000000000F81F000077
:1022500000000000F81F0000000000000000000067
:10226000000000000000000000000000000000006E
:10227000000000000000000000000000080038001E
:10228000F001C007001F0018001FC007F001380050
:102290000800000000000000000000000000E00353
:1022A000F80F180C0C180C180018000C000600038E
:1022B0008001C000C000C00000000000C000C000DD
:1022C000000000000000000000000000000000000E
:1022D000E00718180420C229224A1144094409447D
:1022E000094409221113E20C024004201818E007E7
:1022F000000000000000000000000000000080035B
:102300008003C006C006C006600C600C3018301890
:102310003018F83FF83F1C700C600C6006C006C017
:102320000000000000000000000000000000FC03AE
:10233000FC0F0C0C0C180C180C180C0CFC07FC0FE8
:102340000C180C300C300C300C300C18FC1FFC0737
:102350000000000000000000000000000000C007B6
:10236000F01F38381C300C700660060006000600AE
:1023700006000600060006600C701C30F01FE00727
:102380000000000000000000000000000000FE034C
:10239000FE0F060E06180618063006300630063008
:1023A00006300630063006180618060EFE0FFE032D
:1023B0000000000000000000000000000000FC3FE2
:1023C000FC3F0C000C000C000C000C00FC1FFC1F60
:1023D0000C000C000C000C000C000C00FC3FFC3F3F
:1023E0000000000000000000000000000000F83FB6
:1023F000F83F18001800180018001800F81FF81F00
:10240000180018001800180018001800180018000C
:102410000000000000000000000000000000E00FCD
:10242000F83F3C780E6006E007C00300030003FE9F
:1024300003FE03C007C006C00EC03CF0F83FE00F2B
:1024400000000000000000000000000000000C3050
:102450000C300C300C300C300C300C30FC3FFC3F9E
:102460000C300C300C300C300C300C300C300C308C
:1024700000000000000000000000000000008001DB
:102480008001800180018001800180018001800144
:102490008001800180018001800180018001800134
:1024A0000000000000000000000000000000000626
:1024B00000060006000600060006000600060006EC
:1024C000000600060006180618063807F003E001AB
:1024D00000000000000000000000000000000630C6
:1024E0000618060C060606038601C600660076007E
:1024F000DE008E0106030606060C0618063006608E
:1025000000000000000000000000000000001800B3
:1025100018001800180018001800180018001800FB
:10252000180018001800180018001800F81FF81FED
:1025300000000000000000000000000000000EE0AD
:102540001EF01EF01EF036D836D836D836D866CCF7
:1025500066CC66CCC6C6C6C6C6C6C6C686C386C355
:1025600000000000000000000000000000000C302F
:102570001C303C303C306C306C30CC30CC308C314A
:102580000C330C330C360C360C3C0C3C0C380C3039
:102590000000000000000000000000000000E00754
:1025A000F81F1C380E70066003C003C003C003C0D0
:1025B00003C003C003C006600E701C38F81FE0079C
:1025C0000000000000000000000000000000FC0F00
:1025D000FC1F0C380C300C300C300C300C18FC1F6D
:1025E000FC070C000C000C000C000C000C000C0094
:1025F0000000000000000000000000000000E007F4
:10260000F81F1C380E70066003E003C003C003C04F
:1026100003C003C007E006630E3F1C3CF83FE0F731
:1026200000C0000000000000000000000000FE0FDD
:10263000FE1F06380630063006300638FE1FFE073D
:1026400006030606060C0618061806300630066055
:102650000000000000000000000000000000E00397
:10266000F80F1C0C0C180C180C001C00F803E00FE1
:10267000001E0038063006300E301C1CF80FE00734
:102680000000000000000000000000000000FE7FCD
:10269000FE7F800180018001800180018001800136
:1026A0008001800180018001800180018001800122
:1026B00000000000000000000000000000000C30DE
:1026C0000C300C300C300C300C300C300C300C302A
:1026D0000C300C300C300C300C301818F81FE007A0
:1026E0000000000000000000000000000000036087
:1026F0000630063006300C180C180C18180C180C84
:10270000380E30063006700760036003C001C00158
:102710000000000000000000000000000000036056
:10272000C361C361C3616633663366336633663340
:1027300066336C1B6C1B6C1B2C1A3C1E380E380E3F
:1027400000000000000000000000000000000FE09A
:102750000C7018303018700C600EC00780038003B6
:10276000C003E006700C301C18180C300E6007E037
:10277000000000000000000000000000000003C096
:1027800006600C301C383818300C6006E007C003B7
:102790008001800180018001800180018001800131
:1027A0000000000000000000000000000000FC7FAE
:1027B000FC7F006000300018000C00060003800160
:1027C000C0006000300018000C000600FE7FFE7F95
:1027D0000000000000000000000000000000E00316
:1027E000E003600060006000600060006000600066
:1027F00060006000600060006000600060006000D9
:10280000600060006000E003E003000000003000B2
:102810003000600060006000C000C000C000C00167
:102820008001800180010003000300030006000610
:102830000000000000000000000000000000E003B5
:10284000E003000300030003000300030003000390
:102850000003000300030003000300030003000360
:10286000000300030003E003E00300000000000099
:10287000C001C00160036003600330063006180C1D
:10288000180C000000000000000000000000000024
:102890000000000000000000000000000000000038
:1028A0000000000000000000000000000000000028
:1028B0000000000000000000000000000000FFFF1A
:1028C000FFFF0000000000000000000000000C00FE
:1028D0000C000C000C000C000C00000000000000BC
:1028E00000000000000000000000000000000000E8
:1028F00000000000000000000000000000000000D8
:102900000000000000000000F003F8071C0C0C0C95
:10291000000FF00FF80C0C0C0C0C1C0FF80FF0183B
:10292000000000000000000000000000000018008F
:102930001800180018001800D803F80F380C1818E1
:1029400018181818181818181818380CF80FD80371
:102950000000000000000000000000000000000077
:102960000000000000000000C003F007300E180C4B
:102970001800180018001800180C300EF007C003DB
:10298000000000000000000000000000000000182F
:102990000018001800180018C01BF01F301C181871
:1029A00018181818181818181818301CF01FC01B01
:1029B0000000000000000000000000000000000017
:1029C0000000000000000000C003F00F300C1818D9
:1029D000F81FF81F180018003818301CF00FC00737
:1029E0000000000000000000000000000000800F58
:1029F000C00FC000C000C000F007F007C000C0005A
:102A0000C000C000C000C000C000C000C000C000C6
:102A100000000000000000000000000000000000B6
:102A20000000000000000000E00DF80F180E0C0C74
:102A30000C0C0C0C0C0C0C0C0C0C180EF80FE00D04
:102A4000000C0C0C1C06F807F00100000000180038
:102A50001800180018001800D807F80F381C1818AC
:102A600018181818181818181818181818181818E6
:102A70000000000000000000000000000000C00096
:102A8000C000000000000000C000C000C000C00086
:102A9000C000C000C000C000C000C000C000C00036
:102AA0000000000000000000000000000000C00066
:102AB000C000000000000000C000C000C000C00056
:102AC000C000C000C000C000C000C000C000C00006
:102AD000C000C000C000F8007800000000000C003A
:102AE0000C000C000C000C000C0C0C060C038C01F0
:102AF000CC006C00FC009C018C030C030C060C0C3D
:102B00000000000000000000000000000000C00005
:102B1000C000C000C000C000C000C000C000C000B5
:102B2000C000C000C000C000C000C000C000C000A5
:102B30000000000000000000000000000000000095
:102B400000000000000000007C3CFF7EC7E383C162
:102B500083C183C183C183C183C183C183C183C155
:102B60000000000000000000000000000000000065
:102B700000000000000000009807F80F381C18182B
:102B800018181818181818181818181818181818C5
:102B90000000000000000000000000000000000035
:102BA0000000000000000000C003F00F300C1818F7
:102BB00018181818181818181818300CF00FC00327
:102BC0000000000000000000000000000000000005
:102BD0000000000000000000D803F80F380C18189F
:102BE00018181818181818181818380CF80FD803CF
:102BF000180018001800180018000000000000005D
:102C00000000000000000000C01BF01F301C18185E
:102C100018181818181818181818301CF01FC01B8E
:102C2000001800180018001800180000000000002C
:102C30000000000000000000B007F003700030004A
:102C40003000300030003000300030003000300004
:102C50000000000000000000000000000000000074
:102C60000000000000000000E003F003380E180C24
:102C70003800F003C007000C180C380EF007E00312
:102C80000000000000000000000000000000000044
:102C90008000C000C000C000F007F007C000C00006
:102CA000C000C000C000C000C000C000C007800756
:102CB0000000000000000000000000000000000014
:102CC0000000000000000000181818181818181844
:102CD00018181818181818181818381CF01FE019A8
:102CE00000000000000000000000000000000000E4
:102CF00000000000000000000C18180C180C180C44
:102D0000300630063006600360036003C001C00176
:102D100000000000000000000000000000000000B3
:102D20000000000000000000C141C141C3616363B5
:102D3000636363633636363636361C1C1C1C1C1C1B
:102D40000000000000000000000000000000000083
:102D500000000000000000001C38381C300C600629
:102D600060036003600360036006300C381C1C388D
:102D70000000000000000000000000000000000053
:102D800000000000000000001830301830187018E3
:102D9000600C600CE00CC006C0068003800380035A
:102DA00080018001C001F000700000000000000000
:102DB0000000000000000000FC1FFC1F000C0006CB
:102DC00000038001C000600030001800FC1FFC1FE1
:102DD00000000000000000000000000000000003F0
:102DE0008001C000C000C000C000C000C000600082
:102DF0006000300060004000C000C000C000C000A3
:102E0000C000C0008001000300000000000080013D
:102E100080018001800180018001800180018001AA
:102E2000800180018001800180018001800180019A
:102E300080018001800180018001000000006000AD
:102E4000C000C00180018001800180018001000379
:102E50000003000600030001800180018001800161
:102E600080018001C0006000000000000000000040
:102E7000000000000000000000000000F010F81F3B
:102E8000080F00000000000000000000000000002B
:102E90000000000000000000000000000000000032
:102EA0000000000000000000000000000000000022
:102EB0000000000000000020002000200020002072
:102EC0000020002000000020000000000000005052
:102ED0000050005000000000000000000000000052
:102EE000000000000000000900090012007F00122D
:102EF000007F0012002400240000000000100038B1
:102F000000540050005000380014005400540038A1
:102F1000001000000000803000490049004AC03223
:102F2000200520092009C010000000000000000C4E
:102F30000012001200140018002500230023801D39
:102F400000000000000000400040004000000000C1
:102F50000000000000000000000000000000000869
:102F60000010001000200020002000200020002081
:102F70000010001000000040002000200010001091
:102F800000100010001000100020002000000020A1
:102F90000070002000500000000000000000000051
:102FA0000000000000000000000000080008007F92
:102FB0000008000800000000000000000000000001
:102FC00000000000000000000000000000000020E1
:102FD0000020004000000000000000000000000091
:102FE0000070000000000000000000000000000071
:102FF00000000000000000000000000000000020B1
:103000000000000000000010001000100020002050
:1030100000200020004000400000000000000010E0
:1030200000280044004400440044004400280010EC
:1030300000000000000000100030005000100010E0
:103040000010001000100010000000000000003010
:103050000048004400040008001000200040007CEC
:1030600000000000000000300048000400080010CC
:103070000008004400480030000000000000000884
:1030800000180018002800280048007C00080008EC
:10309000000000000000003C0020004000700048DC
:1030A0000004004400480030000000000000001848
:1030B0000024004000500068004400440028001034
:1030C000000000000000007C000400080010001058
:1030D0000010002000200020000000000000001070
:1030E0000028004400280010002800440028001098
:1030F0000000000000000010002800440044002CE4
:10310000001400040048003000000000000000002F
:10311000000000200000000000000000000000206F
:10312000000000000000000000000020000000007F
:10313000000000000000002000200040000000000F
:1031400000040008003000400030000800040000C7
:1031500000000000000000000000007C00000000F3
:10316000007C0000000000000000000000000000E3
:10317000004000200018000400180020004000005B
:103180000000000000000038006400440004000853
:103190000010001000000010000000000000800F70
:1031A0004010A02EA0512051205120512053C04D3D
:1031B0002020401000000008001400140014002219
:1031C000003E002200410041000000000000003CE1
:1031D000002200220022003C002200220022003CAB
:1031E000000000000000000E00110021002000205F
:1031F000002000210011000E000000000000003C33
:103200000022002100210021002100210022003C99
:10321000000000000000003E002000200020003ED2
:10322000002000200020003E000000000000003EC2
:10323000002000200020003C002000200020002072
:10324000000000000000000E0011002100200027F7
:10325000002100210011000E0000000000000021EC
:10326000002100210021003F002100210021002138
:1032700000000000000000200020002000200020AE
:1032800000200020002000200000000000000008B6
:103290000008000800080008000800480048003046
:1032A0000000000000000022002400280028003850
:1032B000002800240024002200000000000000205C
:1032C0000020002000200020002000200020003EE0
:1032D0000000000000008020803180318031802A91
:1032E000802A802A802A802400000000000000211B
:1032F000003100310029002900250023002300218E
:10330000000000000000000C00120021002100213C
:10331000002100210012000C000000000000003C11
:10332000002200220022003C00200020002000207B
:10333000000000000000000C00120021002100210C
:10334000002100210016000D000100000000003ED9
:10335000002100210021003E0024002200218020C5
:10336000000000000000001C002200220020001CC1
:10337000000200220022001C000000000000003EAD
:1033800000080008000800080008000800080008FD
:103390000000000000000021002100210021002188
:1033A000002100210012000C00000000000000417C
:1033B0000041002200220022001400140014000822
:1033C0000000000000004044404A402A802A802A31
:1033D000802A802A802A001100000000000000419D
:1033E0000022001400140008001400140022004100
:1033F000000000000000004100220022001400082C
:103400000008000800080008000000000000007E1E
:103410000002000400080010001000200040007EA0
:1034200000000000000000300020002000200020EC
:10343000002000200020002000200020000000408C
:10344000004000200020002000200020001000107C
:10345000000000000000006000200020002000208C
:10346000002000200020002000200020000000108C
:103470000028002800280044000000000000000090
:10348000000000000000000000000000000000003C
:1034900000000000000000000000007E004000204E
:1034A000000000000000000000000000000000001C
:1034B000000000000000000000000038004400048C
:1034C000003C00440044003C0000000000000040BC
:1034D0000040005800640044004400440064005868
:1034E0000000000000000000000000300048004024
:1034F00000400040004800300000000000000004D0
:1035000000040034004C004400440044004C0034EB
:1035100000000000000000000000003800440044EB
:10352000007C004000440038000000000000006003
:10353000004000E0004000400040004000400040EB
:10354000000000000000000000000034004C0044B7
:1035500000440044004C00340004004400000040DB
:10356000004000580064004400440044004400440B
:10357000000000000000004000000040004000404B
:1035800000400040004000400000000000000040FB
:10359000000000400040004000400040004000406B
:1035A0000040004000000040004000480050006023
:1035B000005000500048004800000000000000409B
:1035C00000400040004000400040004000400040FB
:1035D000000000000000000000000052006D0049E3
:1035E00000490049004900490000000000000000B7
:1035F00000000058006400440044004400440044BB
:1036000000000000000000000000003800440044FA
:1036100000440044004400380000000000000000A6
:103620000000005800640044004400440064005856
:10363000004000400000000000000034004C004446
:1036400000440044004C003400040004000000006A
:10365000000000500060004000400040004000407A
:1036600000000000000000000000003000480040A2
:10367000003000080048003000000000000000405A
:10368000004000E00040004000400040004000607A
:10369000000000000000000000000044004400445E
:1036A00000440044004C0034000000000000000012
:1036B00000000044004400280028002800280010D2
:1036C0000000000000000000000000490049005513
:1036D00000550055005500220000000000000000C9
:1036E00000000044002800280010002800280044A2
:1036F000000000000000000000000044004400281A
:103700000028002800100010001000100000000029
:103710000000007800080010002000200040007821
:103720000000000000000010002000200020002009
:103730000040002000200020002000200000002089
:103740000020002000200020002000200020002079
:103750000020002000000040002000200020002069
:1037600000100020002000200020002000000000A9
:10377000000000000074005800000000000000007D
:1037800000000000000000000070005000500050D9
:1037900000500050005000700000000000000000C9
:1037A0000000000000000000000000000000000019
:1037B00000000000000000000000100010001000D9
:1037C00010001000100000001000000000000000B9
:1037D0000000280028002800000000000000000071
:1037E00000000000000000000000140014003E0073
:1037F000140028007C0028002800000000000000C1
:103800001000380054005000380014001400540018
:10381000380010000000000000004400A800A800CC
:10382000500014001A002A002400000000000000CC
:1038300000002000500050002000E8009800980090
:103840006000000000000000000080008000800098
:103850000000000000000000000000000000000068
:103860000000400080008000800080008000800018
:103870008000800000000000000080004000400048
:1038800040004000400040004000400000000000B8
:1038900000004000E0004000A00000000000000028
:1038A00000000000000000000000000000002000F8
:1038B0002000F800200020000000000000000000B0
:1038C00000000000000000000000000000000000F8
:1038D0004000400000000000000000000000000068
:1038E00000000000C0000000000000000000000018
:1038F00000000000000000000000000000000000C8
:103900004000000000000000000020002000200017
:1039100040004000800080008000000000000000A7
:1039200000006000900090009000900090009000D7
:103930006000000000000000000020006000A00007
:1039400020002000200020002000000000000000D7
:103950000000600090001000100020004000800077
:10396000F000000000000000000060009000100067
:1039700060001000100090006000000000000000D7
:10398000000010003000500050009000F8001000BF
:1039900010000000000000000000700040008000E7
:1039A000E000100010009000600000000000000027
:1039B0000000600090008000A000D0009000900007
:1039C00060000000000000000000F0001000200077
:1039D00020002000400040004000000000000000E7
:1039E0000000600090009000600090009000900047
:1039F00060000000000000000000600090009000E7
:103A0000B0005000100090006000000000000000B6
:103A10000000000000004000000000000000000066
:103A20004000000000000000000000000000400016
:103A30000000000000000000400040000000000006
:103A40000000000000001000600080006000100016
:103A50000000000000000000000000000000000066
:103A6000F0000000F0000000000000000000000076
:103A70000000000000008000600010006000800076
:103A80000000000000000000000060009000100036
:103A90002000400040000000400000000000000046
:103AA00000001C0022005B00A500A500A500A500E9
:103AB0009E00410000000000000020005000500067
:103AC00050005000700088008800000000000000D6
:103AD0000000F00088008800F0008800880088005E
:103AE000F0000000000000000000380044008400E6
:103AF00080008000840044003800000000000000C6
:103B00000000E00090008800880088008800900095
:103B1000E0000000000000000000F80080008000CD
:103B2000F800800080008000F80000000000000025
:103B3000000078004000400070004000400040005D
:103B40004000000000000000000038004400840035
:103B500080009C0084004400380000000000000049
:103B60000000880088008800F8008800880088002D
:103B7000880000000000000000008000800080003D
:103B800080008000800080008000000000000000B5
:103B900000001000100010001000100090009000B5
:103BA0006000000000000000000088009000A000FD
:103BB000E000A000900090008800000000000000DD
:103BC0000000800080008000800080008000800075
:103BD000F00000000000000000008200C600C600E7
:103BE000AA00AA00AA00AA0092000000000000009B
:103BF00000008400C400A400A400940094008C0081
:103C00008400000000000000000030004800840034
:103C100084008400840048003000000000000000A0
:103C20000000F000880088008800F000800080001C
:103C30008000000000000000000030004800840008
:103C40008400840084005800340004000000000058
:103C50000000780044004400780050004800440010
:103C6000420000000000000000007000880080009A
:103C7000700008008800880070000000000000004C
:103C80000000F8002000200020002000200020007C
:103C90002000000000000000000084008400840078
:103CA0008400840084004800300000000000000010
:103CB0000000880088005000500050005000500064
:103CC000200000000000000000009200AA00AA00EE
:103CD000AA00AA00AA00AA004400000000000000F8
:103CE00000008400480048003000300048004800D0
:103CF0008400000000000000000088005000500018
:103D00002000200020002000200000000000000013
:103D10000000F80008001000200020004000800093
:103D2000F8000000000000000000C00080008000DB
:103D30008000800080008000800080000000000083
:103D40000000800080004000400040004000200053
:103D500020000000000000000000C0004000400003
:103D600040004000400040004000400000000000D3
:103D700000004000A000A000A00000000000000023
:103D80000000000000000000000000000000000033
:103D900000000000000000000000F800000000002B
:103DA0000000800040000000000000000000000053
:103DB0000000000000000000000000000000E00023
:103DC00010007000900090007000000000000000E3
:103DD000000080008000A000D00090009000D00083
:103DE000A0000000000000000000000000006000D3
:103DF0009000800080009000600000000000000043
:103E00000000100010005000B00090009000B000C2
:103E100050000000000000000000000000006000F2
:103E20009000F000800090006000000000000000A2
:103E30000000C0008000C000800080008000800082
:103E400080000000000000000000000000005000A2
:103E5000B00090009000B000500010000000000082
:103E6000000080008000A000D00090009000900032
:103E700090000000000000000000800000008000B2
:103E800080008000800080008000000000000000B2
:103E90000000800000008000800080008000800022
:103EA0008000800000000000000080008000900082
:103EB000A000C000A00090009000000000000000E2
:103EC0000000800080008000800080008000800072
:103ED0008000000000000000000000000000A600BC
:103EE000DA009200920092009200000000000000B0
:103EF000000000000000A000D000900090009000A2
:103F000090000000000000000000000000006000C1
:103F10009000900090009000600000000000000001
:103F2000000000000000A000D00090009000D00031
:103F3000A000800000000000000000000000500011
:103F4000B00090009000B000500010000000000091
:103F5000000000000000A000C00080008000800081
:103F60008000000000000000000000000000E000F1
:103F70009000400020009000600000000000000061
:103F8000000080008000C000800080008000800071
:103F9000C0000000000000000000000000009000D1
:103FA000900090009000B000500000000000000061
:103FB0000000000000008800880050005000500001
:103FC000200000000000000000000000000092003F
:103FD000AA00AA00AA00AA004400000000000000F5
:103FE0000000000000008800500020002000500069
:103FF00088000000000000000000000000008800B1
:104000005000500050002000200020000000000060
:10401000000000000000F0001000200040008000C0
:10402000F0000000000000000000C00080008000E0
:104030008000000080008000800080000000000000
:1040400000008000800080008000800080008000F0
:1040500080008000000000000000C0004000400020
:1040600040002000400040004000400000000000F0
:104070000000000000000000E800B00000000000A8
:10408000000000000000000000000000E000A000B0
:10409000A000A000A000A000E000000000000000C0
:1040A0000000000000000000000000004000400090
:1040B000400040004000400000004000A000A00080
:1040C000A00000000000000000000000000024002C
:1040D0002400FE004800FC0048004800380054005E
:1040E0005000380014001400540038004400A800A8
:1040F000A800500014001A002A0024001000280014
:104100002800100074004C004C003000100010001B
:104110001000000000000000000000000800100077
:10412000100010001000100010000800100008001F
:104130000800080008000800080010000000000047
:10414000240018003C0018002400000000000000BB
:10415000100010007C0010001000000000000000A3
:10416000000000000000080008001000000000002F
:10417000000000003C000000000000000000000003
:1041800000000000000000001800180008000800EF
:10419000080010001000200020002000180024005B
:1041A0002400240024002400240018000800180023
:1041B0002800080008000800080008003800440033
:1041C000000004000800100020007C0018002400FB
:1041D00004001800040004002400180004000C006F
:1041E0001400240044007E00040004003C00200071
:1041F00020003800040004002400180018002400E7
:104200002000380024002400240018003C00040092
:10421000080008000800100010001000180024001A
:104220002400180024002400240018001800240092
:10423000240024001C0004002400180000000000DA
:10424000100000000000100000000000000000004E
:10425000080000000000080010000000000000003E
:1042600004001800200018000400000000000000F6
:1042700000003C0000003C000000000000000000C6
:10428000200018000400180020000000180024007E
:104290000400080010001000000010003C00420064
:1042A0009900A500A5009D00420038003800440098
:1042B000440044007C004400440044007800440072
:1042C0004400780044004400440078001C002200B0
:1042D000420040004000420022001C0070004800E4
:1042E0004400440044004400480070007C0040004A
:1042F00040007C004000400040007C003C0020006A
:104300002000380020002000200020001C00220097
:10431000420040004E00420022001C0044004400C5
:1043200044007C004400440044004400100010009D
:104330001000100010001000100010000400040015
:104340000400040004002400240018004400480075
:104350005000700050004800480044002000200039
:10436000200020002000200020003C008200C60029
:10437000C600AA00AA00AA00AA0092004200620099
:10438000520052004A004A00460042001800240031
:10439000420042004200420024001800780044001D
:1043A0004400440078004000400040001800240011
:1043B00042004200420042002C001A0078004400F3
:1043C0004400780050004800440042003800440097
:1043D0004000380004004400440038007C00100015
:1043E00010001000100010001000100042004200E9
:1043F00042004200420042002400180044004400F1
:104400002800280028002800280010009200AA0098
:10441000AA00AA00AA00AA00AA00440042002400A0
:104420002400180018002400240042004400280042
:104430002800100010001000100010007C00040084
:10444000080010001000200040007C001C0010003C
:10445000100010001000100010001C0010001000D0
:104460000800080008000800040004001C00040004
:10447000040004000400040004001C0010002800D4
:1044800044000000000000000000000000000000E8
:1044900000000000000000000000000020001000EC
:1044A00010000000000000000000000000000000FC
:1044B000180004001C00240024001C002000200020
:1044C00028003400240024003400280000000000EC
:1044D000180024002000200024001800040004001C
:1044E00014002C00240024002C0014000000000004
:1044F000180024003C0020002400180000001800D0
:10450000100010001800100010001000000018002B
:1045100024002400180004002400180020002000BB
:10452000280034002400240024002400100000008F
:104530001000100010001000100010000800000013
:1045400008000800080008002800100020002000D3
:10455000240028003000280024002400100010004F
:1045600010001000100010001000100000000000EB
:10457000A600DA0092009200920092000000000073
:10458000280034002400240024002400000000003F
:104590001800240024002400240018000000280033
:1045A0003400240038002000200020000000140007
:1045B0002C0024001C000400040004000000000083
:1045C0002C0030002000200020002000000000000F
:1045D000180024001000080024001800000010003B
:1045E000380010001000100010001800000000003B
:1045F00024002400240024002C00140000000000EB
:10460000440044002800280028001000000000009A
:104610009200AA00AA00AA00AA004400000000001C
:10462000440028001000100028004400000028006A
:1046300028002800100010001000100000000000EA
:104640003C0004000800100020003C0000000800AE
:1046500010001000200010001000080010001000D2
:1046600010001000100010001000100000001000DA
:104670000800080004000800080010000000000006
:104680000000600092000C0000000000FF00FF002E
:10469000FF00FF00FF00FF00FF00FF00BC46000816
:1046A0000000002060000000F01900081C4700080E
:1046B0006000002050040000001A00080000000004
:1046C000000000000000000000140240001402403E
:1046D00000140240001402400000024000080240A2
:1046E0000020024000100140000002400000024093
:1046F00000000000CC1C0008100018009C2E0008D0
:104700000C000C009C37000808000C009C400008BE
:0C47100008000800000000000000FFFF8F
:040000050800018965
:00000001FF
