:020000040800F2
:1000000088D700209D01000829290008E92200085E
:100010002529000899080008CD4B000800000000C1
:100020000000000000000000000000007131000826
:100030007113000800000000192A0008A53200080A
:10004000B7010008B7010008B7010008B7010008B0
:10005000B7010008B7010008B7010008B7010008A0
:10006000D91E0008B7010008B7010008B701000851
:10007000B7010008B7010008B7010008AD1100087A
:10008000B7010008B7010008B7010008B701000870
:10009000B7010008B7010008B7010008B701000860
:1000A000B7010008B7010008B7010008B701000850
:1000B000B7010008B7010008B7010008B701000840
:1000C000B7010008B7010008B7010008B701000830
:1000D000B701000841330008B70100085D3300088C
:1000E0009D1E0008B7010008B7010008B70100080D
:1000F000B7010008B7010008B7010008B701000800
:10010000B7010008B7010008B7010008B7010008EF
:10011000B7010008B7010008B7010008B7010008DF
:10012000B7010008B7010008B7010008B7010008CF
:10013000B7010008B7010008B7010008B7010008BF
:10014000B7010008B7010008B7010008B7010008AF
:10015000B7010008B7010008B7010008B70100089F
:10016000B7010008B7010008C9290008B92900082B
:10017000E9290008D9290008B7010008B7010008DB
:10018000B7010008B7010008DFF80CD000F0B4F99F
:1001900000480047B579000888D700200648804706
:1001A00006480047FEE7FEE7FEE7FEE7FEE7FEE75C
:1001B000FEE7FEE7FEE7FEE7B1320008890100082E
:1001C00040EA01039B0703D009E008C9121F08C0D9
:1001D000042AFAD203E011F8013B00F8013B521E59
:1001E000F9D27047D2B201E000F8012B491EFBD2D0
:1001F00070470022F6E710B513460A460446194632
:10020000FFF7F0FF204610BD30B505462A460B46E5
:1002100012F8010B13F8014B08B1A042F8D01CB141
:10022000002802D06D1CF1E7284630BDCAB2401E3E
:1002300010F8011F8A4202D00029F9D1002070472E
:10024000421C10F8011B0029FBD1801A704710B521
:10025000002200E0521C835C8C5CA34201D1002B85
:10026000F8D1D8B2E1B2401A10BD30B50446002032
:10027000034600E05B1C934203D2E05CCD5C401B74
:10028000F8D030BD30B505460020034600E05B1CC9
:10029000934205D2EC5CC85C201A01D1002CF6D147
:1002A00030BD2DE9FE4F81EA030404F0004421F043
:1002B000004100944FF0000B23F0004350EA01048A
:1002C0005ED052EA03045BD0C3F30A54C1F30A556B
:1002D0002C44A4F2F3340194A0FB0254C1F31301A3
:1002E00041F48011C3F3130343F4801301FB024470
:1002F00000FB034E840A970A44EA815447EA835775
:10030000A4FB076802958D0A05FB07854FEA932C2D
:1003100004FB0C542705029D4FEA065847EA16379E
:10032000B5EB08056EEB070C870E920E47EA8117B6
:1003300042EA8312A7FB0201B6EB0B0164EB000457
:100340002B0D43EA0C335E1844EB1C50DA46514641
:10035000E7FB0201C5F313044FEA0B3343EA1453DE
:100360004FEA0432019C43EA0603A4F10C04029410
:10037000009CCDE900B400F070F803B0BDE8F08F48
:1003800000200146F9E70EB540F233410291002109
:10039000CDE900110A460B4600F05FF803B000BD3E
:1003A000C1F30A5210B5C1F3130140F2FF3341F417
:1003B00080119A4201DA002010BD40F233439A4284
:1003C000A2F2334203DC524200F028F810BD904004
:1003D00010BD30B50B46014600202022012409E063
:1003E00021FA02F59D4205D303FA02F5491B04FAEE
:1003F00002F52844151EA2F10102F1DC30BD202ACD
:1004000004DB203A00FA02F1002070479140C2F16B
:10041000200320FA03F3194390407047202A04DB9D
:10042000203A21FA02F00021704721FA02F3D0406D
:10043000C2F12002914008431946704710B5141EBE
:1004400073F1000408DA401C41F1000192185B418D
:100450001A4301D120F0010010BD2DE9F04D924664
:100460009B4611B1B1FA81F202E0B0FA80F220327B
:100470009046FFF7C4FF04460F4640EA0A0041EAEF
:100480000B0153465A46084313D0114653EA010064
:1004900019D0C8F140025046FFF7C0FF05460E468E
:1004A000504659464246FFF7AAFF084305D00120AF
:1004B00004E020463946BDE8F08D0020054346EAB9
:1004C000E0762C4337430A986305E40AA0EB080062
:1004D0000022FD0A44EA47540A3002D500200146B2
:1004E000E9E7010510196941DDE90845001969418D
:1004F000BDE8F04DA2E70000064C074D06E0E068BD
:1005000040F0010394E8070098471034AC42F6D35A
:10051000FFF73EFEC4810308E481030870B58C1820
:1005200010F8015B15F0070301D110F8013B2A1107
:1005300006D110F8012B03E010F8016B01F8016BF4
:100540005B1EF9D12B0705D40023521E0DD401F8F0
:10055000013BFAE710F8013BCB1A921C03E013F8B9
:10056000015B01F8015B521EF9D5A142D8D30020EE
:1005700070BD21B1826842F00102826003E08268AE
:1005800022F00102826070470021084A1168084A7F
:100590001140D0E900231A4383681A43C3681A4301
:1005A0001143044AC2F804137047000004230140B9
:1005B000E030FCFF0020014000B58DB00121880231
:1005C00002F05CFA4FF40070019003208DF80800EF
:1005D00000208DF80B0001A9184801F0B0FD0020A3
:1005E00003904FF40030049000200590069003A87B
:1005F000FFF7CAFF07A800F024F9002007908DF844
:10060000200001208DF82100002009900B9001208E
:100610008DF8300007A90A4800F088F8032301226A
:100620000721074800F0ACF801210548FFF7A1FFBA
:10063000034800F001F90DB000BD000000140240B5
:10064000002201400146C86C80B270472DE9F05F7E
:100650002DED048B82460C469346BAF1000F5AD119
:1006600000BF00BF00BF00BF00BF2C4800680128CA
:1006700004D1FFF7A1FF0020284908602848FFF7B0
:10068000E1FF06463046FFF77EFE9FED260B53EC5A
:10069000102BFFF706FEFFF783FE06464FF47A7035
:1006A000B6FBF0F0C5B205EB4500C0EBC510A6EBFC
:1006B000C0006421B0FBF1F0C7B24FF47A7015FBB3
:1006C00000F007EBC70101EB071100EB8100301AC6
:1006D0000A21B0FBF1F8E82015FB00F007EBC70199
:1006E00001EB071100EB810008EB880100EB4100F2
:1006F000A6EB000905F13000207007F130006070B2
:1007000008F13000A07009F13000E0700420BDEC69
:10071000048BBDE8F09F0020F9E7000034000020C2
:10072000002201409A9999999999E93F30B502467A
:10073000002000235068104C20400D790C6844EADA
:1007400005242043506090680C4C2040D1E90354AC
:100750002C438D682C434D7944EA45042043906036
:10076000D06A20F470000C7D641EE4B2234340EA9A
:100770000350D06230BD0000FFFEFFFCFDF7FFC05C
:10078000F0B504460D4600200021092D11DDE0687A
:10079000A5F10A0606EB4607072606FA07F1884385
:1007A000A5F10A0606EB460603FA06F10843E060E7
:1007B0000CE0206905EB4507072606FA07F1884398
:1007C00005EB450603FA06F108432061072A0FDA14
:1007D000606B561E06EB86071F2606FA07F1884354
:1007E000561E06EB860605FA06F10843606322E012
:1007F0000D2A0FDA206BD61F06EB86071F2606FA96
:1008000007F18843D61F06EB860605FA06F1084372
:10081000206310E0E06AA2F10D0606EB86071F26B2
:1008200006FA07F18843A2F10D0606EB860605FAE3
:1008300006F10843E062F0BD816841F080418160CB
:10084000704700210160017141718160C1600161E7
:10085000012101757047000070B505460C460B4834
:100860008560046101460A4800F056FD01210848F0
:1008700000F01AFD0748008800F4806020B90121CB
:1008800004481C3801F032FD70BD0000DC0E002071
:10089000706002401C38004000BFFEE70020704737
:1008A00070B506460C4604F08000802808D104F09C
:1008B0007F0000EB800106F58E7000EBC10507E0BC
:1008C00004F07F0000EB800106F55D7000EBC105D0
:1008D00004F07F00287004F08000C0096870294689
:1008E000304603F045FF002070BD70B506460C464B
:1008F00004F08000802808D104F07F0000EB800124
:1009000006F58E7000EBC10505E004EB840106F5E9
:100910005D7000EBC1050020A87004F07F00287016
:10092000C4F3C01068702946304603F0F9FE002079
:1009300070BD2DE9F04106460D4690461F4605F074
:100940008000802808D105F07F0000EB800106F5CB
:100950008E7000EBC10407E005F07F0000EB800122
:1009600006F55D7000EBC10405F07F00207005F016
:100970008000C0096070C4F80880E770607808B132
:100980002078E080022F01D10020207121463046DE
:1009900003F06EFE0020BDE8F0812DE9F041054630
:1009A0000E461746984606F07F0000EB800105F5DD
:1009B0005D7000EBC104E760C4F814800020A06102
:1009C000607006F07F002070E878012800D1276170
:1009D000207820B92146284603F06EFD03E0214629
:1009E000284603F032FF0020BDE8F08108B5002260
:1009F0000092009A61F30A12009202691268009B49
:100A00001A4303691A6008BD70B506460C4604F027
:100A10008000802808D104F07F0000EB800106F5FB
:100A20008E7000EBC10505E004EB840106F55D70F6
:100A300000EBC1050120A87004F07F002870C4F30A
:100A4000C01068702946304603F0CDFE002070BD0E
:100A50002DE9F04107460D461646984605F07F0001
:100A600000EB800107F58E7000EBC104012060707F
:100A700005F07F002070E66026610020A061C4F8C8
:100A80001480207820B92146384603F015FD03E094
:100A90002146384603F0D9FE0020BDE8F0811CB5A0
:100AA0000446204603F0D3FCE068C068009020466E
:100AB00003F0F0FF03280BD10020A0704FF400706A
:100AC000A080009820F4705000F51050009009E0CC
:100AD0000120A0704020A080009820F4705000F504
:100AE000A05000900098E168C86000200190019833
:100AF00020F4005000F5005001900198E168486131
:100B000001201CBDF8B505460024002000902846B1
:100B100003F0F3FF064690E006F0010000287DD0C8
:100B2000E1B2284600F0D0FA0090009800F00100F1
:100B300030B3012000FA04F72869406BB8432969F3
:100B4000486300200090009820F00100401C0090B5
:100B500005F1180050F8240000998160E1B239488D
:100B60000068426828469047E878012808D13CB9D7
:100B700040F21110405D042802D1284603F047FDE1
:100B80000098C0F3C00060B100200090009820F0F1
:100B900008000830009005F1180050F82400009972
:100BA00081600098C0F3001060B1002000900098B0
:100BB00020F010001030009005F1180050F82400CB
:100BC000009981600098C0F3801060B1002000900F
:100BD000009820F040004030009005F1180050F8D7
:100BE0002400009981600098C0F3400060B10020AB
:100BF0000090009820F00200801C009005F1180081
:100C000050F82400009981600098C0F3C01028B10A
:100C10002146284600F082FA002000E00BE0009018
:100C2000009820F080008030009005F1180050F806
:100C3000240000998160641C7608002E7FF46CAF5C
:100C40000120F8BD7C0100207CB504460025002071
:100C50000190204603F059FF06466FE006F00100C0
:100C6000002869D0E9B2204603F057FF01900198AF
:100C700000F00100C8B300200190019820F00100AD
:100C8000401C019004F1540050F825000199816046
:100C9000E078012817D104F1540050F825000069CC
:100CA000009005EB850104F55D7000EBC1008068E4
:100CB0000099C1F31201411A05EB850204F55D703C
:100CC00000EBC2008161E9B21E480068026820465C
:100CD0009047E078012808D13DB940F21110005D3D
:100CE000052802D1204603F092FC0198C0F3400091
:100CF00060B100200190019820F00200801C01905A
:100D000004F1540050F82500019981600198C0F366
:100D1000C00088B10B4800688168204688470020E1
:100D20000190019820F008000830019004F154006F
:100D300050F82500019981606D1C7608002E8DD138
:100D400001207CBD7C0100203EB50446A07A70B134
:100D5000D4F80C010090009820F002000090009858
:100D600020F0010000900099D4F80C0101600020EF
:100D70000190019820F00100401C0190206940681A
:100D800001998843216948600848006881692046C4
:100D9000884700200290029820F0004000F10040B7
:100DA00002900298E168486101203EBD7C0100206C
:100DB0007CB5044600200190019820F0100010300E
:100DC0000190E068806901998843E1688861E06882
:100DD000006A0090009800F00F0000EB800104F51D
:100DE0005D7000EBC1050098C0F3434007282DD289
:100DF000DFE800F02C04051D1E2C1F0027E00098E2
:100E0000C0F30A1090B10098C0F30A122046E968B6
:100E100003F08DFEE8680099C1F30A110844E86008
:100E2000A8690099C1F30A110844A8610FE00EE017
:100E30000DE0082204F2CC51204603F078FEA869A8
:100E40000099C1F30A110844A86100E000BF00BF87
:100E5000E068806901990843E168886101207CBDF0
:100E600038B5044608480068C16820468847002015
:100E70000090009820F00800083000900098E16889
:100E80004861012038BD00007C0100201FB50446E8
:100E9000002000904FF48970005D009023480068A6
:100EA00041692046884720698068019000200390AE
:100EB000039820F4006000F5006003900398E16857
:100EC0004861A07A70B3019800F0010050B340F27D
:100ED0001510005D012825D19DF80000032821D1BF
:100EE00000200290029820F00100401C0290D4F8EB
:100EF0000C01006802990843D4F80C1108600298AC
:100F000020F00200801C0290D4F80C0100680299C5
:100F10000843D4F80C1108600548006840F006004A
:100F200003490860012004B010BD00007C010020CE
:100F300010ED00E030B587B0044600200290069026
:100F40000590049003900190029820F00100401C4D
:100F50000290206940680299884321694860002115
:100F6000204603F06DFD00250BE0FF2104F1180081
:100F700050F82500816004F1540050F8250081608C
:100F80006D1C6078A842F0D84FF0FF312069816174
:100F900006986FF30F00401C0690069880B200F58B
:100FA0008030069006992069C161059820F00800FC
:100FB00008300590059820F00100401C0590059828
:100FC00020F00200801C0590059920694161059977
:100FD0002069C0F88410049820F00100401C04909F
:100FE000049820F0080008300490049820F00200D3
:100FF000801C04900499206901610499206941646E
:10100000206900680390039820F4FE600390039920
:1010100020690160204603F0FAFA0020019001984F
:1010200020F4805000F5805001900198E1684861FB
:1010300003480068016920468847012007B030BD99
:101040007C01002038B50446002000900748006865
:10105000C16920468847009820F4801000F5801070
:1010600000900098E1684861012038BD7C010020B3
:1010700038B504460020009007480068016A204601
:101080008847009820F4001000F5001000900098A8
:10109000E1684861012038BD7C01002038B5044674
:1010A000E068406800900098C0F3800020B10548D7
:1010B0000068816A204688470098E16848600120FE
:1010C00038BD00007C01002030B5024615692B694F
:1010D00015696C6B24FA01F505F0010543EAC513A7
:1010E00002F1180555F82150AD6805EA030030BD3E
:1010F00038B5044608480068416A20468847002001
:101100000090009820F0804000F18040009000980E
:10111000E1684861012038BD7C0100202DE9F843D9
:1011200007460E4600250020009006EB860107F5D5
:101130008E7000EBC104D4E90501451AA068A842ED
:1011400000D2A568E81C4FEA900807F1180050F893
:101150002600806900901BE0D4E90501451AA068CB
:10116000A84200D2A568E81C4FEA9008ABB2F2B2E0
:101170003846E16803F00AFDE0682844E060A069B1
:101180002844A06107F1180050F8260080690090FB
:10119000009880B2404506D9D4E90510884202D2B1
:1011A00060690028D8D10120BDE8F88310B52C492A
:1011B0002C4800F08FF8002851D02B4800680028F8
:1011C00040D000BF274800F07AF80028FAD124491F
:1011D000244800F04FF825480068254988602248D7
:1011E0000068B0F5803F02D21F48006801E04FF66A
:1011F000FF701F4908611B4800F08EF80121194853
:1012000000F052F81948006817490968B1F5803FA5
:1012100002D21549096801E04FF6FF7100EB410069
:101220001249086010480068B0F5803F02D20E48AD
:10123000006801E04FF6FF700B490968081A0A4977
:1012400008600CE00021074800F02EF8044905482A
:1012500000F010F800210548006800F013FE10BDF2
:101260002000002070600240EC000020F000002010
:10127000DC0E00200246094B9A4201D2084801E0E8
:101280000648103801F000531BB1064B0B40C360F9
:1012900002E0044B0B408360704700001064024082
:1012A000006002407D0F7D0F21B1026842F0010213
:1012B000026003E0026822F001020260704701460A
:1012C00000200A6802F001020AB1012000E00020BB
:1012D0007047000030B503460A46002000240B4D3D
:1012E000AB4201D20A4901E00849103902F0005529
:1012F0000DB14C6800E00C68064D2C4004EA020574
:101300000DB1012000E0002030BD0000106402405B
:10131000006002407D0F7D0F10B500220268134B64
:101320001A40CC680B6823434C6923438C692343E0
:10133000CC6923430C6A23434C6A23438C6A2343BE
:101340004C6B23438C6B23431A430260426922F0A7
:101350000702D1E90B3423431A4342610B6943600E
:101360004B6883608B68C36010BD00003F801CF039
:101370007047000010B500F043F900F08FFB1048F3
:101380000068C0B94FF4784001F0C0F901F02CF9C1
:10139000C08800EB800084B20AA1204601F076F8F4
:1013A00001F022F9C08800EB40004004040C0AA1BF
:1013B000204601F06BF8012000F010FE10BD000087
:1013C000AC00002020202045746865726E65742092
:1013D000496E697420202000202020202020666192
:1013E000696C656420202020202000002F480068C0
:1013F000006800F0004098B92C480068006800F4CC
:10140000807068B1294800682949096848602848FF
:1014100000688068401C2649096888600120704780
:1014200022480068006800F00040F0B91F480068DA
:10143000006800F40070C0B11C480068006800F447
:10144000807090B91948006819490968086000203F
:1014500017490968486001201549096888601348E0
:101460000068C068114908601DE010480068006805
:1014700000F00040B8B90D480068006800F4007042
:1014800088B90A480068006800F4807058B90848B4
:1014900000688068401C0649096888600348006845
:1014A000C068024908600020B9E700004001002040
:1014B0004401002030B10749896941F00201054A21
:1014C000916105E00349896921F00201014A9161B6
:1014D000704700000090024070B50C461346002192
:1014E000124D286000BF18E000EB41124FF000459C
:1014F000156044F2F4555560C1EBC11505EB450587
:1015000004EB850595605D1E8D4204D900EB411505
:101510002035D56000E0D060491C9942E4D3044DE9
:10152000E860044D044E356070BD000040010020AD
:10153000009002401C4C00204401002030B10749BB
:10154000896941F40051054A916105E003498969BF
:1015500021F40051014A916170470000009002405F
:1015600030B50C46134600210F4D286000BF15E032
:1015700000EB41124FF480151560C1EBC11505EB6E
:10158000450504EB850595605D1E8D4204D900EB91
:1015900041152035D56000E0D060491C9942E7D361
:1015A000024D286130BD00003C0100200090024047
:1015B00002680A430260704710B50121480601F035
:1015C0003DFA00214FF0007001F038FA10BD01B56E
:1015D00081B0002000900198009002E00098401E29
:1015E000009000980028F9D10CBD000003488069E4
:1015F00040F480100149886170470000009002406B
:101600001CB5012140F2E71001F008FA012188031E
:1016100001F034FA4FF48070009003208DF805003B
:1016200002208DF8040000208DF806008DF80700D8
:101630006946444800F083FD00214FF4800001F02A
:10164000A1FA002001F096FD8620009069463D48F1
:1016500000F075FD0B2201213A4800F0B8FD0B2285
:101660000221384800F0B3FD0B220721354800F075
:10167000AEFD4FF4807000906946334800F05FFD86
:101680000B220821304800F0A2FD3E200090694660
:101690002E4800F054FD0B2201212C4800F097FD4C
:1016A0000B220221294800F092FD0B22032127483A
:1016B00000F08DFD0B220421244800F088FD0B2250
:1016C0000521224800F083FD4FF4D0400090694688
:1016D0001F4800F034FD0B2211461D4800F077FD35
:1016E0000B220D211A4800F072FD0B220E21184822
:1016F00000F06DFDCC2000906946164800F01FFDFB
:101700000B220221134800F062FD0B220321114835
:1017100000F05DFD0B2206210E4800F058FD0B2263
:1017200007210C4800F053FD4FF48060009069469B
:10173000094800F004FD0B220A21074800F047FD8C
:101740001CBD0000000002400004024000080240EE
:1017500000180240001C0240002002400020044902
:10176000096801F0010109B1012000E00020704783
:10177000009002401EB500210022009201920292C8
:10178000114A12681268C2F30D42111F00910F4AEC
:1017900012689268012A05D90C4A12681268926888
:1017A000019203E0084A126892680192064A1268A0
:1017B0000292054A1268D268034B1A609DE81C0029
:1017C00080E81C001EBD00004001002044010020F4
:1017D0002DE9F04186B004460F464FF00008002581
:1017E00000200590954E00909548056925F01C0550
:1017F00001A801F053F9029E9248864205D392480F
:10180000864202D245F008051AE08F48864205D389
:101810008A48864202D245F00C0511E0874886428C
:1018200003D38A48864200D20AE08848864205D31C
:101830008748864202D245F0040501E045F01005D4
:101840007F4805614FF400420021384600F0A8FAB5
:1018500018B9002006B0BDE8F0817E48FFF7B7FE5A
:10186000206800284ED000BF0098401C0090012145
:10187000384600F0EBF900F0040018B976490098FA
:101880008842F1D374490098884201D10020E1E7F1
:10189000002000904FF480520021384600F080FA7A
:1018A00008B90020D6E700BF0098401C0090012135
:1018B000384600F0CBF900F0200018B966490098CE
:1018C0008842F1D364490098884201D10020C1E7E1
:1018D000002000901021384600F0B8F9804608F04A
:1018E000040018B14FF40060206201E00020206283
:1018F00008F0020010B10020606116E04FF4804053
:10190000606112E0206AC0F3CF006169C1F34F014A
:1019100040EA01020021384600F042FA08B90020EE
:1019200098E76FF07F40FFF752FE454805684B4847
:101930000540D4E901010843E168084321690843EF
:1019400061690843A1690843E1690843216A0843C2
:10195000616A0843A16A0843E16A0843216B0843AE
:10196000616B0843054336480560D4E90E0108431E
:10197000216C0843616C0843A16C0843E16C084387
:10198000216D0843616D08432D494860A06D886052
:10199000E06DC860084685694FF641700540B4F8AF
:1019A0006010606E40EA0140A16E0843E16E08439A
:1019B000216F0843616F0843054321488561D4E9DD
:1019C0001E0108431E49C861254885692548054010
:1019D000D4E920010843D4F888100843D4F88C10C7
:1019E0000843D4F890100843D4F894100843D4F86E
:1019F00098100843D4F89C100843D4F8A01008436A
:101A0000054317488561D4E929010843D4F8AC108F
:101A10000843D4F8B0100843D4F8B41040EA810069
:101A2000D4F8B810084340F400000D490860084697
:101A3000006840F08000086001200BE700879303F6
:101A400000800240002D3101C00E160200E1F505B4
:101A500080D1F008FFFF0F00FFFF04000F8120FF7F
:101A600000900240233FDEF810B50B794C7943EA31
:101A70000422094B03441A64CB781B068C7843EA92
:101A800004434C7843EA04230C7843EA0402024BF3
:101A900003445A6410BD00000080024000B5AFB09E
:101AA00001214FF0606000F0B9FFFFF785FD00F005
:101AB00003F900BFFFF752FE0128FBD0684600F093
:101AC00015F901200090002007904FF400700A9053
:101AD00000200B900E901190139014901590209070
:101AE0004FF0007021900011239000202590269047
:101AF00004202890C005299040122A9080012B9044
:101B000040122C9040002E9001216846FFF760FEA5
:101B1000014908602FB000BDAC00002030B107497A
:101B2000096841F00401054A116005E003490968AC
:101B300021F00401014A116070470000008002405A
:101B400030B10749096841F00801054A116005E014
:101B50000349096821F00801014A1160704700003B
:101B60000080024070B5024600230025002435485D
:101B70000068006800F0004008B1002070BD3148E6
:101B8000016840F2F450824208DD92FBF0F392FBD0
:101B9000F0F600FB162010B15B1C00E00123012BC6
:101BA0001AD128480068006840F04050254E366839
:101BB0003060C2F30C00234E366870602148006824
:101BC000006840F000401F4E366830601D480068D5
:101BD000C0681C4E306028E0002422E03CB919485F
:101BE0000068006840F08050164E3668306040F261
:101BF000F4504860581EA0420DD1086840F00050D3
:101C00000860581EC0EBC01000EB4000A2EB80053E
:101C1000C5F30C004860086840F000400860C968DF
:101C2000641C9C42DAD3074801600748406900F011
:101C3000040020B10420044E706100207060012077
:101C40009CE700003C0100200090024018B50246CD
:101C50000B460021002000901548016901F01C018D
:101C60004FF4784000EAC22001434FF4F86000EAE4
:101C70008310014321F0020141F001010C48016190
:101C800000BF0098401C00900948016901F0010064
:101C900018B1084C0098A042F3D3064C0098A0421B
:101CA00001D1002018BD0248406980B2FAE7000067
:101CB00000800240FFFF04000348006840F001007C
:101CC00001490860704700000090024000B5012003
:101CD000FFF736FFFFF78AFC0120FFF71FFF012007
:101CE000FFF72CFC0120FFF7E5FB00BD012101609F
:101CF000002141608160C16001614FF48041416118
:101D000000218161C1614FF40061016200214162E3
:101D10008162C162016341638163C16340210164E7
:101D20002021416400218164C164016541658165B0
:101D3000C16501668021416600218166C166016737
:101D400041678167C1674FF08061C0F8801049101A
:101D5000C0F884100021C0F888104FF40011C0F8BA
:101D60008C100021C0F89010C0F89410C0F89810A2
:101D7000C0F89C10C0F8A0104FF00071C0F8A4107B
:101D80004912C0F8A8108901C0F8AC104912C0F877
:101D9000B0100021C0F8B410C0F8B81070470000AF
:101DA00038B503460C460021002000901448016914
:101DB00001F01C014FF4784000EAC32001434FF4C6
:101DC000F86000EA8410014341F0020141F0010192
:101DD0000B484261016100BF0098401C0090084818
:101DE000016901F0010018B1064D0098A842F3D333
:101DF000044D0098A84201D1002038BD0120FCE725
:101E000000800240FFFF040070B505460C466008E4
:101E100019490860FEF742FD174800684FF4803208
:101E2000B2EB500F03D914480068400801E04FF6A8
:101E3000FF7001462846FEF70FFD0F480068B0F519
:101E4000803F02D20C48006801E04FF6FF70C0EB03
:101E500054000A49086008480068B0F5803F02D283
:101E60000548006801E04FF6FF7005EB40000449AB
:101E70000860002070BD0000E8000020EC00002099
:101E8000F000002070B504460D4602490248FFF7F5
:101E9000BBFF70BDF61A0F0074A9010810B54FF40E
:101EA000004000F027F840B10A48007808B906F071
:101EB0008FFD4FF4807000F017F84FF4804000F071
:101EC00019F830B1012000F021F84FF4804000F003
:101ED0000BF810BDB000002010B5042000F004F88D
:101EE000012001F033F910BD01490860704700007E
:101EF000143C014001460020034A12680A400AB11E
:101F0000012000E000207047143C014070B50446F9
:101F100012212046FFF79AFE00F40050002836D028
:101F20001B480078C0431A4908704FF4784000F00D
:101F3000EDFB17480078A8B100F056FBC08800EB15
:101F4000800085B213A1284600F0A0FA00F04CFBF7
:101F5000C08800EB40004004050C14A1284600F0A6
:101F600095FA14E000F040FBC08800EB800085B2D9
:101F700008A1284600F08AFA00F036FBC08800EB82
:101F800040004004050C0FA1284600F07FFA70BD08
:101F9000B000002020204E6574776F726B20436183
:101FA000626C652069732020000000002020202042
:101FB00020756E706C756767656420202020202076
:101FC000000000002020206E6F7720636F6E6E652A
:101FD00063746564202020200000000070B5054671
:101FE000002411212846FFF731FE044644F0030483
:101FF000224611212846FFF7D3FE08B9002070BD04
:1020000012212846FFF722FE044644F0200422460F
:1020100012212846FFF7C4FE08B90020EFE701208F
:10202000EDE7000051B18200A2F1C042126842F017
:1020300001038200A2F1C042136009E08200A2F114
:10204000C0421268034B1A408300A3F1C0431A60D8
:1020500070470000FEFF0F00D0E901121143C26873
:102060001143026911434269114382691143C269F4
:102070001143026A1143426A1143826A1143C26AE0
:102080001143026B114302689200A2F1C042116039
:10209000816808290BD101688900A1F1C041096854
:1020A00041F0400201688900A1F1C0410A60416B22
:1020B0000968426B526841EA0211426B926841EA38
:1020C0000221426B928941EA0241426B128A41EA43
:1020D0000251426B127D41EA0261426B92691143E7
:1020E0000268521C9200A2F1C0421160C16AB1F5AF
:1020F000804F1BD1816B0968826B526841EA0211E3
:10210000826B926841EA0221826B128A41EA025193
:10211000826B127D41EA0261826B9269114302680F
:102120009200A2F1C042C2F8041107E06FF07042C1
:1021300001688900A1F1C041C1F804217047F0B5E0
:102140000A4600210023002400BF3DE0012505FAD6
:1021500001F3156805EA03049C4234D105684F0079
:102160000326BE40B543056015794E00B5400668AC
:10217000354305601579012D02D01579022D16D150
:1021800085684F000326BE40B543856055794E00F3
:10219000B540866835438560456801268E40B54365
:1021A0004560456896798E40B6B235434560C5684E
:1021B0004F000326BE40B543C560D5794E00B540FB
:1021C000C6683543C560491C1029BFD3F0BDF0B5C2
:1021D000002300244D07ED0E02FA05F3CE1000F1A6
:1021E000200555F826504E07F70E0F26BE40B54382
:1021F000CF1000F1200646F82750CE1000F1200540
:1022000055F8265045EA0304CE1000F1200545F8A4
:102210002640F0BD70B506462E480078012856D0FD
:102220002D480068B0F5006F02D100202A490860EF
:102230002948006829490968884203D100202549B6
:10224000087070BD2448006824490968884206D98E
:1022500021480068C0F500602149086006E01F4879
:1022600000681D490968401A1D4908601C4800683B
:10227000B0F5007F11D91848008884B24FF400757A
:102280001548006800F5007013490860144800689C
:10229000A0F50070124908600FE00F48008884B272
:1022A0000F48008885B20C4800680D490968084449
:1022B0000949086000200A490860012005490870A2
:1022C000084802192B4681213046FEF7C1FB00BFAA
:1022D000B7E70000A8010020A00100209C01002019
:1022E000A4010020274F002000BFFEE721B1828B10
:1022F00042F48062828304E0828B4FF6FF331A40FF
:102300008283704730B50446002540F23F1100201B
:1023100000F0EAF900F006FA00BF03E04FF0D04009
:1023200044806D1CB5F5963FF8D330BD1CB5012136
:10233000782000F073FB4CF23370009002208DF88F
:1023400004008DF8050000208DF806008DF80700C8
:1023500069463E48FFF7F3FE0C2200213B48FFF799
:1023600036FF0C2201213948FFF731FF0C220421EE
:102370003648FFF72CFF0C2205213448FFF727FFD2
:102380000C2208213148FFF722FF0C2209212F4897
:10239000FFF71DFF0C220A212C48FFF718FF0C2223
:1023A0000E212A48FFF713FF0C220F212748FFF7C1
:1023B0000EFF4FF68070009069462548FFF7BFFE7C
:1023C0000C2207212248FFF702FF0C220821204897
:1023D000FFF7FDFE0C2209211D48FFF7F8FE0C2235
:1023E0000A211B48FFF7F3FE0C220B211848FFF7C8
:1023F000EEFE0C2211461648FFF7E9FE0C220D21D5
:102400001348FFF7E4FE0C220E211148FFF7DFFE10
:102410000C220F210E48FFF7DAFE012000906946DA
:102420000C48FFF78CFE0C2200210A48FFF7CFFE74
:102430004FF48060009069460748FFF780FE0C2249
:102440000A210548FFF7C3FE1CBD0000000C024036
:1024500000100240001402400018024070B505460A
:102460000E461446A4F12000C4B207480068016873
:1024700005480068C088604301EB400231462846A9
:1024800000F02AF870BD00002401002070B5064657
:102490000C4640F23F150AE0227829463046FFF705
:1024A000DDFF0C4800688088281A85B2641C681C0F
:1024B00080B2084909688988884201DB012000E070
:1024C0000020217809B1012100E000210840002806
:1024D000E2D170BD240100202DE9F0430746894672
:1024E000164600240025A046B8464946404600F05E
:1024F000FBF800BF39E000F015F9002527E01E4881
:10250000006880880C2190FBF1F0C1008020884099
:10251000284136F81410084020B917480068808810
:102520000C280ADD36F814000121A940084048B9FA
:102530001148006880880C2804DD1048008800F0ED
:10254000EDF803E00E48008800F0E8F86D1C0A483A
:1025500000688088A842D2D808F101001FFA80F8EC
:102560004946404600F0C0F8641C03480068C08833
:10257000A042C0D8BDE8F083240100202A01002039
:102580002801002000B597B00121084600F066FA46
:102590000520019000200290092003900020049063
:1025A00005900690079004200890002009900A905A
:1025B00010200B9000200C900D900E900F9010901A
:1025C0004FF480501190002012901390149001A8A5
:1025D0001590169008A8FFF73FFD01210420FFF792
:1025E00021FD17B000BD00000148006870470000E1
:1025F0002401002010B500F0D3FA002000F068FD9F
:10260000012000F065FD022000F062FD032000F0D3
:102610005FFD0020FFF776FE002000F05DF84FF62A
:10262000FF7000F073F8FFF7DFFF00240FA12046D2
:10263000FFF72CFFFFF7D8FFC48812A12046FFF751
:1026400025FFFFF7D1FFC0884004040C13A12046EA
:10265000FFF71CFFFFF7C8FFC08800EB400084B203
:1026600014A12046FFF712FF10BD000020202020FB
:1026700053544D33324634302F34317820202020CB
:1026800020000000202053544D3332462D34205377
:10269000657269657320202000000000202020570B
:1026A00065627365727665722044656D6F202020C7
:1026B000000000002020202020202020202020209A
:1026C00020202020202020200000000001464FF084
:1026D000D04001804088704701B5BDF80000014935
:1026E000088008BD2A01002010B503460C46194693
:1026F000202000F01CF82146212000F018F810BD21
:1027000001490860704700002401002001B5BDF8B0
:1027100000000149088008BD280100204FF0D04189
:102720004880704722204FF0D041088070474FF01A
:10273000D0421080518070472DE9F04106460F4687
:1027400090461D460024002E3CD100F0E7FC0120FD
:1027500000F0E4FC022000F0E1FC032000F0DEFCCD
:1027600000BF2DE058F8240018A1FDF770FD30BB24
:1027700055F8240016A1FDF76AFD18B9002000F0F5
:10278000D9FC1CE055F8240012A1FDF760FD18B932
:10279000012000F0CFFC12E055F824000EA1FDF757
:1027A00056FD18B9022000F0C5FC08E055F82400D9
:1027B0000AA1FDF74CFD10B9032000F0BBFC641C1E
:1027C000BC42CFD306A0BDE8F08100006C65640078
:1027D000310000003200000033000000340000002F
:1027E0002F53544D3332463478374C45442E687459
:1027F0006D6C000010B58CB005F01EF905F06CFA98
:10280000274803F029FC0B906FF0FF0003F024FC35
:102810000A902348093803F01FFC09900A208DF81C
:10282000200000208DF82100A8208DF82200C02073
:102830008DF823009DF820009DF82110CDE90010AF
:102840009DF822309DF8232016A103A802F010FB6A
:10285000FFF7CAFEC088C004040C16A12046FFF78B
:1028600015FEFFF7C1FEC08800EBC00084B203A9CB
:102870002046FFF70BFE15481549002209ABCDE9AC
:10288000002102900AAA0BA9124805F06DFA11481E
:1028900005F0BAFA0F4805F011FB0CB010BD0000AE
:1028A0000A00A8C0202025642E25642E25642E252C
:1028B0006400000020205374617469632049502033
:1028C0006164647265737320202000000D5B000852
:1028D000795B00080C0E002001B50C4900980968CE
:1028E000401AFA2804D309490098086008F070FBE0
:1028F000074900980968401A41F28831884204D398
:1029000003490098086003F0B1F808BDA00000205A
:10291000A400002010B5024803F046F910BD0000E5
:102920000C0E002000BFFEE77047000070B50021CC
:1029300000230F22C4781CB3174C246804F4E0640D
:10294000C4F5E064C4F30721C1F10404E3B20A4111
:1029500044789C40E1B28478144021430C07210E56
:102960000E4C05786155047804F01F050124AC4035
:1029700005786D11AD0005F1E025C5F8004109E0CD
:10298000047804F01F050124AC40054D067876114B
:1029900045F8264070BD00000CED00E000E400E0CA
:1029A00080E100E002490143024A116070470000E3
:1029B0000000FA050CED00E010B5024801F098F8AF
:1029C00010BD00001803002010B5024801F006F900
:1029D00010BD00001803002010B5024801F03EF9B8
:1029E00010BD00001803002010B50948807A50B1CE
:1029F0000848006820F006000649086000F058FC0E
:102A0000034802F0A8F84FF48010FFF76DFA10BDEC
:102A10001803002010ED00E07047000029B1064ABD
:102A200012680243044B1A6004E0034A12688243AE
:102A3000014B1A60704700003038024029B1064A45
:102A400012680243044B1A6004E0034A126882438E
:102A5000014B1A60704700001038024029B1064A45
:102A600012680243044B1A6004E0034A126882436E
:102A7000014B1A60704700003838024029B1064AFD
:102A800012680243044B1A6004E0034A126882434E
:102A9000014B1A607047000044380240F0B5002135
:102AA00000220024022500260223324F3F6807F04F
:102AB0000C0121B1042905D0082937D105E02E4F9A
:102AC000076036E02D4F076033E02A4F3F1F3F6815
:102AD000C7F38056274F3F1F3F6807F03F036EB193
:102AE000264FB7FBF3F7DFF88CC0ACF1040CDCF831
:102AF00000C0CCF3881C07FB0CF40CE01E4FB7FBA6
:102B0000F3F7DFF870C0ACF1040CDCF800C0CCF3D4
:102B1000881C07FB0CF4174F3F1F3F68C7F30147A2
:102B20007F1C7D00B4FBF5F7076002E0124F0760E1
:102B300000BF00BF0F4F3F6807F0F0010909104FB9
:102B40007A5C0768D74047600A4F3F6807F4E05156
:102B5000890A0B4F7A5C4768D7408760054F3F680A
:102B600007F46041490B064F7A5C4768D740C7605D
:102B7000F0BD0000083802400024F40040787D01D8
:102B80002C01002002460020044B186820F0EC6065
:102B900042EA01031843014B1860704708380240AD
:102BA00008B500200090FFF7C1FBFFF7EBFC052004
:102BB00002F042FB0020FFF789FD009049F220312E
:102BC000009888427ED14FF40041E520FFF7AFFD29
:102BD00001210020FFF7ABFD4FF480710120FFF7CA
:102BE000A6FD4FF4E0610220FFF7A1FD41F23001A4
:102BF0000320FFF79CFD00210420FFF798FD40F221
:102C000002210820FFF793FD00210920FFF78FFD27
:102C100000210A20FFF78BFD00210C20FFF787FD24
:102C200000210D20FFF783FD00210F20FFF77FFD1E
:102C300000211020FFF77BFD00211120FFF777FD19
:102C400000211220FFF773FD00211320FFF76FFD15
:102C5000142002F0F1FA41F2B0711020FFF767FD85
:102C600040F237111120FFF762FD052002F0E4FA6F
:102C700040F239111220FFF75AFD052002F0DCFA6C
:102C80004FF4E8511320FFF752FD13212920FFF7DD
:102C90004EFD052002F0D0FA00212020FFF747FD6D
:102CA00000212120FFF743FD06213020FFF73FFDE3
:102CB00040F201113120FFF73AFD03213220FFF7E6
:102CC00036FD00E07BE04FF483713520FFF72FFDE8
:102CD00040F602313620FFF72AFD40F2023137205C
:102CE000FFF725FD40F207713820FFF720FD07218F
:102CF0003920FFF71CFD4FF4C0613C20FFF717FDA2
:102D000040F20B213D20FFF712FD00215020FFF77C
:102D10000EFDEF215120FFF70AFD00215220FFF7A1
:102D200006FD40F23F115320FFF701FD4FF41C5107
:102D30006020FFF7FCFC01216120FFF7F8FC002177
:102D40006A20FFF7F4FC00218020FFF7F0FC00214F
:102D50008120FFF7ECFC00218220FFF7E8FC002136
:102D60008320FFF7E4FC00218420FFF7E0FC002132
:102D70008520FFF7DCFC10219020FFF7D8FC002114
:102D80009220FFF7D4FC03219320FFF7D0FC4FF4EF
:102D900088719520FFF7CBFC00219720FFF7C7FC37
:102DA00000219820FFF7C3FC41F218010320FFF730
:102DB000BEFC40F273110720FFF7B9FCF9E049F2BD
:102DC000253100988842F9D101210020FFF7AFFC9E
:102DD0004FF480710120FFF7AAFC4FF4E06102205C
:102DE000FFF7A5FC41F218010320FFF7A0FC00212A
:102DF0000420FFF79CFC40F202210820FFF797FC1B
:102E000000210920FFF793FC00210A20FFF78FFC27
:102E100000210C20FFF78BFC00210D20FFF787FC21
:102E200000210F20FFF783FC00211020FFF77FFC1B
:102E300000211120FFF77BFC00211220FFF777FC17
:102E400000211320FFF773FC142002F0F5F941F282
:102E5000B0711020FFF76BFC40F237111120FFF723
:102E600066FC052002F0E8F940F239111220FFF764
:102E70005EFC052002F0E0F94FF4E8511320FFF763
:102E800056FC13212920FFF752FC052002F0D4F94B
:102E900000212020FFF74BFC00212120FFF747FCF9
:102EA00007213020FFF743FC40F202313120FFF7C9
:102EB0003EFC40F205113220FFF739FC40F20621BA
:102EC0003520FFF734FC40F608013620FFF72FFCD1
:102ED00040F206213720FFF72AFC40F20451382047
:102EE000FFF725FC07213920FFF721FC40F20511EF
:102EF0003C20FFF71CFC40F608013D20FFF717FCC3
:102F000000215020FFF713FCEF215120FFF70FFCA9
:102F100000215220FFF70BFC40F23F115320FFF736
:102F200006FC4FF427416020FFF701FC01216120DE
:102F3000FFF7FDFB00216A20FFF7F9FB002180204D
:102F4000FFF7F5FB00218120FFF7F1FB0021822034
:102F5000FFF7EDFB00218320FFF7E9FB0021842030
:102F6000FFF7E5FB00218520FFF7E1FB1021902012
:102F7000FFF7DDFB00219220FFF7D9FB032193200F
:102F8000FFF7D5FB4FF488719520FFF7D0FB0021A8
:102F90009720FFF7CCFB00219820FFF7C8FB41F2F8
:102FA00018010320FFF7C3FB40F233110720FFF79E
:102FB000BEFB0248FFF7A4FB08BD0000040100208F
:102FC0003EB504460D4625208DF8000000208DF802
:102FD00001008DF8020001208DF803006846FFF71C
:102FE000A5FC2E4951F824102D4A52F8242041EA1C
:102FF00002000121FFF712FD2A4951F824000121A6
:10300000FFF73CFD284B13F81420284B33F814101D
:10301000274B53F82400FFF7DAF8264B13F8142057
:10302000254B33F81410254B53F82400FFF7CFF845
:1030300000208DF80A0001208DF80B0002208DF889
:1030400008001F4830F81400019002208DF8090094
:10305000174951F8240001A9FFF771F802208DF8F3
:103060000800184830F814000190144951F8240061
:1030700001A9FFF764F8144951F82400294600F02B
:10308000EBF9114951F82400012100F07DF90122EA
:1030900040F225510D4800F0BAF93EBDA056030894
:1030A000A45603089C560308B0560308AC56030800
:1030B000DC000020B2560308AE560308E0000020F2
:1030C000A8560308AA560308D800002000100140A3
:1030D0001CB504460E4951F824000121FFF79EFC5F
:1030E0000C4830F81400009001208DF804000020F6
:1030F0008DF8060001208DF8070002208DF80500EC
:10310000054951F824006946FFF719F81CBD000075
:103110006056030858560308BC000020034931F8E4
:103120001010034A52F82020518370475856030864
:10313000BC000020034931F81010034A52F8202047
:103140001183704758560308BC000020064951F807
:1031500020104969054A32F810205140024A52F8BD
:103160002020516170470000BC0000205856030821
:10317000704700000149086070470000DC002742EA
:103180000CB50020019000904148006840F4803068
:103190003F49086000BF3E48006800F400300090DE
:1031A0000198401C0190009818B90198B0F5A04F03
:1031B000F1D13748006800F4003010B101200090D0
:1031C00001E0002000900098012846D130484030AE
:1031D000006840F080502E49403108602D4800685A
:1031E00040F440402B4908602948083000682849CD
:1031F000083108600846006840F40040086008464E
:10320000006840F4A05008602348091F0860081FA8
:10321000006840F08070091F086000BF1C4800680B
:1032200000F000700028F9D040F205601B490860EA
:1032300017480830006820F003001549083108607D
:103240000846006840F00200086000BF10480830DF
:10325000006800F00C000828F8D10D48083000681C
:1032600020F400000A49083108600D4808498431FB
:1032700008600748006840F080600549086000BFAA
:103280000348006800F000600028F9D00CBD000081
:10329000003802400070004019544007003C0240D2
:1032A0008040003010B500F03FF800F035F810BD58
:1032B00010B51548006840F47000134908601348C1
:1032C000006840F001001149086000200F490831F2
:1032D00008600E4800680E4908400C4908600D4817
:1032E000091D0860081F006820F48020091F08607D
:1032F000002006490C310860FFF742FF4FF00060E4
:1033000001498039086010BD88ED00E000380240B6
:10331000FFFFF6FE10300024024800680A30014921
:1033200008607047000000200448006820B103488E
:103330000068401E0149086070470000040000203A
:1033400010B5054800F0F2F800F07F04214602486D
:1033500000F0F1F810BD00000010014010B540F27F
:103360002551084800F029F818B10021084601F05D
:103370001FFD0821034800F013F810B1014800F0C8
:10338000D5F810BD0010014021B1828942F40052ED
:10339000828104E082894DF6FF731A408281704772
:1033A00002460020B1F5007F00D100BF13880B401A
:1033B0000BB1012000E00020704770B502460024E8
:1033C00000230025002040F66A16B14200D100BF5C
:1033D000C1F3421501F01F03012606FA03F3012D84
:1033E00002D19689334006E0022D02D1168A33407D
:1033F00001E0968A33400C12012606FA04F416887E
:10340000344013B10CB1012000E0002070BDF0B5D4
:103410000346002400260025002040F66A17B94222
:1034200000D100BF1846C1F3421401F01F06012766
:1034300007FA06F5012C01D10C3004E0022C01D171
:10344000103000E014301AB107682F43076002E023
:103450000768AF430760F0BD2DE9FF4705460E46FC
:103460000024A14600BFA046B08900B100BF2C8A4D
:1034700024F44054F08804432C82AC8941F20C605F
:103480008443B08831890843718908430443AC817F
:10349000AC8A24F44074B0890443AC826846FFF7D8
:1034A000FDFA2048854202D01F48854202D1DDF84E
:1034B0000C9001E0DDF80890A88900F4004040B1CC
:1034C00009EBC90000EB091031684900B0FBF1F7C6
:1034D00007E009EBC90000EB091031688900B0FB77
:1034E000F1F76420B7FBF0F004012009642101FB2F
:1034F0001078A88900F4004040B1322000EBC800E9
:10350000B0FBF1F000F00700044308E0322000EBCC
:1035100008106421B0FBF1F000F00F0004432C818F
:10352000BDE8FF8700100140001401400146888873
:10353000C0F308007047C1F308028280704770B57D
:1035400004460D46D4F8E4052946426820469047D3
:10355000002070BD70B504460D464FF48970005DC3
:10356000022802D0032812D100E000BF6888012899
:103570000CD100214FF48C700151D4F8E405294698
:10358000826820469047204600F075F804E02946FE
:10359000204600F021F800BF00BF70BD2DE9F041CA
:1035A00006460C46154600272B462246002130468B
:1035B000FDF7F3F93846BDE8F0812DE9F041064604
:1035C0000C46154600272B46224600213046FDF7C3
:1035D0003FFA3846BDE8F08170B504460D468021BB
:1035E0002046FDF711FA00212046FDF70DFA20468E
:1035F00001F00DF870BD2DE9F04104460E46154668
:103600000027C4F89453C4F89053032140F21110DA
:1036100001552B46324600212046FDF7BEF93846BB
:10362000BDE8F08170B504460025052140F2111077
:10363000015500231A4619462046FDF7AEF92046EB
:1036400000F0E5FF284670BD2DE9F04104460E4626
:1036500015460027C4F83C51C4F83851022140F205
:10366000111001552B46324600212046FDF7F0F996
:103670003846BDE8F08170B504460025042140F2CB
:103680001110015500231A4619462046FDF7E0F9AE
:10369000204600F0BCFF284670BD70B505460E46BA
:1036A000002E51D105F58E7440F21110405D0228B4
:1036B0003DD1A168E069884211D9A168E069401A4A
:1036C000E061E878012803D1D4E902100844E06001
:1036D000A08B82B22846E168FFF76FFF27E0A16860
:1036E000206AB0FBF1F201FB120078B9A168206AF0
:1036F00088420BD3D4E90801884207D20022114640
:103700002846FFF75AFF0020606210E0D5F8E40574
:10371000C06848B14FF48970405D032804D1D5F8E2
:10372000E405C168284688472846FFF77BFF4FF429
:103730008B70405D012816D1284600F05BFB00210C
:103740004FF48B7041550EE0D5F8E405406950B157
:103750004FF48970405D032805D1D5F8E405314662
:10376000426928469047002070BD70B505460E4658
:10377000A6BB05F55D7440F21110405D03283DD1F4
:10378000A168E069884217D9A168E069401AE06140
:10379000E878012803D1D4E902100844E060A36866
:1037A000E069984201D2E06900E0A06882B2284650
:1037B000E168FFF7F3FE21E0D5F8E405006948B1C0
:1037C0004FF48970405D032804D1D5F8E405016900
:1037D000284688472846FFF74EFF0FE0FFE7D5F859
:1037E000E405806950B14FF48970405D032805D12C
:1037F000D5F8E4053146826928469047002070BD1F
:1038000010B50446D4F8E81548698047012140F214
:1038100015100155002010BD10B50446D4F8E81568
:1038200088698047D4F8E405002142682046904723
:10383000002140F215100155002010BD70B504465E
:103840000D46E888012804D029462046FFF7C4FE2B
:103850001AE04FF48970005D022802D003280DD1D0
:1038600005E0012209492046FFF7EEFE0BE00122A8
:1038700004F588712046FFF7E7FE04E0294620465C
:10388000FFF7AAFE00BF00BF70BD0000840100204A
:10389000F8B504460E467088001208286FD2DFE89B
:1038A00000F09904162F99996F88A078D4F8EC1538
:1038B0000A68694690470546F088402804D04FF4CE
:1038C0008970005D012801D10820009087E0A07870
:1038D000D4F8E4158A6A694690470546A07801281D
:1038E00009D1207A012806D1A078D4F8E415CA6A53
:1038F00069469047054602206870C4F8F0556EE0AE
:10390000B078062834D2DFE800F0030B131B232B1A
:10391000A078D4F8EC154A686946904705462CE033
:10392000A078D4F8EC158A6869469047054624E0EB
:10393000A078D4F8EC15CA686946904705461CE0A3
:10394000A078D4F8EC150A6969469047054614E05A
:10395000A078D4F8EC154A696946904705460CE012
:10396000A078D4F8EC158A6969469047054604E0CA
:1039700031462046FFF730FEF8BD00BF2FE029E0BA
:10398000A07888B9A078D4F8E4158A6A6946904787
:103990000546A87B1E490871E87B4871287C887120
:1039A0000D460A2000901AE031462046FFF714FE2B
:1039B000E2E7A07848B9A078D4F8E415CA6A694665
:1039C000904705460721697009E031462046FFF718
:1039D00003FED1E731462046FFF7FEFDCCE700BFEE
:1039E000BDF8000088B1F08878B1F088BDF800100B
:1039F000884202DDBDF8000000E0F0880090BDF8CC
:103A0000002029462046FFF71FFE00BFB4E7000054
:103A1000920000200146002002E0421CD0B2491C66
:103A20000A78002AF9D1704770B504460D464FF464
:103A30008970005D022802D0032813D100E000BF86
:103A400001200C4908604FF48C70005920B10846E1
:103A5000006840F002000860022206492046FFF795
:103A6000F3FD04E029462046FFF7B6FD00BF00BF86
:103A700070BD0000880100202DE9F04104460D468C
:103A800017460026FCB12046FFF7C4FF022101EBD8
:103A9000400038803A783046711CCEB22A54032256
:103AA0003046711CCEB22A540AE014F8012B30467D
:103AB000711CCEB22A5400223046711CCEB22A5458
:103AC00020780028F1D1BDE8F08110B50446D4F883
:103AD000E405016A20468847002010BD10B5044661
:103AE000D4F8E405416A20468847002010BD000054
:103AF000F8B504462069466C2069476BC7F340005F
:103B000046EAC016E069806830400090009800F0F6
:103B10000100A8B102252069406BA84321694863D0
:103B200000200090009820F00100401C00900099B7
:103B3000E06981602848006801214268204690477A
:103B40000098C0F3400048B100200090009820F099
:103B50000200801C00900099E06981600098C0F329
:103B6000C00048B100200090009820F00800083004
:103B700000900099E06981600098C0F3001048B19E
:103B800000200090009820F0100010300090009964
:103B9000E06981600098C0F3801048B10020009077
:103BA000009820F04000403000900099E06981606A
:103BB0000098C0F3C01068B101212046FDF7AEFAAD
:103BC00000200090009820F0800080300090009944
:103BD000E06981600120F8BD7C0100201CB504462D
:103BE000A06D8068019001982169D1F88410084087
:103BF0000190019800F00100E8B1002001900198C7
:103C000020F00100401C01900199A06D8160E078D6
:103C100001280AD1A06D00690090D4F8A40300998E
:103C2000C1F31201411AC4F8B4130B480068012112
:103C30000268204690470198C0F3400048B1002038
:103C40000190019820F00200801C01900199A06D64
:103C5000816001201CBD00007C0100207CB5054670
:103C60000024284600F036FF002875D0284600F0D2
:103C70003CFF0190019808B900207CBD0198C0F379
:103C8000C04018B12846FCF7DFFF04430198C0F399
:103C9000804018B12846FCF735FF04430198C0F373
:103CA000400050B100200090009820F00200801CDD
:103CB00000900098E968486100BF0198C00F18B1F2
:103CC0002846FDF741F804430198C0F3C02018B11D
:103CD0002846FDF7DBF804430198C0F3C00018B193
:103CE0002846FDF7BDF804430198C0F3001018B151
:103CF0002846FDF75DF804430198C0F3003018B181
:103D00002846FDF717F904430198C0F3403018B175
:103D10002846FCF7C4FE04430198C0F3005018B1D4
:103D20002846FDF78FF904430198C0F3405018B1BD
:103D30002846FDF79DF904430198C0F3807018B13F
:103D40002846FDF7D5F904430198C0F3800018B167
:103D50002846FDF7A3F9044320468EE790F8CC25CA
:103D60000A7090F8CD254A7090F8CE3590F8CF259E
:103D700003EB02224A8090F8D03590F8D12503EB6E
:103D800002228A8090F8D23590F8D32503EB0222E4
:103D9000CA80CB884FF4A0721350012340F2111255
:103DA0001354704710B5044600234022194620469C
:103DB000FCF7BFFD0023402280212046FCF7B9FD1F
:103DC00001214FF489700155A078D4F8E825516895
:103DD0008847002010BD10B50446D4F8E8150869DE
:103DE000804740F21310015D401E0155032101552B
:103DF000002010BD014603480268086942600020A7
:103E0000704700004C01002010B50446D4F8E405CA
:103E1000C06920B1D4F8E405C16920468847002074
:103E200010BD70B504460D46A88818BBE88808BBCD
:103E3000A87800F07F064FF48970005D032804D154
:103E400029462046FFF7C8FB18E04FF48A70065554
:103E500031462046FCF7CAFD2046FFF70CFC26B190
:103E600002214FF48970015508E001214FF4897057
:103E7000015503E029462046FFF7AEFB70BD70B543
:103E800004460D46D4F8E4052946026820469047CA
:103E9000D4F8E81588688047002070BD70B50446E6
:103EA0000D46A8783049087008460078012804DDDE
:103EB00029462046FFF790FB55E04FF48970005DDE
:103EC000022802D0032848D117E02748007880B1A3
:103ED0002548007884F8100103214FF489700155BA
:103EE000214801782046FFF7CAFF2046FFF7C3FBB1
:103EF00002E02046FFF7BFFB34E01B48007880B9A2
:103F000002214FF4897001551748007884F8100198
:103F1000154801782046FFF712FB2046FFF7ABFB60
:103F20001AE094F8100110490978884211D094F8E9
:103F300010112046FFF703FB0B48007884F81001AE
:103F4000094801782046FFF79AFF2046FFF793FBC8
:103F500002E02046FFF78FFB04E029462046FFF7EA
:103F60003BFB00BF00BF70BD8C010020F8B50446CC
:103F70000D460026688801280DD101214FF48C7070
:103F80000151D4F8E405294682682046904720462E
:103F9000FFF771FB39E06888022836D12879A0BB89
:103FA000206940680090A8880612062E22D2DFE819
:103FB00006F02103090F151B009820F07000103047
:103FC000009017E0009820F070002030009011E081
:103FD000009820F07000303000900BE0009820F046
:103FE00070004030009005E0009820F070005030E4
:103FF000009000BF00BF05480099016001214FF407
:104000008B7001552046FFF736FBF8BD4C010020B0
:104010001CB5044669462046FFF7A0FE9DF8000047
:1040200000F01F0020B1012807D002280FD109E0BD
:104030006946204600F016F811E06946204600F077
:10404000F9F80CE06946204600F046F807E09DF8D4
:10405000000000F080012046FCF7D6FC00BF00BF46
:1040600000201CBD70B505460C46002660780A2865
:1040700029D2DFE800F01923281E280A0528140F8A
:1040800021462846FFF704FC22E021462846FFF798
:10409000C8FE1DE021462846FFF700FF18E0214634
:1040A0002846FFF7CBFB13E021462846FFF7BCFC70
:1040B0000EE021462846FFF759FF09E02146284631
:1040C000FFF748FA04E021462846FFF785FA00BFCB
:1040D00000BF304670BD00002DE9F04105460E4698
:1040E000002734797078002857D001282BD0032876
:1040F00075D14FF48970405D022802D003281BD18E
:1041000007E02CB1802C03D021462846FCF77CFC2C
:1041100017E0708830B92CB1802C03D02146284696
:10412000FCF772FCD5F8E4053146826828469047D2
:104130002846FFF7A0FA04E031462846FFF74CFA7C
:1041400000BF00BF70E04FF48970405D022802D0CC
:1041500003281BD107E02CB1802C03D02146284630
:10416000FCF752FC17E0708878B95CB1802C09D05C
:1041700021462846FCF7B9FBD5F8E40531468268AC
:10418000284690472846FFF776FA04E0314628464D
:10419000FFF722FA00BF00BF46E04FF48970405D90
:1041A000022802D0032837D107E02CB1802C03D09D
:1041B00021462846FCF728FC33E004F080008028E4
:1041C00012D104F07F0000EB800105F58E7000EB4A
:1041D000C100807820B101201549086016E022E076
:1041E00000201349086011E004F0800070B904EB6E
:1041F000840105F55D7000EBC100807818B10120E5
:104200000B49086002E000200949086002220849C1
:104210002846FFF719FA04E031462846FFF7DCF993
:1042200000BF00BF00E000BF00BF3846BDE8F0811E
:104230008001002070B504460D4600264FF48970B9
:10424000005D032814D1287901280CDCD4F8E4059A
:104250002946826820469047E88840B93EB9204602
:10426000FFF709FA03E029462046FFF7B5F904E015
:1042700029462046FFF7B0F900BF00BF304670BDA9
:1042800010B504464FF48970015D401C01550421AE
:10429000401E0155D4F8E815C8688047002010BDBD
:1042A00070B505460C462DB92246064906A0FFF713
:1042B000E3FB04E02246034903A0FFF7DDFB0148CE
:1042C00070BD0000284C002056435020436F6E669E
:1042D000696700000246122008800148704700000C
:1042E0008000002070B505460C462DB922460649CF
:1042F00006A0FFF7C1FB04E02246034903A0FFF735
:10430000BBFB014870BD0000284C002056435020E4
:10431000496E7465726661636500000002460420A0
:1043200008800148704700009C00002070B50546D9
:104330000C462246024903A0FFF79EFB004870BDD1
:10434000284C002053544D6963726F656C6563742B
:10435000726F6E696373000070B505460C462DB927
:104360002246064906A0FFF787FB04E022460349E0
:104370000CA0FFF781FB014870BD0000284C002015
:1043800053544D3332205669727475616C20436FFB
:104390006D506F727420696E204853206D6F646594
:1043A0000000000053544D33322056697274756119
:1043B0006C20436F6D506F727420696E20465320DD
:1043C0004D6F64650000000070B505460C462DB9C0
:1043D0002246064906A0FFF74FFB04E022460349A8
:1043E00007A0FFF749FB014870BD0000284C0020E2
:1043F0003030303030303030303530420000000066
:104400003030303030303030303530430000000054
:10441000024643200880014870470000E401002064
:104420000246432008800148704700002702002010
:1044300010B50022C0EB0013DB000724B3FBF4F13E
:1044400000BF531C1A468B4200D910BDF9E70EB5C8
:1044500001460020002200920A69926802928A694D
:1044600012680192029AC2F3410232B1012A05D0C8
:10447000022A09D0032A0DD101E000BF00BF019A32
:104480006FF30A02019205E0019A6FF30A02D21C4F
:10449000019200BF00BF019B8A691360009A22F459
:1044A000807202F5807200920A695268009B9A43FA
:1044B0001A430B695A600EBDFEB502460020002467
:1044C0000025029500954D78012D52D193691D6804
:1044D00002951D6900954D6955B9009D25F07F0530
:1044E0000095009D25F4C01505F50025009516E002
:1044F0008E684D69B54207D98D684D610E7A009D71
:1045000066F30605009504E00E7D009D66F3060542
:104510000095009D25F4C01505F500250095009D2A
:104520001D61D578012D06D10F7802F1180555F8D7
:1045300027500E696E61029D25F0806505F180654A
:104540000295029D25F0004505F100450295029D6A
:104550001D60D578002D59D14D69002D56D00E78AB
:104560000125B5402C4315696D6B254316697563AC
:104570004CE00E7802F1540555F826502D6802954E
:104580000E7802F1540555F826502D6900954D69B5
:104590005DB90E7A009D66F306050095009D25F431
:1045A000C01505F5002500950CE08D684D610E7A6B
:1045B000009D66F306050095009D25F4C01505F5E0
:1045C000002500950F7802F1540555F82750009EFC
:1045D0002E61D578012D06D10F7802F1540555F8DA
:1045E00027500E696E61029D25F0806505F180659A
:1045F0000295029D25F0004505F1004502950F78D2
:1046000002F1540555F82750029E2E60FEBD0EB5EE
:1046100000210191019921F04041A1F180410191D6
:10462000019921F4C01101F500210191019921F0B6
:104630007F0118310191019A416D0A61C178012908
:1046400015D10021009100F2CC51426D5161416DB4
:1046500009680091009921F0004101F100410091A9
:104660004FF080210091009A416D0A6000BF0EBD9D
:104670003CB5024600200024019400944C78012CA3
:104680000CD10D7802F1180454F825300D7801246E
:10469000AC40009D64F30F0500950BE00D7802F12E
:1046A000540454F825300D780124AC40009D64F387
:1046B0001F4500951C680194019CC4F3C034E4B903
:1046C0000D89019C65F30A040194CD78019C65F382
:1046D000934401948D79019C65F399540194019C54
:1046E00024F0805404F180540194019C24F400448B
:1046F00004F500440194019C1C600C78012C08D145
:10470000D47A34B91469E46B009D2C431569EC63C9
:1047100005E01469E469009D2C431569EC613CBD1A
:1047200038B503460020002400944C78012C05D1B4
:104730000D7803F1180454F8252004E00D7803F1F6
:10474000540454F8252014680094009C24F40014A8
:104750000094CC78032C02D0CC78022C05D1009C9C
:1047600024F0805404F180540094009C146038BDFF
:104770003CB5024600200024019400944C78012CA2
:104780000CD10D7802F1180454F825300D7801246D
:10479000AC40009D64F30F0500950BE00D7802F12D
:1047A000540454F825300D780124AC40009D64F386
:1047B0001F450095019C24F400440194019C1C6059
:1047C0000C78012C08D1D47A34B91469E46B009DBB
:1047D000AC431569EC6305E01469E469009DAC43E2
:1047E0001569EC613CBD38B503460A46002000243B
:1047F00000945478012C18D1157803F1180454F85A
:1048000025100C680094009CE40F2CB1009C24F04F
:10481000804404F180440094009C24F4001404F5C6
:1048200000140094009C0C600EE0157803F1540411
:1048300054F825100C680094009C24F4001404F52E
:1048400000140094009C0C6038BDFEB505460C4673
:1048500000260027002002900190607801287ED178
:10486000217805F1180050F82100006802902178A5
:1048700005F1180050F8210000690190606948B9FD
:1048800001986FF3120001900121019861F3DC405F
:10489000019017E06169019861F31200019060696D
:1048A000401EA1680844B0FBF1F1019861F3DC40BF
:1048B0000190E078012805D1019820F0C04000F176
:1048C00000500190227805F1180050F8220001995B
:1048D0000161E878012807D1227805F1180050F825
:1048E0002200216941610DE0E07801280AD0606969
:1048F00040B12178012000FA01F72869406B384364
:1049000029694863E078012813D1286980680090FC
:104910000098C0F3002030B9029820F0005000F158
:104920000050029005E0029820F0805000F1805085
:104930000290029820F0806000F18060029002985E
:1049400020F0004000F100400290227805F11800AC
:1049500050F8220002990160E078012800E008E0A8
:104960006CD1A08A83B222782846E16800F00EF963
:1049700064E0217805F1540050F8210000680290AD
:10498000217805F1540050F8210000690190606918
:1049900050B9A168019861F31200019001210198BA
:1049A00061F3DC40019013E0A068401E6169084497
:1049B000A168B0FBF1F1019861F3DC40019001982E
:1049C000C0F3C940A1684843019960F31201019105
:1049D000227805F1540050F8220001990161E8782D
:1049E000012806D1227805F1540050F822002169EF
:1049F0004161E07801280ED1607930B1029820F051
:104A0000005000F10050029005E0029820F0805024
:104A100000F180500290029820F0806000F18060E8
:104A20000290029820F0004000F1004002902278AD
:104A300005F1540050F82200029901603046FEBD95
:104A4000F8B504460D460026002700200090009887
:104A500020F0200020300090009865F38A1000902C
:104A60000098E168086100BFE06800690090781C68
:104A700007460749884200D904E00098C0F3401077
:104A80000028F1D100BF0320FFF7D2FC3046F8BD6B
:104A9000400D030008B5014600200A6992680092A3
:104AA000009AC2F3410232B1012A06D0022A07D08D
:104AB000032A07D102E0032004E000BF022001E046
:104AC000012000BF00BF08BD0146C868406900F072
:104AD0000100704700B502461046FFF7F5FF0128B8
:104AE00001D0012000BD0020FCE701460020CA687B
:104AF0005069CA6892691040704701460869826926
:104B00000869C069024090B270470146086982692D
:104B10000869C0690240100C7047024602F1540354
:104B200053F82130986813695B6918407047F0B5F5
:104B300003460024D01CC71700EB9777BD10D3F8AD
:104B4000D06000BF03E030680860641C091DAC42FF
:104B5000F9D30846F0BD0CB5817AB1B10169896815
:104B60000191019901F0010171B1D0F80C1100918E
:104B7000009921F002010091009921F001010091BA
:104B8000009AD0F80C110A6000BF0CBD2DE9F0416D
:104B900004460026E078B0B900270020DD1C4FEA6B
:104BA000E57805EB98784FEAA80704F1D00555F8A9
:104BB00022C000BF04E00D68CCF80050401C091D65
:104BC000B842F8D300BF3046BDE8F08100BFFEE731
:104BD00010B50446BCB94FF4E1303C4908600020F0
:104BE0008880C8804FF4C0600881002088810C2034
:104BF00048810020FEF7E4F9012240F225513448B3
:104C0000FEF705FC5FE03348007920B1012806D0AB
:104C100002280ED108E000202C49C8800EE04FF495
:104C200040502A49C88009E04FF400502749C88005
:104C300004E00020FFF7CCFF022010BD00BF254894
:104C4000407920B1012806D002280ED108E00020CA
:104C50001E4908810EE04FF480601C49088109E07C
:104C60004FF4C0601949088104E00020FFF7B0FF4D
:104C70000220E2E700BF17488079072802D0082801
:104C800010D103E000201149888010E00F4800890E
:104C900018B900200D49888003E04FF480500B497B
:104CA000888004E00020FFF793FF0220C5E700BFE3
:104CB0000848006805490860002088810C20488168
:104CC0000020FEF77DF90020B7E70000FC0D002072
:104CD000001001404800002070B505460C461646FD
:104CE000042D15D007DC7DB1012D0ED0022D0DD085
:104CF000032D3FD10BE0202D0BD0212D1FD0222DD5
:104D000036D0232D36D134E035E034E033E032E0E4
:104D100031E02078617840EA0120A17840EA014042
:104D2000E17840EA016015490860207908716079EE
:104D30004871A07988710120FFF74AFF1BE00F48F6
:104D4000007820700D480088000A60700B480068E9
:104D5000000CA07009480068000EE0700748007958
:104D6000207106484079607104488079A07102E0A2
:104D700001E000E000BF00BF002070BD480000203F
:104D800070B505460E4600240BE0295D0748FEF786
:104D9000D2FB00BF80210548FEF702FB0028F9D0B6
:104DA000641CB442F1D3002070BD0000001001402B
:104DB00070B504460D4613488079072809D112487A
:104DC000FEF7B4FB00F07F001049114A12688854C6
:104DD0000AE00C488079082806D10B48FEF7A6FBAC
:104DE0000A490B4A1268885409480068401C08495F
:104DF000086008460068B0F5006F01D10020086027
:104E0000002070BD4800002000100140274F002006
:104E10009C0100200020704708B54FF4E130124992
:104E2000086000208880C8804FF4C060088100209E
:104E300088810C2048810020FEF7C2F8012240F250
:104E400025510A48FEF7E3FA25208DF800000020DE
:104E50008DF801008DF8020001208DF803006846EE
:104E6000FDF764FD002008BDFC0D0020001001408E
:104E70000FB4084B10B504A902AA039800F01CF85F
:104E8000044602A9002000F0C1F8204610BC5DF8DD
:104E900014FB00000D50000802E008C8121F08C1F2
:104EA000002AFAD170477047002001E001C1121FAB
:104EB000002AFBD1704700002DE9FF4F89B09B46C7
:104EC0000446002506E025280BD05A460B9990474A
:104ED000641C6D1C20780028F5D10DB02846BDE873
:104EE000F08F0027B8460122474900E0074314F835
:104EF000013F203B02FA03F00842F7D120782E2828
:104F000019D114F8010F47F004072A280ED06FF0CA
:104F10002F022078A0F1300109290CD808EB880174
:104F200002EB410100EB0108641CF2E70A98641CE3
:104F300050F8048B0A9020780028CED0642808D03E
:104F4000692806D075281ED05A460B9990476D1CCB
:104F500058E00A994FF00A0901C90A91002802DABB
:104F600040422D2102E0390504D52B218DF8201077
:104F7000012103E0F90704D02021F7E78A4608AEB3
:104F80000DE00021FAE70A994FF00A0901C90A91D8
:104F9000F7E74946FBF71DFA303106F8011D0028F6
:104FA000F7D1ADEB060000F12009780701D44FF0EE
:104FB0000108C84502DDA8EB090000E0002080469A
:104FC000002706E008A85A46C05D0B9990476D1C63
:104FD0007F1C5745F6DB04E030205A460B9990477A
:104FE0006D1CB8F10001A8F10108F5DC05E016F828
:104FF000010B5A460B9990476D1CB9F10001A9F1BC
:105000000109F4DC641C65E7092801000A68531CE7
:105010000B601070704700001FB504460122074B5B
:10502000606ACDE9000304F12B03CDE90202044AD2
:105030001946204600F076FC04B010BDCA80030873
:10504000C48003087FB504460D46606A002850D02E
:10505000606A007900284CD094F82B008DF800008D
:105060002C20005D8DF801002D20005D8DF80200E0
:105070002E20005D8DF803002F20005D8DF80400C8
:105080003020005D8DF80500D5F80E000390A8696A
:105090000290606A0079012806D0606A00790228CF
:1050A00017D1606A4079A0B90398616A096888429B
:1050B0000BD00298616A0968884219D1062205F16D
:1050C00008016846FBF7D1F890B1204600F05BF884
:1050D0000EE00398616A0968884209D1062205F149
:1050E00008016846FBF7C1F810B1204600F034F81B
:1050F00000BF7FBD2DE9F04105460E462F214A5DD8
:105100003021495D42EA0121104A881800F0A4FFCD
:10511000074602F0E9FE0446686A407A0444A0B2F9
:105120000B4940EA01040948844201D204F57E4457
:105130000848844201D9A4F57E4400BF00BF204640
:1051400000F08AFF3060BDE8F08100000001FEA998
:105150000000FEA9FFFEFEA970B50446012575B149
:10516000606A007A002803DD204600F00CF809E0B0
:105170002046FFF751FF6420616A087202E0204672
:1051800000F001F870BD70B505466C6A002628462F
:1051900002F020FE10B1284602F03CFE00206860BC
:1051A000A860E8606CB90A2002F078FC044614B9E3
:1051B0004FF0FF3070BD00202060606020816C6285
:1051C00005E000202071E08060712060207221469F
:1051D0002846FFF78FFF607A401C6072284600F077
:1051E00002F83046E6E710B5416A01220A71002252
:1051F0004A713022125C13062E22125C43EA0243EB
:105200002D22125C43EA02222F231B5C1A43436ABD
:1052100013B1436A5B7A00E000231A440A23B2FB0D
:10522000F3F403FB1422CA804A7A0A2A02DD4FF4FF
:105230001672CA8010BD000001B581B00020009038
:10524000054901984843009002E00098401E0090F4
:1052500000980028F9D10CBDA086010070B5044665
:105260000D4600BF04B970BD00BF206A58B1206A66
:10527000807C082807D12868216A896A884202D17F
:10528000204600F099F800BFEDE7000070B5064633
:1052900000BF16B96FF0090070BD00BF346A00BFCF
:1052A00014B96FF00800F7E700BF00BF00BF00BFF0
:1052B00000BF00224FF49A71104602F021FE606197
:1052C000606910B94FF0FF30E6E700BF00BFE07C37
:1052D00020B937480068401C3549086034480068E8
:1052E000206060694068A0610120A1690870A1691F
:1052F00048700620A16988700020A169C8702068E4
:1053000000F0AAFEA16948600020A1690881A16996
:105310004881A169C860A07C0A2805D0A07C052826
:1053200002D0A07C042802D17068A169C860002066
:10533000A1690861A1694861A169886100250DE042
:1053400096F82A00A84203DD06F12B00405D00E03C
:105350000020A1691C314855681C85B2102DEFD37F
:10536000002505E00021A0692C304155681C85B25C
:10537000402DF7D3002505E00021A0696C30415590
:10538000681C85B2802DF7D30A4800F065FEA1693C
:10539000C1F8EC000020A083002504E0A069F030F3
:1053A0004555681C85B2442DF8D3002074E70000F1
:1053B00070020020635382632DE9F84305462C6A8E
:1053C00000260C21204600F0B5F82846FFF75EFFC6
:1053D000064646BB01223521204600F04EF8042146
:1053E000204600F05AF804223221204600F045F809
:1053F000A06A02F079FD80464146204600F056F84A
:10540000204600F074F8A28BF03291B2606902F08D
:1054100090FF009543230B4A6169606805F0A2FF85
:10542000284600F011F8E07C401CE07442F210774E
:1054300007F2F3104FF4FA7190FBF1F0E08330467D
:10544000BDE8F883C080030870B5054600BF05B904
:1054500070BD00BF2C6A00BF04B9F9E700BF00BFF0
:1054600000BF00BF00BF606910B1606902F0EBFED1
:1054700000206061A06100BFEAE710B500BF00BF77
:10548000848B631C83838369F0331955848B631C7D
:1054900083838369F0331A5510BD00BF00BF838B2F
:1054A0005A1C82838269F032D154704710B500BF14
:1054B00000BF0B0E848B621C82838269F03213550D
:1054C000C1F30743848B621C82838269F0321355D7
:1054D000C1F30723848B621C82838269F0321355E7
:1054E000848B621C82838269F032115510BD00BF2B
:1054F00000B9704700BF00BF00BF00BF00BFFF2260
:10550000838B591C81838169F031CA5408E000BF44
:1055100000BF0022838B591C81838169F031CA54FA
:10552000818B4429F3D3017F01F003010029EED1DF
:1055300000BFDEE7827C8A4202D081740022C274FE
:10554000704700002DE9FC5F06468946174600BFFC
:105550000EB9BDE8FC9F00BF78892A2803DA3846D7
:1055600002F071FEF5E7D7F8048008F10E0401207F
:1055700000F07FFD2188884215D140F2046000F0E0
:1055800078FDA18888420ED14FF4006000F071FDD3
:105590006188884207D140F6060000F06AFDB8F83D
:1055A0000C10884203D0384602F04DFED1E7214668
:1055B0003046FFF747FDD4F80E000190A069009037
:1055C000706810B94FF0000A07E0009871688842CF
:1055D00001D1012000E000208246BAF1000F07D07F
:1055E000012304F1080201A9304605F021FF06E07D
:1055F000002304F1080201A9304605F019FFE088F4
:1056000000F037FD012802D002283ED138E0BAF17F
:10561000000F33D0022000F02CFDE080D4F80E0003
:10562000A0617068C4F80E0000BF00BF0625706A54
:1056300020B1706A007908B1174801E004F1080050
:10564000834614E0681EC5B204F10800415D0A30CB
:1056500041551BF8050008F8050019F8051004F17C
:105660000800415519F8051008F106004155002DB4
:10567000E8DC39463046B269904700E000BF05E0FB
:1056800001A93046FFF7EAFD00E000BF00BF384641
:1056900002F0D9FD00BF5CE7C48003082DE9F041AA
:1056A00004460F4600BF0CB9BDE8F08100BF7D681D
:1056B00005F10E06F068A1680840D4E90112114016
:1056C000884200D0F0E70023AA1D06F10C01204615
:1056D00005F0AEFE00BFE7E72DE9FC4104460E46AB
:1056E00015460E21304602F0E5FD18B16FF00100BD
:1056F000BDE8FC8100272146284601F0CEFB08B119
:10570000254F40E04FF0704002F0EEFB296800EAC0
:1057100001084FF0604002F0E7FB80451DD10120F9
:105720008DF8000000208DF801005E208DF8020049
:10573000286802F0D9FBC0F306408DF80300286802
:1057400002F0D2FB000A8DF80400286802F0CCFBBE
:10575000C0B28DF805006F4615E02868A1680840C2
:10576000D4E901121140884207D0E06810B104F179
:105770000C0502E06FF00300BAE7324629462046E6
:1057800000F00CF8B4E73B4604F12B02314620460A
:1057900000F04AF9ACE70000C48003082DE9F84F97
:1057A00081460F46164609F12B0A4FF0FF30009054
:1057B0004946384601F071FB78B94FF0704002F06D
:1057C00093FB396800EA01054FF0604002F08CFB62
:1057D000854202D00FB1386818B96FF00900BDE8F2
:1057E000F88F0121384600F035FA0446002C01DA22
:1057F0002046F4E704EB8400494901EB8000807BFC
:1058000030B9012004EB8401454A02EB8101887321
:1058100000BF00BF04EB8400414901EB8000807BA6
:10582000012800D02EB93946484600F0E7F800902C
:1058300000BF002E71D004EB8400394901EB8000D9
:10584000807B02280CD104EB840001EB800000F186
:10585000080352463146484600F0E6F800905CE006
:1058600004EB84002E4901EB8000807B012854D199
:105870004FF0000B354608E000BF00BF287B012831
:1058800002D04FF0010B02E02D68002DF4D100BFD3
:10589000BBF1000F10D029890022032002F030FB59
:1058A00005466DB13146284602F029FC40B1284634
:1058B00002F0C9FC002503E03546284602F075FDDC
:1058C00055B3062002F03AFA8046B8F1000F1FD017
:1058D0000020C8F80000C8F8045004EB8400104908
:1058E00051F8200060B104EB84010D4A52F8210008
:1058F00000E0006801680029FBD1C0F8008004E0E6
:1059000004EB8400064941F820800020009002E06A
:10591000284602F098FC00BF00BF00985FE7000037
:10592000C0D200202DE9FF4F83B0074689469A4632
:10593000DDF840B00020029000222A21032002F06E
:10594000DFFA8046B8F1000F04D14FF0FF3007B006
:10595000BDE8F08F00BF00BFD8F8046006F10E0567
:10596000139800F086FBE88000BF00BF0624786A29
:1059700020B1786A007908B11F4800E005980190CD
:1059800012E0601EC4B21AF8041005F108000155B7
:105990001198015D05F1120001550198005D305527
:1059A00019F80410B01D0155002CEADCDBF80000EA
:1059B000C5F80E0012980068A861012000F059FB9C
:1059C00028804FF4006000F054FB688040F20460CF
:1059D00000F04FFBA88040F6060000F04AFBB081C3
:1059E00041463846BA6990470290404602F02BFC87
:1059F0004FF000080298AAE7C48003087FB5044668
:105A00000D460121064A201D04F12B038DE82500D7
:105A10000391044A19462046FFF784FF04B070BD85
:105A2000CA800308C48003082DE9F04706460F46E4
:105A3000904699467D6800BF00BF062408E0601EBE
:105A4000C4B219F80400285518F80410A81D01550F
:105A5000002CF4DC4FF4006000F00BFBA881394609
:105A60003046B2699047BDE8F087000010B50024C9
:105A700046E004EB8400244901EB8000C07B401C1D
:105A800004EB8401204A02EB8101C87304EB84001B
:105A9000114601EB8000807B022806D104EB8400D4
:105AA00001EB8000C07BF0280EDA04EB840016497D
:105AB00001EB8000807B012820D104EB840001EB06
:105AC0008000C07B022819DB04EB84000E4951F8EA
:105AD000200060B104EB84010B4A52F8210000F071
