:020000040800F2
:10000000380400209D010008AB040008A304000888
:10001000A7040008E50100084107000800000000EF
:10002000000000000000000000000000A50500081E
:10003000E90100080000000025050008D5060008B9
:10004000B7010008B7010008B7010008B7010008B0
:10005000B7010008B7010008ED010008B70100086A
:10006000B7010008B7010008B7010008B701000890
:10007000B7010008B7010008B7010008B701000880
:10008000B7010008B7010008B7010008B701000870
:10009000B7010008B7010008B701000825020008F1
:1000A000B7010008B7010008B7010008B701000850
:1000B000B7010008B7010008B7010008B701000840
:1000C000B7010008B7010008B7010008B701000830
:1000D000B7010008B7010008B7010008B701000820
:1000E000B7010008B7010008B7010008B701000810
:1000F000B7010008B7010008B7010008B701000800
:10010000B7010008B7010008B7010008B7010008EF
:10011000B7010008B7010008B7010008B7010008DF
:10012000B7010008B7010008B7010008B7010008CF
:10013000B7010008B7010008B7010008B7010008BF
:10014000B7010008B7010008B7010008B7010008AF
:10015000B7010008B7010008B7010008B70100089F
:10016000B7010008B7010008B7010008B70100088F
:10017000B7010008B7010008B7010008B70100087F
:10018000B7010008B7010008DFF80CD000F018F83C
:1001900000480047650700083804002006488047EB
:1001A00006480047FEE7FEE7FEE7FEE7FEE7FEE75C
:1001B000FEE7FEE7FEE7FEE7D90600088901000832
:1001C000064C074D06E0E06840F0010394E80700A4
:1001D00098471034AC42F6D3FFF7DAFF0008000866
:1001E0002008000800BFFEE77047000010B501209E
:1001F00000F0B0F890B1002001E0411C88B24FF649
:10020000FF718842F9DB0121054800F041F910B186
:10021000002000F0B5F9012000F096F810BD0000B4
:100220000000024010B54FF4807000F093F8B8B1B0
:10023000002001E0411C88B24FF6FF718842F9DBD3
:100240004FF48071074800F023F928B1002000F036
:1002500097F9012000F094F94FF4807000F074F8E1
:1002600010BD0000002002400EB50121084600F03C
:100270005BF90121880300F067F901201349086048
:1002800000200871C871124800F0BAF80021084631
:1002900000F08AF9012001908DF80A0000208DF805
:1002A000080008208DF8090001A800F05FF806207A
:1002B0008DF8000000208DF801008DF8020001206B
:1002C0008DF80300684600F0F1F80EBD0000002034
:1002D000000002400EB50121080200F025F90121BD
:1002E000880300F031F94FF4807015490860002050
:1002F0000871C871134800F083F80821084600F01F
:1003000053F94FF48070019001208DF80A0000200D
:100310008DF8080008208DF8090001A800F026F8E3
:1003200017208DF8000000208DF801008DF80200E4
:1003300001208DF80300684600F0B8F80EBD0000FB
:1003400000000020002002400149086070470000C2
:10035000143C014001460020034A12680A400AB1D9
:10036000012000E000207047143C01400021234997
:100370008279002A3AD00A46126803689A430B46EB
:100380001A600A1D126803689A430B1D1A600279ED
:1003900011440A6803681A430A60184A083212684E
:1003A00003689A43154B08331A601A1D12680368D4
:1003B0009A43124B0C331A604279102A0ED11A1F3D
:1003C000126803681A430D4B08331A601A1D12682D
:1003D00003681A43094B0C331A600DE00749427950
:1003E00011440A6803681A430A6005E0027911445F
:1003F0000A6803689A430A6070470000003C0140A5
:10040000F0B50A4600210023002400BF3DE001258D
:1004100005FA01F3156805EA03049C4234D1056826
:100420004F000326BE40B543056015794E00B54028
:100430000668354305601579012D02D01579022D26
:1004400016D185684F000326BE40B54385605579B7
:100450004E00B540866835438560456801268E406C
:10046000B5434560456896798E40B6B235434560E0
:10047000C5684F000326BE40B543C560D5794E0020
:10048000B540C6683543C560491C1029BFD3F0BDCF
:100490000246002013690B400BB1012000E0002050
:1004A000704700BFFEE700BFFEE7704770B5002150
:1004B00000230F22C4781CB3174C246804F4E064B2
:1004C000C4F5E064C4F30721C1F10404E3B20A41B6
:1004D00044789C40E1B28478144021430C07210EFB
:1004E0000E4C05786155047804F01F050124AC40DA
:1004F00005786D11AD0005F1E025C5F8004109E072
:10050000047804F01F050124AC40054D06787611EF
:1005100045F8264070BD00000CED00E000E400E06E
:1005200080E100E07047000029B1064A12680243EA
:10053000044B1A6004E0034A12688243014B1A60BC
:10054000704700003038024029B1064A1268024361
:10055000044B1A6004E0034A12688243014B1A609C
:100560007047000044380240034931F81010034A34
:1005700052F8202011837047A407000808000020CB
:10058000064951F820104969054A32F810205140B7
:10059000024A52F8202051617047000008000020F4
:1005A000A40700087047000030B500228B071C0F1D
:1005B0000F2303FA04F20B4B8C1053F824309343AF
:1005C000084C8D1044F8253023468C1053F8243005
:1005D0008C07240F00FA04F42343024C8D1044F8D6
:1005E000253030BD083801400CB500200190009046
:1005F0003448006840F480303249086000BF314818
:10060000006800F4003000900198401C01900098B0
:1006100018B90198B0F5A04FF1D12A48006800F44C
:10062000003010B10120009001E0002000900098FF
:10063000012846D123484030006840F080502149CD
:10064000403108602048006840F440401E4908607E
:100650001C48083000681B490831086008460068DB
:1006600040F4004008600846006840F4A05008606C
:100670001648091F0860081F006840F08070091FB5
:10068000086000BF0F48006800F000700028F9D033
:1006900040F205700E4908600A480830006820F0F2
:1006A00003000849083108600846006840F002006D
:1006B000086000BF03480830006800F00C000828FC
:1006C000F8D10CBD003802400070004019544007BA
:1006D000003C02407047000010B51548006840F427
:1006E0007000134908601348006840F00100114988
:1006F000086000200F49083108600E4800680E4964
:1007000008400C4908600D48091D0860081F006872
:1007100020F48020091F0860002006490C31086081
:10072000FFF762FF4FF0006001498039086010BD9B
:1007300088ED00E000380240FFFFF6FE1030002494
:1007400000BFFEE702E008C8121F08C1002AFAD164
:1007500070477047002001E001C1121F002AFBD141
:100760007047000001212020FFF7DEFE4FF4C0702B
:100770000A490860012008710220C8710848FFF783
:100780003FFEFFF771FDFFF7A5FD0020FFF7ECFE30
:100790000120FFF7E9FE00BFFEE700000000002097
:1007A000001402408000000100020004200000004C
:1007B00020000000200000002000000001000020B8
:1007C0000001000001000000040000000001000022
:1007D00001000020000100000200080000000D00E0
:1007E00008000600280017001000000001000000AB
:1007F000010000000002000409000A0007000700D1
:100800002008000800000020340000004407000811
:1008100054080008340000200404000054070008B5
:10082000000000000000000000140240001402401C
:100830000014024000140240000002400008024080
:100840000020024000100140000002400000024071
:0408500000000000A4
:040000050800018965
:00000001FF
