:020000040800F2
:1000000090CE00209D0100087D230008E51900081E
:100010007923000817040008E74D000800000000DD
:10002000000000000000000000000000154A000869
:100030006D0900080000000019240008894B000821
:10004000B7010008B7010008B7010008B7010008B0
:10005000B7010008B7010008B7010008B7010008A0
:100060006D140008B7010008B7010008B7010008C7
:10007000B7010008B7010008B7010008B701000880
:10008000B7010008B7010008B7010008B701000870
:10009000B7010008B7010008B7010008B701000860
:1000A000B7010008B7010008B7010008B701000850
:1000B000B7010008B7010008B7010008B701000840
:1000C000B7010008B7010008B7010008B701000830
:1000D000B7010008254C0008B7010008414C000892
:1000E0000514000829270008B7010008B701000817
:1000F000B7010008B7010008B7010008B701000800
:10010000B7010008A9330008B7010008B7010008CB
:10011000B7010008B7010008B7010008B7010008DF
:10012000B7010008B7010008B70100081907000867
:10013000B7010008B7010008B7010008B7010008BF
:10014000B7010008B7010008B7010008B7010008AF
:10015000B7010008B7010008B7010008B70100089F
:10016000B7010008B7010008B7010008B70100088F
:10017000B7010008B7010008B7010008B70100087F
:10018000B7010008B7010008DFF80CD000F0F0F864
:1001900000480047A594000890CE002006488047FC
:1001A00006480047FEE7FEE7FEE7FEE7FEE7FEE75C
:1001B000FEE7FEE7FEE7FEE7954B00088901000831
:1001C0002DE9F05F0546002092469B46884606468C
:1001D000814640241BE0284641464746224600F01F
:1001E000B6F853465A46C01A914110D311461846E4
:1001F000224600F09DF82D1A67EB01084F46224673
:100200000120002100F094F817EB00094E41201E58
:10021000A4F10104DFDC484631462A464346BDE8E6
:10022000F09F40EA01039B0703D009E008C9121FB1
:1002300008C0042AFAD203E011F8013B00F8013BA0
:10024000521EF9D27047D2B201E000F8012B491ECC
:10025000FBD270470022F6E710B513460A46044663
:100260001946FFF7F0FF204610BD30B505462A4677
:100270000B4612F8010B13F8014B08B1A042F8D05D
:100280001CB1002802D06D1CF1E7284630BDCAB26F
:10029000401E10F8011F8A4202D00029F9D1002027
:1002A0007047421C10F8011B0029FBD1801A7047CF
:1002B00010B5002200E0521C835C8C5CA34201D18B
:1002C000002BF8D1D8B2E1B2401A10BD30B50446C7
:1002D0000020034600E05B1C934203D2E05CCD5C4F
:1002E000401BF8D030BD30B505460020034600E085
:1002F0005B1C934205D2EC5CC85C201A01D1002C37
:10030000F6D130BD30B50B46014600202022012435
:1003100009E021FA02F59D4205D303FA02F5491BD3
:1003200004FA02F52844151EA2F10102F1DC30BDE9
:10033000202A04DB203A00FA02F1002070479140A5
:10034000C2F1200320FA03F3194390407047202A9A
:1003500004DB203A21FA02F00021704721FA02F36F
:10036000D040C2F120029140084319467047000076
:10037000064C074D06E0E06840F0010394E80700F2
:1003800098471034AC42F6D3FFF702FFD4D80F08D9
:10039000F4D80F0870B58C1810F8015B15F007033E
:1003A00001D110F8013B2A1106D110F8012B03E00E
:1003B00010F8016B01F8016B5B1EF9D12B0705D416
:1003C0000023521E0DD401F8013BFAE710F8013B5F
:1003D000CB1A921C03E013F8015B01F8015B521E7B
:1003E000F9D5A142D8D3002070BD10B5002004F08B
:1003F00071FA012004F06EFA022004F06BFA032077
:1004000004F068FA0121084604F0A8FA012100204E
:1004100004F0A4FA10BD00BFFEE70000034683B954
:1004200009480078012804D1492008704E204870FE
:1004300005E04F2008705520487054208870042033
:1004400070470020FCE70000AA01002070B50025DD
:100450004FF4803400E0641E24B1802002F078FF65
:100460000028F8D014B90325284670BD40F2FF508B
:1004700002F02AFF2846F8E72DE9F041064600275A
:100480004848056801E04748056805F04500002830
:10049000F9D005F0040030B10327042002F014FF66
:1004A0003846BDE8F08105F0010028B101270120A0
:1004B00002F00AFF3846F4E702F044FFB04202D0EF
:1004C00010273846EDE740F2FF5002F0FDFE002015
:1004D00002F05EFF04463448204008B93846E0E7A1
:1004E00004F0004008B11C20DBE704F0804008B1B4
:1004F0000920D6E704F0005008B10A20D1E704F043
:10050000805008B10B20CCE704F0006008B10C204B
:10051000C7E704F0806008B10D20C2E704F08070E6
:1005200008B10E20BDE704F4000008B10F20B8E7C1
:1005300004F4800008B11020B3E704F4001008B1FF
:100540001120AEE704F4801008B11220A9E704F4EA
:10055000002008B11320A4E704F4802008B114207F
:100560009FE704F4003008B115209AE704F48030C6
:1005700008B1162095E704F4004008B1172090E771
:1005800004F4804008B118208BE704F4005008B14F
:10059000192086E704F0080008B11A2081E73846E0
:1005A0007FE70000342C014008E0FFFD70B5002516
:1005B0001048046801E00F48046804F04500002872
:1005C000F9D004F0040028B10325042002F07CFED9
:1005D000284670BD04F0010028B10125012002F079
:1005E00073FE2846F5E740F2FF5002F06DFE284604
:1005F000EFE70000342C014070B500250B4804687B
:1006000001E00A48046804F045000028F9D004F02D
:10061000040028B10325042002F056FE284670BDD0
:1006200040F2FF5002F050FE2846F8E7342C01401B
:100630002DE9F04106460F464FF0000822480568B4
:1006400001E02148056805F045000028F9D005F0D3
:10065000040038B14FF00308042002F035FE404694
:10066000BDE8F08105F0010030B14FF00108012034
:1006700002F02AFE4046F3E702F064FEB04203D0E7
:100680004FF010084046EBE740F2FF5002F01CFE2E
:10069000002002F07DFE044604F4604018B9200CEE
:1006A00038804046DCE704F4005008B11320D7E757
:1006B00004F4804008B11020D2E704F4004008B1EF
:1006C0000F20CDE74046CBE7342C014070B5002623
:1006D0004FF480350F48046802E06D1E0D48046831
:1006E00004F0450008B9002DF7D115B104F004005D
:1006F00028B10326042002F0E7FD304670BD04F067
:10070000400028B10026402002F0DEFD3046F5E72B
:100710003046F3E7342C014010B503F06BFB10BDFD
:100720000246094B9A4201D2084801E006481038B7
:1007300001F000531BB1064B0B40C36002E0044BB9
:100740000B4083607047000010640240006002406C
:100750007D0F7D0F21B1026842F00102026003E0CB
:10076000026822F00102026070470000016821F077
:10077000010101600021016041608160C16001618F
:10078000212141614A49884204D13D21484A103A19
:1007900091608CE046491831884205D14FF474616C
:1007A000434A103A916082E041493031884205D194
:1007B0004FF474113E4A103A916078E03C49483158
:1007C000884205D14FF07461394A103A91606EE069
:1007D00037496031884204D13649354A103AD160F0
:1007E00065E033497831884204D13349304A103AC0
:1007F000D1605CE02E499031884204D12F492C4AC7
:10080000103AD16053E02A49A831884205D14FF00F
:100810003D51274A103AD16049E02949884204D124
:100820003D21274A083A116041E0254918318842A4
:1008300005D14FF47461224A083A116037E020492B
:100840003031884205D14FF474111D4A083A1160C5
:100850002DE01B494831884205D14FF07461184A98
:10086000083A116023E016496031884204D11149E9
:10087000134A121F11601AE011497831884204D1DD
:100880000D490F4A121F116011E00D499031884245
:1008900004D10A490A4A121F116008E00849A83128
:1008A000884204D14FF03D51054A121F1160704734
:1008B000106002403D000020400F002000003D205D
:1008C0001064024021B1026842F02002026003E09D
:1008D000026822F020020260704710B501F0800328
:1008E0004BB122B1436943F08003436103E04369A4
:1008F00023F08003436180290BD02AB1036801F003
:100900001E042343036004E0036801F01E04A343B4
:10091000036010BD10B500220268134B1A40CC686A
:100920000B6823434C6923438C692343CC692343DD
:100930000C6A23434C6A23438C6A23434C6B234346
:100940008C6B23431A430260426922F00702D1E90B
:100950000B3423431A4342610B6943604B68836045
:100960008B68C36010BD00003F801CF07047000022
:1009700010B500F043F900F08FFB10480068C0B9D3
:100980004FF4784001F004FC01F00AFBC08800EB52
:10099000800084B20AA1204601F03EFA01F000FB7B
:1009A000C08800EB40004004040C0AA1204601F07E
:1009B00033FA012000F026FE10BD00005000002098
:1009C00020202045746865726E657420496E6974D4
:1009D000202020002020202020206661696C656492
:1009E00020202020202000002F480068006800F010
:1009F000004098B92C480068006800F4807068B125
:100A000029480068294909684860284800688068C2
:100A1000401C264909688860012070472248006808
:100A2000006800F00040F0B91F480068006800F45A
:100A30000070C0B11C480068006800F4807090B974
:100A400019480068194909680860002017490968B1
:100A50004860012015490968886013480068C0682B
:100A6000114908601DE010480068006800F000406F
:100A7000B8B90D480068006800F4007088B90A48E9
:100A80000068006800F4807058B908480068806801
:100A9000401C06490968886003480068C06802492C
:100AA00008600020B9E70000E0000020E40000201A
:100AB00030B10749896941F00201054A916105E0B9
:100AC0000349896921F00201014A916170470000E0
:100AD0000090024070B50C4613460021124D28606C
:100AE00000BF18E000EB41124FF00045156044F2E2
:100AF000F4555560C1EBC11505EB450504EB8505C3
:100B000095605D1E8D4204D900EB41152035D560FE
:100B100000E0D060491C9942E4D3044DE860044DE4
:100B2000044E356070BD0000E000002000900240DF
:100B300044450020E400002030B10749896941F4B0
:100B40000051054A916105E00349896921F400518A
:100B5000014A9161704700000090024030B50C4698
:100B6000134600210F4D286000BF15E000EB411235
:100B70004FF480151560C1EBC11505EB450504EB7D
:100B8000850595605D1E8D4204D900EB4115203529
:100B9000D56000E0D060491C9942E7D3024D28613E
:100BA00030BD0000DC0000200090024002680A43D3
:100BB0000260704710B50121480601F03FFC00219A
:100BC0004FF0007001F03AFC10BD01B581B000207B
:100BD00000900198009002E00098401E009000985C
:100BE0000028F9D10CBD00000348806940F4801052
:100BF0000149886170470000009002401CB5012146
:100C000040F2E71001F00AFC0121880301F046FCE4
:100C10004FF48070009003208DF8050002208DF8BD
:100C2000040000208DF806008DF80700694644484E
:100C300000F064FE00214FF4800001F0F9FC002078
:100C400003F0EAFE8620009069463D4800F056FE1B
:100C50000B2201213A4800F099FE0B22022138486C
:100C600000F094FE0B220721354800F08FFE4FF470
:100C7000807000906946334800F040FE0B22082146
:100C8000304800F083FE3E20009069462E4800F078
:100C900035FE0B2201212C4800F078FE0B220221A8
:100CA000294800F073FE0B220321274800F06EFE56
:100CB0000B220421244800F069FE0B220521224862
:100CC00000F064FE4FF4D040009069461F4800F0E9
:100CD00015FE0B2211461D4800F058FE0B220D2177
:100CE0001A4800F053FE0B220E21184800F04EFE69
:100CF000CC2000906946164800F000FE0B2202212D
:100D0000134800F043FE0B220321114800F03EFE81
:100D10000B2206210E4800F039FE0B2207210C4859
:100D200000F034FE4FF4806000906946094800F0FE
:100D3000E5FD0B220A21074800F028FE1CBD00003B
:100D40000000024000040240000802400018024077
:100D5000001C02400020024000200449096801F004
:100D6000010109B1012000E000207047009002401D
:100D70001EB500210022009201920292114A1268CF
:100D80001268C2F30D42111F00910F4A1268926857
:100D9000012A05D90C4A126812689268019203E090
:100DA000084A126892680192064A12680292054A3D
:100DB0001268D268034B1A609DE81C0080E81C0092
:100DC0001EBD0000E0000020E40000202DE9F041FD
:100DD00086B004460F464FF000080025002005901D
:100DE000954E00909548056925F01C0501A801F075
:100DF00075FB029E9248864205D39248864202D2F3
:100E000045F008051AE08F48864205D38A48864295
:100E100002D245F00C0511E08748864203D38A4888
:100E2000864200D20AE08848864205D38748864237
:100E300002D245F0040501E045F010057F48056148
:100E40004FF400420021384600F0A8FA18B90020FB
:100E500006B0BDE8F0817E48FFF7B7FE20680028A5
:100E60004ED000BF0098401C00900121384600F091
:100E7000EBF900F0040018B9764900988842F1D3E4
:100E800074490098884201D10020E1E700200090D9
:100E90004FF480520021384600F080FA08B9002053
:100EA000D6E700BF0098401C00900121384600F0B2
:100EB000CBF900F0200018B9664900988842F1D3B8
:100EC00064490098884201D10020C1E700200090C9
:100ED0001021384600F0B8F9804608F0040018B137
:100EE0004FF40060206201E00020206208F0020060
:100EF00010B10020606116E04FF48040606112E0A4
:100F0000206AC0F3CF006169C1F34F0140EA0102DA
:100F10000021384600F042FA08B9002098E76FF047
:100F20007F40FFF752FE454805684B480540D4E92D
:100F300001010843E16808432169084361690843E6
:100F4000A1690843E1690843216A0843616A0843CB
:100F5000A16A0843E16A0843216B0843616B0843B7
:100F6000054336480560D4E90E010843216C084367
:100F7000616C0843A16C0843E16C0843216D084390
:100F8000616D08432D494860A06D8860E06DC860C0
:100F9000084685694FF641700540B4F86010606EF0
:100FA00040EA0140A16E0843E16E0843216F084307
:100FB000616F0843054321488561D4E91E01084358
:100FC0001E49C8612548856925480540D4E92001A6
:100FD0000843D4F888100843D4F88C100843D4F898
:100FE00090100843D4F894100843D4F8981008439C
:100FF000D4F89C100843D4F8A010084305431748C0
:101000008561D4E929010843D4F8AC100843D4F829
:10101000B0100843D4F8B41040EA8100D4F8B810F6
:10102000084340F400000D4908600846006840F09D
:101030008000086001200BE70087930300800240D6
:10104000002D3101C00E160200E1F50580D1F00837
:10105000FFFF0F00FFFF04000F8120FF0090024000
:10106000233FDEF810B50B794C7943EA0422094B93
:1010700003441A64CB781B068C7843EA04434C780B
:1010800043EA04230C7843EA0402024B03445A6403
:1010900010BD00000080024000B5AFB001214FF04C
:1010A000606001F0BBF9FFF785FD00F003F900BFB8
:1010B000FFF752FE0128FBD0684600F015F9012029
:1010C0000090002007904FF400700A9000200B90D1
:1010D0000E90119013901490159020904FF0007086
:1010E0002190001123900020259026900420289024
:1010F000C005299040122A9080012B9040122C901C
:1011000040002E9001216846FFF760FE014908600B
:101110002FB000BD5000002030B10749096841F0F0
:101120000401054A116005E00349096821F0040142
:10113000014A1160704700000080024030B1074949
:10114000096841F00801054A116005E00349096892
:1011500021F00801014A1160704700000080024040
:1011600070B5024600230025002435480068006859
:1011700000F0004008B1002070BD3148016840F225
:10118000F450824208DD92FBF0F392FBF0F600FB94
:10119000162010B15B1C00E00123012B1AD1284856
:1011A0000068006840F04050254E36683060C2F359
:1011B0000C00234E3668706021480068006840F0DB
:1011C00000401F4E366830601D480068C0681C4EE5
:1011D000306028E0002422E03CB91948006800682B
:1011E00040F08050164E3668306040F2F45048604F
:1011F000581EA0420DD1086840F000500860581EEB
:10120000C0EBC01000EB4000A2EB8005C5F30C0062
:101210004860086840F000400860C968641C9C424F
:10122000DAD3074801600748406900F0040020B1A4
:101230000420044E70610020706001209CE70000D3
:10124000DC0000200090024018B502460B46002149
:10125000002000901548016901F01C014FF478400E
:1012600000EAC22001434FF4F86000EA8310014312
:1012700021F0020141F001010C48016100BF00981A
:10128000401C00900948016901F0010018B1084CA8
:101290000098A042F3D3064C0098A04201D1002050
:1012A00018BD0248406980B2FAE7000000800240A1
:1012B000FFFF04000348006840F001000149086096
:1012C000704700000090024000B50120FFF736FF94
:1012D000FFF78AFC0120FFF71FFF0120FFF72CFC1E
:1012E0000120FFF7E5FB00BD012101600021416005
:1012F0008160C16001614FF48041416100218161E1
:10130000C1614FF400610162002141628162C162EA
:10131000016341638163C163402101642021416411
:1013200000218164C164016541658165C165016613
:101330008021416600218166C1660167416781673E
:10134000C1674FF08061C0F880104910C0F8841068
:101350000021C0F888104FF40011C0F88C10002153
:10136000C0F89010C0F89410C0F89810C0F89C1005
:10137000C0F8A0104FF00071C0F8A4104912C0F8D6
:10138000A8108901C0F8AC104912C0F8B0100021B3
:10139000C0F8B410C0F8B8107047000038B5034664
:1013A0000C460021002000901448016901F01C0146
:1013B0004FF4784000EAC32001434FF4F86000EA9C
:1013C0008410014341F0020141F001010B484261E8
:1013D000016100BF0098401C00900848016901F0BD
:1013E000010018B1064D0098A842F3D3044D0098AF
:1013F000A84201D1002038BD0120FCE70080024056
:10140000FFFF040010B54FF4004000F03DF840B17C
:101410001548007808B909F011FA4FF4807000F00F
:101420002DF84FF4804000F02FF830B1012000F08B
:1014300081F84FF4804000F021F84FF4005000F0A4
:1014400023F880B101F0A2FD01F02EFA002000E0A7
:10145000401C6FF079418842FAD300F0A7FD4FF4A9
:10146000005000F00BF810BD5400002010B504200F
:1014700000F004F8012003F05FFA10BD0149086094
:1014800070470000143C014001460020034A1268E6
:101490000A400AB1012000E000207047143C0140DE
:1014A000002123498279002A3AD00A46126803684B
:1014B0009A430B461A600A1D126803689A430B1D73
:1014C0001A60027911440A6803681A430A60184ACC
:1014D0000832126803689A43154B08331A601A1DC4
:1014E000126803689A43124B0C331A604279102A2F
:1014F0000ED11A1F126803681A430D4B08331A6085
:101500001A1D126803681A43094B0C331A600DE068
:101510000749427911440A6803681A430A6005E0E2
:10152000027911440A6803689A430A607047000010
:10153000003C014070B5044612212046FFF784FEAE
:1015400000F40050002836D01B480078C0431A49E8
:1015500008704FF4784000F01BFE17480078A8B1DF
:1015600000F01EFDC08800EB800085B213A1284664
:1015700000F052FC00F014FDC08800EB4000400475
:10158000050C14A1284600F047FC14E000F008FD0B
:10159000C08800EB800085B208A1284600F03CFC22
:1015A00000F0FEFCC08800EB40004004050C0FA1D9
:1015B000284600F031FC70BD5400002020204E650C
:1015C00074776F726B204361626C652069732020B1
:1015D000000000002020202020756E706C75676769
:1015E0006564202020202020000000002020206EA4
:1015F0006F7720636F6E6E656374656420202020B2
:101600000000000070B50546002411212846FFF7B0
:101610001BFE044644F00304224611212846FFF72E
:10162000BDFE08B9002070BD12212846FFF70CFE50
:10163000044644F02004224612212846FFF7AEFE5D
:1016400008B90020EFE70120EDE7000051B182006A
:10165000A2F1C042126842F001038200A2F1C0422E
:10166000136009E08200A2F1C0421268034B1A40E5
:101670008300A3F1C0431A6070470000FEFF0F0013
:10168000D0E901121143C268114302691143426952
:10169000114382691143C2691143026A1143426ACC
:1016A0001143826A1143C26A1143026B11430268FB
:1016B0009200A2F1C0421160816808290BD1016833
:1016C0008900A1F1C041096841F040020168890028
:1016D000A1F1C0410A60416B0968426B526841EA5E
:1016E0000211426B926841EA0221426B928941EAFF
:1016F0000241426B128A41EA0251426B127D41EA79
:101700000261426B926911430268521C9200A2F17D
:10171000C0421160C16AB1F5804F1BD1816B09686D
:10172000826B526841EA0211826B926841EA02219F
:10173000826B128A41EA0251826B127D41EA026198
:10174000826B9269114302689200A2F1C042C2F812
:10175000041107E06FF0704201688900A1F1C041F7
:10176000C1F80421704700002DE9FC4107460D46F1
:101770000026002400200090019008205B490860AA
:1017800010204860402088600020C8604FF48060CE
:101790000861084601F03AFE1020FEF76DFE04468F
:1017A00014B12046BDE8FC815148008800044F492F
:1017B000086037204860402088600020C8604FF4EF
:1017C00080600861084601F021FE3720FEF754FED4
:1017D00004460CB12046E5E74FF0FF30454908606C
:1017E00008204860302088600220C860002008611E
:1017F00001204861084601F07FFD00203B49086058
:1018000033204860402088600020C8604FF480602A
:101810000861084601F0FAFD3320FEF72DFE04466C
:101820000CB12046BEE709E04FF4001001F090FD36
:1018300020B101F0E5FD4DF82600761C2E48006829
:1018400040F22A6108400028EED0082001F080FD17
:1018500028B1082001F038FD04242046A2E7022028
:1018600001F076FD28B1022001F02EFD0224204671
:1018700098E7202001F06CFD28B1202001F024FD24
:10188000062420468EE74FF4007001F061FD30B170
:101890004FF4007001F018FD0724204682E740F263
:1018A000FF5001F011FD00980006009901F47F41FE
:1018B00040EA0120009901F47F0140EA11200099DB
:1018C00040EA1160686001980006019901F47F41C7
:1018D00040EA0120019901F47F0140EA11200199B9
:1018E00040EA1160286020465CE7000050080020B4
:1018F0009000002064080020342C0140F0B50A4616
:1019000000210023002400BF3DE0012505FA01F37A
:10191000156805EA03049C4234D105684F0003268C
:10192000BE40B543056015794E00B54006683543A5
:1019300005601579012D02D01579022D16D1856823
:101940004F000326BE40B543856055794E00B54033
:10195000866835438560456801268E40B5434560FD
:10196000456896798E40B6B235434560C5684F00EC
:101970000326BE40B543C560D5794E00B540C66864
:101980003543C560491C1029BFD3F0BDF0B5002315
:1019900000244D07ED0E02FA05F3CE1000F12005EC
:1019A00055F826504E07F70E0F26BE40B543CF1010
:1019B00000F1200646F82750CE1000F1200555F81A
:1019C000265045EA0304CE1000F1200545F82640D4
:1019D000F0BD0246002013690B400BB1012000E06E
:1019E0000020704700BFFEE710B586B00446884966
:1019F000002005F013FA122286A18B4805F024FA84
:101A00008948C16805F032F9884B022288A18648CE
:101A100005F030FB8749002001F03EF88548C0788A
:101A20000A2190FBF1F03030834988708148C078FA
:101A30000A2190FBF1F201FB120030307E49487020
:101A4000002008707B4840780A2190FBF1F030308C
:101A50007A498870774840780A2190FBF1F201FBBF
:101A60001200303075494870002008707148807845
:101A70000A2190FBF1F03030714988706D48807810
:101A80000A2190FBF1F201FB120030306C494870E2
:101A9000002008706BA207CA03AB07C366488078B2
:101AA0008DF80E00644840788DF80F006348807808
:101AB0008DF81100614840788DF8120060488078F8
:101AC0008DF814005E4840788DF81500574B0B22B6
:101AD00003A9554805F0CEFA5D49002001F022F82F
:101AE0005B4800780A2190FBF1F030305249887051
:101AF000574800780A2190FBF1F201FB12003030C8
:101B00004D49487000200870514840780A2190FBE8
:101B1000F1F03030494988704D4840780A2190FBF7
:101B2000F1F201FB12003030444948700020087087
:101B3000474880780A2190FBF1F0303040498870A6
:101B4000434880780A2190FBF1F201FB120030300B
:101B50003B494870002008703EA207CA8DE8070084
:101B6000354880788DF80100334840788DF80200C0
:101B7000324880788DF80400304840788DF80500B0
:101B80002F4880788DF807002D4840788DF80800A0
:101B9000264B0B226946244805F06CFA012C16D11D
:101BA000224B07222E49204805F064FA002823D052
:101BB0004FF478402B4908802BA003F0F5F92CA0B6
:101BC00003F0F2F94FF6FF702649088014E0174B36
:101BD00008222D49144805F04DFA68B14FF47840B9
:101BE0002049088020A003F0DFF921A003F0DCF9F0
:101BF0004FF6FF701B4908800020244908700A48EE
:101C000005F029F80021084605F008F906B010BDD6
:101C1000E8C30020303A2F4D656D6265725F496EF2
:101C20004F75742E7478740018C60020B00100201F
:101C30000D0A0000C8010020D4010020D7010020B7
:101C4000DA010020323000002F00002F00000000D9
:101C5000C40100202000003A00003A0000200000EB
:101C6000B4010020EC0000204552524F523A2000AF
:101C700043616E6E6F74207772697465206F6E2099
:101C800066696C650A000000BB010020AB01002002
:101C900030B50446002540F23F11002000F066FAFE
:101CA00000F082FA00BF03E04FF0D04044806D1C8A
:101CB000B5F5963FF8D330BD1CB50121782000F072
:101CC000ADFB4CF23370009002208DF804008DF8CB
:101CD000050000208DF806008DF8070069463E4893
:101CE000FFF70CFE0C2200213B48FFF74FFE0C22B1
:101CF00001213948FFF74AFE0C2204213648FFF73C
:101D000045FE0C2205213448FFF740FE0C22082135
:101D10003148FFF73BFE0C2209212F48FFF736FE22
:101D20000C220A212C48FFF731FE0C220E212A48F2
:101D3000FFF72CFE0C220F212748FFF727FE4FF656
:101D40008070009069462548FFF7D8FD0C220721D6
:101D50002248FFF71BFE0C2208212048FFF716FE41
:101D60000C2209211D48FFF711FE0C220A211B48F5
:101D7000FFF70CFE0C220B211848FFF707FE0C2280
:101D800011461648FFF702FE0C220D211348FFF7FB
:101D9000FDFD0C220E211148FFF7F8FD0C220F214A
:101DA0000E48FFF7F3FD0120009069460C48FFF74D
:101DB000A5FD0C2200210A48FFF7E8FD4FF48060E2
:101DC000009069460748FFF799FD0C220A21054853
:101DD000FFF7DCFD1CBD0000000C024000100240BB
:101DE000001402400018024070B505460E46144625
:101DF000A4F12000C4B207480068016805480068E3
:101E0000C088604301EB40023146284600F040F8AC
:101E100070BD0000C400002070B506460C4640F2BC
:101E20003F150AE0227829463046FFF7DDFF0C48CF
:101E300000688088281A85B2641C681C80B2084932
:101E400009688988884201DB012000E000202178B0
:101E500009B1012100E0002108400028E2D170BD55
:101E6000C400002070B504460025002640F23F1152
:101E7000002000F07BF900F097F900BF04E0208813
:101E800000F08EF9A41C6D1CB5F5963FF7D370BD1C
:101E90002DE9F04307468946164600240025A04652
:101EA000B8464946404600F061F900BF39E000F00D
:101EB0007BF9002527E01E48006880880C2190FBF4
:101EC000F1F0C10080208840284136F81410084005
:101ED00020B91748006880880C280ADD36F81400FD
:101EE0000121A940084048B91148006880880C28A1
:101EF00004DD1048008800F053F903E00E48008824
:101F000000F04EF96D1C0A4800688088A842D2D8BB
:101F100008F101001FFA80F84946404600F026F912
:101F2000641C03480068C088A042C0D8BDE8F083A4
:101F3000C4000020CA000020C800002000B597B0EF
:101F40000121084600F08AFA052001900020029045
:101F5000092003900020049005900690079004202B
:101F60000890002009900A9010200B9000200C90FF
:101F70000D900E900F9010904FF480501190002013
:101F800012901390149001A81590169008A8FFF7CE
:101F900077FB01210420FFF759FB17B000BD0000BB
:101FA0000148006870470000C400002010B502F02E
:101FB00081FA0020FFF76CFE002000F0CFF84FF60A
:101FC000FF7000F0E5F8FFF7EBFF00240FA12046BB
:101FD000FFF722FFFFF7E4FFC48812A12046FFF7B6
:101FE0001BFFFFF7DDFFC0884004040C13A120464F
:101FF000FFF712FFFFF7D4FFC08800EB400084B268
:1020000014A12046FFF708FF10BD0000202020206B
:10201000202057656C636F6D6521202020202020D3
:102020000000000020202020202020202020202030
:102030002020202020202020000000002020202020
:1020400020436F6D6D756E697479202020202020EB
:102050000000000020204D616E6167656D656E7443
:102060002053797374656D20000000002DE9F04164
:1020700000240027A0460025FFF792FF06463148BE
:102080000088082825DA2F4800882F4909888842C7
:102090001FDB2C490988214401EB810202EBC101BD
:1020A0002A4A02EB8101488E00F072F8254A128814
:1020B000D21CF3885A4390B2224A1288224402EB7F
:1020C000820303EBC202214B03EB8201FFF7A4FE64
:1020D00035E01C4800881C490988884204DA194800
:1020E0000088093087B201E016480788A7F1080088
:1020F0001FFA80F8002420E004EB0800092190FB7F
:10210000F1F201FB120085B205EB850101EBC5017F
:102110000E4A02EB8101488E00F03AF805EB850289
:1021200002EBC502094B03EB8201F288E31C5A4320
:1021300090B2FFF771FE601CC4B2092CDCDBBDE875
:10214000F0810000F2000020F00000205045002047
:1021500001464FF0D04001804088704701B5BDF87E
:1021600000000149088008BDCA00002010B50346E0
:102170000C461946202000F01CF82146212000F0D2
:1021800018F810BD0149086070470000C400002025
:1021900001B5BDF800000149088008BDC800002055
:1021A0004FF0D0414880704722204FF0D041088046
:1021B00070474FF0D0421080518070472DE9F041B8
:1021C00006460F4690461D460024D6B900BF16E0CD
:1021D00058F824000CA1FEF76BF878B955F82400E4
:1021E0000BA1FEF765F848B9611C55F821000AA15A
:1021F000FEF75EF810B90AA0BDE8F081641CBC428D
:10220000E6D30CA0F8E700007573657200000000CB
:10221000726F6F74000000003132333435360000C5
:102220002F53656C6563745F4F7074696F6E2E68B1
:10223000746D6C002F4C6F67696E5F4661696C75D9
:1022400072652E68746D6C0010B58CB007F0A2F941
:1022500007F0FAFA274805F077FC0B906FF0FF00C3
:1022600005F072FC0A902348093805F06DFC0990CE
:102270000A208DF8200000208DF82100A8208DF87C
:102280002200C0208DF823009DF820009DF8211029
:10229000CDE900109DF822309DF8232016A103A857
:1022A00002F092FEFFF77CFEC088C004040C16A169
:1022B0002046FFF7B1FDFFF773FEC08800EBC000BA
:1022C00084B203A92046FFF7A7FD1548154900224F
:1022D00009ABCDE9002102900AAA0BA9124807F028
:1022E00035FB114807F082FB0F4807F0D9FB0CB013
:1022F00010BD00000A00A8C0202025642E25642EF1
:1023000025642E25640000002020537461746963E5
:10231000204950206164647265737320202000009E
:10232000116B00087D6B0008E006002001B50C4928
:1023300000980968401AFA2804D3094900980860EF
:102340000AF07CFD074900980968401A41F288317B
:10235000884204D303490098086004F089FB08BD53
:10236000440000204800002010B5024804F01EFC84
:1023700010BD0000E006002000BFFEE7704700002F
:1023800070B5002100230F22C4781CB3174C2468B9
:1023900004F4E064C4F5E064C4F30721C1F104046B
:1023A000E3B20A4144789C40E1B28478144021436E
:1023B0000C07210E0E4C05786155047804F01F05BA
:1023C0000124AC4005786D11AD0005F1E025C5F89C
:1023D000004109E0047804F01F050124AC40054DDC
:1023E0000678761145F8264070BD00000CED00E03F
:1023F00000E400E080E100E002490143024A11608C
:10240000704700000000FA050CED00E00149086289
:102410007047000000000E427047000029B1064AD4
:1024200012680243044B1A6004E0034A12688243B4
:10243000014B1A60704700003038024029B1064A4B
:1024400012680243044B1A6004E0034A1268824394
:10245000014B1A60704700001038024029B1064A4B
:1024600012680243044B1A6004E0034A1268824374
:10247000014B1A60704700003838024029B1064A03
:1024800012680243044B1A6004E0034A1268824354
:10249000014B1A60704700004038024029B1064ADB
:1024A00012680243044B1A6004E0034A1268824334
:1024B000014B1A60704700004438024029B1064AB7
:1024C00012680243044B1A6004E0034A1268824314
:1024D000014B1A607047000024380240F0B500211B
:1024E00000220024022500260223324F3F6807F015
:1024F0000C0121B1042905D0082937D105E02E4F60
:10250000076036E02D4F076033E02A4F3F1F3F68DA
:10251000C7F38056274F3F1F3F6807F03F036EB158
:10252000264FB7FBF3F7DFF88CC0ACF1040CDCF8F6
:1025300000C0CCF3881C07FB0CF40CE01E4FB7FB6B
:10254000F3F7DFF870C0ACF1040CDCF800C0CCF39A
:10255000881C07FB0CF4174F3F1F3F68C7F3014768
:102560007F1C7D00B4FBF5F7076002E0124F0760A7
:1025700000BF00BF0F4F3F6807F0F0010909104F7F
:102580007A5C0768D74047600A4F3F6807F4E0511C
:10259000890A0B4F7A5C4768D7408760054F3F68D0
:1025A00007F46041490B064F7A5C4768D740C76023
:1025B000F0BD0000083802400024F40040787D019E
:1025C000CC00002010B501460022002300204A1153
:1025D000012A02D10A4C236808E0022A03D1084CE0
:1025E0007034236802E0064C7434236801F01F0243
:1025F000012494401C400CB1012000E0002010BDDB
:10260000003802400021094A11701170012802D0DF
:10261000042808D103E00121044A117004E00521D7
:10262000024A117000E000BF00BF704770380240DE
:1026300002460020044B186820F0EC6042EA0103D7
:102640001843014B18607047083802400149086080
:10265000704700003C0E4742002100F44072B2F582
:10266000407F08D1094A116821F4F811084A024054
:102670001143064A1160054A68321268C0F30B0321
:102680001A43024B68331A60704700000838024052
:10269000FFFCFF0F38B50246002400940023002001
:1026A000CA24184D2C6053242C6041B1154C1C3C9D
:1026B00024681443134D1C3D2C6001201EE0114C76
:1026C0001C3C246894430F4D1C3D2C6000BF0D4CF6
:1026D000183C246804EA1223009C641C0094009CAB
:1026E000B4F5803F01D0002BF1D0064C183C246893
:1026F00004EA12240CB9002000E00120FF24014D5F
:102700002C6038BD2428004000B58DB034216846C7
:10271000FDF7A0FD034A4FF48071002000F082F91C
:102720000DB000BD48C8002010B54FF4805000F037
:10273000D9F950B1002002F0FFF84FF4805000F0BA
:102740002DF84FF40030FEF799FE10BD014600BF92
:10275000080900EB8000420001F00F001044C0B2F5
:1027600070470146002204E0501CC2B2A1F10A00E9
:10277000C1B20A29F8DA100741EA10607047000078
:1027800081B241F08001044A126802F0800262EADC
:102790000101014A116070470C2800400021010925
:1027A0008AB242F08002044B1B6803F0800363EAA4
:1027B0000202014B1A6070470C28004010B501213D
:1027C0000807FFF75BFE0120FFF720FE0120FFF75F
:1027D00019FF00BF4120FFF7F5FE0028FAD04FF4A3
:1027E0008070FFF739FFFF20294908607F202949C1
:1027F00008600120FFF72AFF00F058FC2548006818
:102800002549486022480068886000200860084622
:1028100000F0E2F900202149C8700520087020204E
:1028200048703020887031200873002088604FF095
:10283000004048600A46C10D012000F00FFA012156
:10284000080300F097F901210802FFF723FF4FF476
:102850008070FFF795FF16201149C8700920487055
:10286000062088700870012000F06EFA00200D49E3
:10287000C87010200870487000208870012000F097
:10288000C7FA43F2F221002000F040FC10BD000026
:10289000D0010020CC0100203CC8002048C8002006
:1028A000C8010020C40100201FB53849002000F0F5
:1028B000F3F83648C0780A2190FBF1F03030344903
:1028C00088703248C0780A2190FBF1F201FB1200B7
:1028D00030302F494870002008702C4840780A2179
:1028E00090FBF1F030302B498870284840780A215D
:1028F00090FBF1F201FB12003030264948700020B5
:102900000870224880780A2190FBF1F0303022498B
:1029100088701E4880780A2190FBF1F201FB1200BA
:1029200030301D494870002008701CA30FCB8DE883
:102930000F00174880788DF80700154840788DF80B
:102940000800144880788DF80A00124840788DF805
:102950000B00114880788DF80D000F4840788DF8F5
:102960000E00FFF71DFBC08800EB400084B20FA1F2
:102970002046FFF751FAFFF713FBC0888004040CD0
:1029800069462046FFF748FA1FBD0000C801002035
:10299000D4010020D7010020DA01002020202020CF
:1029A00020323000002F00002F00000020202020C7
:1029B00043757272656E7420446174652020200036
:1029C00008B50022009200200021104A126802F08F
:1029D0004002CAB9421E0D4B1A6000BF0B4A126872
:1029E00002F04001009A521C0092009AB2F5803F1A
:1029F00001D00029F2D0054A126802F040020AB163
:102A0000012002E0002000E0012008BD0C28004069
:102A10000348006820F0800001490860704700000A
:102A20000C2800402DE9F04106460F4614460025CB
:102A3000B7F5807F02D11748056802E01548001DF0
:102A40000568C5F305402070C5F30620607005F0E9
:102A50007F00A07005F48000000CE070C5F30560F5
:102A6000207305F08040A06005F0803060607EB982
:102A70002078FFF76BFE20706078FFF767FE6070CC
:102A8000A078FFF763FEA070207BFFF75FFE207346
:102A9000BDE8F0811C28004070B506460C460025B4
:102AA0000E4800680E4900EA0105280CE070C5F3E5
:102AB0000420607005F03F00A070C5F34230207024
:102AC0005EB9E078FFF742FEE0706078FFF73EFE07
:102AD0006070A078FFF73AFEA07070BD0428004037
:102AE0003FFFFF0030B501460020002200230C4CC0
:102AF000246804F004020A4C383C24680C4002EAC2
:102B0000D13544EA0503064C343C246804EA11122A
:102B10001BB194B20CB1012000E0002030BD0000D8
:102B20004028004070B506460C4600250F48006856
:102B30000F4900EA0105C5F305402070C5F30620E2
:102B4000607005F07F00A07005F48000000CE0705C
:102B50005EB92078FFF7FAFD20706078FFF7F6FD88
:102B60006070A078FFF7F2FDA07070BD00280040F3
:102B70007F7F7F00CA22174B1A6053221A6091B1DF
:102B8000144A1C3A126820F004031A43114B1C3BF0
:102B90001A60104A1C32126800F004031A430D4BED
:102BA0001C331A6011E00B4A1C3A126820F004032F
:102BB0009A43084B1C3B1A60064A1C32126800F00C
:102BC00004039A43034B1C331A60FF22014B1A6023
:102BD000704700002428004030B504460025CA2074
:102BE0001549086053200860FFF7EAFE00B91DE0B0
:102BF00011481C38006820F040000F491C3908605B
:102C000008460068216808430B491C3908600A49D6
:102C10001439A068086008460068A18840EA0140AD
:102C2000054914390860FFF7F3FE0125FF2002492A
:102C30000860284630BD00002428004008B5014641
:102C40000020009004480090009800EB8100009064
:102C50000098006808BD0000502800402DE9F041B0
:102C600005460E461446002765B93648006800F050
:102C7000400000B102E00020E07000BFA06800B991
:102C800019E018E02F48006800F0400020B12078DB
:102C9000FFF75CFD074602E00020E07000BFA0687F
:102CA00020B9207BFFF752FD074604E0207BFFF7A9
:102CB0004DFD074600BF95B120780004617840EAD9
:102CC0000120A1780843E17840EA0140217B40EAF5
:102CD0000160A1680843616840EA01071BE02078B1
:102CE000FFF73FFD4FEA00486078FFF73AFD48EAFA
:102CF0000028A078FFF735FD48EA0008E07848EAA8
:102D00000048207BFFF72DFD48EA0060A1680843DA
:102D1000616840EA0107CA200A491C310860532053
:102D20000860B6F5807F03D106481430076002E0E2
:102D3000044818300760FF2002491C310860BDE8D4
:102D4000F0810000082800402DE9F04105460C46BE
:102D5000002600274DB9607800F01000102804D13B
:102D6000607820F010000A30607005B908E06078E3
:102D7000FFF7ECFC0646A078FFF7E8FC064600BF2C
:102D800055B1E0780004617840EA0120A178084359
:102D9000217840EA413611E0E078FFF7E2FC4FEAA3
:102DA00000486078FFF7DDFC48EA0028A078FFF7CC
:102DB000D8FC48EA0008207848EA4036CA20124980
:102DC000086053200860FFF7FBFD08B9002714E0F6
:102DD0000E4830400C4920390860FFF719FE0A48B8
:102DE0001C38006800F0200030B900F05FF908B925
:102DF000002702E0012700E00127FF2002490860C8
:102E00003846BDE8F0810000242800403FFFFF0065
:102E10002DE9F04105460C46002600274DB92E4805
:102E2000006800F0400000B102E00020E07000BF48
:102E30000DE02948006800F0400020B12078FFF73D
:102E400085FC064602E00020E07000BF00BF55B1DF
:102E500020780004617840EA0120A1780843E178F5
:102E600040EA014611E02078FFF77BFC4FEA00487A
:102E70006078FFF776FC48EA0028A078FFF771FC3D
:102E800048EA0008E07848EA0046CA2012491C31A6
:102E9000086053200860FFF793FD08B9002713E08E
:102EA0000E4830400C4908390860FFF7B1FD0A4868
:102EB000006800F0200030B900F0F8F808B90027E9
:102EC00002E0012700E00127FF2003491C310860D0
:102ED0003846BDE8F0810000082800407F7F7F0071
:102EE0000EB50020FFF7AAFE43F2F221884206D079
:102EF000FFF764FC00F04AF8FFF706FC23E07B20B4
:102F0000FFF760FB18B1022001F00AFD06E07A200D
:102F1000FFF758FB10B1032001F002FD0121080763
:102F2000FFF7ACFA0120FFF771FA00F0BFF84FF499
:102F30008070FFF725FC4FF40030FEF79FFA00F099
:102F400025F8FFF7E1FB4FF40030FEF797FA4FF456
:102F50000030009000208DF8040008208DF8050056
:102F600001208DF806006846FEF79AFA29208DF8B0
:102F7000080000208DF809008DF80A0001208DF866
:102F80000B0002A8FFF7FCF90EBD00001FB53A497F
:102F90000020FFF7C7FD384800780A2190FBF1F0C8
:102FA000303036498870344800780A2190FBF1F2BD
:102FB00001FB1200303031494870002008702E4863
:102FC00040780A2190FBF1F030302D4988702A4872
:102FD00040780A2190FBF1F201FB120030302849C1
:102FE000487000200870244880780A2190FBF1F096
:102FF000303024498870204880780A2190FBF1F213
:1030000001FB120030301F494870002008701EA3D9
:103010000FCB8DE80F00194880788DF80500174810
:1030200040788DF80600164880788DF8080014481E
:1030300040788DF80900134880788DF80B0011480E
:1030400040788DF80C000020FEF722FE0020FFF7EC
:1030500085F84FF6FF70FFF79BF8FEF7A1FF0024FD
:103060000DA12046FEF7D8FEFEF79AFFC4886946F8
:103070002046FEF7D1FE1FBDC4010020D401002070
:10308000D7010020DA010020202020202000003A73
:1030900000003A00000000002020202043757272DA
:1030A000656E742054696D652020200008B50022EB
:1030B000009200200021CA22134B1A6053221A608A
:1030C000114A183A126822F0A0020F4B183B1A60FE
:1030D00000BF0D4A183A126802F02001009A521CF3
:1030E0000092009AB2F5003F01D00029F1D0064AC3
:1030F000183A126802F020020AB1012000E0002014
:10310000FF22014B1A6008BD2428004008B50022A8
:103110000092044A0092009A02EB80020092009A08
:10312000116008BD5028004010B500F093FB044624
:103130005CB947F6FF700C4908800CA001F034FF21
:103140004FF6FF70084908800DE04FF478400649BB
:1031500008800CA001F028FF0CA001F025FF4FF61D
:10316000FF700149088010BDEC000020275344493E
:103170004F20534420696E7469616C697A65640AF2
:10318000000000004552524F523A20005344494F2C
:1031900020534420696E697469616C697A6174694D
:1031A0006F6E206661696C6564200A007CB5054617
:1031B000002400200090019000F0EAF800F0007078
:1031C00010B10E2420467CBD3D49098888B269466D
:1031D000FEF7CAFA04460CB12046F4E7012D36D1B9
:1031E000019800F4802000282ED035480088000483
:1031F0003449086037204860402088600020C8605B
:10320000A8020861084600F001F93720FDF734F9FB
:1032100004460CB12046D6E702202A490860062061
:103220004860402088600020C8604FF480600861DA
:10323000084600F0EBF80620FDF71EF904460CB135
:103240002046C0E72046BEE725242046BBE701987C
:1032500000F4803078B31A480088000419490860E7
:1032600037204860402088600020C8604FF48060AC
:103270000861084600F0CAF83720FDF7FDF804465B
:103280000CB120469FE700200E49086006204860E8
:10329000402088600020C8604FF4806008610846C4
:1032A00000F0B4F80620FDF7E7F804460CB120461C
:1032B00089E7204687E7FFE72524204683E70000CB
:1032C000900000205008002001490860704700006D
:1032D000382C01400149086070470000382C01403B
:1032E0000149086070470000A0802542014908603C
:1032F000704700008C85254200210B4B02681A6044
:103300001B1D42681A601A1D116821F0F701D0E9EF
:1033100002231A4303691A4343691A431143024AB9
:103320000832116070470000242C014010B50121C3
:10333000C802FFF7C3F800214FF40060FFF7BEF8A2
:1033400010BD000001480068C0B27047102C014059
:1033500001460020034A12680A400AB1012000E039
:1033600000207047342C014001460020034A1268B7
:103370000A400AB1012000E000207047342C0140CF
:103380000248006800F0030070470000002C014074
:1033900008B50146002000900248084400900098BB
:1033A000006808BD142C014010B500F037FD10BDB9
:1033B00029B1064A12680243044B1A6004E0034A2A
:1033C00012688243014B1A60704700003C2C014098
:1033D00000210A4A116847F6FF629143027D836823
:1033E0001A4343681A43C3681A4303681A430369BC
:1033F0001A431143014A116070470000042C014038
:103400000148006870470000802C01400021094BF2
:1034100002681A601A1D11686FF30A01D0E90123CE
:103420001A43C3681A4303691A431143014A121D20
:1034300011607047082C0140014908607047000086
:10344000002C014008B501200090C1020448FEF79D
:10345000C0FA08B1002000909DF8000008BD0000EF
:103460000014024070B50446002520480068032877
:1034700002D12725284670BD1C48006838B11B487A
:103480000068012803D01948006802282CD1B4F53F
:10349000805F02D127252846EDE7B4F5006F13D1F0
:1034A0000120FFF783FE0546F5B900201049087595
:1034B0000860486088604FF40060C86000200861C0
:1034C0000846FFF785FF0FE00020FFF76FFE054677
:1034D00055B9002006490875086048608860C860D2
:1034E00008610846FFF774FF2846C4E78C000020F7
:1034F00038080020F0B5014600200022C04B1B78A0
:1035000081F85630BF4B1B88A1F85430BE4B1B6866
:103510001A0E93090B70C2F383034B7002F003037E
:103520008B70B94B1B68C3F30742CA70B64B1B883C
:10353000C3F307220A71B44B1A784A715B681A0EFA
:103540001301CB80B04B5B68C3F30742CB8843EADF
:103550001213CB8002F00F030B72AB4B9B88C3F3AB
:103560000722D3094B72C2F380138B72C2F340134C
:10357000CB72C2F300130B7300234B73A04B1B6879
:103580001BB19F4B1B68012B4FD193071B0D0B6188
:103590009D4B1A790B6943EA82030B619A4B9B6836
:1035A0001A0E0B6943EA92130B61C2F3C2030B7547
:1035B00002F007034B75944B9B68C3F30742530912
:1035C0008B75C2F38203CB7593075B0F0B768E4B23
:1035D0001B89C3F307220B7E43EAD2130B760B69D8
:1035E0005B1C0024C1E912340B7ED1E912469B1CFE
:1035F000012505FA03F3DF17A4FB035C06FB03C3F5
:1036000004FB0733C1E912530C7A0123A3400B6575
:103610000027D1E912560B6DA5FB034C06FB03C333
:1036200005FB0733C1E9124336E0754B1B68022BDB
:1036300032D1754B1A7993069B0A0B61724B9B68CA
:103640001A0E0B6943EA02230B616F4B9B68C3F3AD
:1036500007420B6913430B616B4B1B89C3F30722B2
:103660000B6900245B1C44EB04074FF40076002533
:10367000A3FB064C07FB06C603FB05664FF48065FB
:103680000027A4FB053C06FB05C504FB0754C1E964
:1036900012344FF400730B65C2F3801301F8193F25
:1036A00093065B0E4B70584B1A7A4B7843EAD21351
:1036B0004B7002F07F038B70534BDB681A0ED309FB
:1036C000CB70C2F341130B71C2F382034B719307AA
:1036D0001B0F8B714C4BDB68C3F307428B7943EABA
:1036E00092138B71C2F34013CB7100230B7202F063
:1036F00001034B72444B9B89C3F30722D3098B729E
:10370000C2F38013CB72C2F340130B73C2F30013E6
:103710004B73C2F381038B7302F00303CB733A4BF9
:103720001A7B53080B7401234B74384B1B681A0E19
:10373000CA741939354B1B68C3F307421402CC8590
:10374000324B1B88C3F30722CB8D1343CB852F4B02
:103750001A7814060C635B681A0E0B6B43EA02447A
:103760000C632A4B5B68C3F307420B6B43EA0224EA
:103770000C63264B9B88C3F307220B6B13430B632D
:10378000224B1A7934235A54204B9B681A0E352346
:103790005A541E4B9B68C3F3074214068C631B4BA1
:1037A0001B89C3F307228B6B43EA02448C63174BDC
:1037B0001A7A8B6B43EA02248C63144BDB681A0E73
:1037C0008B6B13438B63114BDB68C3F307423C23C2
:1037D0005B5C43EA12143C235C5413071C0DCC873A
:1037E0000A4B9B89C3F30722CB8F1343CB87074B2D
:1037F0001A7B540840235C54012441235C54F0BDDF
:103800008C00002090000020B0070020C00700209E
:1038100008B500200090FFF715FE012809D1684681
:1038200000F062FC08B1FF2008BD0098C0F34320FF
:10383000FAE7FF20F8E710B50424FFF7E9FF044694
:10384000042C01D1002010BDFF2C01D10220FAE789
:103850000120F8E738B50020009000F099F9FFF753
:1038600065FD4FF400612948FEF7B3F801280BD13C
:10387000FEF796FBC088C0EB001084B224A120465E
:10388000FEF7CAFA292038BD00F0E4F900909DF84F
:10389000000010B19DF80000F5E700F04DF8009031
:1038A0009DF8000010B19DF80000ECE700201B49D6
:1038B0000875086048608860C86008610846FFF7BE
:1038C00087FD1748FFF716FE00909DF8000040B9ED
:1038D0001348B0F8540002041046002100F0E8FB41
:1038E00000909DF8000020B94FF40060FFF7BAFD8A
:1038F0000090FEF755FBC088C0EB001084B209A110
:103900002046FEF789FA9DF80000BCE7001402404B
:10391000204E4F2043415244000000003808002050
:10392000E0070020204341524420494E4954494178
:103930004C495A45204F4B0038B5002401200090D7
:10394000FFF71EFD10B92524204638BD4448006805
:10395000042828D000204349086002204860C02085
:1039600088600020C8604FF4806008610846FFF757
:103970004DFDFCF71BFE04460CB12046E5E7002098
:10398000FFF706FD384908600420FFF701FD3649BE
:1039900048600820FFF7FCFC334988600C20FFF7E3
:1039A000F7FC3149C8602E48006858B12C480068BF
:1039B000012807D02A480068062803D02848006854
:1039C000022816D1002027490860032048604020C3
:1039D00088600020C8604FF4806008610846FFF7E7
:1039E00015FD69460320FCF723FE04460CB1204672
:1039F000ABE71B48006804282ED0BDF800001B4927
:103A00000860BDF8000000041649086009204860FD
:103A1000C02088600020C8604FF4806008610846BC
:103A2000FFF7F4FCFCF7C2FD04460CB120468CE71E
:103A30000020FFF7ADFC0E4908600420FFF7A8FC4A
:103A40000B4948600820FFF7A3FC094988600C2057
:103A5000FFF79EFC0649C8600024204675E7000079
:103A60008C00002050080020C0070020900000209B
:103A7000B007002030B58FB005460C464FF0FA5124
:103A80001D48FCF74DFE00211B48FCF763FE1A4859
:103A9000FCF76CFE4FF00060009018480190029512
:103AA00000200390049405904FF4806006908000FD
:103AB000079080000890002009904FF440300A9051
:103AC00004200B9003200C904FF400000D90801008
:103AD0000E9069460848FCF71DFF01221021064898
:103AE000FCF7FBFE20210448FCF7ECFE0121024814
:103AF000FCF730FE0FB030BD58640240802C01400E
:103B000030B58FB005460C464FF0FA511E48FCF711
:103B100007FE00211C48FCF71DFE1B48FCF726FE93
:103B20004FF00060009019480190029540200390EA
:103B30000494002005904FF4806006908000079068
:103B400080000890002009904FF440300A90042033
:103B50000B9003200C904FF400000D9080100E90FD
:103B600069460948FCF7D6FE012210210648FCF7F9
:103B7000B4FE20210448FCF7A5FE01210248FCF711
:103B8000E9FD0FB030BD000058640240802C0140B8
:103B90001CB501212C20FEF741FC0C2208212A48EB
:103BA000FDF7F4FE0C2209212748FDF7EFFE0C2259
:103BB0000A212548FDF7EAFE0C220B212248FDF7D9
:103BC000E5FE0C2211462048FDF7E0FE0C22022102
:103BD0001E48FDF7DBFE4FF47060009002208DF868
:103BE00005008DF8040000208DF8060001208DF8F6
:103BF000070069461448FDF781FE042000906946DD
:103C00001248FDF77BFE4FF48050009000208DF8A5
:103C1000070069460C48FDF771FE4FF40060009004
:103C200000208DF8040001208DF80700694608483F
:103C3000FDF764FE0121C802FEF730FC0121880572
:103C4000FEF7ECFB1CBD000000080240000C024027
:103C500000140240F8B50020009000250024002642
:103C6000002776205F49087500200860486088605A
:103C7000C86008610846FFF7ABFB0320FFF7DCFBD9
:103C80000120FFF72DFB002057490860486088603D
:103C9000C8604FF4806008610846FFF7B7FBFCF787
:103CA000D5FB00909DF8000010B19DF80000F8BD14
:103CB0004FF4D5704C490860082048604020886067
:103CC0000020C8604FF4806008610846FFF79EFB43
:103CD000FCF7FCFC00909DF8000020B9012043494E
:103CE0000860870712E000203F49086037204860DD
:103CF000402088600020C8604FF48060086108465A
:103D0000FFF784FB3720FCF7B7FB00900020364913
:103D1000086037204860402088600020C8604FF469
:103D2000806008610846FFF771FB3720FCF7A4FBB1
:103D300000909DF80000002851D13BE000202A4966
:103D4000086037204860402088600020C8604FF439
:103D5000806008610846FFF759FB3720FCF78CFBB1
:103D600000909DF8000010B19DF800009FE72048EA
:103D700038431D49086029204860402088600020A1
:103D8000C8604FF4806008610846FFF73FFBFCF70E
:103D900033FC00909DF8000010B19DF8000086E70C
:103DA0000020FFF7F5FA0546012080EAD57080F083
:103DB0000106641C1EB94FF6FF708442BED34FF655
:103DC000FF70844204D31B2000909DF800006EE732
:103DD00005F08040051E02D00220044908609DF8CD
:103DE000000064E738080020500800208C00002004
:103DF0000000108010B50748006800F0C05040B1C6
:103E00000120054908604FF0C25102485830FCF7C4
:103E100087FC10BD00640240A000002010B54FF4E4
:103E20008070FFF7A1FA50B10020254908704FF4C7
:103E30008070FFF74FFA01202249086037E0022026
:103E4000FFF792FA30B10220FFF744FA02201C4932
:103E500008702CE00820FFF787FA30B10820FFF740
:103E600039FA04201649087021E02020FFF77CFA77
:103E700030B12020FFF72EFA06201149087016E015
:103E80001020FFF771FA30B11020FFF723FA052058
:103E90000B4908700BE04FF40070FFF765FA30B182
:103EA0004FF40070FFF716FA07200549087000214B
:103EB0004CF23A30FFF77CFA0148007810BD000060
:103EC000980000209C0000202DE9F0418046144617
:103ED0001D46069E002700203049087030490860C2
:103EE0003049086030490860012140F22A30FFF76C
:103EF0005FFA0120FFF7FAF931464046FFF7BAFDB5
:103F00002A480068022808D106020202002320463F
:103F10002946FCF755F904460D4625480660102051
:103F200023494860402088600020C8604FF48060CA
:103F300008610846FFF76AFA1020FCF79DFA074669
:103F400017B13846BDE8F0814FF0FF3019490860DD
:103F500008464660902088600220C8600020086102
:103F6000012048610846FFF7C7F911480460112095
:103F70000F494860402088600020C8604FF480608E
:103F800008610846FFF742FA1120FCF775FA074668
:103F90000FB13846D6E73846D4E700009800002035
:103FA0009C000020940000202C2C01408C0000205C
:103FB00050080020640800202DE9F047814614468F
:103FC0001D46DDE9086800270020324908703249A3
:103FD0000860012031490860002031490860012152
:103FE00040F22A30FFF7E4F908FB06F14846FFF7F4
:103FF00041FD0120FFF77AF92A480068022808D11C
:1040000006020202002320462946FCF7D9F804469E
:104010000D462548066010202349486040208860EE
:104020000020C8604FF4806008610846FFF7EEF991
:104030001020FCF721FA074617B13846BDE8F08793
:104040004FF0FF301949086008FB06F048609020E7
:1040500088600220C860002008610120486108468D
:10406000FFF74AF91048046012200F4948604020C9
:1040700088600020C8604FF4806008610846FFF740
:10408000C5F91220FCF7F8F907460FB13846D5E715
:104090003846D3E7980000209C00002094000020C0
:1040A0002C2C01408C0000205008002064080020C7
:1040B00070B504460D4600260A48046007200949E9
:1040C0004860402088600020C8604FF4806008612C
:1040D0000846FFF79BF90720FCF7CEF90646304665
:1040E00070BD00005008002070B50446002514B9CA
:1040F0002625284670BD0F48008800040E49086038
:104100000D204860402088600020C8604FF4806027
:1041100008610846FFF77AF90D20FCF7ADF905466E
:104120000DB12846E6E70020FFF732F92060284667
:10413000E0E70000900000205008002010B50024A7
:1041400000200A4908600C20486040208860002058
:10415000C8604FF4806008610846FFF757F90C20EB
:10416000FCF78AF90446204610BD000050080020E4
:1041700070B500256C1E00E0641E1848006838B950
:104180001748006820B91748007808B9002CF3D107
:10419000002012490860441E00E0641E12480068B6
:1041A00000F4005008B1002CF7D110480068012835
:1041B00005D1FFF7C3FF054600200C4908600CB984
:1041C00005B9042540F2FF50FFF77EF80548007856
:1041D00010B10448007870BD2846FCE7A00000201C
:1041E0009C00002098000020342C01409400002006
:1041F00070B500256C1E00E0641E1848006838B9D0
:104200001748006820B91748007808B9002CF3D186
:10421000002012490860441E00E0641E1248006835
:1042200000F4805008B1002CF7D110480068012834
:1042300005D1FFF783FF054600200C4908600CB943
:1042400005B9042540F2FF50FFF73EF80548007815
:1042500010B10448007870BD2846FCE7A00000209B
:104260009C00002098000020342C01409400002085
:104270002DE9F041804614461D46069E0027002089
:104280002F4908702F4908602F4908602F4908609E
:10429000012140F22A30FFF78BF831464046FFF704
:1042A0002FFC0120FFF722F829480068022808D1D6
:1042B00006020202002320462946FBF781FF04463E
:1042C0000D4624480660102022494860402088603E
:1042D0000020C8604FF4806008610846FFF796F838
:1042E0001020FCF7C9F8074617B13846BDE8F08141
:1042F0001848046018201749486040208860002052
:10430000C8604FF4806008610846FFF77FF8182006
:10431000FCF7B2F807460FB13846E7E74FF0FF3039
:104320000D49086008464660902088600020C860FB
:104330000861012048610846FEF7DEFF3846D5E7F0
:10434000980000209C000020940000202C2C0140AC
:104350008C00002050080020640800202DE9F04760
:10436000814615461E46DDE90878002400204949AB
:104370000870494908600120484908600020484900
:104380000860012140F22A30FFF712F808FB07F11C
:104390004846FFF7B5FB0120FEF7A8FF414800683B
:1043A000022808D107020202002328463146FBF703
:1043B00007FF05460E463C48076010203A49486012
:1043C000402088600020C8604FF480600861084683
:1043D000FFF71CF81020FCF74FF8044614B12046F4
:1043E000BDE8F0873148008800042F490860372075
:1043F0004860402088600020C8604FF480600861F9
:104400000846FFF703F83720FCF736F804460CB1EE
:104410002046E5E72448C0F800801720224948607C
:10442000402088600020C8604FF480600861084622
:10443000FEF7ECFF1720FCF71FF804460CB12046EE
:10444000CEE7194805601920174948604020886068
:104450000020C8604FF4806008610846FEF7D6FF70
:104460001920FCF709F804460CB12046B8E74FF0D4
:10447000FF300F49086008FB07F048609020886013
:104480000020C8600861012048610846FEF734FF3B
:104490002046A5E7980000209C0000209400002002
:1044A0002C2C01408C00002050080020900000209F
:1044B0006408002008B500200090FDF7FDFBFDF723
:1044C0003DFD052001F054FB0020FDF741FE00906A
:1044D00049F22031009888427ED14FF40041E52016
:1044E000FDF767FE01210020FDF763FE4FF48071A8
:1044F0000120FDF75EFE4FF4E0610220FDF759FE5A
:1045000041F230010320FDF754FE00210420FDF7A5
:1045100050FE40F202210820FDF74BFE0021092049
:10452000FDF747FE00210A20FDF743FE00210C2085
:10453000FDF73FFE00210D20FDF73BFE00210F207F
:10454000FDF737FE00211020FDF733FE002111207A
:10455000FDF72FFE00211220FDF72BFE0021132076
:10456000FDF727FE142001F003FB41F2B07110208B
:10457000FDF71FFE40F237111120FDF71AFE05204E
:1045800001F0F6FA40F239111220FDF712FE052073
:1045900001F0EEFA4FF4E8511320FDF70AFE132163
:1045A0002920FDF706FE052001F0E2FA0021202077
:1045B000FDF7FFFD00212120FDF7FBFD0621302046
:1045C000FDF7F7FD40F201113120FDF7F2FD032167
:1045D0003220FDF7EEFD00E07BE04FF483713520E3
:1045E000FDF7E7FD40F602313620FDF7E2FD40F22F
:1045F00002313720FDF7DDFD40F207713820FDF76D
:10460000D8FD07213920FDF7D4FD4FF4C0613C20CF
:10461000FDF7CFFD40F20B213D20FDF7CAFD002143
:104620005020FDF7C6FDEF215120FDF7C2FD00210E
:104630005220FDF7BEFD40F23F115320FDF7B9FDBA
:104640004FF41C516020FDF7B4FD01216120FDF7FE
:10465000B0FD00216A20FDF7ACFD00218020FDF7B0
:10466000A8FD00218120FDF7A4FD00218220FDF797
:10467000A0FD00218320FDF79CFD00218420FDF793
:1046800098FD00218520FDF794FD10219020FDF775
:1046900090FD00219220FDF78CFD03219320FDF772
:1046A00088FD4FF488719520FDF783FD0021972048
:1046B000FDF77FFD00219820FDF77BFD41F21801F9
:1046C0000320FDF776FD40F273110720FDF771FD21
:1046D000F9E049F2253100988842F9D10121002002
:1046E000FDF767FD4FF480710120FDF762FD4FF487
:1046F000E0610220FDF75DFD41F218010320FDF7A6
:1047000058FD00210420FDF754FD40F2022108204D
:10471000FDF74FFD00210920FDF74BFD00210A2088
:10472000FDF747FD00210C20FDF743FD00210D2082
:10473000FDF73FFD00210F20FDF73BFD002110207C
:10474000FDF737FD00211120FDF733FD0021122078
:10475000FDF72FFD00211320FDF72BFD142001F0A4
:1047600007FA41F2B0711020FDF723FD40F2371136
:104770001120FDF71EFD052001F0FAF940F2391174
:104780001220FDF716FD052001F0F2F94FF4E85173
:104790001320FDF70EFD13212920FDF70AFD05204A
:1047A00001F0E6F900212020FDF703FD0021212082
:1047B000FDF7FFFC07213020FDF7FBFC40F2023142
:1047C0003120FDF7F6FC40F205113220FDF7F1FC37
:1047D00040F206213520FDF7ECFC40F608013620BA
:1047E000FDF7E7FC40F206213720FDF7E2FC40F23E
:1047F00004513820FDF7DDFC07213920FDF7D9FCF5
:1048000040F205113C20FDF7D4FC40F608013D20A4
:10481000FDF7CFFC00215020FDF7CBFCEF2151200C
:10482000FDF7C7FC00215220FDF7C3FC40F23F1109
:104830005320FDF7BEFC4FF427416020FDF7B9FC83
:1048400001216120FDF7B5FC00216A20FDF7B1FCD4
:1048500000218020FDF7ADFC00218120FDF7A9FC9F
:1048600000218220FDF7A5FC00218320FDF7A1FC9B
:1048700000218420FDF79DFC00218520FDF799FC97
:1048800010219020FDF795FC00219220FDF791FC6E
:1048900003219320FDF78DFC4FF488719520FDF7DF
:1048A00088FC00219720FDF784FC00219820FDF76B
:1048B00080FC41F218010320FDF77BFC40F233112C
:1048C0000720FDF776FC0248FDF75CFC08BD000000
:1048D000A40000201CB504460E4951F82400012113
:1048E000FDF79CFD0C4830F81400009001208DF875
:1048F000040000208DF8060001208DF8070002203A
:104900008DF80500054951F824006946FCF7F6FFCB
:104910001CBD000020F80A0818F80A0860000020F2
:10492000034931F81010034A52F8202011837047D0
:1049300018F80A0860000020064951F8201049695B
:10494000054A32F810205140024A52F820205161A5
:10495000704700006000002018F80A0830B585B0E4
:1049600004460D46244951F824000121FDF756FD67
:1049700001218803FDF792FD00208DF810008DF8CD
:1049800013001E4830F8140003901D4951F824000C
:1049900003A9FCF7B3FF012D2CD11A4A12F8141009
:1049A000194A12F8140000F03DF8184830F81400C5
:1049B000019000208DF808001CB10C208DF8090032
:1049C00002E008208DF8090001208DF80A0001A8F6
:1049D000FCF766FD0E4810F814008DF800000F205B
:1049E0008DF801008DF8020001208DF80300684663
:1049F000FDF7C6FC05B030BD38F80A0830F80A08E3
:104A00007000002050F80A084AF80A0844F80A081A
:104A100056F80A0870470000014908607047000016
:104A2000DC00274230B500228B071C0F0F2303FA4E
:104A300004F20B4B8C1053F824309343084C8D1028
:104A400044F8253023468C1053F824308C07240F6B
:104A500000FA04F42343024C8D1044F8253030BD95
:104A6000083801400CB500200190009041480068D2
:104A700040F480303F49086000BF3E48006800F4C1
:104A8000003000900198401C0190009818B90198DE
:104A9000B0F5A04FF1D13748006800F4003010B1F4
:104AA0000120009001E0002000900098012846D1EC
:104AB00030484030006840F080502E494031086056
:104AC0002D48006840F440402B49086029480830D0
:104AD00000682849083108600846006840F4004032
:104AE00008600846006840F4A05008602348091F89
:104AF0000860081F006840F08070091F086000BF50
:104B00001C48006800F000700028F9D040F20560F1
:104B10001B49086017480830006820F00300154959
:104B2000083108600846006840F00200086000BFD5
:104B300010480830006800F00C000828F8D10D4833
:104B40000830006820F400000A49083108600D4868
:104B50000849843108600748006840F080600549D2
:104B6000086000BF0348006800F000600028F9D02A
:104B70000CBD00000038024000700040195440078E
:104B8000003C02408040003010B500F03FF800F0DB
:104B900035F810BD10B51548006840F47000134991
:104BA00008601348006840F00100114908600020C7
:104BB0000F49083108600E4800680E4908400C494A
:104BC00008600D48091D0860081F006820F4802057
:104BD000091F0860002006490C310860FFF742FFFA
:104BE0004FF0006001498039086010BD88ED00E099
:104BF00000380240FFFFF6FE103000240248006833
:104C00000A30014908607047040000200448006829
:104C100020B103480068401E014908607047000049
:104C20000800002010B5054800F0D4F800F07F041B
:104C30002146024800F0D3F810BD000000100140EA
:104C400010B500F033F910BD21B1828942F4005251
:104C5000828104E082894DF6FF731A408281704799
:104C600070B50246002400230025002040F66A1695
:104C7000B14200D100BFC1F3421501F01F0301266C
:104C800006FA03F3012D02D19689334006E0022D86
:104C900002D1168A334001E0968A33400C12012675
:104CA00006FA04F41688344013B10CB1012000E078
:104CB000002070BDF0B5034600240026002500202A
:104CC00040F66A17B94200D100BF1846C1F342143A
:104CD00001F01F06012707FA06F5012C01D10C305F
:104CE00004E0022C01D1103000E014301AB1076842
:104CF0002F43076002E00768AF430760F0BD000084
:104D00002DE9FF4705460E460024A14600BFA046F8
:104D1000B08900B100BF2C8A24F44054F0880443C9
:104D20002C82AC8941F20C608443B08831890843FD
:104D3000718908430443AC81AC8A24F44074B0897F
:104D40000443AC826846FDF7C9FB2048854202D087
:104D50001F48854202D1DDF80C9001E0DDF8089093
:104D6000A88900F4004040B109EBC90000EB09102C
:104D700031684900B0FBF1F707E009EBC90000EB2F
:104D8000091031688900B0FBF1F76420B7FBF0F03F
:104D900004012009642101FB1078A88900F4004077
:104DA00040B1322000EBC800B0FBF1F000F007008A
:104DB000044308E0322000EB08106421B0FBF1F05E
:104DC00000F00F0004432C81BDE8FF870010014074
:104DD0000014014001468888C0F308007047C1F301
:104DE00008028280704700BFFEE7000000B587B070
:104DF00001210220FDF712FB01218804FDF73EFB93
:104E000007220A212748FCF7C1FD07220B2125486C
:104E1000FCF7BCFD00208DF80A0001208DF80B0086
:104E200002208DF808004002019003208DF809004F
:104E300001A91C48FCF762FD02208DF808008002E1
:104E4000019001A91748FCF759FD4FF41650039043
:104E50000020ADF81000ADF81200ADF81400ADF868
:104E600018000C20ADF8160003A90F48FFF748FF03
:104E700001210D48FFF7E8FE012240F225510A48C2
:104E8000FFF718FF2720002809DB00F01F0201218F
:104E900091404209920002F1E022C2F8001100BFE5
:104EA00007B000BD000402400048004010B500F00B
:104EB00055F81F480088401E1E49085C0A2836D154
:104EC0001DA11C48FBF7F4F970B91C4800780128B3
:104ED0000AD001201A4908701A4908701749087049
:104EE0001948FCF7BFFF13E018A11248FBF7E0F9DF
:104EF00070B91248007858B100201149087001209B
:104F00001049087000200D4908701248FCF7AAFFEC
:104F1000002400E0641C10488442FBD3FDF746F8EF
:104F200064210448FBF796F900200149088010BD70
:104F3000A801002084C30020494E0A00AC010020D3
:104F4000AA010020AB01002090220B084F55540A03
:104F500000000000907A0D0880C3C90110B540F22E
:104F600025510E48FFF77CFEB0B10D48008863283C
:104F700006D364210B48FBF76DF90020084908802F
:104F80000648FFF727FFC1B2054802880088401C89
:104F9000034B18800348815410BD000000480040B6
:104FA000A801002084C300200FB4054B10B503A94D
:104FB000044A029800F02CF810BC5DF814FB0000C5
:104FC00015760008EC0100200FB4084B10B504A9B9
:104FD00002AA039800F01CF8044602A9002000F081
:104FE000C1F8204610BC5DF814FB000065510008B4
:104FF00002E008C8121F08C1002AFAD170477047A2
:10500000002001E001C1121F002AFBD170470000FF
:105010002DE9FF4F89B09B460446002506E0252870
:105020000BD05A460B999047641C6D1C20780028C1
:10503000F5D10DB02846BDE8F08F0027B846012213
:10504000474900E0074314F8013F203B02FA03F010
:105050000842F7D120782E2819D114F8010F47F013
:1050600004072A280ED06FF02F022078A0F130011B
:1050700009290CD808EB880102EB410100EB01087B
:10508000641CF2E70A98641C50F8048B0A9020789C
:105090000028CED0642808D0692806D075281ED0F4
:1050A0005A460B9990476D1C58E00A994FF00A092F
:1050B00001C90A91002802DA40422D2102E0390597
:1050C00004D52B218DF82010012103E0F90704D02D
:1050D0002021F7E78A4608AE0DE00021FAE70A9999
:1050E0004FF00A0901C90A91F7E74946FBF70AF9A7
:1050F000303106F8011D0028F7D1ADEB060000F1B4
:105100002009780701D44FF00108C84502DDA8EB5B
:10511000090000E000208046002706E008A85A4663
:10512000C05D0B9990476D1C7F1C5745F6DB04E072
:1051300030205A460B9990476D1CB8F10001A8F138
:105140000108F5DC05E016F8010B5A460B9990476B
:105150006D1CB9F10001A9F10109F4DC641C65E7DB
:10516000092801000A68531C0B601070704700008A
:105170001FB504460122074B606ACDE9000304F124
:105180002B03CDE90202044A1946204601F0CCFB6C
:1051900004B010BD8A220B0884220B087FB5044698
:1051A0000D46606A002850D0606A007900284CD013
:1051B00094F82B008DF800002C20005D8DF8010084
:1051C0002D20005D8DF802002E20005D8DF803007B
:1051D0002F20005D8DF804003020005D8DF8050063
:1051E000D5F80E000390A8690290606A0079012842
:1051F00006D0606A0079022817D1606A4079A0B9A8
:105200000398616A096888420BD00298616A09684C
:10521000884219D1062205F108016846FBF756F8C5
:1052200090B1204600F05BF80EE00398616A0968CF
:10523000884209D1062205F108016846FBF746F8C5
:1052400010B1204600F034F800BF7FBD2DE9F041D9
:1052500005460E462F214A5D3021495D42EA012173
:10526000104A881802F070FC074604F02FFC044630
:10527000686A407A0444A0B20B4940EA0104094834
:10528000844201D204F57E440848844201D9A4F541
:105290007E4400BF00BF204602F056FC3060BDE8EF
:1052A000F08100000001FEA90000FEA9FFFEFEA99A
:1052B00070B50446012575B1606A007A002803DDE7
:1052C000204600F00CF809E02046FFF751FF64206B
:1052D000616A087202E0204600F001F870BD70B506
:1052E00005466C6A0026284604F066FB10B1284685
:1052F00004F082FB00206860A860E8606CB90A20B6
:1053000004F07AF9044614B94FF0FF3070BD002064
:105310002060606020816C6205E000202071E080E8
:1053200060712060207221462846FFF78FFF607A67
:10533000401C6072284600F002F83046E6E710B5DF
:10534000416A01220A7100224A713022125C13065E
:105350002E22125C43EA02432D22125C43EA02220F
:105360002F231B5C1A43436A13B1436A5B7A00E044
:1053700000231A440A23B2FBF3F403FB1422CA806D
:105380004A7A0A2A02DD4FF41672CA8010BD000064
:1053900070B504460D46607801232A4604F13001B9
:1053A00000F0ECFF08B1032070BD94F82E1294F8C1
:1053B0002F0241EA00204AF65521884201D00220FE
:1053C000F2E794F86900010694F8680041EA0041A8
:1053D00094F8670041EA002094F86610084320F032
:1053E0007F400E49884201D10020DDE794F8850016
:1053F000010694F8840041EA004194F8830041EAF0
:10540000002094F88210084320F07F40034988422E
:1054100001D10020C8E70120C6E700004641540042
:10542000024600E0521C107810B110788842F9D181
:10543000107870472DE9F74F88B008980068019000
:105440000198007830380790079809280AD8019801
:1054500040783A2806D10198801C0190089901985B
:10546000086001E0002007900798022803D30B2072
:105470000BB0BDE8F08FD049079851F8204009984B
:1054800004600CB90C20F3E7207878B1607800F064
:10549000D9FF804608F0010040B90A9820B108F011
:1054A000040008B10A20E3E70020E1E700202070B3
:1054B00007986070607800F0EFFE804608F0010009
:1054C00008B10320D4E70A9820B108F0040008B11D
:1054D0000A20CDE74FF0000B59462046FFF758FF52
:1054E000054600BF012D21D14FF0000ABAF1000F8F
:1054F00003D0AAF1010000F0FF0A4FF4DF7000EBC7
:105500000A1104F130000F18387978B1F87A0106E1
:10551000B87A41EA0041787A41EA0020397A40EAD3
:10552000010B59462046FFF733FF0546032D01D1F5
:1055300001209DE70DB10D209AE73B20015D94F815
:105540003C0041EA0020B0F5007F01D00D208FE73C
:105550004620015D94F8470041EA0029B9F1000FA7
:105560000ED194F85700010694F8560041EA004124
:1055700094F8550041EA002094F8541040EA0109DB
:10558000C4F81C904020065DE670012E03D0022E68
:1055900001D00D206CE709FB06F93D20005D0646B1
:1055A000A07016B1701E304008B10D2060E7412098
:1055B000015D94F8420041EA00202081207A00F049
:1055C0000F0008B10D2053E74320015D94F844001B
:1055D00041EA00200690069870B994F8530001063D
:1055E00094F8520041EA004194F8510041EA002049
:1055F00094F85010084306903E20015D94F83F0057
:1056000041EA00200290029808B90D2030E7029884
:105610004844218900EB11100590DDE90501814224
:1056200001D20D2024E7DDE90510401AA178B0FB76
:10563000F1F00490049808B90D2019E7012540F60F
:10564000F6710498884200D302254FF6F67104984B
:10565000884200D303250498801CA0610598584413
:10566000A062029858442062032D16D1208908B107
:105670000D20FDE694F85F00010694F85E0041EA13
:10568000004194F85D0041EA002094F85C10084362
:105690006062A0698000039014E0208908B90D20A1
:1056A000E6E6206A48446062022D02D1A06940000B
:1056B00007E0207E00F00100A16901EB410100EB51
:1056C00051000390E169039800F2FF10B1EB502FF5
:1056D00001D20D20CCE64FF0FF3020610020E060C9
:1056E000032D5CD1607194F8601094F8610041EA78
:1056F0000020584460616078012304F13001626940
:1057000000F03CFEF0BB94F82E1294F82F0241EA10
:1057100000204AF65521884241D13320005D010620
:105720003220005D41EA00413120005D41EA002065
:1057300094F8301008432149884230D194F8170278
:10574000010694F8160241EA004194F8150241EA74
:10575000002094F814120843194988421FD194F884
:105760001F02010694F81E0241EA004194F81D024E
:1057700041EA002094F81C120843E06094F81B02F0
:10578000010600E00BE094F81A0241EA004194F8A7
:10579000190241EA002094F818120843206125708C
:1057A00008480088401C80B206490880E08000203C
:1057B000E062207100BF5BE6E001002052526141CF
:1057C00072724161E80100200246891E9069801EC4
:1057D000884201D8002070479378906A01FB03004B
:1057E000F9E700002DE9F04705460C46207820F047
:1057F0004000401E00EB800101EBC00600274FF087
:10580000010800BF1A48C05D205C1949C95D2144E8
:10581000497840EA0129B8F1000F10D0484601F05C
:1058200057FD8046FF2E07D23146761C35F8110011
:1058300001F04EFD404508D00020BDE8F0874FF64E
:10584000FF70814501D00020F7E7781C07460D283E
:10585000D8D3207800F0400038B1B8F1000F04D060
:1058600035F8160008B10020E7E70120E5E7000061
:1058700090D20F082DE9F04704468946B9F1000F90
:1058800006D1E76817B1A069B84211D801270FE027
:105890004946204602F075F80646022E02D2012043
:1058A000BDE8F087A069B04201D93046F8E74F461D
:1058B0003D4600BF6D1CA069A84204D80225BD4228
:1058C00001D90020ECE72946204602F05AF80646A6
:1058D00006B909E0701C08B1012E01D13046DFE79E
:1058E000BD42E7D10020DBE700BF6FF070422946E0
:1058F000204604F0CFFB8046B8F1000F08D1B9F183
:10590000000F05D02A464946204604F0C3FB8046D6
:10591000B8F1000F09D1E5602069401C68B1206929
:10592000401E20610120607107E0B8F1010F02D133
:105930004FF0FF3000E0012005462846B0E70000A8
:105940002DE9F34F83B082460498D0F800B001E00F
:105950000BF1010B9BF800002F28F9D09BF80000F9
:105960005C28F5D0DAF81C9000252E4600BF3046A2
:10597000761C1BF80040202C03DB2F2C01D05C2C64
:1059800000D11CE0FF2D03D3062005B0BDE8F08F49
:10599000E4B20121204601F075FC04460CB9062052
:1059A000F3E7802C06DA21466BA0FFF739FD08B13A
:1059B0000620EAE728466D1C29F81040D7E700BF0B
:1059C0000BEB060104980160202C01DA042000E0B2
:1059D0000020074608E0681E39F81040202C02D04D
:1059E0002E2C00D002E06D1E002DF4D100BF0DB9A9
:1059F0000620CAE7002029F815000B222021DAF83A
:105A0000180003F007FF002600E0761C39F81600A6
:105A10002028FAD039F816002E28F6D00EB147F01B
:105A2000030700E06D1E25B1681E39F810002E280E
:105A3000F8D14FF00008CDF808800820019000BF91
:105A40003046761C39F8104004B955E0202C03D0BC
:105A50002E2C04D1AE4202D047F00307F0E7DDE977
:105A60000110884201D2AE4216D101980B2802D112
:105A700047F0030740E0AE4201D047F00307AE42D3
:105A800000D939E02E46082002900B2001904FEA01
:105A900088604FEA1068D3E7802C0BDB002120469A
:105AA00001F0F0FB04461CB1A4F180002D490C5C10
:105AB00047F0020700BF24B121462BA0FFF7B0FC3E
:105AC00018B15F2447F003070FE0412C04DB5A2C88
:105AD00002DC48F0020808E0612C06DB7A2C04DCCA
