:020000040800F2
:10000000A86C00209D0100081D140008851200083E
:1000100019140008010300088133000800000000E3
:10002000000000000000000000000000F1180008BF
:10003000D90D000800000000F9140008591A000842
:10004000B7010008B7010008B7010008B7010008B0
:10005000B7010008B7010008B7010008B7010008A0
:10006000310F0008B7010008B7010008B701000808
:10007000B7010008B7010008B7010008150C000817
:10008000B7010008B7010008B7010008B701000870
:10009000B7010008B7010008B7010008B701000860
:1000A000B7010008B7010008B7010008B701000850
:1000B000B7010008B7010008B7010008B701000840
:1000C000B7010008B7010008B7010008B701000830
:1000D000B7010008F51A0008B7010008111B000855
:1000E000F50E0008B7010008B7010008B7010008C5
:1000F000B7010008B7010008B7010008B701000800
:10010000B7010008B7010008B7010008B7010008EF
:10011000B7010008B7010008B7010008B7010008DF
:10012000B7010008B7010008B7010008B7010008CF
:10013000B7010008B7010008B7010008B7010008BF
:10014000B7010008B7010008B7010008B7010008AF
:10015000B7010008B7010008B7010008B70100089F
:10016000B7010008B7010008A91400089914000895
:10017000C9140008B9140008B7010008B701000845
:10018000B7010008B7010008DFF80CD000F05AF8FA
:10019000004800471D3B0008A86C00200648804727
:1001A00006480047FEE7FEE7FEE7FEE7FEE7FEE75C
:1001B000FEE7FEE7FEE7FEE7651A00088901000892
:1001C00040EA01039B0703D009E008C9121F08C0D9
:1001D000042AFAD203E011F8013B00F8013B521E59
:1001E000F9D27047D2B201E000F8012B491EFBD2D0
:1001F00070470022F6E710B513460A460446194632
:10020000FFF7F0FF204610BD421C10F8011B00292B
:10021000FBD1801A704730B50B46014600202022E2
:10022000012409E021FA02F59D4205D303FA02F503
:10023000491B04FA02F52844151EA2F10102F1DC63
:1002400030BD0000064C074D06E0E06840F00103B9
:1002500094E8070098471034AC42F6D3FFF798FFB4
:100260002C3002084C30020870B58C1810F8015B75
:1002700015F0070301D110F8013B2A1106D110F83F
:10028000012B03E010F8016B01F8016B5B1EF9D143
:100290002B0705D40023521E0DD401F8013BFAE7C9
:1002A00010F8013BCB1A921C03E013F8015B01F834
:1002B000015B521EF9D5A142D8D3002070BD0000C9
:1002C00070B505460C460B488560046101460A4836
:1002D00000F056FD0121084800F01AFD074800888B
:1002E00000F4806020B9012104481C3800F0CCFFE4
:1002F00070BD0000C0090020706002401C38004042
:1003000000BFFEE70020704770B506460C4604F0BB
:100310008000802808D104F07F0000EB800106F502
:100320008E7000EBC10507E004F07F0000EB800158
:1003300006F55D7000EBC10504F07F00287004F045
:100340008000C00968702946304602F0EBFD0020AD
:1003500070BD70B506460C4604F08000802808D1B8
:1003600004F07F0000EB800106F58E7000EBC10504
:1003700005E004EB840106F55D7000EBC10500208B
:10038000A87004F07F002870C4F3C010687029467C
:10039000304602F09FFD002070BD2DE9F041064679
:1003A0000D4690461F4605F08000802808D105F0D4
:1003B0007F0000EB800106F58E7000EBC10407E0C2
:1003C00005F07F0000EB800106F55D7000EBC104D5
:1003D00005F07F00207005F08000C0096070C4F84F
:1003E0000880E770607808B12078E080022F01D1A2
:1003F000002020712146304602F014FD0020BDE8A7
:10040000F0812DE9F04105460E461746984606F064
:100410007F0000EB800105F55D7000EBC104E76033
:10042000C4F814800020A061607006F07F00207086
:10043000E878012800D12761207820B92146284694
:1004400002F014FC03E02146284602F0D8FD00200B
:10045000BDE8F08108B500220092009A61F30A120B
:10046000009202691268009B1A4303691A6008BD72
:1004700070B506460C4604F08000802808D104F0D0
:100480007F0000EB800106F58E7000EBC10505E0F2
:1004900004EB840106F55D7000EBC1050120A87036
:1004A00004F07F002870C4F3C010687029463046FD
:1004B00002F073FD002070BD2DE9F04107460D46A6
:1004C0001646984605F07F0000EB800107F58E7018
:1004D00000EBC1040120607005F07F002070E66031
:1004E00026610020A061C4F81480207820B921463C
:1004F000384602F0BBFB03E02146384602F07FFDA0
:100500000020BDE8F0811CB50446204602F079FBCE
:10051000E068C0680090204602F096FE03280BD1E8
:100520000020A0704FF40070A080009820F470505C
:1005300000F51050009009E00120A0704020A0803C
:10054000009820F4705000F5A05000900098E168E9
:10055000C86000200190019820F4005000F5005080
:1005600001900198E168486101201CBDF8B505467D
:10057000002400200090284602F099FE064690E0F4
:1005800006F0010000287DD0E1B2284600F0D0FA44
:100590000090009800F0010030B3012000FA04F749
:1005A0002869406BB843296948630020009000988F
:1005B00020F00100401C009005F1180050F82400C4
:1005C00000998160E1B23948006842682846904746
:1005D000E878012808D13CB940F21110405D0428A8
:1005E00002D1284602F0EDFB0098C0F3C00060B1D4
:1005F00000200090009820F008000830009005F1DD
:10060000180050F82400009981600098C0F3001091
:1006100060B100200090009820F010001030009091
:1006200005F1180050F82400009981600098C0F38B
:10063000801060B100200090009820F04000403011
:10064000009005F1180050F824000099816000988E
:10065000C0F3400060B100200090009820F002003C
:10066000801C009005F1180050F82400009981606A
:100670000098C0F3C01028B12146284600F082FA45
:10068000002000E00BE00090009820F08000803017
:10069000009005F1180050F8240000998160641C56
:1006A0007608002E7FF46CAF0120F8BD28010020F1
:1006B0007CB50446002500200190204602F0FFFD95
:1006C00006466FE006F00100002869D0E9B2204636
:1006D00002F0FDFD0190019800F00100C8B3002078
:1006E0000190019820F00100401C019004F1540099
:1006F00050F8250001998160E078012817D104F1B4
:10070000540050F825000069009005EB850104F5C0
:100710005D7000EBC10080680099C1F31201411ABD
:1007200005EB850204F55D7000EBC2008161E9B262
:100730001E480068026820469047E078012808D1EA
:100740003DB940F21110005D052802D1204602F0AB
:1007500038FB0198C0F3400060B10020019001987F
:1007600020F00200801C019004F1540050F8250094
:10077000019981600198C0F3C00088B10B480068FE
:1007800081682046884700200190019820F00800E9
:100790000830019004F1540050F82500019981605F
:1007A0006D1C7608002E8DD101207CBD2801002013
:1007B0003EB50446A07A70B1D4F80C0100900098C0
:1007C00020F002000090009820F0010000900099B5
:1007D000D4F80C01016000200190019820F0010084
:1007E000401C019020694068019988432169486054
:1007F00008480068816920468847002002900298D6
:1008000020F0004000F1004002900298E168486149
:1008100001203EBD280100207CB504460020019047
:10082000019820F0100010300190E0688069019973
:100830008843E1688861E068006A0090009800F0F1
:100840000F0000EB800104F55D7000EBC10500981E
:10085000C0F3434007282DD2DFE800F02C04051D2B
:100860001E2C1F0027E00098C0F30A1090B10098DA
:10087000C0F30A122046E96802F033FDE8680099E7
:10088000C1F30A110844E860A8690099C1F30A118C
:100890000844A8610FE00EE00DE0082204F2CC51FC
:1008A000204602F01EFDA8690099C1F30A11084410
:1008B000A86100E000BF00BFE068806901990843BB
:1008C000E168886101207CBD38B5044608480068AD
:1008D000C1682046884700200090009820F008005A
:1008E000083000900098E1684861012038BD0000A0
:1008F000280100201FB50446002000904FF48970A5
:10090000005D0090234800684169204688472069BF
:100910008068019000200390039820F4006000F5A7
:10092000006003900398E1684861A07A70B3019871
:1009300000F0010050B340F21510005D012825D1F0
:100940009DF80000032821D100200290029820F099
:100950000100401C0290D4F80C0100680299084381
:10096000D4F80C110860029820F00200801C02905C
:10097000D4F80C01006802990843D4F80C110860FF
:100980000548006840F0060003490860012004B0F3
:1009900010BD00002801002010ED00E030B587B048
:1009A0000446002002900690059004900390019068
:1009B000029820F00100401C0290206940680299D2
:1009C0008843216948600021204602F013FC00257D
:1009D0000BE0FF2104F1180050F82500816004F1BC
:1009E000540050F8250081606D1C6078A842F0D852
:1009F0004FF0FF312069816106986FF30F00401CB2
:100A00000690069880B200F580300690069920691D
:100A1000C161059820F0080008300590059820F085
:100A20000100401C0590059820F00200801C0590F4
:100A300005992069416105992069C0F884100498DE
:100A400020F00100401C0490049820F008000830B9
:100A50000490049820F00200801C049004992069FE
:100A6000016104992069416420690068039003983A
:100A700020F4FE600390039920690160204602F093
:100A8000A0F900200190019820F4805000F58050DA
:100A900001900198E16848610348006801692046B7
:100AA0008847012007B030BD2801002038B5044632
:100AB0000020009007480068C169204688470098D8
:100AC00020F4801000F5801000900098E1684861E3
:100AD000012038BD2801002038B5044600200090D0
:100AE00007480068016A20468847009820F40010F3
:100AF00000F5001000900098E1684861012038BDC1
:100B00002801002038B50446E0684068009000984D
:100B1000C0F3800020B105480068816A20468847FC
:100B20000098E1684860012038BD000028010020DD
:100B300030B5024615692B6915696C6B24FA01F50D
:100B400005F0010543EAC51302F1180555F82150D7
:100B5000AD6805EA030030BD38B5044608480068B2
:100B6000416A2046884700200090009820F080408D
:100B700000F1804000900098E1684861012038BD94
:100B8000280100202DE9F84307460E4600250020E5
:100B9000009006EB860107F58E7000EBC104D4E9E6
:100BA0000501451AA068A84200D2A568E81C4FEAD2
:100BB000900807F1180050F82600806900901BE0AB
:100BC000D4E90501451AA068A84200D2A568E81C2E
:100BD0004FEA9008ABB2F2B23846E16802F0B0FBDF
:100BE000E0682844E060A0692844A06107F118008B
:100BF00050F8260080690090009880B2404506D9E0
:100C0000D4E90510884202D260690028D8D10120B9
:100C1000BDE8F88310B52C492C4800F08FF8002867
:100C200051D02B480068002840D000BF274800F072
:100C30007AF80028FAD12449244800F04FF82548D2
:100C400000682549886022480068B0F5803F02D2DC
:100C50001F48006801E04FF6FF701F4908611B48FC
:100C600000F08EF80121194800F052F81948006888
:100C700017490968B1F5803F02D21549096801E0BA
:100C80004FF6FF7100EB4100124908601048006800
:100C9000B0F5803F02D20E48006801E04FF6FF70C9
:100CA0000B490968081A0A4908600CE00021074846
:100CB00000F02EF80449054800F010F8002105481E
:100CC000006800F00BF910BD2000002070600240A9
:100CD000A8000020AC000020C00900200246094BFB
:100CE0009A4201D2084801E00648103801F000534A
:100CF0001BB1064B0B40C36002E0044B0B4083600A
:100D00007047000010640240006002407D0F7D0FBC
:100D100021B1026842F00102026003E0026822F0A1
:100D2000010202607047014600200A6802F00102D9
:100D30000AB1012000E000207047000030B50346F2
:100D40000A46002000240B4DAB4201D20A4901E0C3
:100D50000849103902F000550DB14C6800E00C68EC
:100D6000064D2C4004EA02050DB1012000E00020F0
:100D700030BD000010640240006002407D0F7D0F16
:100D800010B500220268134B1A40CC680B6823434D
:100D90004C6923438C692343CC6923430C6A234366
:100DA0004C6A23438C6A23434C6B23438C6B234351
:100DB0001A430260426922F00702D1E90B3423434F
:100DC0001A4342610B6943604B6883608B68C36060
:100DD00010BD00003F801CF07047000001B50449C1
:100DE0000098086000BF024800680028FBD108BDD9
:100DF0000800002018B502460B4600210020009094
:100E00001548016901F01C014FF4784000EAC22046
:100E100001434FF4F86000EA8310014321F002011E
:100E200041F001010C48016100BF0098401C009096
:100E30000948016901F0010018B1084C0098A0426E
:100E4000F3D3064C0098A04201D1002018BD0248FF
:100E5000406980B2FAE7000000800240FFFF040012
:100E600070B505460C46600819490860FFF74AFA54
:100E7000174800684FF48032B2EB500F03D9144882
:100E80000068400801E04FF6FF7001462846FFF772
:100E900017FA0F480068B0F5803F02D20C4800688E
:100EA00001E04FF6FF70C0EB54000A4908600848A3
:100EB0000068B0F5803F02D20548006801E04FF6B7
:100EC000FF7005EB400004490860002070BD000081
:100ED000A4000020A8000020AC00002070B504464B
:100EE0000D4602490248FFF7BBFF70BDF61A0F001E
:100EF000A458000810B54FF4004000F027F840B1A6
:100F00000A48007808B903F017FC4FF4807000F02D
:100F100017F84FF4804000F019F830B1012000F0CC
:100F20006BF84FF4804000F00BF810BD6C0000200F
:100F300010B5042000F004F8012000F05BFC10BDA7
:100F40000149086070470000143C01400146002040
:100F5000034A12680A400AB1012000E000207047ED
:100F6000143C0140002123498279002A3AD00A46E4
:100F7000126803689A430B461A600A1D12680368D8
:100F80009A430B1D1A60027911440A6803681A43D8
:100F90000A60184A0832126803689A43154B0833EE
:100FA0001A601A1D126803689A43124B0C331A60B8
:100FB0004279102A0ED11A1F126803681A430D4B8A
:100FC00008331A601A1D126803681A43094B0C3360
:100FD0001A600DE00749427911440A6803681A4310
:100FE0000A6005E0027911440A6803689A430A60BE
:100FF00070470000003C014070B5044612212046B5
:10100000FFF7F8FE00F40050002836D01B480078A7
:10101000C0431A4908704FF4784000F0E7F91748C8
:101020000078A8B100F0D0F9C08800EB800085B24C
:1010300013A1284600F04CF900F0C6F9C08800EB77
:1010400040004004050C14A1284600F041F914E0CA
:1010500000F0BAF9C08800EB800085B208A12846EC
:1010600000F036F900F0B0F9C08800EB4000400411
:10107000050C0FA1284600F02BF970BD6C00002074
:1010800020204E6574776F726B204361626C65201F
:1010900069732020000000002020202020756E7041
:1010A0006C75676765642020202020200000000008
:1010B0002020206E6F7720636F6E6E6563746564A9
:1010C0002020202000000000F0B50A460021002367
:1010D000002400BF3DE0012505FA01F3156805EA8B
:1010E00003049C4234D105684F000326BE40B5433B
:1010F000056015794E00B5400668354305601579E1
:10110000012D02D01579022D16D185684F000326D6
:10111000BE40B543856055794E00B540866835437D
:101120008560456801268E40B543456045689679DF
:101130008E40B6B235434560C5684F000326BE40B9
:10114000B543C560D5794E00B540C6683543C56026
:10115000491C1029BFD3F0BDF0B5002300244D0772
:10116000ED0E02FA05F3CE1000F1200555F82650D9
:101170004E07F70E0F26BE40B543CF1000F12006F4
:1011800046F82750CE1000F1200555F8265045EAC4
:101190000304CE1000F1200545F82640F0BD0246BC
:1011A000002013690B400BB1012000E000207047C4
:1011B00070B506462E480078012856D02D480068A4
:1011C000B0F5006F02D100202A4908602948006864
:1011D00029490968884203D100202549087070BD5B
:1011E0002448006824490968884206D921480068D3
:1011F000C0F500602149086006E01F4800681D49ED
:101200000968401A1D4908601C480068B0F5007F55
:1012100011D91848008884B24FF400751548006849
:1012200000F500701349086014480068A0F50070CC
:10123000124908600FE00F48008884B20F48008808
:1012400085B20C4800680D490968084409490860DE
:1012500000200A4908600120054908700848021961
:101260002B4681213046FFF727F900BFB7E7000082
:10127000540100204C0100204801002050010020B2
:10128000370D002000BFFEE721B1828B42F480625F
:10129000828304E0828B4FF6FF331A4082837047CB
:1012A00070B505460E461446A4F12000C4B20748A6
:1012B0000068016805480068C088604301EB40028F
:1012C0003146284600F02AF870BD0000E0000020FA
:1012D00070B506460C4640F23F150AE022782946D2
:1012E0003046FFF7DDFF0C4800688088281A85B279
:1012F000641C681C80B2084909688988884201DB3F
:10130000012000E00020217809B1012100E0002146
:1013100008400028E2D170BDE00000202DE9F04334
:1013200007468946164600240025A046B846494689
:10133000404600F04FF800BF39E000F063F80025A8
:1013400027E01E48006880880C2190FBF1F0C10066
:1013500080208840284136F81410084020B91748EA
:10136000006880880C280ADD36F814000121A940A5
:10137000084048B91148006880880C2804DD1048EE
:10138000008800F03BF803E00E48008800F036F8D3
:101390006D1C0A4800688088A842D2D808F1010074
:1013A0001FFA80F84946404600F014F8641C0348D0
:1013B0000068C088A042C0D8BDE8F083E0000020EB
:1013C000E6000020E40000200148006870470000AB
:1013D000E000002010B503460C461946202000F01E
:1013E00016F82146212000F012F810BD01B5BDF815
:1013F00000000149088008BDE40000204FF0D04102
:101400004880704722204FF0D041088070474FF04D
:10141000D04210805180704700BFFEE77047000047
:1014200070B5002100230F22C4781CB3174C246828
:1014300004F4E064C4F5E064C4F30721C1F10404DA
:10144000E3B20A4144789C40E1B2847814402143DD
:101450000C07210E0E4C05786155047804F01F0529
:101460000124AC4005786D11AD0005F1E025C5F80B
:10147000004109E0047804F01F050124AC40054D4B
:101480000678761145F8264070BD00000CED00E0AE
:1014900000E400E080E100E010B5024800F002FF47
:1014A00010BD0000B002002010B5024800F070FF2F
:1014B00010BD0000B002002010B5024800F0A8FFE7
:1014C00010BD0000B002002010B50948807A50B16C
:1014D0000848006820F006000649086000F0C2FADB
:1014E000034801F012FF4FF48010FFF729FD10BDF3
:1014F000B002002010ED00E07047000029B1064A5C
:1015000012680243044B1A6004E0034A12688243E3
:10151000014B1A60704700003038024029B1064A7A
:1015200012680243044B1A6004E0034A12688243C3
:10153000014B1A60704700003438024029B1064A56
:1015400012680243044B1A6004E0034A12688243A3
:10155000014B1A607047000044380240F0B500218A
:1015600000220024022500260223324F3F6807F0A4
:101570000C0121B1042905D0082937D105E02E4FEF
:10158000076036E02D4F076033E02A4F3F1F3F686A
:10159000C7F38056274F3F1F3F6807F03F036EB1E8
:1015A000264FB7FBF3F7DFF88CC0ACF1040CDCF886
:1015B00000C0CCF3881C07FB0CF40CE01E4FB7FBFB
:1015C000F3F7DFF870C0ACF1040CDCF800C0CCF32A
:1015D000881C07FB0CF4174F3F1F3F68C7F30147F8
:1015E0007F1C7D00B4FBF5F7076002E0124F076037
:1015F00000BF00BF0F4F3F6807F0F0010909104F0F
:101600007A5C0768D74047600A4F3F6807F4E051AB
:10161000890A0B4F7A5C4768D7408760054F3F685F
:1016200007F46041490B064F7A5C4768D740C760B2
:10163000F0BD0000083802400024F40040787D012D
:10164000E800002030B10749096841F00401054A6B
:10165000116005E00349096821F00401014A1160A5
:1016600070470000000806503EB504460D46252090
:101670008DF8000000208DF801008DF80200012097
:101680008DF803006846FFF7CBFE2E4951F8241071
:101690002D4A52F8242041EA02000121FFF72EFFD3
:1016A0002A4951F824000121FFF748FF284B13F87D
:1016B0001420284B33F81410274B53F82400FFF75D
:1016C0004BFD264B13F81420254B33F81410254BF3
:1016D00053F82400FFF740FD00208DF80A00012098
:1016E0008DF80B0002208DF808001F4830F8140018
:1016F000019002208DF80900174951F8240001A932
:10170000FFF7E2FC02208DF80800184830F81400BA
:101710000190144951F8240001A9FFF7D5FC1449A0
:1017200051F82400294600F071FA114951F82400BB
:10173000012100F003FA012240F225510D4800F08A
:1017400040FA3EBDD0050208D4050208CC050208C7
:10175000E0050208DC05020898000020E205020806
:10176000DE0502089C000020D8050208DA05020800
:1017700094000020001001401CB504460E4951F8A9
:1017800024000121FFF7BAFE0C4830F81400009045
:1017900001208DF8040000208DF8060001208DF84E
:1017A000070002208DF80500054951F8240069461C
:1017B000FFF78AFC1CBD000090050208880502089E
:1017C00078000020034931F81010034A52F8202015
:1017D000518370478805020878000020034931F8DA
:1017E0001010034A52F82020118370478805020820
:1017F00078000020064951F820104969054A32F85E
:1018000010205140024A52F82020516170470000D8
:10181000780000208805020810B50446044A32F812
:101820001410044A52F82400FFF7B9FC10BD000060
:10183000A00502088800002030B585B004460D469A
:10184000244951F824000121FFF758FE01218803A3
:10185000FFF774FE00208DF810008DF813001E486D
:1018600030F8140003901D4951F8240003A9FFF734
:101870002BFC012D2CD11A4A12F81410194A12F817
:10188000140000F037F8184830F8140001900020D8
:101890008DF808001CB10C208DF8090002E008202A
:1018A0008DF8090001208DF80A0001A8FFF75AFB06
:1018B0000E4810F814008DF800000F208DF801007C
:1018C0008DF8020001208DF803006846FFF7A8FD9F
:1018D00005B030BDA8050208A00502088800002058
:1018E000C0050208BA050208B4050208C6050208C8
:1018F0007047000030B500228B071C0F0F2303FA3E
:1019000004F20B4B8C1053F824309343084C8D1089
:1019100044F8253023468C1053F824308C07240FCC
:1019200000FA04F42343024C8D1044F8253030BDF6
:10193000083801400CB50020019000904148006833
:1019400040F480303F49086000BF3E48006800F422
:10195000003000900198401C0190009818B901983F
:10196000B0F5A04FF1D13748006800F4003010B155
:101970000120009001E0002000900098012846D14D
:1019800030484030006840F080502E4940310860B7
:101990002D48006840F440402B4908602948083031
:1019A00000682849083108600846006840F4004093
:1019B00008600846006840F4A05008602348091FEA
:1019C0000860081F006840F08070091F086000BFB1
:1019D0001C48006800F000700028F9D040F2056053
:1019E0001B49086017480830006820F003001549BB
:1019F000083108600846006840F00200086000BF37
:101A000010480830006800F00C000828F8D10D4894
:101A10000830006820F400000A49083108600D48C9
:101A20000849843108600748006840F08060054933
:101A3000086000BF0348006800F000600028F9D08B
:101A40000CBD0000003802400070004019544007EF
:101A5000003C02408040003010B500F03FF800F03C
:101A600035F810BD10B51548006840F470001349F2
:101A700008601348006840F0010011490860002028
:101A80000F49083108600E4800680E4908400C49AB
:101A900008600D48091D0860081F006820F48020B8
:101AA000091F0860002006490C310860FFF742FF5B
:101AB0004FF0006001498039086010BD88ED00E0FA
:101AC00000380240FFFFF6FE103000240248006894
:101AD0000A3001490860704700000020044800688F
:101AE00020B103480068401E0149086070470000AB
:101AF0000800002010B5054800F0F2F800F07F045F
:101B00002146024800F0F1F810BD0000001001402D
:101B100010B540F22551084800F029F818B100210D
:101B2000084601F01FFD0821034800F013F810B12A
:101B3000014800F0D5F810BD0010014021B18289A4
:101B400042F40052828104E082894DF6FF731A400C
:101B50008281704702460020B1F5007F00D100BFAE
:101B600013880B400BB1012000E00020704770B5D6
:101B70000246002400230025002040F66A16B142E8
:101B800000D100BFC1F3421501F01F03012606FA80
:101B900003F3012D02D19689334006E0022D02D1D4
:101BA000168A334001E0968A33400C12012606FA69
:101BB00004F41688344013B10CB1012000E0002079
:101BC00070BDF0B50346002400260025002040F635
:101BD0006A17B94200D100BF1846C1F3421401F0A0
:101BE0001F06012707FA06F5012C01D10C3004E08D
:101BF000022C01D1103000E014301AB107682F43D5
:101C0000076002E00768AF430760F0BD2DE9FF47BA
:101C100005460E460024A14600BFA046B08900B18B
:101C200000BF2C8A24F44054F08804432C82AC89F1
:101C300041F20C608443B0883189084371890843BC
:101C40000443AC81AC8A24F44074B0890443AC8270
:101C50006846FFF783FC2048854202D01F48854232
:101C600002D1DDF80C9001E0DDF80890A88900F4BD
:101C7000004040B109EBC90000EB09103168490090
:101C8000B0FBF1F707E009EBC90000EB0910316880
:101C90008900B0FBF1F76420B7FBF0F004012009E4
:101CA000642101FB1078A88900F4004040B1322083
:101CB00000EBC800B0FBF1F000F00700044308E0BF
:101CC000322000EB08106421B0FBF1F000F00F00AF
:101CD00004432C81BDE8FF8700100140001401403F
:101CE00001468888C0F308007047C1F3080282806B
:101CF000704770B504460D46D4F8E405294642689D
:101D000020469047002070BD70B504460D464FF444
:101D10008970005D022802D0032812D100E000BFC4
:101D2000688801280CD100214FF48C700151D4F83F
:101D3000E4052946826820469047204600F075F861
:101D400004E02946204600F021F800BF00BF70BD26
:101D50002DE9F04106460C46154600272B46224643
:101D600000213046FEF74DFB3846BDE8F0812DE9F5
:101D7000F04106460C46154600272B462246002118
:101D80003046FEF799FB3846BDE8F08170B5044651
:101D90000D4680212046FEF76BFB00212046FEF712
:101DA00067FB204601F00DF870BD2DE9F0410446B7
:101DB0000E4615460027C4F89453C4F890530321E7
:101DC00040F2111001552B46324600212046FEF705
:101DD00018FB3846BDE8F08170B5044600250521A2
:101DE00040F21110015500231A4619462046FEF70D
:101DF00008FB204600F0E5FF284670BD2DE9F041C4
:101E000004460E4615460027C4F83C51C4F8385124
:101E1000022140F2111001552B4632460021204686
:101E2000FEF74AFB3846BDE8F08170B50446002550
:101E3000042140F21110015500231A46194620468C
:101E4000FEF73AFB204600F0BCFF284670BD70B597
:101E500005460E46002E51D105F58E7440F2111044
:101E6000405D02283DD1A168E069884211D9A1688E
:101E7000E069401AE061E878012803D1D4E9021052
:101E80000844E060A08B82B22846E168FFF76FFF4C
:101E900027E0A168206AB0FBF1F201FB120078B9DB
:101EA000A168206A88420BD3D4E90801884207D28E
:101EB000002211462846FFF75AFF0020606210E01A
:101EC000D5F8E405C06848B14FF48970405D032837
:101ED00004D1D5F8E405C168284688472846FFF7AD
:101EE0007BFF4FF48B70405D012816D1284600F02F
:101EF0005BFB00214FF48B7041550EE0D5F8E405F3
:101F0000406950B14FF48970405D032805D1D5F880
:101F1000E4053146426928469047002070BD70B5FF
:101F200005460E46A6BB05F55D7440F21110405DF6
:101F300003283DD1A168E069884217D9A168E0690A
:101F4000401AE061E878012803D1D4E9021008447E
:101F5000E060A368E069984201D2E06900E0A0680F
:101F600082B22846E168FFF7F3FE21E0D5F8E405E8
:101F7000006948B14FF48970405D032804D1D5F859
:101F8000E4050169284688472846FFF74EFF0FE021
:101F9000FFE7D5F8E405806950B14FF48970405DE2
:101FA000032805D1D5F8E4053146826928469047D3
:101FB000002070BD10B50446D4F8E8154869804784
:101FC000012140F215100155002010BD10B5044646
:101FD000D4F8E81588698047D4F8E4050021426800
:101FE00020469047002140F215100155002010BDF9
:101FF00070B504460D46E888012804D029462046DD
:10200000FFF7C4FE1AE04FF48970005D022802D089
:1020100003280DD105E0012209492046FFF7EEFE15
:102020000BE0012204F588712046FFF7E7FE04E08B
:1020300029462046FFF7AAFE00BF00BF70BD000082
:1020400030010020F8B504460E46708800120828BA
:102050006FD2DFE800F09904162F99996F88A07865
:10206000D4F8EC150A68694690470546F088402880
:1020700004D04FF48970005D012801D10820009040
:1020800087E0A078D4F8E4158A6A69469047054647
:10209000A078012809D1207A012806D1A078D4F8A7
:1020A000E415CA6A69469047054602206870C4F87C
:1020B000F0556EE0B078062834D2DFE800F0030B6C
:1020C000131B232BA078D4F8EC154A686946904777
:1020D00005462CE0A078D4F8EC158A68694690474C
:1020E000054624E0A078D4F8EC15CA686946904704
:1020F00005461CE0A078D4F8EC150A6969469047BB
:10210000054614E0A078D4F8EC154A696946904772
:1021100005460CE0A078D4F8EC158A69694690472A
:10212000054604E031462046FFF730FEF8BD00BF0B
:102130002FE029E0A07888B9A078D4F8E4158A6A5D
:10214000694690470546A87B1E490871E87B48719F
:10215000287C88710D460A2000901AE031462046FE
:10216000FFF714FEE2E7A07848B9A078D4F8E415A8
:10217000CA6A6946904705460721697009E03146F9
:102180002046FFF703FED1E731462046FFF7FEFD6C
:10219000CCE700BFBDF8000088B1F08878B1F088C6
:1021A000BDF80010884202DDBDF8000000E0F088B4
:1021B0000090BDF8002029462046FFF71FFE00BF13
:1021C000B4E700005A0000200146002002E0421C53
:1021D000D0B2491C0A78002AF9D1704770B504467C
:1021E0000D464FF48970005D022802D0032813D1F8
:1021F00000E000BF01200C4908604FF48C700059CA
:1022000020B10846006840F002000860022206493A
:102210002046FFF7F3FD04E029462046FFF7B6FD10
:1022200000BF00BF70BD0000340100202DE9F04167
:1022300004460D4617460026FCB12046FFF7C4FFB2
:10224000022101EB400038803A783046711CCEB252
:102250002A5403223046711CCEB22A540AE014F8E4
:10226000012B3046711CCEB22A5400223046711C1C
:10227000CEB22A5420780028F1D1BDE8F08110B503
:102280000446D4F8E405016A20468847002010BDC2
:1022900010B50446D4F8E405416A2046884700207A
:1022A00010BD0000F8B504462069466C2069476BF4
:1022B000C7F3400046EAC016E069806830400090ED
:1022C000009800F00100A8B102252069406BA843E6
:1022D0002169486300200090009820F00100401C14
:1022E00000900099E06981602848006801214268F7
:1022F000204690470098C0F3400048B1002000906D
:10230000009820F00200801C00900099E069816034
:102310000098C0F3C00048B100200090009820F061
:102320000800083000900099E06981600098C0F3CF
:10233000001048B100200090009820F010001030EC
:1023400000900099E06981600098C0F3801048B166
:1023500000200090009820F040004030009000994C
:10236000E06981600098C0F3C01068B10121204687
:10237000FEF708FC00200090009820F080008030DC
:1023800000900099E06981600120F8BD28010020DB
:102390001CB50446A06D8068019001982169D1F8B0
:1023A000841008400190019800F00100E8B100207D
:1023B0000190019820F00100401C01900199A06D4E
:1023C0008160E07801280AD1A06D00690090D4F8FE
:1023D000A4030099C1F31201411AC4F8B4130B48C5
:1023E000006801210268204690470198C0F3400030
:1023F00048B100200190019820F00200801C01905B
:102400000199A06D816001201CBD00002801002001
:102410007CB505460024284600F036FF002875D01C
:10242000284600F03CFF0190019808B900207CBDCF
:102430000198C0F3C04018B12846FEF739F90443AB
:102440000198C0F3804018B12846FEF78FF8044386
:102450000198C0F3400050B100200090009820F097
:102460000200801C00900098E968486100BF019854
:10247000C00F18B12846FEF79BF904430198C0F33A
:10248000C02018B12846FEF735FA04430198C0F37E
:10249000C00018B12846FEF717FA04430198C0F3AC
:1024A000001018B12846FEF7B7F904430198C0F3AD
:1024B000003018B12846FEF771FA04430198C0F3C2
:1024C000403018B12846FEF71EF804430198C0F3C7
:1024D000005018B12846FEF7E9FA04430198C0F30A
:1024E000405018B12846FEF7F7FA04430198C0F3AC
:1024F000807018B12846FEF72FFB04430198C0F303
:10250000800018B12846FEF7FDFA044320468EE706
:1025100090F8CC250A7090F8CD254A7090F8CE3509
:1025200090F8CF2503EB02224A8090F8D03590F83E
:10253000D12503EB02228A8090F8D23590F8D3257A
:1025400003EB0222CA80CB884FF4A0721350012300
:1025500040F211121354704710B504460023402274
:1025600019462046FDF719FF00234022802120460E
:10257000FDF713FF01214FF489700155A078D4F8BD
:10258000E82551688847002010BD10B50446D4F8EE
:10259000E8150869804740F21310015D401E01559F
:1025A00003210155002010BD014603480268086957
:1025B0004260002070470000F800002010B504467B
:1025C000D4F8E405C06920B1D4F8E405C169204617
:1025D0008847002010BD70B504460D46A88818BB7A
:1025E000E88808BBA87800F07F064FF48970005D8A
:1025F000032804D129462046FFF7C8FB18E04FF412
:102600008A70065531462046FDF724FF2046FFF725
:102610000CFC26B102214FF48970015508E001211C
:102620004FF48970015503E029462046FFF7AEFBC1
:1026300070BD70B504460D46D4F8E405294602681D
:1026400020469047D4F8E81588688047002070BD80
:1026500070B504460D46A8783049087008460078E1
:10266000012804DD29462046FFF790FB55E04FF492
:102670008970005D022802D0032848D117E027485E
:10268000007880B12548007884F8100103214FF4C8
:1026900089700155214801782046FFF7CAFF20467E
:1026A000FFF7C3FB02E02046FFF7BFFB34E01B4807
:1026B000007880B902214FF48970015517480078DD
:1026C00084F81001154801782046FFF712FB2046D8
:1026D000FFF7ABFB1AE094F8100110490978884223
:1026E00011D094F810112046FFF703FB0B48007837
:1026F00084F81001094801782046FFF79AFF204628
:10270000FFF793FB02E02046FFF78FFB04E029462A
:102710002046FFF73BFB00BF00BF70BD3801002023
:10272000F8B504460D460026688801280DD1012120
:102730004FF48C700151D4F8E40529468268204694
:1027400090472046FFF771FB39E06888022836D1B0
:102750002879A0BB206940680090A8880612062E40
:1027600022D2DFE806F02103090F151B009820F0A4
:1027700070001030009017E0009820F070002030BA
:10278000009011E0009820F07000303000900BE0D5
:10279000009820F070004030009005E0009820F094
:1027A00070005030009000BF00BF054800990160E4
:1027B00001214FF48B7001552046FFF736FBF8BD21
:1027C000F80000201CB5044669462046FFF7A0FE2D
:1027D0009DF8000000F01F0020B1012807D002285A
:1027E0000FD109E06946204600F016F811E069466D
:1027F000204600F0F9F80CE06946204600F046F863
:1028000007E09DF8000000F080012046FDF730FE53
:1028100000BF00BF00201CBD70B505460C46002659
:1028200060780A2829D2DFE800F01923281E280A38
:102830000528140F21462846FFF704FC22E0214614
:102840002846FFF7C8FE1DE021462846FFF700FF97
:1028500018E021462846FFF7CBFB13E02146284627
:10286000FFF7BCFC0EE021462846FFF759FF09E0C0
:1028700021462846FFF748FA04E021462846FFF79C
:1028800085FA00BF00BF304670BD00002DE9F04161
:1028900005460E46002734797078002857D0012865
:1028A0002BD0032875D14FF48970405D022802D0E7
:1028B00003281BD107E02CB1802C03D021462846E9
:1028C000FDF7D6FD17E0708830B92CB1802C03D00D
:1028D00021462846FDF7CCFDD5F8E405314682684F
:1028E000284690472846FFF7A0FA04E031462846DC
:1028F000FFF74CFA00BF00BF70E04FF48970405DF5
:10290000022802D003281BD107E02CB1802C03D071
:1029100021462846FDF7ACFD17E0708878B95CB118
:10292000802C09D021462846FDF713FDD5F8E40593
:1029300031468268284690472846FFF776FA04E039
:1029400031462846FFF722FA00BF00BF46E04FF4A9
:102950008970405D022802D0032837D107E02CB1EE
:10296000802C03D021462846FDF782FD33E004F099
:102970008000802812D104F07F0000EB800105F573
:102980008E7000EBC100807820B1012015490860ED
:1029900016E022E000201349086011E004F08000F6
:1029A00070B904EB840105F55D7000EBC10080781F
:1029B00018B101200B49086002E0002009490860B5
:1029C000022208492846FFF719FA04E03146284652
:1029D000FFF7DCF900BF00BF00E000BF00BF3846D2
:1029E000BDE8F0812C01002070B504460D4600269C
:1029F0004FF48970005D032814D1287901280CDC7C
:102A0000D4F8E4052946826820469047E88840B912
:102A10003EB92046FFF709FA03E029462046FFF7B2
:102A2000B5F904E029462046FFF7B0F900BF00BF22
:102A3000304670BD10B504464FF48970015D401CEE
:102A400001550421401E0155D4F8E815C868804797
:102A5000002010BD70B505460C462DB9224606492A
:102A600006A0FFF7E3FB04E02246034903A0FFF7BB
:102A7000DDFB014870BD0000380A0020564350209D
:102A8000436F6E66696700000246122008800148A5
:102A9000704700004800002070B505460C462DB96F
:102AA0002246064906A0FFF7C1FB04E0224603497F
:102AB00003A0FFF7BBFB014870BD0000380A0020EF
:102AC00056435020496E746572666163650000006C
:102AD000024604200880014870470000640000207E
:102AE00070B505460C462246024903A0FFF79EFB3F
:102AF000004870BD380A002053544D6963726F65F9
:102B00006C656374726F6E696373000070B505461F
:102B10000C462DB92246064906A0FFF787FB04E0C4
:102B2000224603490CA0FFF781FB014870BD00005D
:102B3000380A002053544D3332205669727475613F
:102B40006C20436F6D506F727420696E2048532063
:102B50006D6F64650000000053544D333220566998
:102B6000727475616C20436F6D506F727420696E62
:102B7000204653204D6F64650000000070B5054687
:102B80000C462DB92246064906A0FFF74FFB04E08C
:102B90002246034907A0FFF749FB014870BD00002A
:102BA000380A00203030303030303030303530426C
:102BB00000000000303030303030303030353043BD
:102BC00000000000024643200880014870470000D2
:102BD0009001002002464320088001487047000011
:102BE000D301002010B50022C0EB0013DB00072446
:102BF000B3FBF4F100BF531C1A468B4200D910BD41
:102C0000F9E70EB501460020002200920A69926899
:102C100002928A6912680192029AC2F3410232B1A9
:102C2000012A05D0022A09D0032A0DD101E000BFF4
:102C300000BF019A6FF30A02019205E0019A6FF357
:102C40000A02D21C019200BF00BF019B8A69136077
:102C5000009A22F4807202F5807200920A6952682A
:102C6000009B9A431A430B695A600EBDFEB502469B
:102C7000002000240025029500954D78012D52D1A9
:102C800093691D6802951D6900954D6955B9009DB0
:102C900025F07F050095009D25F4C01505F500255C
:102CA000009516E08E684D69B54207D98D684D6173
:102CB0000E7A009D66F30605009504E00E7D009DEA
:102CC00066F306050095009D25F4C01505F5002561
:102CD0000095009D1D61D578012D06D10F7802F178
:102CE000180555F827500E696E61029D25F0806524
:102CF00005F180650295029D25F0004505F100452E
:102D00000295029D1D60D578002D59D14D69002D89
:102D100056D00E780125B5402C4315696D6B2543BF
:102D2000166975634CE00E7802F1540555F826508B
:102D30002D6802950E7802F1540555F826502D693C
:102D400000954D695DB90E7A009D66F30605009504
:102D5000009D25F4C01505F5002500950CE08D6853
:102D60004D610E7A009D66F306050095009D25F4E1
:102D7000C01505F5002500950F7802F1540555F8AA
:102D80002750009E2E61D578012D06D10F7802F1D3
:102D9000540555F827500E696E61029D25F0806537
:102DA00005F180650295029D25F0004505F100457D
:102DB00002950F7802F1540555F82750029E2E60B7
:102DC000FEBD0EB500210191019921F04041A1F114
:102DD00080410191019921F4C01101F50021019177
:102DE000019921F07F0118310191019A416D0A6129
:102DF000C178012915D10021009100F2CC51426D1A
:102E00005161416D09680091009921F0004101F183
:102E1000004100914FF080210091009A416D0A60BD
:102E200000BF0EBD3CB50246002000240194009472
:102E30004C78012C0CD10D7802F1180454F825308F
:102E40000D780124AC40009D64F30F0500950BE064
:102E50000D7802F1540454F825300D780124AC406B
:102E6000009D64F31F4500951C680194019CC4F308
:102E7000C034E4B90D89019C65F30A040194CD784E
:102E8000019C65F3934401948D79019C65F39954F9
:102E90000194019C24F0805404F180540194019C1D
:102EA00024F4004404F500440194019C1C600C7857
:102EB000012C08D1D47A34B91469E46B009D2C43F9
:102EC0001569EC6305E01469E469009D2C431569FC
:102ED000EC613CBD38B503460020002400944C78DA
:102EE000012C05D10D7803F1180454F8252004E0D5
:102EF0000D7803F1540454F8252014680094009CC4
:102F000024F400140094CC78032C02D0CC78022C4A
:102F100005D1009C24F0805404F180540094009C5E
:102F2000146038BD3CB50246002000240194009492
:102F30004C78012C0CD10D7802F1180454F825308E
:102F40000D780124AC40009D64F30F0500950BE063
:102F50000D7802F1540454F825300D780124AC406A
:102F6000009D64F31F450095019C24F400440194E6
:102F7000019C1C600C78012C08D1D47A34B91469F6
:102F8000E46B009DAC431569EC6305E01469E469EA
:102F9000009DAC431569EC613CBD38B503460A465B
:102FA0000020002400945478012C18D1157803F1E6
:102FB000180454F825100C680094009CE40F2CB100
:102FC000009C24F0804404F180440094009C24F48C
:102FD000001404F500140094009C0C600EE01578B9
:102FE00003F1540454F825100C680094009C24F458
:102FF000001404F500140094009C0C6038BDFEB56C
:1030000005460C46002600270020029001906078BB
:1030100001287ED1217805F1180050F821000068C0
:103020000290217805F1180050F821000069019004
:10303000606948B901986FF312000190012101986D
:1030400061F3DC40019017E06169019861F31200BF
:1030500001906069401EA1680844B0FBF1F101983D
:1030600061F3DC400190E078012805D1019820F05F
:10307000C04000F100500190227805F1180050F88E
:10308000220001990161E878012807D1227805F131
:10309000180050F82200216941610DE0E078012814
:1030A0000AD0606940B12178012000FA01F728694F
:1030B000406B384329694863E078012813D12869B7
:1030C000806800900098C0F3002030B9029820F08A
:1030D000005000F10050029005E0029820F080506E
:1030E00000F180500290029820F0806000F1806032
:1030F0000290029820F0004000F1004002902278F7
:1031000005F1180050F8220002990160E0780128CA
:1031100000E008E06CD1A08A83B222782846E168FA
:1031200000F00EF964E0217805F1540050F8210018
:1031300000680290217805F1540050F821000069E0
:103140000190606950B9A168019861F31200019083
:103150000121019861F3DC40019013E0A068401E5A
:1031600061690844A168B0FBF1F1019861F3DC40AA
:1031700001900198C0F3C940A1684843019960F3E8
:1031800012010191227805F1540050F822000199B2
:103190000161E878012806D1227805F1540050F841
:1031A000220021694161E07801280ED1607930B1B7
:1031B000029820F0005000F10050029005E00298C3
:1031C00020F0805000F180500290029820F0806042
:1031D00000F180600290029820F0004000F1004071
:1031E0000290227805F1540050F822000299016003
:1031F0003046FEBDF8B504460D46002600270020E7
:103200000090009820F0200020300090009865F396
:103210008A1000900098E168086100BFE0680069CA
:103220000090781C07460749884200D904E00098BE
:10323000C0F340100028F1D100BF0320FFF7D2FCFB
:103240003046F8BD400D030008B5014600200A696C
:1032500092680092009AC2F3410232B1012A06D06C
:10326000022A07D0032A07D102E0032004E000BFAE
:10327000022001E0012000BF00BF08BD0146C86870
:10328000406900F00100704700B502461046FFF7A4
:10329000F5FF012801D0012000BD0020FCE7014618
:1032A0000020CA685069CA68926910407047014698
:1032B000086982690869C069024090B27047014696
:1032C000086982690869C0690240100C70470246AB
:1032D00002F1540353F82130986813695B69184070
:1032E0007047F0B503460024D01CC71700EB977752
:1032F000BD10D3F8D06000BF03E030680860641CE4
:10330000091DAC42F9D30846F0BD0CB5817AB1B1C4
:10331000016989680191019901F0010171B1D0F849
:103320000C110091009921F002010091009921F007
:1033300001010091009AD0F80C110A6000BF0CBD89
:103340002DE9F04104460026E078B0B900270020BE
:10335000DD1C4FEAE57805EB98784FEAA80704F101
:10336000D00555F822C000BF04E00D68CCF800502D
:10337000401C091DB842F8D300BF3046BDE8F081BB
:1033800000BFFEE710B50446BCB94FF4E1303C493C
:10339000086000208880C8804FF4C0600881002049
:1033A00088810C2048810020FEF75EF9012240F25E
:1033B00025513448FEF705FC5FE03348007920B121
:1033C000012806D002280ED108E000202C49C88030
:1033D0000EE04FF440502A49C88009E04FF40050F5
:1033E0002749C88004E00020FFF7CCFF022010BD71
:1033F00000BF2548407920B1012806D002280ED10F
:1034000008E000201E4908810EE04FF480601C494E
:10341000088109E04FF4C0601949088104E00020E8
:10342000FFF7B0FF0220E2E700BF174880790728C6
:1034300002D0082810D103E000201149888010E054
:103440000F48008918B900200D49888003E04FF427
:1034500080500B49888004E00020FFF793FF022092
:10346000C5E700BF0848006805490860002088815A
:103470000C2048810020FEF7F7F80020B7E7000095
:1034800018090020001001401000002070B505460A
:103490000C461646042D15D007DC7DB1012D0ED04B
:1034A000022D0DD0032D3FD10BE0202D0BD0212D6F
:1034B0001FD0222D36D0232D36D134E035E034E034
:1034C00033E032E031E02078617840EA0120A178F1
:1034D00040EA0140E17840EA01601549086020793E
:1034E000087160794871A07988710120FFF74AFF5F
:1034F0001BE00F48007820700D480088000A6070BB
:103500000B480068000CA07009480068000EE070CD
:103510000748007920710648407960710448807935
:10352000A07102E001E000E000BF00BF002070BD1C
:103530001000002070B505460E4600240BE0295D02
:103540000748FEF7D2FB00BF80210548FEF702FBCB
:103550000028F9D0641CB442F1D3002070BD0000F3
:103560000010014070B504460D46134880790728C5
:1035700009D11248FEF7B4FB00F07F001049114A50
:10358000126888540AE00C488079082806D10B4854
:10359000FEF7A6FB0A490B4A1268885409480068DE
:1035A000401C0849086008460068B0F5006F01D16A
:1035B00000200860002070BD1000002000100140B5
:1035C000370D0020480100200020704708B54FF457
:1035D000E1301249086000208880C8804FF4C06044
:1035E0000881002088810C2048810020FEF73CF8EB
:1035F000012240F225510A48FEF7E3FA25208DF812
:10360000000000208DF801008DF8020001208DF8E7
:1036100003006846FDF704FF002008BD18090020DC
:10362000001001400FB4084B10B504A902AA03987A
:1036300000F01CF8044602A9002000F0C1F8204662
:1036400010BC5DF814FB0000C137000802E008C898
:10365000121F08C1002AFAD170477047002001E00C
:1036600001C1121F002AFBD1704700002DE9FF4F56
:1036700089B09B460446002506E025280BD05A4613
:103680000B999047641C6D1C20780028F5D10DB073
:103690002846BDE8F08F0027B8460122474900E0E0
:1036A000074314F8013F203B02FA03F00842F7D128
:1036B00020782E2819D114F8010F47F004072A2882
:1036C0000ED06FF02F022078A0F1300109290CD81C
:1036D00008EB880102EB410100EB0108641CF2E7F2
:1036E0000A98641C50F8048B0A9020780028CED0E9
:1036F000642808D0692806D075281ED05A460B9930
:1037000090476D1C58E00A994FF00A0901C90A91C7
:10371000002802DA40422D2102E0390504D52B2190
:103720008DF82010012103E0F90704D02021F7E7EC
:103730008A4608AE0DE00021FAE70A994FF00A091F
:1037400001C90A91F7E74946FCF765FD303106F8F3
:10375000011D0028F7D1ADEB060000F12009780724
:1037600001D44FF00108C84502DDA8EB090000E0D4
:1037700000208046002706E008A85A46C05D0B9945
:1037800090476D1C7F1C5745F6DB04E030205A46FD
:103790000B9990476D1CB8F10001A8F10108F5DC08
:1037A00005E016F8010B5A460B9990476D1CB9F1CC
:1037B0000001A9F10109F4DC641C65E70928010096
:1037C0000A68531C0B60107070470146080601F42C
:1037D0007F4240EA022001F47F0240EA122040EAE0
:1037E0001160704701460806000C40EA112070473E
:1037F00070B504460D462946204600F069F9C043DD
:1038000080B270BD2DE9F74F86B08846B8F8280021
:1038100005901420019002220021104600F058FB70
:10382000054625B94FF0FF3009B0BDE8F08F059887
:1038300068812881454820F0030068606C6806981C
:10384000142241682046FCF7BBFCE08800F03AFBFC
:103850000746C7F30C00049007F400500390069845
:103860000089143886B20599A1F11400C11700EB44
:103870005171C1F3CF0B61E005981438B04201DB00
:10388000012000E0002002900498C0F30C0003998E
:1038900040EA0107029808B947F40057029808B1B6
:1038A000304601E04FEACB001FFA80FA524604F19D
:1038B0001401019B069800F00AFC0199084480B2AB
:1038C00001903846FFF78EFFE0800AF1140188B2BC
:1038D000FFF788FF60800020608114212046FFF7F9
:1038E00087FF6081029828B106F1140081B2284652
:1038F00000F0ACFC00221146022000F0E9FA8146FB
:10390000B9F1000F0DD02946484600F0CCFBD8F89D
:10391000143049464046089A9847484600F020FC33
:1039200005E0284600F01CFC4FF0FF307CE7A6EBDA
:103930000A0086B20498584480B20490002E9BD1AD
:10394000284600F00DFC00206EE70000CA6200204F
:103950002DE9FE4F05460E4614461F46DDE90C894B
:10396000204600F08DF8B0F1000A02D1001FBDE83A
:10397000FE8F3B462246314628468DE8000700F080
:1039800001F8F4E72DE9F05F06460F4690469A46A7
:103990000C9DB8F1000F5BD04FF014091421304694
:1039A00000F015FC18B16FF00100BDE8F09F7468DD
:1039B00000BF00BF208900F085FA6AF31F2083460C
:1039C000FFF710FF2081208900F07CFA01120B988C
:1039D00040EA012B5846FFF705FF2081B8F1000FA0
:1039E00001D1002001E0D8F800002061CB464FEA69
:1039F000E97109EB917189104FF4804242EA01218B
:103A00000A9A114388B2FFF7EDFE20803089FFF754
:103A1000E9FE60800020E08018480088FFF7E2FEA1
:103A2000A08016480088401C144908800FB13868EF
:103A300030B9281D08B9002000E06868E06004E0A3
:103A40000FB9002000E03868E0600020608102E0EB
:103A5000746804F11008288D48B13089298D884296
:103A600005DD424629463046FFF7CCFE9DE742463B
:103A7000314628466B69984797E70000AC02002062
:103A800070B50546104804680EE0204600F00EFAB6
:103A900048B12868A1680840D4E901121140884261
:103AA00001D1204670BD2468002CEED10748006883
:103AB00020B10648006800F0F9F908B90020F1E7E4
:103AC00002480068EEE700002C02002030020020CF
:103AD0002DE9F04180460E460024454608E028784E
:103AE00007026D1C287807436D1C3C44B01E86B24B
:103AF000012EF4DC002E02DD287807023C44A0B23F
:103B000000EB1444200C000410B1A0B200EB1444EC
:103B1000A0B2FFF767FEBDE8F081000088B004A8FE
:103B2000FDF71CFD64220598B0FBF2F1481EB0F1D0
:103B3000807F00D31BE0481E4FF0E02250615017F9
:103B40000F22002804DB13071D0E274B1D5406E02F
:103B500013071E0E254B00F00F052D1F5E5500BFED
:103B600000204FF0E02290610720106100BF01218A
:103B70004020FDF7D3FC0120FDF764FD0020FDF798
:103B8000FBFD0120FDF7F8FD0220FDF7F5FD032008
:103B9000FDF7F2FD00210846FDF74EFE0021012051
:103BA000FDF74AFE00210220FDF746FE00BF00247B
:103BB0000F4B0FCB8DE80F0014E00220FDF72CFE19
:103BC00048B91DF82400FDF7FDFD032C01D10024A8
:103BD00001E0601CC4B21DF82400FDF7FFFD1E20AB
:103BE000FDF7FCF8E9E7000000E400E018ED00E074
:103BF0002058000870B5054605B970BD00BF00BF6C
:103C000000BF00BF0C480068854203D30B48006822
:103C1000854200D3F1E7A5F1080400BF00BF0020F2
:103C2000207107480068844201D20548046020469C
:103C300000F088FB00BFE0E71C020020200200200B
:103C40002402002070B502460AB9002070BDD01CC5
:103C500020F0030082B20C2A00DA0C22B2F5205FB9
:103C600001DD0020F2E730480088304E3688801BA6
:103C700083B253E02D480068C118087900284AD162
:103C80000E8803F10800301A904244D30E8803F1E5
:103C90000800361A02F11400864218D303F1080016
:103CA000104485B22148006844190020207108881A
:103CB000208063800D80012008712088B0F5205F8E
:103CC00007D02088194E36683044458001E0012035
:103CD000087115480068814214D107E01248006855
:103CE0000088124E366830440F4E30600E4800682F
:103CF000007928B10C4800680D4E3668B042EDD10D
:103D000000BF00BF00BF00BF00BF00BF00BF00BFBB
:103D100001F108009AE705480068C35AC2F520502F
:103D20009842A7DC002091E7240200201C0200201A
:103D3000200200202DE9F04106460A46D01C20F062
:103D4000030082B20C2A00DA0C22B2F5205F02DDF9
:103D50000020BDE8F08100BF00BF3E4800688642F9
:103D600003D33D480068864201D33046F1E7A6F10F
:103D7000080438480088201A85B22088401B08387B
:103D800087B200BF00BFBA4201DD0020E1E7BA42BE
:103D900001D13046DDE72088DFF8B8C0DCF800C08C
:103DA00000EB0C01087980BB088805F1080C9444ED
:103DB0001FFA8CF3DFF8A4C0DCF800C08C4508D1F2
:103DC000DFF890C0DCF800C09C44DFF89080C8F8B1
:103DD00000C0DFF880C0DCF800C00CEB03014FF03E
:103DE000000C81F804C008804D802380B1F800C029
:103DF000BCF5205F08D0B1F800C0DFF85880D8F8D3
:103E00000080C444ACF8023022E0FFE702F1140065
:103E1000B8421DD805F10800104483B20D4800686F
:103E2000C1180E480068814201D20C480160002090
:103E30000871208808804D8023800888B0F5205FB5
:103E400006D00888DFF80CC0DCF800C0604443806E
:103E500030467EE71C0200202002002024020020C1
:103E600001B9704700BF00BF0A46044B53F8203029
:103E70001360024B43F8202000BFF2E73815002002
:103E8000024600BF092A01DB0020704700BF064838
:103E900050F8221031B1044B086843F8220000BFEB
:103EA00000BF00BF0846F0E738150020014691F832
:103EB000310000F00100704700B503461846FFF7D7
:103EC00084FC00BD00B502461046FFF78BFC00BD28
:103ED0002DE9F05F83460F4690460026BBF1000FA8
:103EE00009D0BBF1010F0AD0BBF1020F0BD0BBF11F
:103EF000030F0DD10BE006F1140086B200BF06F1EE
:103F0000140086B200BF06F10E0086B205E004E0A0
:103F100000BF00BF0020BDE8F09F00BFB8F1000F58
:103F200068D0B8F1010F74D0B8F1020F72D0B8F1B7
:103F3000030F70D10820FFF7A3FF04460CB900203F
:103F4000E9E784F80C800020206006F1100020448E
:103F5000C01C20F00300606000BF00BF2781F01C80
:103F600020F00300C0F5FA70B84201DD384604E0E5
:103F7000F01C20F00300C0F5FA70608100BF00BFA4
:103F800000BF00BF0120E081A2466089A7EB0009C5
:103F90002CE00820FFF774FF054625B9204600F005
:103FA000DFF80020B7E785F80C80002068732860F0
:103FB000CAF8005000BF00BFA5F808901FFA89F0AA
:103FC000B0F5FA7F02DA1FFA89F001E04FF4FA70D7
:103FD000688105F11000686000BF00BF00BF00BF2E
:103FE0000120E8816889A9EB0009AA46B9F1000F10
:103FF000CFDC35E006F1130121F00302F91C21F0BA
:104000000301114488B2FFF71DFE044624B90020C5
:1040100081E711E011E01FE004F110003044C01C02
:1040200020F003006060278167810020206084F811
:104030000C8000BF00BF13E000BF0720FFF720FF88
:1040400004460CB9002066E7002060602781678184
:10405000206084F80C8003E000BF00BF00205AE716
:1040600000BF0120E08100206073204653E710B5B7
:10407000024600BF02B101B910BD00BF104604E006
:1040800003890C892344038100680368002BF7D15E
:1040900000BF00BF00BF00BF03890C892344038118
:1040A000016000BFE8E730B505460C4621462846CA
:1040B000FFF7DDFF204600F005F930BD0146002086
:1040C00002E0421CD0B209680029FAD170472DE9FC
:1040D000F05F8046894616461D464FF0000B00BF34
:1040E000B8F1000F02D10020BDE8F09F00BF00BF73
:1040F000B9F1000F01D10020F6E700BF4FF0000A30
:10410000B8F1000F02D0B9F1000F01D10020EBE7A8
:10411000444620E035B16089A84203DC6089281A52
:1041200085B217E06089401B87B2B74200DD374691
:104130006268511909EB0A003A46FCF741F80BEBAB
:1041400007001FFA80FB0AEB07001FFA80FAF01B3A
:1041500086B2002524680EB1002CDBD15846C3E797
:104160002DE9F041044624B900BF00BF0020BDE89E
:10417000F08100BF00BF002625E000BF00BFE0893E
:10418000401E1FFA80F8A4F80E80B8F1000F18D175
:104190002768257B032D04D121460820FFF760FE08
:1041A0000BE0012D01D0022D04D121460720FFF79D
:1041B00057FE02E02046FFF71DFD701CC6B23C46CC
:1041C00000E0002400BF002CD7D13046CFE770B507
:1041D000024600BF00BF01B10AB9002070BD00292E
:1041E00008DA484284B200BF5089A04201DA0120B7
:1041F000F4E700E08CB2137B55680BB1032B0AD1B6
:104200005068401A506002F110005668864215D27C
:1042100055600120E2E7022B01D0012B0AD10029D1
:1042200006DA5089A04203DB5068401A506005E06E
:104230000120D3E700BF00BF0120CFE75089084429
:1042400050811089084410810020C7E72DE9F04112
:1042500006460F4600BF00BF00BF00BF3089B8420E
:1042600001DCBDE8F0813089A7EB00083D4634460B
:104270000AE06089281A85B200BF00BF2089404447
:104280002081246800BF00BF6089A842F1DB207B49
:1042900060B96089A84209D0A088001B284481B277
:1042A0002046FFF747FD044600BF00BF65816089D7
:1042B0002081206810B12068FFF752FF00202060A5
:1042C00000BFCEE710B1C189491CC18170472DE9FB
:1042D000F04704460E469146C8464FF0000A00BF1C
:1042E00014B90020BDE8F08700BF00BF0EB9002060
:1042F000F8E700BF1CB116B12089484502DA6FF01B
:104300000900EFE7254615E000BF00BF4746688972
:10431000B84200DA6F8906EB0A013A466868FBF793
:104320004FFFA8EB07001FFA80F80AEB07001FFAFF
:1043300080FA2D68B8F1000FE6D100BF00BF002061
:10434000D0E7000030B500BF00BF00BF00BF00BF16
:1043500000BF00BF00BF0388194C246819198842A8
:1043600015D00B799BB9174B1B6899420FD0164B90
:104370001B688B4201D1144B18600B880380104BD3
:104380001B88C31A0C880E4D2D682C44638043880B
:104390000B4C24681A19824211D013797BB90A4B4D
:1043A0001B68834201D1084B1A6003881380044BB9
:1043B0001B88D31A0488024D2D682C44638030BDBD
:1043C0001C02002020020020240200202DE9FF5FB3
:1043D00004460E46207C0A2808D12146204800F0D9
:1043E00045FF21460220FFF73BFD37E0A76DD4F8DB
:1043F00024800CB9002000E020680290201D08B93C
:10440000002000E060680390B4F818A0B4F8209091
:10441000D4F89050D4F814B02146124800F026FF8A
:10442000A06F10B1A06F01F014F8606F10B1606F51
:1044300001F00FF821460220FFF712FD00BF1DB169
:104440006FF004015846A84700BF3EB103AB02AA73
:1044500041463846CDE900A900F096FFBDE8FF9F30
:10446000740200207002002070B506460220FFF79B
:1044700007FD04467CB900F0D5FC0220FFF700FDE3
:1044800004463CB9304600F0A1FC0220FFF7F8FCDE
:10449000044600BF00BF002C39D0A0212046FBF706
:1044A000A8FE4020183404F8070C40F66830A4F841
:1044B00056000020A4F8580040F668302082608240
:1044C000002004F80E0CFF2004F80D0C4FF40670C9
:1044D0002084062020860020A0850620E085C01FBD
:1044E000E0830120608700F0FDFC0546E56425645B
:1044F0006563256507480068A061002020770648AD
:10450000E0660648E067002084F88500183C2046F5
:1045100070BD0000640200201553000800DD6D002E
:104520004161704770B50546287C082864D2DFE8F1
:1045300000F004323D485163635A002400BF344800
:104540000068A84205D132480068C0683049086058
:1045500018E02F4800682F4908600EE02D480068D9
:10456000C068A84204D12B49E8680968C86008E01F
:1045700028480068C0682749086026480068002865
:10458000ECD100BF0020E86000BF29460220FFF701
:1045900067FC002533E0002429461F4800F066FE32
:1045A00029460320FFF75CFC002528E0002429466B
:1045B0001A4800F05BFE29460220FFF751FC002557
:1045C0001DE00121284600F053FF04460CB90520E8
:1045D000287414E00121284600F04AFF04460CB973
:1045E000052028740BE00121284600F041FF044615
:1045F0000CB90920287402E00024002500BF00BF88
:104600001DB114B9284600F07BFC204670BD0000A7
:1046100068020020780200206C0200207002002056
:104620002DE9FC4704460E469046994600BF207C83
:1046300018B16FF00C00BDE8FC8700BF16B1306800
:10464000606002E06FF00800F5E7A4F82080208B9E
:1046500010B900F00BFC208300F044FC054600205C
:104660006062A565681EE064A06640F6683020853B
:104670006085606AE06240F66830A4F85C004FF440
:1046800006702087208F314600F08DF920870120A9
:10469000A4F85200208F00EB80004FF6FF7101EA72
:1046A0004000A4F8540002202074C4F8889000BF91
:1046B0001E480068A04205D11C480068C0681B491C
:1046C000086018E019480068194908600EE01848A9
:1046D0000068C068A04204D11549E0680968C86054
:1046E00008E013480068C068114908601048006875
:1046F0000028ECD100BF0020E06000BF00BF0D48E3
:104700000068E0600B48046000BF01200021022324
:104710000A46CDE90010204600F05CF9074617B9BB
:10472000204600F0EDFB384685E7000068020020D7
:10473000780200207002002008B500F091FB0849C3
:1047400008600846006850B10648FFF73EF8009040
:10475000054B0722694602480068FFF761FF08BD64
:10476000740000200B00A8C06D4700082DE9F0413F
:1047700080460D4616460024002E42D10C20FFF73D
:1047800061FA0446002C35D0012020706560204875
:10479000026820A12748FEF745FF2648FBF734FDB5
:1047A00087B2032239460020FFF792FBA060A06881
:1047B00058B32048FBF728FD87B23A461D49A06848
:1047C000FFF785FD21462846FFF7AAFE1A4928462D
:1047D00000F09DFD1949284600F087FE0122184986
:1047E000284600F08FFD2146284600F0A5F800205D
:1047F000BDE8F0812146284600F024F84FF0FF3054
:10480000F6E72146284600F01DF83046F0E70000A4
:104810007000002073656E64696E67207463702099
:10482000636C69656E74206D6573736167652025BF
:10483000640000005A090020B548000889490008B2
:104840007548000870B505460C460021284600F062
:104850005EFD0021284600F048FE00221146284651
:1048600000F050FD14B12046FFF7C4F92846FFF7C9
:1048700059FE70BD2DE9F04105460F462C467CB12E
:10488000A06820B12146384600F056F806E02078AE
:10489000032803D121463846FFF7D4FF002605E060
:1048A00001213846FFF792FD6FF004063046BDE85F
:1048B000F08100002DE9F0478046894614461F46E6
:1048C00000BF00BF454674B903202870A86820B90E
:1048D00029464846FFF7B6FF03E02946484600F060
:1048E0002BF8002623E02FB114B12046FFF738FC47
:1048F0003E461CE02878012811D10E480068401C73
:104900000C4908602189484600F01BFD2046FFF74E
:1049100027FC29464846FFF795FF002607E0218936
:10492000484600F00EFD2046FFF71AFC00263046F0
:10493000BDE8F087700000202DE9F04107460C46E5
:10494000002616E0A5686A8901233846696800F0E8
:10495000F3FD064656B92868A060A06810B1A068AB
:10496000FFF7B0FC2846FFF7FBFB02E0701C00B924
:10497000A5603EB9A06828B1A0684089B7F86E105C
:104980008842DFDDBDE8F0812DE9F04104460D46A7
:1049900017462646B06818B131462846FFF7CCFFC7
:1049A0000020BDE8F0812DE9F04105460E46304675
:1049B000FFF766F8044654B1208D40B1208D2838A9
:1049C00087B2BD4201DA284600E03846054628464F
:1049D000BDE8F0812DE9FF4F87B005469A4600BF3C
:1049E000099848B9159838B90AF0030020B96FF052
:1049F00009000BB0BDE8F08F00BF00BF099820B9D7
:104A0000089810B16FF00900F3E700BFB5F86E1019
:104A10000998814208DA95F8220040F0800085F874
:104A200022004FF0FF30E4E70998049008980290C4
:104A3000159800F0010008B1042100E0002115984C
:104A400000F0020008B10C2000E0002001EB00099A
:104A5000A86E0590B5F87080B8F1040F03DA4FF630
:104A6000FC70804508DD95F8220040F0800085F854
:104A700022004FF0FF30BCE7B8F1000F01D000BFBB
:104A800001E000BF00BF0024274626460020039017
:104A9000C6E0288FA0EB09010498814203DA288F31
:104AA000A0EB090000E0049880B203900420FFF717
:104AB000E7F9044604B976E10020206060600FB990
:104AC000274602E000BF00BF34602646149800F07D
:104AD0000100F8B10398484481B200221046FFF764
:104AE000F7F9606000B95EE100BF00BF6068FFF7E2
:104AF000E5FA40441FFA80F8089838B161684968BF
:104B000001EB0900DDE90212FBF75AFB606840681F
:104B1000A0602CE0002249461046FFF7D9F96060FA
:104B200000B940E16068FFF7C9FA40441FFA80F815
:104B3000049800281BDD012203200399FFF7C8F920
:104B4000069028B96068FFF70BFB002060602AE13F
:104B500008F101001FFA80F806990298486002984F
:104B6000A06060680699FFF782FA00200690B8F10D
:104B7000040F03DC4FF6FC70804500DD13E1039861
:104B8000A08114216068FFF722FB00B10BE160688F
:104B900040682061288BFEF725FE21690880288C5B
:104BA000FEF720FE216948800598FEF70EFE216978
:104BB00048600020216948824FF6C070FEF712FE5F
:104BC0002169898900EA010B5046FEF70BFE4BEA8A
:104BD000000B2069A0F80CB01598A0732169888992
:104BE000FFF770F900F03F01CB464FEAE97009EB9F
:104BF00090708010401D41EA003080B20190FEF7B5
:104C0000F1FD21698881DDE90310401A80B204902A
:104C10000399059808440590DDE9020108440290D3
:104C2000002F3FF436AF049800283FF732AF686F8B
:104C300008B9002605E06E6F00E03668306800288D
:104C4000FBD1002E74D031698889FFF73BF900F061
:104C5000030008B1012000E00020B18908440028C9
:104C600066D031698889FFF72DF900F00300E8BBB1
:104C70000AF0030010B1BAF1010F59D1B089B98916
:104C80000844298F884253DCB07BB97B88424FD1DE
:104C900031694868FFF710F9B18900EB010B3969F8
:104CA0004868FFF709F9834542D109F114025142DE
:104CB0007868FFF78CFA10B100BF00BF73E0786826
:104CC000408978B9D7F804B0786800687860002027
:104CD000CBF80000A8F101001FFA80F85846FFF752
:104CE0003FFA00BF0AF0010060B100E020E000BF21
:104CF00000BF0120FEF776FD3169898908433169DB
:104D000088810BE000BF00BF79687068FFF7AFF9DA
:104D1000B089B9890844B08138683060BC4202D19A
:104D20003446B089039039460420FFF799F803E030
:104D30000EB96F6700E037600AF0020010B90AF0A0
:104D4000010018B10998401C80B209900AF00100D6
:104D500028B195F8220040F0200085F8220055F88F
:104D6000681F099808442860E9880998081AE880AB
:104D7000A5F808802889683D08B100BF00BF84B14C
:104D8000039800280DDD206958B1149800F0020046
:104D900038B90820FEF726FD216989890843216971
:104DA0008881002025E695F8220040F0800085F8F3
:104DB000220017B1384600F04CFBB5F8700008B17E
:104DC00000BF00BF4FF0FF3013E600002DE9F041B7
:104DD00006464FF07F08002700251048046813E0BE
:104DE000607CB0420FDC607C40450CDC0C49206BE1
:104DF0000968081AB84206D30949206B09680F1AD6
:104E0000254694F81180E468002CE9D11DB10121F8
:104E10002846FFF7DBFABDE8F081000070020020B1
:104E20006402002070B5002600250B4804680BE0E2
:104E30000A49206B0968081AB04204D30749206B5D
:104E400009680E1A2546E468002CF1D11DB1012134
:104E50002846FFF7BBFA70BD7402002064020020F0
:104E600010B54020FFF700FB10BD000000BF19483F
:104E70000088401C80B2174A1080B0F5004F02DB5A
:104E80004FF4805010801448016806E0088B114AE6
:104E90001288904200D1EAE7C9680029F6D10F488C
:104EA000016806E0088B0B4A1288904200D1DEE7C9
:104EB000C9680029F6D10A48016806E0088B054A4E
:104EC0001288904200D1D2E7C9680029F6D1014882
:104ED000008870477E0200207002002074020020CB
:104EE0006C0200200448006804490968084402492B
:104EF00008600846006870478002002064020020B5
:104F00002DE9F047044675480068A04202D1002010
:104F1000BDE8F087B4F85C00B4F85210884202DAB9
:104F2000B4F85C0001E0B4F852008146656F94F873
:104F3000220000F0020070B14DB129694868FEF707
:104F4000BBFFE16C401AA9890844484503D92046B3
:104F500000F09CFADCE7A66F26B100E03668306806
:104F60000028FBD18EE000BF29698889FEF7AAFFDF
:104F700000BFA06F70B194F8220000F0440048B95F
:104F8000606F48B1606F006820B9606F8089218FC1
:104F9000884201DB012000E0002028B994F82200BB
:104FA00000F0A00000B979E028686067207C022842
:104FB0000DD01020FEF716FC29698989084329695C
:104FC000888194F8220020F0030084F82200214612
:104FD000284600F085F829694868FEF76DFF074606
:104FE00029698889FEF76EFF00F0030008B10120EF
:104FF00000E00020A989084407EB0008A06DB0EB91
:10500000080001D5C4F8588029698889FEF75AFF3D
:1050100000F0030008B1012000E00020A989084445
:1050200000282BDD00202860A06F10B9A5672E4650
:1050300027E029694868FEF73FFF0746316948685D
:10504000FEF73AFF381A16D504F1780700E03F68FA
:10505000386860B1396809694868FEF72DFF8246F3
:1050600029694868FEF728FFBAEB0000EFD43868DA
:1050700028603D6005E03560366802E0284600F0B3
:10508000D8F9656F55B129694868FEF715FFE16CDD
:10509000401AA989084448457FF665AF00BFA5B10D
:1050A00094F89C0088B929694868FEF705FFE16C0F
:1050B000401AA9890844B4F85C10884205D9002038
:1050C000C4F89800012084F89C0094F8220020F095
:1050D000800084F8220000201AE70000A0020020CF
:1050E0002DE9FC4105460C46606AFEF76EFB296916
:1050F0008860608DFEF776FB2969C881618D606AE2
:105100000844E062286900F11408A87B00F001005F
:1051100030B12448FEF759FBC8F8000008F1040834
:105120000CB1206860B9201DFEF7AAFC06460EB936
:10513000BDE8FC81301D08B9002000E070682060E7
:10514000B4F93600401C08B90020E086E06B38B99D
:1051500015480068E06329694868FEF7ADFE2064E1
:10516000288A69688988401A87B268684089C01BA4
:105170006968488168680089C01B69680881696836
:10518000286948600020296908820621A07ACDE9B3
:105190000001E37A221D21466868FEF7D9FB00BFB3
:1051A000C6E70000B4050402640200202DE9F047C0
:1051B00005460F46164698467C68288BFEF712FB7C
:1051C0002080288CFEF70EFB6080C4F80480686A9B
:1051D000FEF7FBFAA0604FF6C070FEF703FBA18953
:1051E00000EA01091020FEF7FDFA49EA0009A4F8D7
:1051F0000C90688DFEF7F6FAE08100206082A089AD
:10520000FEF760FE00F03F01B146F01706EB90702C
:105210008010401D41EA00301FFA80FA5046FEF728
:10522000E1FAA08100202082698D686A0844E86262
:105230002046BDE8F08710B50446207CA8B1207C4C
:105240000A2812D0207C01280FD0E06F20B1E06F37
:10525000FEF786FF0020E067606F00F0FAF8A06FAD
:1052600000F0F7F800206067A06710BD70B5054634
:105270000C4600BF2868A04203D12868C068286097
:1052800017E01F49286808600EE01D480068C068E4
:10529000A04204D11A49E0680968C86008E01848CB
:1052A0000068C06816490860154800680028ECD1FD
:1052B00000BF0020E06000BF2046FFF7BCFF207C5D
:1052C0000A2810D0207C01280DD094F8220000F08C
:1052D000010040B194F8220040F0020084F822005E
:1052E0002046FFF70DFE207C012803D000BF00BF41
:1052F00000BF00BF0020207400BF00BF70BD0000D1
:1053000078020020C0F88C1080F835207047C0F873
:10531000841070472DE9F04107460D4614461E469D
:105320003CB12189284600F00CF82046FEF718FF12
:1053300005E026B92846FFF7F5F8BDE8F081002022
:10534000FBE770B504460E4600BF00BF208D304419
:105350002085208D40F66831884201DD0846208591
:10536000204600F0C5F8054640F2DA2085420ADB07
:1053700000BF94F8220040F0020084F8220020468A
:10538000FFF7BEFD00BF70BD2DE9FC5F81460E46F4
:1053900017469846DDF830A0002214210120FEF7C0
:1053A00097FD05460DB9BDE8FC9F00BF00BF6C68C6
:1053B0005046FEF717FA20800D98FEF713FA60802A
:1053C0004846FEF702FA60603046FEF7FEF9A0603C
:1053D0004FF6C070FEF706FAA18900EA010B14200F
:1053E000FEF700FA4BEA000BA4F80CB040F6683068
:1053F000FEF7F8F9E08100206082A089FEF762FDE7
:1054000000F03F0040F4A04B5846FEF7EBF9A081B6
:105410000020208206200021FF234246CDE9001013
:1054200039462846FEF794FA2846FEF799FE00BF53
:10543000B9E770B5044600254CB1606818B16068E2
:10544000FEF78EFE054621460420FEF709FD28469C
:1054500070BD70B50446002506E026682046FFF7BB
:10546000E8FF2844C5B23446002CF6D1284670BD6A
:105470007CB505460C460020012123460246CDE9B5
:10548000001001462846FFF7A5FA7CBD2DE9FC4136
:105490000446002606F1140100220120FEF718FD43
:1054A000054615B9B01EBDE8FC8194F8220020F035
:1054B000030084F82200A06DFEF787F9804643467A
:1054C000324629462046FFF771FE07460621A07A9C
:1054D000CDE90001E37A221D21462846FEF738FA7D
:1054E0002846FEF73DFE0020DDE7C0F8801070473B
:1054F00010B501460B8D486AC218088F40F2B454AB
:10550000CB6AA04201DD204600E0088F1844101A43
:1055100004D4088D4885C86A101A10BDCB6A486A41
:10552000C01A002802DD0020488503E0888D8B8C9E
:10553000C01A48850020F0E72DE9FC4104460F46DB
:1055400015461E46207C042808D0207C072805D05C
:10555000207C022802D0207C03280ED1002D0ADDF9
:10556000002003462A463946CDE900602046FFF771
:1055700031FABDE8FC810020FBE76FF00700F8E797
:105580002DE9F04106460F461D480078012834D128
:105590001C48006818B90020194908702DE0194806
:1055A0000068B0F5007F11D91748008884B24FF425
:1055B00000751548006800F500701349086011482F
:1055C0000068A0F500700F4908600FE00E480088E1
:1055D00084B20C48008885B20B4800680949096804
:1055E0000844094908600020064908600748021974
:1055F0002B4681213046FAF75FFF0020BDE8F0819D
:1056000054010020500100204C010020370D0020E3
:1056100070B504460D4605EB850104F55D7000EBA1
:10562000C100008B86B207483146026906489047A0
:105630004FF40073044A01212046FAF7E2FE0020ED
:1056400070BD000018000020370B002070B5044624
:105650000D4681212046FAF757FE01212046FAF730
:1056600053FE82212046FAF74FFE024948688047E0
:10567000002070BD1800002010B5044608480068DE
:10568000FF280AD007488368074808490268044889
:1056900000689847FF2002490860002010BD000004
:1056A00058010020180000205C010020400100206B
:1056B00070B505460E4602231A0281212846FAF7E4
:1056C0006CFE02231A0201212846FAF766FE032324
:1056D000082282212846FAF760FE084C0220207139
:1056E000002060710649086880474FF40073054A3E
:1056F00001212846FAF785FE002070BD48000020F1
:1057000018000020370B002010B504460748016838
:105710000068401C054A1060282905D10020114668
:1057200008602046FBF744FD002010BD1802002051
:105730002DE9F04105460C463A26334F207800F01B
:10574000600070B3202826D1E088D8B1207800F01E
:10575000800058B1E28860782C498B682C499847C2
:10576000E2882B492846FCF749FB11E0607829497B
:105770000860E08828490860E28825492846FCF747
:1057800014FB05E06078214900228B681146984798
:105790000020BDE8F08121462846FCF7F7FA0220F8
:1057A000F7E7FFE76078062804D00A2816D00B2810
:1057B00026D119E060882121B1EB202F08D1124FAA
:1057C0000937E0883A2801DD3A2000E0E088064603
:1057D000324639462846FCF711FB11E001220F49F9
:1057E0002846FCF70BFB0BE0A078012803DAA07831
:1057F0000A49086003E021462846FCF7C7FA00BFC3
:1058000000BF0020C5E7000099010020180000201B
:1058100040010020580100205C0100203C010020D4
:105820000000000001000000020000000300000072
:10583000524946466E4F0F0057415645666D7420DB
:10584000120000000100020080BB000000EE020018
:105850000400100000006661637404000000CFD3F0
:105860000300646174613C4F0F0000000000000001
:105870000000000000000000000000000000000028
:105880000000000000000000000000000000000018
:105890000000000000000000000000000000000008
:1058A00000000000000000000000000000000000F8
:10B9D0000000000000000000000000000100000066
:10B9E0000100000001000000010000000100000053
:10B9F0000100000001000000000000000000000045
:10BA00000000000000000000000000000000000036
:10BA10000000000000000000010000000100000024
:10BA2000010001000100010001000100010001000E
:10BA30000100000000000000000000000000000005
:10BA400000000000000000000000000000000000F6
:10BA500000000000000000000000000000000000E6
:10BA600000000000000000000000000000000000D6
:10BA700000000000000000000000000000000000C6
:10BA800000000000000000000000000000000000B6
:10BA900000000000000000000000000000000000A6
:10BAA0000000000000000000000000000000000096
:10BAB0000000000000000000000000000000000086
:10BAC0000000000000000000000000000000000076
:10BAD0000000000000000000000000000000000066
:10BAE0000000000000000000000000000000000056
:10BAF0000000000000000000000000000000000046
:10BB00000000000000000000000000000000000035
:10BB10000000000000000000000000000000000025
:10BB20000000000000000000000000000000000015
:10BB30000000000000000000000000000000000005
:10BB400000000000000000000000000000000000F5
:10BB500000000000000000000000000000000000E5
:10BB600000000000000000000000000000000000D5
:10BB700000000000000000000000000000000000C5
:10BB800000000000000000000000000000000000B5
:10BB900000000000000000000000000000000000A5
:10BBA0000000000000000000000000000000000095
:10BBB0000000000000000000000000000000000085
:10BBC0000000000000000000000000000000000075
:10BBD0000000000001000000010000000100000062
:10BBE0000000000000000000000000000000000055
:10BBF0000000000000000000000000000000000045
