:020000040800F2
:10000000480400209D0100088D03000885030008B6
:1000100089030008FD010008C10700080000000076
:1000200000000000000000000000000019060008A9
:100030000102000800000000090400084907000848
:10004000B7010008B7010008B7010008B7010008B0
:10005000B7010008B7010008B7010008B7010008A0
:10006000B7010008B7010008B7010008B701000890
:10007000B7010008B7010008B7010008B701000880
:10008000B7010008B7010008B7010008B701000870
:10009000B7010008B7010008B70100081D020008F9
:1000A000B7010008B7010008B7010008B701000850
:1000B000B7010008B7010008B7010008B701000840
:1000C000B7010008B7010008B7010008B701000830
:1000D000B7010008B7010008B7010008B701000820
:1000E000B7010008B7010008B7010008B701000810
:1000F000B7010008B7010008B7010008B701000800
:10010000B7010008B7010008B7010008B7010008EF
:10011000B7010008B7010008B7010008B7010008DF
:10012000B7010008B7010008B7010008B7010008CF
:10013000B7010008B7010008B7010008B7010008BF
:10014000B7010008B7010008B7010008B7010008AF
:10015000B7010008B7010008B7010008B70100089F
:10016000B7010008B7010008B7010008B70100088F
:10017000B7010008B7010008B7010008B70100087F
:10018000B7010008B7010008DFF80CD000F018F83C
:1001900000480047650800084804002006488047DA
:1001A00006480047FEE7FEE7FEE7FEE7FEE7FEE75C
:1001B000FEE7FEE7FEE7FEE75907000889010008B1
:1001C000064C074D06E0E06840F0010394E80700A4
:1001D00098471034AC42F6D3FFF7DAFF5C09000809
:1001E0007C09000810B5002000F06AF9012000F039
:1001F00067F90121022000F0B3F910BD00BFFEE74E
:100200007047000001B504490098086000BF02482B
:1002100000680028FBD108BD0000002010B54FF495
:10022000807000F011F830B14FF4807000F006F8E3
:10023000FF200149086010BD001000A001490860BE
:1002400070470000143C014001460020034A126838
:100250000A400AB1012000E000207047143C014030
:10026000002123498279002A3AD00A46126803689D
:100270009A430B461A600A1D126803689A430B1DC5
:100280001A60027911440A6803681A430A60184A1E
:100290000832126803689A43154B08331A601A1D16
:1002A000126803689A43124B0C331A604279102A81
:1002B0000ED11A1F126803681A430D4B08331A60D7
:1002C0001A1D126803681A43094B0C331A600DE0BB
:1002D0000749427911440A6803681A430A6005E035
:1002E000027911440A6803689A430A607047000063
:1002F000003C0140F0B50A4600210023002400BF65
:100300003DE0012505FA01F3156805EA03049C4266
:1003100034D105684F000326BE40B543056015790A
:100320004E00B5400668354305601579012D02D0B1
:100330001579022D16D185684F000326BE40B543BE
:10034000856055794E00B5408668354385604568BF
:1003500001268E40B5434560456896798E40B6B219
:1003600035434560C5684F000326BE40B543C560B0
:10037000D5794E00B540C6683543C560491C102983
:10038000BFD3F0BD00BFFEE700BFFEE7704700002F
:1003900070B5002100230F22C4781CB3174C2468C9
:1003A00004F4E064C4F5E064C4F30721C1F104047B
:1003B000E3B20A4144789C40E1B28478144021437E
:1003C0000C07210E0E4C05786155047804F01F05CA
:1003D0000124AC4005786D11AD0005F1E025C5F8AC
:1003E000004109E0047804F01F050124AC40054DEC
:1003F0000678761145F8264070BD00000CED00E04F
:1004000000E400E080E100E07047000029B1064A06
:1004100012680243044B1A6004E0034A12688243E4
:10042000014B1A60704700003038024029B1064A7B
:1004300012680243044B1A6004E0034A12688243C4
:10044000014B1A60704700004038024029B1064A4B
:1004500012680243044B1A6004E0034A12688243A4
:10046000014B1A607047000044380240034800689E
:1004700040F0807001490860704700007438024005
:1004800010B501460022002300204A11012A02D1A2
:100490000A4C236808E0022A03D1084C7034236810
:1004A00002E0064C7434236801F01F0201249440DA
:1004B0001C400CB1012000E0002010BD00380240BB
:1004C0001CB504460E4951F824000121FFF79EFF98
:1004D0000C4830F81400009001208DF80400002032
:1004E0008DF8060001208DF8070002208DF8050028
:1004F000054951F824006946FFF7FCFE1CBD0000C9
:10050000080900080009000804000020034931F828
:100510001010034A52F82020518370470009000848
:1005200004000020034931F81010034A52F820203B
:10053000118370470009000804000020064951F8A3
:1005400020104969054A32F810205140024A52F8F9
:1005500020205161704700000400002000090008BD
:1005600030B585B004460D46244951F824000121D8
:10057000FFF74CFF01218803FFF768FF00208DF88B
:1005800010008DF813001E4830F8140003901D4928
:1005900051F8240003A9FFF7ADFE012D2CD11A4A12
:1005A00012F81410194A12F8140000F037F818481D
:1005B00030F81400019000208DF808001CB10C20C8
:1005C0008DF8090002E008208DF8090001208DF85F
:1005D0000A0001A8FFF744FE0E4810F814008DF839
:1005E00000000F208DF801008DF8020001208DF829
:1005F00003006846FFF7CCFE05B030BD20090008B7
:100600001809000814000020380900083209000801
:100610002C0900083E0900087047000030B5002290
:100620008B071C0F0F2303FA04F20B4B8C1053F8AB
:1006300024309343084C8D1044F8253023468C1009
:1006400053F824308C07240F00FA04F42343024C9F
:100650008D1044F8253030BD083801400CB500201D
:10066000019000903448006840F4803032490860BE
:1006700000BF3148006800F4003000900198401C31
:100680000190009818B90198B0F5A04FF1D12A480F
:10069000006800F4003010B10120009001E000205B
:1006A00000900098012846D123484030006840F06F
:1006B00080502149403108602048006840F44040A3
:1006C0001E4908601C48083000681B490831086052
:1006D0000846006840F4004008600846006840F49E
:1006E000A05008601648091F0860081F006840F005
:1006F0008070091F086000BF0F48006800F000709C
:100700000028F9D040F205700E4908600A48083008
:10071000006820F0030008490831086008460068B6
:1007200040F00200086000BF03480830006800F095
:100730000C000828F8D10CBD0038024000700040C1
:1007400019544007003C024002480068401E01491D
:10075000086070470000002010B51548006840F49C
:100760007000134908601348006840F00100114907
:10077000086000200F49083108600E4800680E49E3
:1007800008400C4908600D48091D0860081F0068F2
:1007900020F48020091F0860002006490C31086001
:1007A000FFF75CFF4FF0006001498039086010BD21
:1007B00088ED00E000380240FFFFF6FE1030002414
:1007C00000BFFEE710B50121C802FFF72FFE4FF46E
:1007D000C07000F017F8502000F020F87F2000F0E3
:1007E00001F810BD40F08001014A1160704700001F
:1007F000002C004000F07F01014A116070470000AA
:10080000002C00400021044A126822F4C071014308
:10081000014A116070470000042C004008B5002117
:1008200000910749096821F07F01009100F07F01E4
:10083000009A11430091024A0099116008BD00001E
:10084000042C004002E008C8121F08C1002AFAD197
:1008500070477047002001E001C1121F002AFBD140
:1008600070470000FFF7BEFC7E20FFF709FE28B1AD
:100870000020FFF757FEFFF7F9FD02E00020FFF729
:1008800045FE1C4800684FF47A72B0FBF2F1481E36
:10089000B0F1807F01D301201BE0481E4FF0E02221
:1008A000506150170F22002804DB13071C0E124B57
:1008B0001C5406E013071D0E104B00F00F04241FFC
:1008C0001D5500BF00204FF0E0229061072010610D
:1008D000002008B100BFFEE7FFF774FF08E0012029
:1008E000FFF72CFE2820FFF78DFC7F20FFF782FF0B
:1008F000F5E700003000002000E400E018ED00E023
:100900008000000100020004200000002000000020
:100910002000000020000000010000200001000075
:1009200001000000040000000001000001000020A0
:10093000000100000200080000000D000800060091
:100940002800170010000000010000000100000056
:100950000002000409000A00070007007C090008E3
:10096000000000204400000044080008C0090008FE
:1009700044000020040400005408000800000000A7
:10098000001402400014024000140240001402400F
:100990000000024000080240002002400010014018
:1009A000000002400000024000000000007A030A3C
:1009B000000000000000000001020304060708090F
:040000050800018965
:00000001FF
