:020000040800F2
:10000000800400209D010008F5020008ED020008B0
:10001000F102000809020008610800080000000061
:1000200000000000000000000000000021040008A3
:100030000D02000800000000F7020008110500088A
:10004000B7010008B7010008B7010008B7010008B0
:10005000B7010008B7010008B7010008B7010008A0
:10006000B7010008B7010008B7010008B701000890
:10007000B7010008B7010008B7010008B701000880
:10008000B7010008B7010008B7010008B701000870
:10009000B7010008B7010008B7010008B701000860
:1000A000B7010008B7010008B7010008B701000850
:1000B000B7010008B7010008B7010008B701000840
:1000C000B7010008B7010008B7010008B701000830
:1000D000B7010008B7010008B70100087D05000856
:1000E000B7010008B7010008B7010008B701000810
:1000F000B7010008B7010008B7010008B701000800
:10010000B7010008B7010008B7010008B7010008EF
:10011000B7010008B7010008B7010008B7010008DF
:10012000B7010008B7010008B7010008B7010008CF
:10013000B7010008B7010008B7010008B7010008BF
:10014000B7010008B7010008B7010008B7010008AF
:10015000B7010008B7010008B7010008B70100089F
:10016000B7010008B7010008B7010008B70100088F
:10017000B7010008B7010008B7010008B70100087F
:10018000B7010008B7010008DFF80CD000F02AF82A
:1001900000480047B1080008800400200648804756
:1001A00006480047FEE7FEE7FEE7FEE7FEE7FEE75C
:1001B000FEE7FEE7FEE7FEE71505000889010008F7
:1001C000D2B201E000F8012B491EFBD27047002299
:1001D000F6E710B513460A4604461946FFF7F0FF46
:1001E000204610BD064C074D06E0E06840F00103D4
:1001F00094E8070098471034AC42F6D3FFF7C8FFE5
:10020000000900082009000800BFFEE77047F0B5AC
:100210000A4600210023002400BF3DE0012505FA25
:1002200001F3156805EA03049C4234D105684F00C8
:100230000326BE40B543056015794E00B5400668FB
:10024000354305601579012D02D01579022D16D19F
:1002500085684F000326BE40B543856055794E0042
:10026000B540866835438560456801268E40B543B4
:100270004560456896798E40B6B235434560C5689D
:100280004F000326BE40B543C560D5794E00B5404A
:10029000C6683543C560491C1029BFD3F0BDF0B511
:1002A000002300244D07ED0E02FA05F3CE1000F1F5
:1002B000200555F826504E07F70E0F26BE40B543D1
:1002C000CF1000F1200646F82750CE1000F120058F
:1002D00055F8265045EA0304CE1000F1200545F8F4
:1002E0002640F0BD42694A404261704700BFFEE7C8
:1002F00000BFFEE77047704729B1064A1268024303
:10030000044B1A6004E0034A12688243014B1A60EE
:10031000704700003038024029B1064A1268024393
:10032000044B1A6004E0034A12688243014B1A60CE
:100330007047000040380240F0B500210022002440
:10034000022500260223324F3F6807F00C0121B13D
:10035000042905D0082937D105E02E4F076036E083
:100360002D4F076033E02A4F3F1F3F68C7F3805689
:10037000274F3F1F3F6807F03F036EB1264FB7FB83
:10038000F3F7DFF88CC0ACF1040CDCF800C0CCF360
:10039000881C07FB0CF40CE01E4FB7FBF3F7DFF8EB
:1003A00070C0ACF1040CDCF800C0CCF3881C07FB77
:1003B0000CF4174F3F1F3F68C7F301477F1C7D00B8
:1003C000B4FBF5F7076002E0124F076000BF00BF03
:1003D0000F4F3F6807F0F0010909104F7A5C07687A
:1003E000D74047600A4F3F6807F4E051890A0B4F36
:1003F0007A5C4768D7408760054F3F6807F46041E3
:10040000490B064F7A5C4768D740C760F0BD0000D3
:10041000083802400024F40040787D010C000020E0
:10042000704700000CB5002001900090344800682F
:1004300040F480303249086000BF3148006800F461
:10044000003000900198401C0190009818B9019864
:10045000B0F5A04FF1D12A48006800F4003010B187
:100460000120009001E0002000900098012846D172
:1004700023484030006840F08050214940310860F6
:100480002048006840F440401E4908601C4808307D
:1004900000681B49083108600846006840F40040C5
:1004A00008600846006840F4A05008601648091F1C
:1004B0000860081F006840F08070091F086000BFD6
:1004C0000F48006800F000700028F9D040F2057075
:1004D0000E4908600A480830006820F00300084907
:1004E000083108600846006840F00200086000BF5C
:1004F00003480830006800F00C000828F8D10CBD53
:10050000003802400070004019544007003C02408F
:100510007047000010B51548006840F4700013499A
:1005200008601348006840F001001149086000208D
:100530000F49083108600E4800680E4908400C4910
:1005400008600D48091D0860081F006820F480201D
:10055000091F0860002006490C310860FFF762FFA0
:100560004FF0006001498039086010BD88ED00E05F
:1005700000380240FFFFF6FE1030002410B540F2B4
:100580002551164800F049F838B31548006863282B
:1005900006D364211348FFF71AFE002010490860B3
:1005A0000E4800F0F3F8C1B20D4802680068401C24
:1005B0000B4B18600B48815418460068401E0949CF
:1005C000085C0A2809D1084600F04CF96421054866
:1005D000FFF7FDFD00200249086010BD0048004003
:1005E000080000201C00002021B1828942F4005242
:1005F000828104E082894DF6FF731A408281704740
:1006000002460020B1F5007F00D100BF13880B40E7
:100610000BB1012000E00020704770B502460024B5
:1006200000230025002040F66A16B14200D100BF29
:10063000C1F3421501F01F03012606FA03F3012D51
:1006400002D19689334006E0022D02D1168A33404A
:1006500001E0968A33400C12012606FA04F416884B
:10066000344013B10CB1012000E0002070BDF0B5A2
:100670000346002400260025002040F66A17B942F0
:1006800000D100BF1846C1F3421401F01F06012734
:1006900007FA06F5012C01D10C3004E0022C01D13F
:1006A000103000E014301AB107682F43076002E0F1
:1006B0000768AF430760F0BD2DE9FF4705460E46CA
:1006C0000024A14600BFA046B08900B100BF2C8A1B
:1006D00024F44054F08804432C82AC8941F20C602D
:1006E0008443B08831890843718908430443AC814D
:1006F000AC8A24F44074B0890443AC826846FFF7A6
:100700001BFE2048854202D01F48854202D1DDF8F9
:100710000C9001E0DDF80890A88900F4004040B199
:1007200009EBC90000EB091031684900B0FBF1F793
:1007300007E009EBC90000EB091031688900B0FB44
:10074000F1F76420B7FBF0F004012009642101FBFC
:100750001078A88900F4004040B1322000EBC800B6
:10076000B0FBF1F000F00700044308E0322000EB9A
:1007700008106421B0FBF1F000F00F0004432C815D
:10078000BDE8FF8700100140001401400146888841
:10079000C0F308007047C1F3080282807047000070
:1007A00000B587B001210220FFF7A6FD01218804D2
:1007B000FFF7B2FD07220A212748FFF770FD072245
:1007C0000B212548FFF76BFD00208DF80A00012062
:1007D0008DF80B0002208DF80800400201900320E4
:1007E0008DF8090001A91C48FFF711FD02208DF8C2
:1007F00008008002019001A91748FFF708FD4FF497
:10080000165003900020ADF81000ADF81200ADF8BE
:100810001400ADF818000C20ADF8160003A90F481D
:10082000FFF74AFF01210D48FFF7DEFE012240F2EB
:1008300025510A48FFF71BFF2720002809DB00F09D
:100840001F02012191404209920002F1E022C2F808
:10085000001100BF07B000BD000402400048004086
:1008600000BFFEE710B504460BE014F8011B074873
:10087000FFF791FF00BF40210448FFF7C1FE0028A9
:10088000F9D020780028F0D110BD000000480040C9
:1008900002E008C8121F08C1002AFAD17047704749
:1008A000002001E001C1121F002AFBD170470000A7
:1008B000FFF776FF01212020FFF71EFD4FF4C070E7
:1008C0000C490860012008710020887103204871DC
:1008D0000020C8710848FFF79AFC09E0802106480B
:1008E000FFF700FD002400E0641C04488442FBDBA9
:1008F000F4E70000000000200014024080C3C9019A
:1009000020090008000000201C00000090080008DA
:100910003C0900081C00002064040000A008000836
:1009200000000000000000000000000000000000C7
:0C09300001020304010203040607080989
:040000050800018965
:00000001FF
