:020000040800F2
:10000000880F0020F1460008AD030008AF03000888
:10001000B1030008B3030008B503000800000000A6
:10002000000000000000000000000000B70300080E
:10003000B903000800000000BB030008BD0300086E
:100040000B4700080B4700080B4700080B47000848
:100050000B4700080B4700080B4700080B47000838
:100060000B4700080B4700080B4700080B47000828
:100070000B4700080B4700080B4700081114000845
:100080000B4700080B4700080B4700080B47000808
:100090000B4700080B4700080B4700080B470008F8
:1000A0000B4700080B4700080B4700080B470008E8
:1000B0000B4700080B4700080B4700080B470008D8
:1000C0000B4700080B4700080B4700080B470008C8
:1000D0000B470008CB0300080B470008C9050008C0
:1000E0000B4700080B4700080B4700080B470008A8
:1000F0000B4700080B4700080B4700080B47000898
:100100000B4700080B4700080B4700080B47000887
:100110000B4700080B4700080B4700080B47000877
:100120000B4700080B4700080B4700080B47000867
:100130000B4700080B4700080B4700080B47000857
:100140000B4700080B4700080B4700080B47000847
:100150000B4700080B4700080B4700080B47000837
:100160000B4700080B4700080B4700080B47000827
:100170000B4700080B4700080B4700080B47000817
:100180000B4700080B470008DFF80CD004F06EFBAB
:1001900000480047AD010008880F002001B5634802
:1001A0000099416041680029FCD108BD88B004A8CD
:1001B00003F024FB05986421B0FBF1F0401E0024FD
:1001C000B0F1807F08D24FF0E0214861584AF0201A
:1001D00010708C61072008610121402003F0B3FBFF
:1001E000012003F09EFC002000F010FA012000F036
:1001F0000DFA022000F00AFA032000F007FA0021AD
:10020000084600F03FFA0021012000F03BFA0021EF
:10021000022000F037FA4FF4E1300090ADF80440CE
:10022000ADF80640ADF80840ADF80C400C20ADF834
:100230000A006946002000F081FA01F055FB002019
:1002400001F00BFE002001F081FD4FF6FF74204607
:1002500001F075FD40F21F5001F0FFFD204601F056
:1002600075FD1F2001F06BFD01F077FD31A100202D
:1002700001F006FE01F071FDC08834A101F000FE1E
:1002800001F06BFDC08837A104EA400001F0F8FDE1
:10029000002000F0DAF9012000F0D7F9022000F088
:1002A000D4F9032000F0D1F9002000F0E0F90A2091
:1002B000FFF774FF012000F0DAF90A20FFF76EFF64
:1002C000022000F0D4F90A20FFF768FF032000F0B5
:1002D000CEF90A20FFF762FFE6E7144841680029DB
:1002E00002D04168491E41607047104801680A31D8
:1002F00001607047704770474FF4784001F026FD69
:1003000001F02BFDC0884FF6FF7101EAC0001BA170
:1003100001F0B6FDFEE701F020FDC0884FF6FF7149
:1003200001EAC0001BA101F0ABFDFEE700000020C8
:1003300023ED00E02020202053544D33324634304A
:1003400037787820202020200000000020446576A7
:100350006963652072756E6E696E67206F6E20200E
:10036000000000002020202053544D333246342D0D
:100370004556422020202020000000002020202080
:1003800020444D4120204552524F52202020202011
:10039000000000002020434F4445432049324320C1
:1003A000204552524F522020000000007047FEE7C7
:1003B000FEE7FEE7FEE770477047704710B5FFF7AE
:1003C0008CFFBDE81040FFF790BF10B5054C2046EC
:1003D00003F0E3FF00F07F012046BDE8104003F08A
:1003E000D8BF00000010014038B583484FF4E13118
:1003F000016000248480C4804FF4C0610181848145
:100400000C2141810146002000F098F9012240F2C0
:1004100025517A4804F044F825208DF800008DF825
:1004200001408DF8024001208DF80300684602F07B
:1004300022F9002038BD0020704770B50C2400223E
:100440006D494FF4C06500280BD06D4B1879D8B1B9
:1004500001281BD002281DD00020FFF7EEFF02204C
:1004600070BD4FF4E13008608A80CA800D818A81B6
:100470004C816149002000F061F9012240F22551D0
:100480005E4804F00DF835E0CA8006E04FF44050B5
:10049000C88002E04FF40050C880587940B101286C
:1004A00008D002280AD00020FFF7C7FF022070BD45
:1004B0000A8104E04FF48060088100E00D819879A2
:1004C000072806D0082806D00020FFF7B6FF022034
:1004D00070BD8A8006E0088918B14FF4805088808A
:1004E00000E08A80186808608A814C8142490020B7
:1004F00000F024F9002070BD10B504282BDD404A1F
:10050000202802D0212826D114E008784B78CC7816
:1005100040EA03208B781B0443EA0463184310600D
:100520000879107148795071887990710120FFF72E
:1005300084FF10E0107808701088000A4870106876
:10054000000C88701068000EC8701079087150791E
:10055000487190798871002010BD70B52848294DE8
:10056000294C81792548072902D0082907D00AE0BB
:1005700003F013FF216800F07F00685403E003F0EC
:100580000CFF216868542068401C2060B0F5006FA3
:1005900001D100202060002070BD2DE9F04105460A
:1005A0000E460024154F0AE0295D384603F0F1FE9F
:1005B0008021384603F08FFF0028F9D0641CB44234
:1005C000F2D30020BDE8F08110B50C4C40F225516B
:1005D000204603F08BFF18B100210846FFF7BDFF4E
:1005E0000821204603F077FF002804D02046BDE80C
:1005F000104003F0D2BE10BD3801002000100140B1
:100600000800002084030020900000201CB5044650
:10061000FE48012150F8240003F089F9FB480A380C
:1006200030F81400009001208DF8040000218DF8AE
:1006300006108DF8070002208DF80500F448694681
:1006400050F8240002F070FD1CBDF049F04A0A3950
:1006500031F8101052F8200001837047EB49EC4A42
:100660000A3931F8101052F8200041837047E849E8
:1006700051F820104A69E54B0A3B33F8100042401C
:100680004A61704770B586B004460E46DF480121C6
:10069000103050F8240003F04AF90121880303F0D8
:1006A00076F900258DF814508DF81750D748283862
:1006B00030F814000490D64804A9103050F82400F3
:1006C00002F032FD012E2DD1D048163810F814104A
:1006D000801F10F8140003F01DFDCC48223830F8BC
:1006E000140002908DF80C501CB10C208DF80D00F8
:1006F00002E008208DF80D0001258DF80E5002A8AB
:1007000002F0C2F9C148103810F814008DF8040046
:100710000F208DF805008DF806008DF8075001A810
:1007200001F0A9FF06B070BDB849B94A28391032A6
:1007300031F8101052F8200002F04ABD2DE9FE43B6
:100740000446884625208DF8000000258DF80150CC
:100750008DF8025001268DF80360684601F08BFF8A
:10076000AA48AA4930382C3950F8240051F82410EE
:100770000843012103F0DBF8A4480121343850F884
:10078000240003F004F9A148A14F3838083F10F8BD
:100790001420001F30F8141057F8240002F03CFD1C
:1007A0009A4807F10409363810F81420001F30F871
:1007B000141059F8240002F02FFD8DF80A508DF81E
:1007C0000B6002258DF808509048403830F814002E
:1007D00001908DF8095057F8240001A902F0A4FCFB
:1007E0008DF8085089483E3830F81400019059F8C7
:1007F000240001A902F098FC3D1F414655F8240051
:1008000003F022FD55F82400012103F096FD01229A
:1008100040F225517F4803F043FEBDE8FE837CB5DE
:10082000002003F0E5F9002003F0E5F903F0B8F942
:1008300000214FF4006003F0AAF8774C0022082151
:10084000204602F0E9FC00220921204602F0E4FCE7
:1008500000220A21204602F0DFFC00220B21204664
:1008600002F0DAFC00220C21204602F0D5FC6B4D90
:1008700000220221284602F0CFFC4FF47061009163
:1008800000218DF804108DF807106946204602F00B
:100890004BFC042100916946284602F045FCA11456
:1008A00000916946204602F03FFC7CBD2DE9FC41E9
:1008B00001212C2003F03BF8574D0C22082128463B
:1008C00002F0AAFC0C220921284602F0A5FC0C2209
:1008D0000A21284602F0A0FC0C220B21284602F037
:1008E0009BFC0C221146284602F096FC4B4F0C2232
:1008F0000221384602F090FC4FF470600090022113
:100900008DF805108DF8041000248DF8064001269E
:100910008DF807606946284602F006FC0420009026
:100920006946384602F000FCA81400908DF8074094
:100930006946284602F0F8FBED1400958DF8044056
:100940008DF807606946364802F0EEFB0121284623
:1009500003F01DF80121880502F0E9FFBDE8FC81E4
:1009600070B590B004460D462E4E4FF0FA51304609
:1009700002F00DF80021304601F09AFF304601F0F8
:10098000D3FE4FF00060019027480290039440206E
:100990000490059500200690311507918900089173
:1009A000890009910A904FF440300B9004200C907C
:1009B00003200D9048020E9080100F9001A9304640
:1009C00001F03DFF01221021304601F0F1FF20210E
:1009D000304601F085FF0121304601F069FF10B07B
:1009E00070BD70B590B005460C460E4E4FF0FA51F2
:1009F000304601F0CCFF0021304601F059FF30466F
:100A000001F092FE4FF0006001900FE08449000871
:100A10001C0000200010014000080240000C0240B1
:100A20000014024058640240802C01404448029067
:100A300003950020049005940690311507918900D4
:100A40000891890009910A904FF440300B900420DE
:100A50000C9003200D9048020E9080100F9001A979
:100A6000304601F0ECFE01221021304601F0A0FFDB
:100A70002021304601F034FF0121304601F018FFFB
:100A8000ADE71CB52F4C0021204602F07EFC20462D
:100A900002F0E8FB00214FF4001002F06CFF402050
:100AA000009000208DF804008DF80700264C694660
:100AB000204602F039FB611500916946204602F09C
:100AC00033FB1CBD1CB501214C05204602F053FF31
:100AD0000121022002F02BFF0121880302F057FFC1
:100AE0000121204602F083FF0021204602F07FFF13
:100AF00014480088C00721D1134C04220621204647
:100B000002F08AFB04220921204602F085FB4021E5
:100B1000009102218DF804108DF8051001218DF847
:100B2000061000218DF807106946204602F0FCFAF5
:100B3000611500916946204602F0F6FA1CBD0000DE
:100B4000802C0140005400400004024038B50121CF
:100B5000480502F0ECFEFF4D0021284601F0A8FEFA
:100B6000284601F0E1FDFC4900240C60FB48486088
:100B70008C604020C8604FF6FE7008614C612815FB
:100B800088614000C861800008624C620001886290
:100B90000420C862032008634C638C63284601F07C
:100BA0004EFE01221021284601F002FFEB480122EF
:100BB00002210C3803F04DFA0F208DF800008DF85B
:100BC00001408DF8024001208DF80300684601F0D5
:100BD00052FD38BD7FB504460121880302F0CBFEEB
:100BE000DE4D0C3D284603F0B9F802940020ADF824
:100BF0000200ADF80400ADF80C006815ADF8000077
:100C0000ADF806006946284603F01AF97FBD2DE9C4
:100C1000F0470746D24C4FF49610E0604FF4003591
:100C2000DFF8408307E0E168481EE06003D2BDE8DA
:100C3000F047FFF770BB2946404602F0C8FC002889
:100C4000F1D10121404602F0C0FB4FF48055E56030
:100C5000C54E07E0E168481EE06003D2BDE8F047FA
:100C6000FFF759BB3146404602F09EFC0028F1D008
:100C7000C14600229421484602F0BFFBE560DFF840
:100C8000EC8207E0E168481EE06003D2BDE8F0476F
:100C9000FFF741BB4146484602F086FC0028F1D0F0
:100CA000C8463946404602F028FCE560B04F07E0F0
:100CB000E168481EE06003D2BDE8F047FFF72BBBB8
:100CC0003946404602F083FC0028F1D0012140461D
:100CD00002F07BFBE56007E0E268501EE06003D2B3
:100CE000BDE8F047FFF717BB3146404602F05CFC19
:100CF0000028F1D001229421404602F07EFBE560FD
:100D00009B4EB61E07E0E268501EE06003D2BDE8CD
:100D1000F047FFF700BB3146404602F058FC002880
:100D2000F1D00021404602F071FB8E49183108884D
:100D30000121404602F055FBE5608D4E3C3607E050
:100D4000E268521EE26003D2BDE8F047FFF7E3BA63
:100D50003146404602F03BFC0028F1D0404602F00C
:100D6000CEFB0646E56007E0E1684A1EE26003D27A
:100D7000BDE8F047FFF7CFBAB8F800008005F3D41C
:100D80000121404602F042FB7A49404602F038FC1D
:100D90003046BDE8F0872DE9F04706460D46704C19
:100DA0004FF49617E7604FF40038DFF8B8A107E07A
:100DB000E168481EE06003D2BDE8F047FFF7ABBA38
:100DC0004146504602F003FC0028F1D10121504673
:100DD00002F0FBFA4FF48058C4F80C80DFF88891D9
:100DE00007E0E168481EE06003D2BDE8F047FFF786
:100DF00092BA4946504602F0D7FB0028F1D00022B3
:100E00009421504602F0F9FAC4F80C80DFF85C91A6
:100E100007E0E168481EE06003D2BDE8F047FFF755
:100E20007ABA4946504602F0BFFB0028F1D031465D
:100E3000504602F062FBC4F80C80DFF83081A8F164
:100E4000020807E0E168481EE06003D2BDE8F04711
:100E5000FFF761BA4146504602F0A6FB0028F1D0E8
:100E60002946504602F049FBE760414F05E0E16842
:100E7000491EE16001D2FFF74EFA3946504602F0B2
:100E8000A6FB0028F3D00121504602F0AAFA304612
:100E9000FFF7BDFEA84201D001207AE7002078E7E5
:100EA00070B5E6280CD9A0F1E704E1B22020FFF7E5
:100EB00072FF0546E1B22120FFF76DFF284470BDA7
:100EC00000F11904E1B22020FFF765FF0546E1B209
:100ED0002120FFF760FF284470BD1FB501214805A0
:100EE00002F049FD1F4C2188C8071CD0204602F0A3
:100EF000B9F90021ADF804104BF6FF71ADF80610FA
:100F00003321ADF808102115ADF80A100901ADF82C
:100F10000C10194900910121204602F036FA694669
:100F2000204602F0CBF91FBD70477CB501214FF47C
:100F3000837002F0FCFC0B4800884FF00005C007EE
:100F40004FF0020430D14FF4107000908DF804403F
:100F500014E0000070600240480100200C3800409E
:100F60003800002000540040010003008200070008
:100F70000400001000040010A08601008DF8054058
:100F800001208DF806008DF80750FC4E694630466A
:100F900002F0CAF804220621304602F03DF904228C
:100FA0000921304602F038F90B2000908DF80440FA
:100FB0008DF805408DF806508DF80750F04E6946C3
:100FC000304602F0B1F805220021304602F024F943
:100FD00005220121304602F01FF905220321304687
:100FE00002F01AF9402000908DF804408DF8054079
:100FF0008DF806508DF80750E24C6946204602F005
:1010000093F805220621204602F006F97CBD2DE961
:10101000F04705460F469046FFF787FFFFF784FF2E
:10102000FFF75BFF0120FFF7F2FDD74EC1087161AA
:1010300000F00700B06101210220FFF7ACFE04467A
:10104000012D54D0022D5AD0032D60D04FF0050948
:10105000042D64D005210420FFF79DFE044486F88A
:10106000009081210520FFF796FE0444042106200C
:10107000FFF791FE04443846FFF712FF022D0ED011
:1010800006210F20FFF787FE044400212420FFF7EC
:1010900082FE044400212520FFF77DFE04449E21AA
:1010A0000220FFF778FE044400210A20FFF773FEB8
:1010B000044404210E20FFF76EFE04440021272083
:1010C000FFF769FE04440F211F20FFF764FE04446C
:1010D0000A211A20FFF75FFE04440A211B20FFF7B4
:1010E0005AFE04444046FFF775FD204651E6FA21BA
:1010F0000420FFF750FE0444FA203070B1E7AF211E
:101100000420FFF748FE0444AF203070A9E7AA216D
:101110000420FFF740FE0444AA203070A1E7052117
:101120000420FFF738FE044486F8009099E710B5D4
:10113000642901D9642105E0C1EB01216423B1FBDD
:10114000F3F1C9B2FFF763FF08B1012010BDFFF74B
:10115000FDFC002010BD10B58C4C0021204602F093
:10116000F7FE204602F0FAFD00212014BDE81040F1
:1011700002F001BC70471CB50B20009000200190CC
:101180007F4C6946204601F0CFFF00220121204616
:1011900002F042F800220221204602F03DF800222F
:1011A0000821204602F038F840200090754C69462E
:1011B000204601F0B9FF05220621204602F02CF856
:1011C0001CBD10B5FFF7B0FE01210220FFF7E3FDC3
:1011D0000446FFF7D0FFFFF7CDFFFFF7BCFF204627
:1011E00010BD38B50F208DF8000000208DF80100EB
:1011F0008DF802008DF80300684601F03CFA644C5B
:101200000021204601F054FB204601F08DFA38BD44
:1012100010B5FFF7E6FFFFF7D4FF002010BD10B5B3
:101220005C4A906011615A4C1146204601F007FB60
:101230000121204601F03CFB54481C300088400549
:1012400005D4BDE810400121504802F081BE10BD18
:10125000002070472DE9F04106460F464A4D7808B8
:101260006860FFF7F5FF69684FF6FF74B1F5003F5E
:1012700001D2490800E021463046FFF7D0FF6968F7
:101280004FF48032914201D2084600E02046C0EB84
:101290005700A860914200D3214606EB4100286127
:1012A0000020BDE8F08170B5394C384B002814D0CF
:1012B0001D4601220221284602F0CBFE01212046D4
:1012C00001F0F6FA31481C300088400510D4284659
:1012D000BDE87040012102F03BBE00220221184609
:1012E00002F0B7FE2046BDE87040002101F0E0BAF0
:1012F00070BD012803D02448017804204BE5FF216C
:10130000042048E510B500280FD00020FFF7F1FFBA
:1013100004461D4801780420FFF73DFD04449E214A
:101320000220FFF738FD204410BD0120FFF7E1FF48
:10133000044601210220FFF72EFD204410BD10B508
:1013400004462046FFF7DEFF08B1012010BD002152
:101350002046FFF7A8FF002010BD10B50C4C00215F
:10136000204601F0A5FA0C49204601F010FBBDE82B
:1013700010400021054802F0EBBD000000040240CF
:1013800000200240000802403800002000380040E1
:1013900070600240480100203900002001B502E0E1
:1013A0000098401E009000980028F9D108BD10B5A3
:1013B00004460120FFF79DFF022C0AD09F21022046
:1013C000FFF7E9FC044640F6FF70FFF7E7FF204611
:1013D00010BD9F210220FFF7DEFC0446F7E710B5A1
:1013E000FFF7E5FF08B1012010BDFFF7B6FF444845
:1013F00041688160002010BD642801D9642005E0A7
:10140000C0EB00206421B0FBF1F0C0B248E570E70A
:101410002DE9F0413B4C3C4F2146384601F0A2FA01
:1014200000282DD0364DA86858B3384601F08FFA01
:101430000028FAD12146384601F0A9FA3348296933
:1014400081604FF48036A968741EB14200D32146F2
:1014500001612E49384601F0F2F90121384601F0C8
:1014600027FAA868B04201D2014600E021462A6965
:1014700002EB41012961B04200D20446001BA86082
:101480000FE70021384601F013FA2146384601F0F3
:101490007EFA2869BDE8F0410021FEF72BBF70B548
:1014A000174C01280DD0022813D0032819D0052588
:1014B00004281ED005210420FFF76DFCC0B2257062
:1014C00070BDFA210420FFF766FCC0B2FA2121703A
:1014D00070BDAF210420FFF75EFCC0B2AF212170C8
:1014E00070BDAA210420FFF756FCC0B2AA212170CA
:1014F00070BD05210420FFF74EFCC0B2257070BD01
:1015000038000020200000207060024048010020C8
:101510004FF0D04210805180704700210720F7E73C
:101520007CB5FFF7FAFF0121042001F0BDFB042088
:1015300001F00CFB4CF20370009000208DF80400C9
:101540008DF80700FE4D6946284601F0EDFD0022AA
:101550001146284601F060FE00220121284601F0D4
:101560005BFE00220821284601F056FE00220921D8
:10157000284601F051FE00220A21284601F04CFEC7
:1015800000220E21284601F047FE00220F212846A6
:1015900001F042FE4FF680700090EA4C694620460A
:1015A00001F0C2FD00220721204601F035FE002295
:1015B0000821204601F030FE00220921204601F0DA
:1015C0002BFE00220A21204601F026FE00220B21DC
:1015D000204601F021FE00220C21204601F01CFED5
:1015E00000220D21204601F017FE00220E21204688
:1015F00001F012FE00220F21204601F00DFE4FF2F5
:101600003F010091D04E6946304601F08DFD002229
:101610001146304601F000FE00220121304601F063
:10162000FBFD00220221304601F0F6FD00220321DD
:10163000304601F0F1FD00220421304601F0ECFDBE
:1016400000220521304601F0E7FD00220C21304642
:1016500001F0E2FD00220D21304601F0DDFD002207
:101660000E21304601F0D8FD00220F21304601F056
:10167000D3FD3F210091B54E6946304601F054FD3F
:1016800000221146304601F0C7FD002201213046FC
:1016900001F0C2FD00220221304601F0BDFD002212
:1016A0000321304601F0B8FD00220421304601F04C
:1016B000B3FD00220521304601F0AEFD4FF460512C
:1016C00000916946284601F02FFD00220B21284693
:1016D00001F0A2FD00220C21284601F09DFD002210
:1016E0000D21284601F098FD3021009169462846D9
:1016F00001F01AFD00220421284601F08DFD002290
:101700000521284601F088FD2115009169463046E3
:1017100001F00AFD00220C21304601F07DFD03217D
:1017200000916946204601F0FFFC00221146204648
:1017300001F072FD00220121204601F06DFD7CBD0B
:1017400083494860704701B581B082490198484398
:10175000009002E00098401E009000980028F9D107
:101760000CBD4FF0D04108804888704700B597B055
:101770000121084602F0F3F80520019000200290B4
:101780000921039104900590069007900421089187
:1017900009900A9010210B910C900D900E900F90D3
:1017A00010900902119112901390149001A81590B5
:1017B000169008A801F0E2F90121042001F074FA62
:1017C00017B000BD1CB50121782002F0B0F84CF232
:1017D0003370009002208DF804008DF80500002081
:1017E0008DF806008DF80700554C6946204601F03B
:1017F0009BFC0C220021204601F00EFD0C22012151
:10180000204601F009FD0C220421204601F004FDD0
:101810000C220521204601F0FFFC0C220821204665
:1018200001F0FAFC0C220921204601F0F5FC0C2203
:101830000A21204601F0F0FC0C220E21204601F086
:10184000EBFC0C220F21204601F0E6FC4FF68070E5
:1018500000903C4C6946204601F066FC0C220721B2
:10186000204601F0D9FC0C220821204601F0D4FCCE
:101870000C220921204601F0CFFC0C220A2120462F
:1018800001F0CAFC0C220B21204601F0C5FC0C2201
:101890001146204601F0C0FC0C220D21204601F02B
:1018A000BBFC0C220E21204601F0B6FC0C220F21BD
:1018B000204601F0B1FC01200090234C69462046EF
:1018C00001F032FC0C220021204601F0A5FC20157D
:1018D00000901E4C6946204601F026FC0C220A218D
:1018E000204601F099FC1CBD2DE9F84F0020009026
:1018F000FFF768FFFFF73AFF0520FFF724FF0020FE
:10190000FFF72FFF0090009840F23716B71CA0F5A4
:1019100013414FF480734FF4E06A40F2022B41F21E
:10192000B0754FF4E85840F2023941F218042039FA
:1019300012D00098A0F5134125397CD0EAE10000CF
:10194000000C024000100240001402400018024047
:1019500054000020A08601004FF40041E520FFF76D
:10196000D7FD01210020FFF7D3FD19460120FFF725
:10197000CFFD51460220FFF7CBFD41F2300103209D
:10198000FFF7C6FD00210420FFF7C2FD59460820DD
:10199000FFF7BEFD00210920FFF7BAFD00210A2054
:1019A000FFF7B6FD00210C20FFF7B2FD00210D204E
:1019B000FFF7AEFD00210F20FFF7AAFD0021102048
:1019C000FFF7A6FD00211120FFF7A2FD0021122044
:1019D000FFF79EFD00211320FFF79AFD1420FFF76B
:1019E000B2FE29461020FFF793FD31461120FFF784
:1019F0008FFD0520FFF7A7FE39461220FFF788FD6F
:101A00000520FFF7A0FE41461320FFF781FD1321BB
:101A10002920FFF77DFD0520FFF795FE00212020FE
:101A2000FFF776FD00212120FFF772FD062130200F
:101A3000FFF76EFD00E082E040F201113120FFF778
:101A400067FD03213220FFF763FD4FF483713520DA
:101A5000FFF75EFD40F602313620FFF759FD49469B
:101A60003720FFF755FD40F207713820FFF750FD92
:101A700007213920FFF74CFD4FF4C0613C20FFF7F0
:101A800047FD40F20B213D20FFF742FD0021502091
:101A9000FFF73EFDEF215120FFF73AFD00215220D4
:101AA000FFF736FD40F23F115320FFF731FD4FF4B1
:101AB0001C516020FFF72CFD01216120FFF728FD5C
:101AC00000216A20FFF724FD00218020FFF720FD80
:101AD00000218120FFF71CFD00218220FFF718FD67
:101AE00000218320FFF714FD00218420FFF710FD63
:101AF00000218520FFF70CFD10219020FFF708FD45
:101B000000219220FFF704FD03219320FFF700FD41
:101B10004FF488719520FFF7FBFC00219720FFF719
:101B2000F7FC00219820FFF7F3FC21460320FFF784
:101B3000EFFC40F273110720FFF7EAFCEAE0012115
:101B40000020FFF7E5FC19460120FFF7E1FC5146B4
:101B50000220FFF7DDFC21460320FFF7D9FC00211E
:101B60000420FFF7D5FC59460820FFF7D1FC0021DF
:101B70000920FFF7CDFC00210A20FFF7C9FC002156
:101B80000C20FFF7C5FC00210D20FFF7C1FC002150
:101B90000F20FFF7BDFC00211020FFF7B9FC00214A
:101BA0001120FFF7B5FC00211220FFF7B1FC002146
:101BB0001320FFF7ADFC1420FFF7C5FD29461020C8
:101BC000FFF7A6FC31461120FFF7A2FC0520FFF726
:101BD000BAFD39461220FFF79BFC0520FFF7B3FD45
:101BE00041461320FFF794FC13212920FFF790FCB6
:101BF0000520FFF7A8FD00212020FFF789FC002128
:101C00002120FFF785FC07213020FFF781FC4946A2
:101C10003120FFF77DFC40F2051319463220FFF713
:101C200077FC40F2062529463520FFF771FC40F687
:101C3000080631463620FFF76BFC29463720FFF7B0
:101C400067FC40F204513820FFF762FC072139207D
:101C5000FFF75EFC19463C20FFF75AFC31463D2059
:101C6000FFF756FC00215020FFF752FCEF215120D6
:101C7000FFF74EFC00215220FFF74AFC40F23F11D3
:101C80005320FFF745FC4FF427416020FFF740FC4D
:101C900001216120FFF73CFC00216A20FFF738FC9E
:101CA00000218020FFF734FC00218120FFF730FC69
:101CB00000218220FFF72CFC00218320FFF728FC65
:101CC00000218420FFF724FC00218520FFF720FC61
:101CD00010219020FFF71CFC00219220FFF718FC38
:101CE00003219320FFF714FC4FF488719520FFF730
:101CF0000FFC00219720FFF70BFC00219820FFF735
:101D000007FC21460320FFF703FC40F233110720B4
:101D1000FFF7FEFBBDE8F84FF84811E503B5BDF845
:101D20000010F64808380180BDF8041041800CBD51
:101D3000F24A083A1388038050880880704701B53A
:101D4000BDF80000ED490839088008BD01B5BDF8AF
:101D50000000EA490839488008BDE848083840686A
:101D6000704700B50B4601462020FFF7D1FB19460E
:101D700021205DF804EBFFF7CBBB4FF0D04148804A
:101D800070474FF0D0412220088070472DE9F0477E
:101D900007468A469046002551463846FFF7E1FF40
:101DA000DFF85893A9F108092CE0FFF7EAFF0023B8
:101DB0001CE00C20B4FBF0F0C1008020884038F813
:101DC00015601841304201D10C2C05D901209840F2
:101DD000064206D10C2C04D9B9F80200FFF7CDFF5A
:101DE00003E0B9F80000FFF7C8FF5B1CD9F8040056
:101DF00084889C42DDD87F1CBFB251463846FFF72D
:101E0000B0FF6D1CD9F80400C088A842CDD8BDE849
:101E1000F08710B4203AD3B2B84A083A526814682E
:101E2000D2885A4304EB420210BCAFE770B50646B5
:101E300040F23F14B14D083D08E0202221463046D3
:101E4000FFF7E7FF68688088201A84B2611C88B2B7
:101E5000696889888842F0D270BD30B50546002493
:101E600040F23F110020FFF77CFFFFF78AFF4FF0A1
:101E7000D0414FF496304D80641C8442FBD330BD7A
:101E8000F0B507460D4640F23F149C4E083E08E070
:101E900021463846FFF7BDFF70688088201A84B25B
:101EA0006D1C2A78002A05D07168601C80B2898870
:101EB0008842EDD2F0BD30B504460D46944206D3BB
:101EC000A01A401C81B25020FFF722FB03E0002142
:101ED0005020FFF71DFB21465120FFF719FB9D42C3
:101EE00006D3E81A401C81B25220FFF711FB03E031
:101EF00000215220FFF70CFB29465320FFF708FB77
:101F000029462046BDE830402BE700B54FF4A073CA
:101F1000F022591EEF20FFF7CEFF41F218010320F7
:101F20005DF804EBFFF7F4BA2DE9F0430546884667
:101F300016469946002441462846FFF712FF6F4F88
:101F4000083FB9F1000F16D1FFF71BFF03E03888F7
:101F5000FFF713FF641CB442F9D3BDE8F083FFF729
:101F600010FF3888FFF709FF6D1CADB241462846C7
:101F7000FFF7F7FE641CB442F1D3EEE7F0B5044678
:101F80000F4615461E460023324639462046FFF7C7
:101F9000CBFF601980B2002332463946FFF7C4FFF9
:101FA00001232A4639462046FFF7BEFFB81B401CD6
:101FB00081B22A462046BDE8F0400123B4E72DE96E
:101FC000FC4F804689460320A0EB420600241546BC
:101FD00075E008EB040009EB050A01901FFA8AF18D
:101FE00080B2FFF7BEFEFFF7CCFE444F083F3888B3
:101FF000FFF7C3FE0198A9EB050B1FFA8BF180B226
:10200000FFF7AFFEFFF7BDFE3888FFF7B6FE1FFAF9
:102010008AF1A8EB040A1FFA8AF0FFF7A2FEFFF785
:10202000B0FE3888FFF7A9FE1FFA8BF11FFA8AF07D
:10203000FFF797FEFFF7A5FE3888FFF79EFE09EB36
:10204000040081B208EB050A00901FFA8AF0FFF73E
:1020500088FEFFF796FE3888FFF78FFEA9EB040B8A
:102060001FFA8BF11FFA8AF0FFF77BFEFFF789FE5C
:102070003888FFF782FE0098A8EB050A81B21FFAA4
:102080008AF0FFF76EFEFFF77CFE3888FFF775FEDB
:102090001FFA8BF11FFA8AF0FFF763FEFFF771FE5C
:1020A0003888FFF76AFE002E03DA06EB8406B61DB9
:1020B00004E0601B06EB80060A366D1E641CAC4211
:1020C00087D9BDE8FC8FF0B50646002440F23F11E9
:1020D0000020FFF746FEFFF754FE084D0123083DA0
:1020E0004FF41667002256F8241003FA02F001425A
:1020F00006D16888FFF741FE05E000005C00002083
:102100002888FFF73AFE521C202AECD3641CBC42FC
:10211000E8D3F0BD10B54188828841EA0242418986
:10212000838941EA0341521A5408431841F20801D5
:102130000320FFF7EDF9FFF724FE002204E01888E2
:10214000FFF71BFE9B1C521CA242F8D3BDE81040B7
:1021500041F218010320FFF7DBB92DE9F0410546F4
:102160000F4690461C46F84E3088FFF7E8FD0023E6
:10217000424639462846FFF7D7FE281980B2002389
:1021800042463946FFF7D0FE01232246394628460B
:10219000FFF7CAFEA7EB0800401C81B201232246CC
:1021A0002846FFF7C1FEA8F102081FFA88F8641E4E
:1021B000A4B27F1EBFB27088FFF7C1FD07E06D1C9F
:1021C000A8B20546002342463946FFF7ADFE641E1D
:1021D000A4B2F4D23088BDE8F041B0E52DE9F74F64
:1021E0000746884602980321A1EB40060024029D81
:1021F000D5484088FFF7A3FD4FF6FF7935E09DB144
:1022000009EA450208EB050A381B93461FFA8AF1D2
:1022100080B20023FFF788FE38195A461FFA8AF168
:1022200080B20023FFF780FE9CB109EA440208EB6C
:10223000040A781B93461FFA8AF180B20023FFF745
:1022400073FE78195A461FFA8AF180B20023FFF70D
:102250006BFE002E03DA06EB8406B61D04E0601B5D
:1022600006EB80060A366D1E641CAC42C7D9B64820
:102270000088FFF764FD029A03B041463846BDE886
:10228000F04F9CE6F02809D2002907DBB1F5A07FCA
:1022900004DA002389B280B2012245E670472DE9B5
:1022A000FC5F84460C460027A2EB0C00002801DCF2
:1022B000ACEB020000B2191B002900DCE11A09B2E4
:1022C0000FFA8CF526B24FF0FF3B624503D34FF077
:1022D0000109CA4601E0D946DA46A34204D34FF0C9
:1022E000010B0122019201E0CDF804B088420ADB23
:1022F0004FF000090022019200EBD072521014B28C
:102300000091804623E04FF0000AD34601EBD172E2
:10231000521014B20090884619E031462846FFF763
:10232000B1FF0098204404B2444508DBA4EB080048
:1023300004B205EB090005B206EB0B0006B205EB93
:102340000A0005B20198304406B27F1C3FB24745EF
:10235000E3DDBDE8FC9F70B504460D46022D0DD3AC
:1023600008E020886188241D89B26388228880B2B1
:10237000FFF795FF6D1E2D042D0CF2D170BD2DE9D8
:10238000F04704460F469146A046022F25D3B4F9E4
:102390000050B4F9026010E0241DB1B260883044EE
:1023A00083B22088284482B2A8B2FFF778FF208841
:1023B000284405B26088304406B27F1E3F043F0CBB
:1023C000EAD1B9F1000F08D0B3B2AAB2B8F802103E
:1023D000B8F80000BDE8F04761E718E570B50446BD
:1023E0000D4629462046FFF7B6FF04EB8500001F87
:1023F0006188438802882088BDE870404FE700224A
:10240000BDE70122BBE72DE9F34F04462DED028B1A
:10241000E7B0B4F80080C14662880092012014E061
:1024200004EB80014988414500D28846494500D9DE
:10243000894634F820A0924500D2524600998A4538
:1024400001D9CDF800A0401C80B26A998842E7D338
:102450003D484088FFF773FC92460DF1040BAEE057
:1024600000276A98401E86B2002552E0504602F0CE
:1024700062F941EC180B6591669034F9250002F081
:1024800049F953EC182B02F063F90CD26599669860
:1024900041EC180B34F9260002F03CF953EC182BF0
:1024A00002F06EF919D96599669841EC180B34F968
:1024B000260002F02FF953EC182B02F049F925D22F
:1024C0006599669841EC180B34F9250002F022F961
:1024D00053EC182B02F054F918D804EB860004EBE7
:1024E0008501B0F90200B1F90210421A34F9250051
:1024F000AAEB00035A4334F92630181A92FBF0F085
:10250000084439467F1CBFB22BF811002E466D1CC3
:10251000ADB26A988542A9D300207D1E0FE0411C10
:102520003BF810303BF81120934207D92BF81020CC
:102530002BF8113018B1401E80B200E088B2A842DA
:10254000EDDB002535E00000540000203BF81500CD
:10255000484530D26E1C3BF81610414527D94045FE
:1025600001D22BF815803BF81600484501D92BF80D
:1025700016903D484088FFF7E2FB3BF816103BF809
:1025800015000023081A82B25046FFF7CDFC3648EA
:102590000088FFF7D4FB3BF916100FFA8AF00646C5
:1025A000FFF770FE3BF915103046FFF76BFEAD1CD0
:1025B000ADB2BD42CAD30AF1010A1FFA8AFA0098E5
:1025C0008245FFF44DAF2848008867B0BDEC028B10
:1025D000BDE8FC4FFFF7B3BB4FF0D0402221018094
:1025E0004088704710B500211020FEF791FF0021B0
:1025F0001120FEF78DFF00211220FEF789FF002138
:102600001320FEF785FF1420FFF79DF841F2B0710B
:102610001020FEF77DFF40F237111120FEF778FF02
:102620000520FFF790F840F239111220FEF770FFF5
:102630000520FFF788F84FF4E8511320FEF768FFF4
:1026400013212920FEF764FF0520FFF77CF8BDE881
:10265000104040F273110720FEF75ABF40F2731189
:102660000720FEF755BF0000540000202B49084307
:102670002B490860704730B50F23C27801250178D7
:10268000002A1FD0264A126802F4E062C2F5E06216
:10269000C2F30722C2F10404D3404278A2408478F6
:1026A0001C401443220101F1E02181F8002400784C
:1026B00000F01F018D404009800000F1E020C0F8CB
:1026C000005130BD01F01F0085404809800000F135
:1026D000E020C0F8805130BD124A1140014310483B
:1026E000001F016070470E4A121D002903D01168B7
:1026F00001431160704711688143116070474FF0CA
:10270000E021042804D0086920F004000861704723
:10271000086940F004000861704700000000FA05F5
:102720000CED00E080FFFF1F2DE9F043016821F070
:10273000010101600021016041608160C1600161AF
:1027400021214161C149C14A10394FF03D089042F1
:1027500003D1C1F80880BDE8F083BC4A4FF474652A
:102760001832904201D18D60F5E7B84A4FF47416E3
:102770003032904201D18E60EDE7B44A4FF0746779
:102780004832904201D18F60E5E7B04BB04A6033E8
:10279000984201D1CA60DEE7AC4CAE4B7834A0421F
:1027A00001D1CB60D7E7DFF8A4C2AB4C0CF1900CA1
:1027B000604501D1CC60CEE7DFF890924FF03D5CF0
:1027C00009F1A809484502D1C1F80CC0C3E7A349E3
:1027D000DFF888920839484502D1C1F80080BAE78D
:1027E000DFF8788208F11808404501D10D60B2E7A2
:1027F0009A4D3035A84201D10E60ACE7974D48356F
:10280000A84201D10F60A6E7944D94496035091F95
:10281000A84201D10A609EE7904A7832904201D1E5
:102820000B6098E78D4A9032904201D10C6092E79C
:102830008A4AA83290428ED1C1F800C08BE730B5E9
:102840000368874A1340CC680A682243D1E90545EA
:102850002C432243CC6922430C6A22434C6A224314
:102860008C6A22434C6B22438C6B22431A430260D6
:10287000426922F00703D1E90B2422431A43426143
:102880000A6942604A6882608968C16030BD00217F
:10289000016041608160C160016141618161C1612C
:1028A000016241628162C162016341638163704779
:1028B000002904D0016841F00101016070470168FE
:1028C00021F0010101607047002904D0016841F442
:1028D000004101607047016821F4004101607047C8
:1028E000002904D0016841F02001016070470168AF
:1028F00021F020010160704741607047406880B25C
:102900007047002A04D0026842F40022026003E00B
:10291000026822F40022026001617047002904D09D
:10292000016841F4802101607047016821F4802131
:1029300001607047002A01D001617047C160704793
:10294000014600200968090300D5012070470146AF
:1029500000200968C90700D001207047406900F0D5
:1029600038007047024600203C4B9A4202D2374A58
:10297000103A01E0394A103A8B0001D5526800E064
:102980001268384B1A400A4200D001207047334A7F
:10299000904202D22D48103801E030481038314AB8
:1029A0008B0001EA020101D5C16070478160704768
:1029B0000B0609D522B1436943F08003436103E06C
:1029C000436923F080034361802905D001F01E0193
:1029D0001AB102680A430260704702688A430260C3
:1029E000704730B500241D4A904202D2174A103A6F
:1029F00001E01A4A103A1C4B194205D01E2303EA83
:102A0000D12503682B4002E0406900F08003880074
:102A100001D5506800E01068124A1040084201D009
:102A200003B10124204630BD0C4A904202D207482F
:102A3000103801E0094810380A4A8B0001EA020107
:102A400001D5C1607047816070470000106002408E
:102A50003D000020400F002000003D201064024097
:102A60003F801CF07D0F7D0F3C0F3C0F354900204F
:102A70000860091D0860091D0860091D08603149CA
:102A8000314814310860704730B52E4A83790168A7
:102A9000002B2AD013688B431360111D0B68046848
:102AA000A3430B60017911440B68046823430B6056
:102AB000244C08342168036899432160231D196858
:102AC0000568A94319604179102905D011440A68A5
:102AD000006802430A6030BD21680268114321602A
:102AE000196800680143196030BD0079104402681C
:102AF0008A43026030BD0021016001710C224271E5
:102B0000817170470F4910310A6802430A607047AB
:102B1000014600200B4A143212680A4200D00120FC
:102B20007047084914310860704701460020054A83
:102B3000143212680A4200D0012070470149143152
:102B400008607047003C0140FFFF7F008100A1F159
:102B5000C04100280CD043F2D2020A60401C800021
:102B6000A0F1C0406FF070420260C1F804217047CC
:102B70004FF0204343F2DB021A60EFE710B5D0E9D3
:102B800001121143D0E903231A431143426911434F
:102B900082691143C2691143026A1143426A1143B7
:102BA000826A1143C26A1143026B114302689200A8
:102BB000A2F1C04211608168082907D1016889002B
:102BC000A1F1C0410A6842F040020A60416BD1E9BC
:102BD000002342EA03128B688C891B0243EA0443F8
:102BE0001A430B8A42EA03520B7D896942EA036267
:102BF0000A430168491C8900A1F1C0410A60C16A09
:102C0000B1F5804F08D000686FF070418000A0F1EE
:102C1000C040C0F8041110BD816BD1E9002342EA25
:102C200003128B680C8A1B0243EA04531A430B7D80
:102C3000896942EA036200680A438000A0F1C0404B
:102C4000C0F8042110BD10B50021016002224260CD
:102C50008160C160016141618161C1610162D20233
:102C6000426252008262C1620163436B0F221A60AA
:102C7000436B5A60446BFF23A360446BE260446B78
:102C80002261446B6261446BA161846B2260846B3E
:102C90006260846BA360836BDA60836B1A61836B01
:102CA0005A61806B816110BD8000A0F1C040002995
:102CB00004D0016841F00101016070470168CE4A0B
:102CC00011400160704710B5182440234FF0204197
:102CD0004FF0FC32102805D041F8804F4B608A60DD
:102CE000CA6010BD0C664B668A66CA6610BD30B5F8
:102CF000D0E901121143D0E903231A431143426979
:102D000041EA4221826941EA423141F00804C16945
:102D1000D1E9002342EA03220B89097B1B0443EA21
:102D200001610A43016AD1E9003543EA05230D89AF
:102D3000097B2D0445EA01610B4301684FF02040F7
:102D4000102904D040F8804F8260C36030BD046613
:102D50008266C36630BD1021016000214160816040
:102D6000C160016141618161C269FC211160C26978
:102D70005160C2699160C269D160026A1160026AE1
:102D80005160026A9160006AC16070474FF0204252
:102D900000290CD0102805D052F8800F40F0040014
:102DA00010607047106E40F0040010667047924942
:102DB000C91E102804D052F8800F084010607047D8
:102DC000106E0840106670474FF0204200290CD06A
:102DD000102805D052F8800F40F040001060704776
:102DE000106E40F040001066704783493F3910284C
:102DF00004D052F8800F084010607047106E0840F1
:102E0000106670474FF02041102802D0D1F894008E
:102E10007047486F70477948182101600021416070
:102E20004FF0FC318160C1600161704710B5D0E99D
:102E3000001241EA42218268102343EA42321143E0
:102E40006E4A1160C168D1E9003443EA04230C8959
:102E5000097B240444EA01610B4393600169D1E9D1
:102E6000003443EA04230C89097B240444EA016109
:102E70000B43D3604069D0E9001341EA0321038981
:102E8000007B1B0443EA00600143116110BD002177
:102E9000016041608160C268FC211160C2685160BC
:102EA000C2689160C268D1600269116002695160B4
:102EB000026991600269D1604269116042695160A2
:102EC000426991604069C16070474FF0204100281D
:102ED00005D051F8A00F40F004000860704751F889
:102EE000A00F454AD21E10400860704710B54FF43D
:102EF00080744FF02043002A11D0102806D0A04241
:102F000008D153F8840F0843186010BD586E084369
:102F1000586610BD53F8A40F0843186010BD102860
:102F200006D0A04208D153F8840F8843186010BD22
:102F3000586E8843586610BD53F8A40F8843186034
:102F400010BD034600204FF02042102B08D0B3F5EF
:102F5000807F07D0D2F8A4200A4200D00120704719
:102F6000526EF9E7D2F88420F6E74FF0204210289D
:102F700007D0B0F5807F08D052F8A40F88431060C6
:102F80007047506E88435066704752F8840F8843EC
:102F900010607047034600204FF02042102B0ED0E7
:102FA000B3F5807F0DD0D2F8A42002EA010302EA33
:102FB000D101002B02D0002900D001207047526EB1
:102FC000F3E7D2F88420F0E74FF02042102808D031
:102FD000B0F5807F0AD052F8A40F20EAD10010602B
:102FE0007047506E20EAD1005066704752F8840F47
:102FF00020EAD10010607047FEFF0F00A00000A083
:1030000010B58D49884209D10121084600F0CBFC5A
:103010000021BDE81040012000F0C5BC874988426E
:1030200009D10121022000F0BEFC0021BDE81040C2
:10303000022000F0B8BC8249884209D10121042055
:1030400000F0B1FC0021BDE81040042000F0ABBC52
:103050007C49884209D10121082000F0A4FC00210C
:10306000BDE81040082000F09EBC7749884209D195
:103070000121102000F097FC0021BDE81040102035
:1030800000F091BC7149884209D10121202000F053
:103090008AFC0021BDE81040202000F084BC6C496F
:1030A000884209D10121402000F07DFC0021BDE8CB
:1030B0001040402000F077BC6649884209D10121C8
:1030C000802000F070FC0021BDE81040802000F05E
:1030D0006ABC614988420AD184150121204600F06A
:1030E00062FC2046BDE81040002100F05CBC5B495A
:1030F00088420AD144150121204600F054FC2046A4
:10310000BDE81040002100F04EBC554988420AD16C
:1031100004150121204600F046FC2046BDE8104081
:10312000002100F040BC10BD2DE9F0410022012734
:103130004FF0030C07FA02F50B682B40AB422CD181
:10314000066853000CFA03F4A64306600E79D0F823
:1031500000809E4046EA080606600E79012E01D0E6
:10316000022E12D18668A64386604E79D0F8088078
:103170009E4046EA080686604668AE43466045685B
:103180008E799640B6B235434560C568A543C560A3
:10319000CC799C40C3681C43C460521C102AC9D31C
:1031A000BDE8F0814FF6FF710160002101714171AE
:1031B0008171C171704708B541F480320092009A64
:1031C000C261C1610099C161C169C069009008BD57
:1031D0000246002012690A4200D0012070470069AF
:1031E00080B270470246002052690A4200D0012096
:1031F0007047406980B270470183704741837047D0
:10320000002A01D0018370474183704741617047B4
:1032100042694A404261704710B54B07DB0E9A4045
:10322000C90800EB8100016A0F249C40A1430162A0
:10323000016A1143016210BD000002400004024017
:1032400000080240000C024000100240001402403E
:1032500000180240001C02400020024000240240EE
:103260000028024010B5F24988420AD101214C05DC
:10327000204600F0BCFB2046BDE81040002100F0D5
:10328000B6BBEC4988420AD101218C05204600F0EA
:10329000AEFB2046BDE81040002100F0A8BBE64987
:1032A00088420AD10121CC05204600F0A0FB20462F
:1032B000BDE81040002100F09ABB10BD7FB5044668
:1032C0000D46A08820F03F06684600F097FA029865
:1032D000DA49B0FBF1F189B20E43A680228822F0D0
:1032E00001022280D64B2A689A4209D85200B0FBCC
:1032F000F2F080B2042800D20420491C218423E08B
:10330000EB88A3F53F46FF3E0BD002EBC20303EB75
:103310000212B0FBF2F080B240F48040020506D009
:1033200007E002EB4202B0FBF2F080B2F6E740F0B9
:10333000010040F400404FF4967251434FF47A720A
:10334000B1FBF2F1491C2184A083208840F00100E8
:10335000208020884FF6F5310840A9886A891143FA
:1033600001432180A8892989084320817FBD41F23A
:1033700088310160002181804BF6FF72C28001819B
:1033800041814FF4804181817047002904D0018838
:1033900041F0010101807047018821F001010180A5
:1033A0007047002904D0818C21F01001818470477E
:1033B000818C41F0100181847047828C22F00F02D1
:1033C00001F00F01114381847047002904D0018866
:1033D00041F4807101807047018821F4807101807F
:1033E0007047002904D0018841F4007101807047C2
:1033F000018821F4007101807047002A02D041F059
:10340000010101E001F0FE0101827047002904D0B2
:10341000018841F4806101807047018821F4806156
:1034200001807047828922F0FE0201F0FE01114303
:1034300081817047002904D0818941F00101818197
:103440007047818921F0010181817047002904D0F2
:10345000018841F0400101807047018821F040015E
:1034600001807047002904D0018841F400410180A7
:1034700070470188C1F30E0101807047002904D014
:10348000018821F0800101807047018841F08001AE
:1034900001807047B1F5804F04D0818B21F48041C9
:1034A00081837047818B41F4804181837047B1F5FE
:1034B000006F04D0018821F4006101807047018809
:1034C00041F4006101807047B1F5005F04D00188CC
:1034D00021F4005101807047018841F400510180BE
:1034E0007047002904D0018841F010010180704725
:1034F000018821F010010180704701827047008A25
:10350000C0B27047002904D0018841F48051018085
:103510007047018821F4805101807047B1F5006F38
:1035200004D0018821F4006101807047018841F4D2
:10353000006101807047002904D0018841F020011A
:1035400001807047018821F0200101807047008BC5
:10355000000A7047002904D0818841F4006181800D
:103560007047818821F4006181807047002904D070
:10357000818841F4805181807047818821F4805195
:103580008180704708B5009000980844009000982A
:10359000008808BD002A03D082880A4382807047D1
:1035A00082888A4382807047034600209A8A1B8B58
:1035B0001B041A4322F07F42914300D1012070473F
:1035C000818A008B0004014321F07F4070470CB5D5
:1035D0000246002000920A0F019221F07F41019AD9
:1035E000002A03D0009A1432009203E0090C009ADA
:1035F00018320092009A12680A4200D001200CBDD5
:10360000C9438182704710B502460020938801F0BB
:10361000E06403EA144321F07F41928A0A4202D017
:10362000002B00D0012010BDC943818270470000EB
:103630000054004000580040005C004040420F0031
:10364000A0860100FA48016841F001010160F84AD2
:103650000021083211600268F64B1A400260031D17
:10366000F54A1A60F24BF54A84331A60F24A103A6E
:103670001B1D1A60026822F480220260EC480C30A4
:103680000160181D01607047E9490022891C0A7019
:103690000870704702460020510901290CD0022908
:1036A0000DD0E3497431096802F01F0201239340F1
:1036B0000B4200D001207047DD490968F4E7DC497E
:1036C00070310968F0E718B5002000904FF4A0446D
:1036D0003120FFF7DFFF0099491C00910099A142BA
:1036E00001D00028F4D03120FFF7D4FF08B1012029
:1036F00018BD002018BDCE4A116821F0F80141EA3A
:10370000C00010607047CE4908607047C849002269
:1037100070310A700A70012804D0042801D10520F4
:1037200008707047012008707047C64908607047EC
:1037300010B5029C41EA82114FF0FF3202EB5302B6
:1037400041EA0241014341EA0460B949091D0860A8
:1037500010BDBB4908667047800140EA0170B4495A
:10376000843108607047B64988667047800140EA36
:103770000160AF4940EA0270883108607047B04983
:1037800008677047AE49C8647047A94B08331A6888
:1037900022F0EC620843104318607047A44B0833D2
:1037A0001A6822F078420843104318607047A04A14
:1037B0000832116821F003010143116070479C48F1
:1037C0000830006800F00C007047994A0832116810
:1037D00021F0F001014311607047954A08321168E9
:1037E00021F4E051014311607047914A0832116899
:1037F00021F4604141EAC0001060704770B58C4B05
:103800000833196801F00C018F4C00291ED08F4E2F
:1038100004291DD008291DD00460196801F0F001A9
:1038200009098B4A545C0168E14041601C6804F45A
:10383000E054A40A145D21FA04F484601B6803F4C4
:1038400060435B0BD25CD140C16070BD0460E4E7B3
:103850000660E2E7764A121D1168C1F380551168CF
:1038600001F03F0135B1B6FBF1F11468C4F38814DF
:10387000614305E0B4FBF1F11468C4F388146143BB
:103880001268C2F30142521C5200B1FBF2F1016016
:10389000C3E7C0F30121032908D1654B0833196838
:1038A00021F4F8126B49014011431960604A7032EB
:1038B0001168C0F30B00014311607047614944393E
:1038C000086070475F494039086070476249086086
:1038D0007047574A8C32116821F01F01401E014386
:1038E00011607047524A8C32116821F4F851401E21
:1038F00041EA0020106070474D4A8C32116821F473
:103900004011014311607047494A8C32116821F41B
:103910004001014311607047454A8C32116821F41F
:1039200040310143116070474C4908607047404A7C
:103930003032002903D011680143116070471168CB
:103940008143116070473A4A3432002903D011682C
:103950000143116070471168814311607047344A18
:103960003832002903D01168014311607047116893
:103970008143116070472E4A4032002903D01168FC
:103980000143116070471168814311607047284AF4
:103990004432002903D01168014311607047116857
:1039A000814311607047224A1032002903D0116808
:1039B00001431160704711688143116070471C4AD0
:1039C0001432002903D01168014311607047116857
:1039D000814311607047164A1832002903D01168DC
:1039E0000143116070471168814311607047104AAC
:1039F0002032002903D0116801431160704711681B
:103A00008143116070470A4A2432002903D01168AB
:103A10000143116070471168814311607047044A87
:103A2000503200291CD0116801431160704700001A
:103A300000380240FFFFF6EA10300024003000207A
:103A400000004742800E47420024F40040787D0188
:103A500064000020FFFCFF0F5C014742E011474279
:103A6000116881431160E1E7274A002903D01168FA
:103A700001431160DAE7116881431160D6E7224AF9
:103A8000121D002903D0116801431160CEE71168AF
:103A900081431160CAE71C4A0C32002903D0116827
:103AA00001431160C2E7116881431160BEE7164A05
:103AB0001032002903D0116801431160B6E7116884
:103AC00081431160B2E7104A473A002903D01178C8
:103AD00001431170AAE7117881431170A6E70A48E3
:103AE0002030016841F0807101609FE701460020AD
:103AF000054A483A12680A4298D0012096E70249DE
:103B00004639087092E700005438024010B5012190
:103B10004020FFF754FF0021BDE810404020FFF790
:103B20004EBF1E49002804D0086840F00400086019
:103B30007047086820F00400086070471748083094
:103B4000006870471549002804D0086840F0080054
:103B500008607047086820F0080008607047014658
:103B600000200E4A121D12680A4200D00120704740
:103B70000A496FEA0010091D0860704701460020DD
:103B8000064A121D12680A4200D0012070470349FC
:103B9000C043091DC0B2086070470000000806500D
:103BA00010B50121CC022046FFF72DFF2046BDE8CD
:103BB00010400021FFF727BF30B5644B196847F666
:103BC000FF629143027D8468C568224344682C43A8
:103BD000224304680069224302430A431A6030BD4D
:103BE00000210175016041608160C1600161704721
:103BF0005749086070475549091F08607047534886
:103C0000001F006800F00300704710B54F4A0168BC
:103C1000121D1160141D21686FF30A01D0E9012300
:103C20001A43D0E9033003431A430A43226010BD0C
:103C30000021016041608160C160016170474348BB
:103C40000C300068C0B2704708B5404910310844D4
:103C500000900098006808BD10B53C4A0168203209
:103C60001160121D41681160141D216821F0F701D7
:103C7000D0E902231A43D0E9043003431A430A432C
:103C8000226010BD4FF0FF31016000214160816072
:103C9000C1600161416170472C482C300068704759
:103CA0002A487C300068704728497C31086070479A
:103CB0002648443000687047264908607047254907
:103CC000091D086070472349083108607047214981
:103CD0000C31086070472049086070471E49091D73
:103CE00008607047012181431B480830016070471C
:103CF00019490C310860704716491439086070473B
:103D0000124A3832002903D011680143116070470C
:103D10001168814311607047014600200B4A303220
:103D200012680A4200D00120704708493431086007
:103D3000704701460020054A303212680A4200D01E
:103D4000012070470149343108607047042C01405C
:103D5000A0802542A0852542AC81254210B5DC49D2
:103D600088420AD1841401212046FFF74CFE2046E8
:103D7000BDE810400021FFF746BED64988420AD16F
:103D8000041401212046FFF732FE2046BDE8104012
:103D90000021FFF72CBED04988420AD1C41301216B
:103DA0002046FFF724FE2046BDE810400021FFF723
:103DB0001EBECA4988420AD1441401212046FFF799
:103DC00022FE2046BDE810400021FFF71CBEC4497A
:103DD00088420AD101210C052046FFF714FE204637
:103DE000BDE810400021FFF70EBEBE4988420AD14F
:103DF00001214C052046FFF706FE2046BDE8104095
:103E00000021FFF700BE10BD30B5028802F4415317
:103E10000A884C88CD8822438C882C4322430C8905
:103E200022434C8922438C892243CC8922431A4362
:103E30000280828B22F400628283098A018230BD73
:103E4000F0B5022200230124858B4FF24006354055
:103E5000858302250584858B8E68022E38D08A885A
:103E600002B10224A04A13681B0203D5136823F48D
:103E7000000313609C4A7C321368C3F388131268F2
:103E8000C2F30276984A121F126802F03F02974F5F
:103E9000B7FBF2F25A43B2FBF6F2CB88B3F5007FE0
:103EA0002BD06301B2FBF3F202EB82028B6852006B
:103EB000B2FBF3F2521D92B20A23B2FBF3F202F00C
:103EC0000103D21AC2F34F024FF6FF7404EA032330
:103ED000941EFE2C01D302220023CC881A431443E3
:103EE00004840A884B881A438B8889890B431A43B8
:103EF0002A4342F400618183F0BD120A02EB820280
:103F00008B685200B2FBF3F2521D92B2D4E700214B
:103F1000018041808180C180018141818181C18195
:103F20000721018270470021018041808180C1808A
:103F30000222826081817047002904D0018841F00B
:103F4000400101807047018821F0400101807047E5
:103F5000002904D0818B41F4806181837047818B7B
:103F600021F4806181837047028822F4006202801C
:103F700002880A4302807047B1F5804F04D001885F
:103F800021F4804101807047018841F48041018023
:103F90007047A1F57E42FF3A04D0018841F4807158
:103FA00001807047018821F48071018070470029E9
:103FB00004D0818841F0040181807047818821F01C
:103FC000040181807047002904D0818841F01001EC
:103FD00081807047818821F010018180704730B561
:103FE0000023828B4FF2400422408283022202840B
:103FF000848B0A884FF48075B2F5007F00D002B937
:104000002B464A888D8889892A4319430A432243CB
:1040100042F40061818330BD80897047818170479F
:10402000002904D0018841F40051018070470188C3
:1040300021F4005101807047018841F480510180D2
:104040007047012901D0008B7047808A7047008A31
:104050007047002A03D082880A4382807047828892
:104060008A4382807047090901238B4099B2002A54
:1040700003D082880A438280704782888A43828084
:1040800070470246002012890A4200D00120704782
:10409000C9430181704730B50246002001F00F038B
:1040A000012505FA03F4A3B2090905FA01F4A4B243
:1040B0009188214012891A4202D0002900D00120A3
:1040C00030BD01F00F0201219140C94301817047C9
:1040D0000030014000380040003C00400034014006
:1040E00000500140005401400838024040787D01F2
:1040F00010B501218C032046FFF785FC2046BDE862
:1041000010400021FFF77FBC134908607047134936
:104110000862704710B58A07120F0F23934021F0F1
:1041200003040F49214401F608010C689C430C600C
:104130000B68904003430B6010BD0849DC310860F8
:10414000704708490860704700200349203109681A
:10415000C90500D501207047003801400000274202
:10416000003001400004274210B5F449884209D1CB
:1041700001211020FFF747FC0021BDE8104010206E
:10418000FFF741BCEE4988420AD101214C04204688
:10419000FFF72DFC2046BDE810400021FFF727BCAB
:1041A000E84988420AD101218C042046FFF71FFC10
:1041B0002046BDE810400021FFF719BCE2498842C3
:1041C0000AD10121CC042046FFF711FC2046BDE8AE
:1041D00010400021FFF70BBCDC4988420AD10121C5
:1041E0000C052046FFF703FC2046BDE810400021E7
:1041F000FFF7FDBBD649884209D101212020FFF7F6
:1042000002FC0021BDE810402020FFF7FCBBD14993
:1042100088420AD101218C072046FFF7E8FB20469F
:10422000BDE810400021FFF7E2BBCB4988420AD12C
:10423000440501212046FFF7DAFB2046BDE8104087
:104240000021FFF7D4BB10BD7FB504460D46208A80
:1042500020F44051E88808432082A08941F20C6193
:104260008843A9882A8911436A8902431143A1819D
:10427000A08A20F44071A8890843A0826846FFF70D
:10428000BDFAAE48844202D0B148844201D10398BD
:1042900000E00298A189090408D500EBC00101EBF8
:1042A000001029684900B0FBF1F007E000EBC00105
:1042B00001EB001029688900B0FBF1F06422B0FB2B
:1042C000F2F109010B096FF018056B4300EB830055
:1042D000A3891D044FF0320307D503EBC000B0FBE8
:1042E000F2F000F00700084306E003EB0010B0FB1B
:1042F000F2F000F00F00084320817FBD4FF416510B
:10430000016000218180C18001810C224281818174
:10431000704710B5028A22F470630A884C882243E1
:104320008C88C9880C4322431A43028210BD0021A5
:10433000018041808180C1807047002904D081893B
:1043400041F4005181817047818921F400518181BC
:104350007047028B02F47F420283028B0A4302837E
:104360007047002904D0818941F400418181704760
:104370008189C1F30E0181817047002904D0818AAF
:1043800041F4006181827047818A21F40061818259
:104390007047C1F30801818070478088C0F308002E
:1043A0007047028A22F00F020282028A0A430282C6
:1043B0007047002904D0818941F002018181704752
:1043C000818921F0020181817047828922F4006293
:1043D000828182890A4382817047028A22F0200208
:1043E0000282028A0A4302827047002904D0018AAD
:1043F00041F4804101827047018A21F480410182A9
:104400007047818941F0010181817047002904D002
:10441000818A41F0080181827047818A21F0080178
:1044200081827047028BD2B20283028B42EA012161
:1044300001837047002904D0818A41F020018182E4
:104440007047818A21F0200181827047002904D0C1
:10445000818A41F0100181827047818A21F0100128
:1044600081827047828A22F004028282828A0A4311
:1044700082827047002904D0818A41F00201818242
:104480007047818A21F0020181827047002A03D09F
:10449000828A0A4382827047828A8A438282704774
:1044A00010B540F66A13C1F3421301F01F04012155
:1044B000A140012B07D0022B07D014303AB102687B
:1044C0000A43026010BD0C30F8E71030F6E70268CE
:1044D0008A43026010BD0246002012880A4200D0C2
:1044E000012070478A05C9430180704770B50024D8
:1044F00040F66A12C1F3421301F01F05012606FAC5
:1045000005F2012B0CD0022B0DD0838A1340090A2F
:104510008E40008830400BB100B10124204670BDB0
:1045200083891340F3E7038A1340F0E740F66A12E9
:104530000A0A01219140C9430180704700100140DF
:104540000044004000480040004C00400050004043
:104550000014014000780040007C00400CB50022AF
:10456000019200925849086840F4803008604FF486
:10457000A043086800F4003000900198401C0190AE
:10458000009810B901989842F3D10868800302D5C9
:104590000120009000E000920098012831D14A48A3
:1045A0004030026842F0805202604848026842F49B
:1045B000404202604448083002680260026842F4E7
:1045C00000420260026842F4A0520260021F404BA7
:1045D00013600A6842F080720A600A689201FCD592
:1045E0003C4A40F205711160016821F0030101604D
:1045F000016841F0020101600168C1F381010229F3
:10460000FAD10CBD10B53448016841F47001016065
:104610002D48016841F0010101602B4A0021083258
:10462000116002682D4B1A400260031D2C4A1A606B
:10463000026822F48022026023480C300160FFF7F8
:104640008DFF25494FF000608039086010BD70B5BE
:104650001D4E0836306800F00C00224B224900281D
:104660000FD0224D04280ED008280ED00B603068E1
:104670001D4AC0F30310121D105C0A68C2400A6094
:1046800070BD0B60F3E70D60F1E70F4A121D106873
:10469000C0F38054106800F03F0034B1B5FBF0F077
:1046A0001368C3F38813584305E0B3FBF0F01368B5
:1046B000C3F3881358431268C2F30142521C5200DC
:1046C000B0FBF2F00860D2E7003802400070004012
:1046D00019544007003C024088ED00E0FFFFF6FE61
:1046E000103000240024F4007400002040787D0184
:1046F0000648804706480047FEE7FEE7FEE7FEE77C
:10470000FEE7FEE7FEE7FEE7FEE7FEE705460008F8
:10471000890100080EB5C10F80EAE0700844CA079D
:10472000002140F233438DE80E000A460B4600F0AC
:104730004EF803B000BD0EB540F2334102910021A6
:10474000CDE900110A460B4600F041F803B000BD68
:1047500030B5041E71F1000404DB4FF00044404208
:1047600064EB0101141E73F1000405DB1C464FF0DD
:104770000043524263EB04038B4208BF824230BDC8
:1047800030B5041E71F1000404DB4FF000444042D8
:1047900064EB0101141E73F1000405DB1C464FF0AD
:1047A0000043524263EB0403994208BF904230BD7C
:1047B00010B5141E73F1000408DA401C41F1000129
:1047C00092185B411A4301D120F0010010BD2DE980
:1047D000F04D92469B4611B1B1FA81F202E0B0FA77
:1047E00080F22032904600F053F804460F4640EA2B
:1047F0000A0041EA0B0153465A46084313D01146BA
:1048000053EA010019D0C8F14002504600F04FF8B9
:1048100005460E4650465946424600F039F80843D0
:1048200005D0012004E020463946BDE8F08D002087
:10483000054346EAE0762C4337430A986305E40AC9
:10484000A0EB08000022FD0A44EA47540A3002D5D2
:1048500000200146E9E7010510196941DDE9084535
:1048600000196941BDE8F04DA2E70000064C074D74
:1048700006E0E06840F0010394E807009847103430
:10488000AC42F6D3FBF784FC705B0008905B000839
:10489000202A04DB203A00FA02F100207047914000
:1048A000C2F1200320FA03F3194390407047202AF5
:1048B00004DB203A21FA02F00021704721FA02F3CA
:1048C000D040C2F12002914008431946704770B5AC
:1048D0008C1810F8015B15F0070301D110F8013BAB
:1048E0002A1106D110F8012B03E010F8016B01F832
:1048F000016B5B1EF9D12B0705D40023521E0DD48A
:1049000001F8013BFAE710F8013BCB1A921C03E0D7
:1049100013F8015B01F8015B521EF9D5A142D8D30F
:10492000002070BD02E008C8121F08C1002AFAD199
:1049300070477047002001E001C1121F002AFBD11F
:10494000704700000002000409000A000700070089
:104950001000000001000000010000000100002024
:10496000000101000020000100000200080000001A
:104970000D0008000600280017008000000100025A
:1049800000040000200000002000000020000000C3
:1049900020000000010000000400000000010000F1
:1049A0000000000000000000000000000000000007
:1049B00000000000000000000000000000000000F7
:1049C00000000000000000000000000000000000E7
:1049D0000000800180018001800180018001800150
:1049E00080018001800180018001800100000000C1
:1049F00080018001000000000000000000000000B5
:104A000000000000CC00CC00CC00CC00CC00CC00DE
:104A10000000000000000000000000000000000096
:104A20000000000000000000000000000000000086
:104A3000000000000000000000000000600C600C9E
:104A4000600C30063006FE1FFE1F300638071803C4
:104A5000FE1FFE1F180318038C018C018C0100003F
:104A600000008000E003F80F9C0E8C1C8C188C005A
:104A70009800F801E007800E801C8C188C189C1898
:104A8000B80CF00FE0038000800000000000000080
:104A90000000000000000E181B0C110C110611067E
:104AA000110311039B018E01C038C06C6044604447
:104AB000304430441844186C0C38000000000000EA
:104AC0000000E001F0033807180618063003F00173
:104AD000F000F8009C310E33061E061C061C063F33
:104AE000FC73F02100000000000000000000000046
:104AF000000000000C000C000C000C000C000C006E
:104B000000000000000000000000000000000000A5
:104B10000000000000000000000000000000000095
:104B20000000000200038001C000C00060006000BF
:104B300030003000300030003000300030003000F5
:104B400060006000C000C00080010003000200009F
:104B5000000020006000C00080018001000300030D
:104B60000006000600060006000600060006000615
:104B70000003000380018001C000600020000000ED
:104B8000000000000000000000000000C000C000A5
:104B9000D806F807E00130033807000000000000E5
:104BA0000000000000000000000000000000000005
:104BB00000000000000000000000000080018001F3
:104BC000800180018001FC3FFC3F80018001800169
:104BD00080018001000000000000000000000000D3
:104BE00000000000000000000000000000000000C5
:104BF00000000000000000000000000000000000B5
:104C00000000800180010001000180000000000020
:104C10000000000000000000000000000000000094
:104C20000000000000000000E007E00700000000B6
:104C30000000000000000000000000000000000074
:104C40000000000000000000000000000000000064
:104C50000000000000000000000000000000000054
:104C60000000C000C00000000000000000000000C4
:104C70000000000C000C0006000600060003000304
:104C800000038003800180018001C000C000C000DB
:104C90006000600000000000000000000000000054
:104CA0000000E003F007380E180C0C180C180C1854
:104CB0000C180C180C180C180C180C18180C380EB2
:104CC000F007E0030000000000000000000000000A
:104CD000000000018001C001F001980188018001FD
:104CE00080018001800180018001800180018001BC
:104CF00080018001000000000000000000000000B2
:104D00000000E003F80F180C0C180C18001800181D
:104D1000000C000600038001C00060003000180095
:104D2000FC1FFC1F0000000000000000000000004D
:104D30000000E001F807180E0C0C0C0C000C00062B
:104D4000C003C007000C001800180C180C18180C31
:104D5000F807E00300000000000000000000000071
:104D60000000000C000E000F000F800DC00C600C46
:104D7000600C300C180C0C0CFC3FFC3F000C000CC1
:104D8000000C000C0000000000000000000000000B
:104D90000000F80FF80F180018000C00EC03FC07D7
:104DA0001C0E001C0018001800180C181C0C180E03
:104DB000F807E00300000000000000000000000011
:104DC0000000C007F00F381C181818000C00CC03A6
:104DD000EC0F3C0E1C1C0C180C180C18181C380E70
:104DE000F007E003000000000000000000000000E9
:104DF0000000FC1FFC1F000C0006000600038003DF
:104E00008001C001C000E000600060007000300060
:104E10003000300000000000000000000000000032
:104E20000000E003F007380E180C180C180C3806B8
:104E3000F007F007180C0C180C180C180C18380C8C
:104E4000F80FE00300000000000000000000000078
:104E50000000E003F007380E1C0C0C180C180C189E
:104E60001C1C381EF81BE0190018000C000C1C0E4E
:104E7000F807F00100000000000000000000000042
:104E80000000000000000000000000008001800120
:104E90000000000000000000000000000000000012
:104EA0008001800100000000000000000000000000
:104EB00000000000000000000000000080018001F0
:104EC00000000000000000000000000000000000E2
:104ED000800180010001000180000000000000004E
:104EE00000000000000000000000000000000000C2
:104EF0000010001C800FE003F8001800F800E00329
:104F0000800F001C001000000000000000000000E6
:104F10000000000000000000000000000000000091
:104F2000F81F000000000000F81F00000000000053
:104F30000000000000000000000000000000000071
:104F40000000000000000000000000000000000061
:104F500008003800F001C007001F0018001FC0073C
:104F6000F001380008000000000000000000000010
:104F70000000E003F80F180C0C180C180018000CB7
:104F8000000600038001C000C000C0000000000057
:104F9000C000C00000000000000000000000000091
:104FA00000000000E00718180420C229224A11441A
:104FB00009440944094409221113E20C0240042067
:104FC0001818E007000000000000000000000000CA
:104FD000000080038003C006C006C006600C600CA1
:104FE000301830183018F83FF83F1C700C600C6017
:104FF00006C006C000000000000000000000000025
:105000000000FC03FC0F0C0C0C180C180C180C0CFA
:10501000FC07FC0F0C180C300C300C300C300C184A
:10502000FC1FFC0700000000000000000000000062
:105030000000C007F01F38381C300C7006600600F6
:105040000600060006000600060006600C701C3014
:10505000F01FE0070000000000000000000000005A
:105060000000FE03FE0F060E061806180630063076
:105070000630063006300630063006180618060ED2
:10508000FE0FFE0300000000000000000000000012
:105090000000FC3FFC3F0C000C000C000C000C005E
:1050A000FC1FFC1F0C000C000C000C000C000C0082
:1050B000FC3FFC3F0000000000000000000000007A
:1050C0000000F83FF83F18001800180018001800FA
:1050D000F81FF81F18001800180018001800180012
:1050E0001800180000000000000000000000000090
:1050F0000000E00FF83F3C780E6006E007C00300B8
:10510000030003FE03FE03C007C006C00EC03CF050
:10511000F83FE00F00000000000000000000000069
:1051200000000C300C300C300C300C300C300C30DB
:10513000FC3FFC3F0C300C300C300C300C300C3091
:105140000C300C30000000000000000000000000E7
:1051500000008001800180018001800180018001C8
:105160008001800180018001800180018001800137
:10517000800180010000000000000000000000002D
:1051800000000006000600060006000600060006F5
:105190000006000600060006000618061806380776
:1051A000F003E0010000000000000000000000002B
:1051B000000006300618060C060606038601C60027
:1051C00066007600DE008E0106030606060C061851
:1051D0000630066000000000000000000000000033
:1051E0000000180018001800180018001800180017
:1051F00018001800180018001800180018001800EF
:10520000F81FF81F00000000000000000000000070
:1052100000000EE01EF01EF01EF036D836D836D84C
:1052200036D866CC66CC66CCC6C6C6C6C6C6C6C6AA
:1052300086C386C3000000000000000000000000DC
:1052400000000C301C303C303C306C306C30CC30CA
:10525000CC308C310C330C330C360C360C3C0C3C03
:105260000C380C30000000000000000000000000BE
:105270000000E007F81F1C380E70066003C003C072
:1052800003C003C003C003C003C006600E701C3817
:10529000F81FE00700000000000000000000000010
:1052A0000000FC0FFC1F0C380C300C300C300C30A4
:1052B0000C18FC1FFC070C000C000C000C000C0070
:1052C0000C000C00000000000000000000000000C6
:1052D0000000E007F81F1C380E70066003E003C0F2
:1052E00003C003C003C003C007E006630E3F1C3CBD
:1052F000F83FE0F700C000000000000000000000E0
:105300000000FE0FFE1F0638063006300630063855
:10531000FE1FFE0706030606060C061806180630D2
:1053200006300660000000000000000000000000E1
:105330000000E003F80F1C0C0C180C180C001C00EB
:10534000F803E00F001E0038063006300E301C1C3B
:10535000F80FE0070000000000000000000000005F
:105360000000FE7FFE7F80018001800180018001BE
:105370008001800180018001800180018001800125
:10538000800180010000000000000000000000001B
:1053900000000C300C300C300C300C300C300C3069
:1053A0000C300C300C300C300C300C300C30181829
:1053B000F81FE007000000000000000000000000EF
:1053C000000003600630063006300C180C180C186C
:1053D000180C180C380E3006300670076003600396
:1053E000C001C0010000000000000000000000003B
:1053F00000000360C361C361C36166336633663313
:105400006633663366336C1B6C1B6C1B2C1A3C1E9C
:10541000380E380E00000000000000000000000000
:1054200000000FE00C7018303018700C600EC007D0
:1054300080038003C003E006700C301C18180C3089
:105440000E6007E000000000000000000000000007
:10545000000003C006600C301C383818300C6006A1
:10546000E007C0038001800180018001800180018C
:10547000800180010000000000000000000000002A
:105480000000FC7FFC7F006000300018000C00066C
:1054900000038001C0006000300018000C0006000E
:1054A000FE7FFE7F00000000000000000000000002
:1054B0000000E003E0036000600060006000600046
:1054C00060006000600060006000600060006000DC
:1054D00060006000600060006000E003E003000026
:1054E000000030003000600060006000C000C000BC
:1054F000C000C0018001800180010003000300039F
:10550000000600060000000000000000000000008F
:105510000000E003E00300030003000300030003B6
:105520000003000300030003000300030003000363
:1055300000030003000300030003E003E003000096
:1055400000000000C001C00160036003600330067A
:105550003006180C180C00000000000000000000CD
:10556000000000000000000000000000000000003B
:10557000000000000000000000000000000000002B
:10558000000000000000000000000000000000001B
:105590000000FFFFFFFF000000000000000000000F
:1055A00000000C000C000C000C000C000C000000B3
:1055B00000000000000000000000000000000000EB
:1055C00000000000000000000000000000000000DB
:1055D000000000000000000000000000F003F807D9
:1055E0001C0C0C0C000FF00FF80C0C0C0C0C1C0F0E
:1055F000F80FF0180000000000000000000000009C
:10560000000018001800180018001800D803F80F40
:10561000380C181818181818181818181818380CE2
:10562000F80FD80300000000000000000000000098
:10563000000000000000000000000000C003F007B0
:10564000300E180C1800180018001800180C300E36
:10565000F007C00300000000000000000000000090
:10566000000000180018001800180018C01BF01FD8
:10567000301C181818181818181818181818301C72
:10568000F01FC01B00000000000000000000000030
:10569000000000000000000000000000C003F00F48
:1056A000300C1818F81FF81F180018003818301C94
:1056B000F00FC00700000000000000000000000024
:1056C0000000800FC00FC000C000C000F007F0074E
:1056D000C000C000C000C000C000C000C000C000CA
:1056E000C000C0000000000000000000000000003A
:1056F000000000000000000000000000E00DF80FB6
:10570000180E0C0C0C0C0C0C0C0C0C0C0C0C180EBD
:10571000F80FE00D000C0C0C1C06F807F00100005F
:10572000000018001800180018001800D807F80F1B
:10573000381C1818181818181818181818181818C5
:1057400018181818000000000000000000000000F9
:105750000000C000C000000000000000C000C00049
:10576000C000C000C000C000C000C000C000C00039
:10577000C000C000000000000000000000000000A9
:105780000000C000C000000000000000C000C00019
:10579000C000C000C000C000C000C000C000C00009
:1057A000C000C000C000C000C000F80078000000C9
:1057B00000000C000C000C000C000C000C0C0C0683
:1057C0000C038C01CC006C00FC009C018C030C03CE
:1057D0000C060C0C0000000000000000000000009F
:1057E0000000C000C000C000C000C000C000C00079
:1057F000C000C000C000C000C000C000C000C000A9
:10580000C000C00000000000000000000000000018
:105810000000000000000000000000007C3CFF7E53
:10582000C7E383C183C183C183C183C183C183C1F2
:1058300083C183C1000000000000000000000000E0
:105840000000000000000000000000009807F80FB2
:10585000381C1818181818181818181818181818A4
:1058600018181818000000000000000000000000D8
:10587000000000000000000000000000C003F00F66
:10588000300C181818181818181818181818300C80
:10589000F00FC00300000000000000000000000046
:1058A000000000000000000000000000D803F80F16
:1058B000380C181818181818181818181818380C40
:1058C000F80FD8031800180018001800180000007E
:1058D000000000000000000000000000C01BF01FDE
:1058E000301C181818181818181818181818301C00
:1058F000F01FC01B00180018001800180018000046
:10590000000000000000000000000000B007F003ED
:1059100070003000300030003000300030003000C7
:105920003000300000000000000000000000000017
:10593000000000000000000000000000E003F00391
:10594000380E180C3800F003C007000C180C380E85
:10595000F007E0030000000000000000000000006D
:10596000000000008000C000C000C000F007F00789
:10597000C000C000C000C000C000C000C000C00027
:10598000C0078007000000000000000000000000C9
:1059900000000000000000000000000018181818A7
:1059A0001818181818181818181818181818381C53
:1059B000F01FE019000000000000000000000000DF
:1059C0000000000000000000000000000C18180C8F
:1059D000180C180C300630063006600360036003B4
:1059E000C001C00100000000000000000000000035
:1059F000000000000000000000000000C141C141A3
:105A0000C3616363636363633636363636361C1CA4
:105A10001C1C1C1C00000000000000000000000016
:105A20000000000000000000000000001C38381CCE
:105A3000300C600660036003600360036006300C96
:105A4000381C1C38000000000000000000000000AE
:105A500000000000000000000000000018303018B6
:105A600030187018600C600CE00CC006C006800393
:105A70008003800380018001C001F00070000000FD
:105A8000000000000000000000000000FC1FFC1FE0
:105A9000000C000600038001C00060003000180008
:105AA000FC1FFC1F000000000000000000000000C0
:105AB000000000038001C000C000C000C000C000A2
:105AC000C00060006000300060004000C000C00006
:105AD000C000C000C000C000800100030000000042
