:020000040800F2
:10000000100400209D010008FD020008C502000840
:10001000F9020008E50100089D0800080000000042
:1000200000000000000000000000000001040008C3
:10003000E9010008000000007D030008F104000849
:10004000B7010008B7010008B7010008B7010008B0
:10005000B7010008B7010008B7010008B7010008A0
:10006000B7010008B7010008B7010008B701000890
:10007000B7010008B7010008B7010008B701000880
:10008000B7010008B7010008B7010008B701000870
:10009000B7010008B7010008B7010008B701000860
:1000A000B7010008B7010008B7010008B701000850
:1000B000B7010008B7010008B7010008B701000840
:1000C000B7010008B7010008B7010008B701000830
:1000D000B7010008B7010008B7010008B701000820
:1000E000B7010008B7010008B7010008B701000810
:1000F000B7010008B7010008B7010008B701000800
:10010000B7010008B7010008B7010008B7010008EF
:10011000B7010008B7010008B7010008B7010008DF
:10012000B7010008B7010008B7010008B7010008CF
:10013000B7010008B7010008B7010008B7010008BF
:10014000B7010008B7010008B7010008B7010008AF
:10015000B7010008B7010008B7010008B70100089F
:10016000B7010008B7010008B7010008B70100088F
:10017000B7010008B7010008B7010008B70100087F
:10018000B7010008B7010008DFF80CD000F018F83C
:1001900000480047C10800081004002006488047B6
:1001A00006480047FEE7FEE7FEE7FEE7FEE7FEE75C
:1001B000FEE7FEE7FEE7FEE7F50400088901000818
:1001C000064C074D06E0E06840F0010394E80700A4
:1001D00098471034AC42F6D3FFF7DAFF2C09000839
:1001E0004C09000800BFFEE77047F0B50A46002141
:1001F0000023002400BF3DE0012505FA01F3156846
:1002000005EA03049C4234D105684F000326BE4032
:10021000B543056015794E00B54006683543056065
:100220001579012D02D01579022D16D185684F0060
:100230000326BE40B543856055794E00B5408668BB
:1002400035438560456801268E40B5434560456865
:1002500096798E40B6B235434560C5684F00032697
:10026000BE40B543C560D5794E00B540C66835433C
:10027000C560491C1029BFD3F0BDF0B50023002490
:100280004D07ED0E02FA05F3CE1000F1200555F8EA
:1002900026504E07F70E0F26BE40B543CF1000F193
:1002A000200646F82750CE1000F1200555F82650BC
:1002B00045EA0304CE1000F1200545F82640F0BDC4
:1002C0000183704700BFFEE71CB50121202000F02C
:1002D00057F84FF4F060009001208DF804008DF87D
:1002E000070003208DF8050069460248FFF77DFFEF
:1002F0001CBD00000014024000BFFEE77047000074
:1003000000B589B01B4800F077F940F2E73007905C
:100310005320ADF818000020ADF82000ADF81A0009
:1003200006A9144800F078FA6020ADF80400012016
:10033000ADF806000020ADF808000F4800880390D3
:100340000020ADF8100001A90A4800F01DFA0821AC
:10035000084800F057FA0121064800F0FFF8012193
:10036000044800F007F90121024800F035F909B00E
:1003700000BD0000000400400C0000207047000099
:1003800029B1064A12680243044B1A6004E0034A8A
:1003900012688243014B1A607047000030380240F7
:1003A00029B1064A12680243044B1A6004E0034A6A
:1003B00012688243014B1A607047000040380240C7
:1003C00029B1064A12680243044B1A6004E0034A4A
:1003D00012688243014B1A607047000020380240C7
:1003E00029B1064A12680243044B1A6004E0034A2A
:1003F00012688243014B1A607047000024380240A3
:10040000704700000CB5002001900090344800684F
:1004100040F480303249086000BF3148006800F481
:10042000003000900198401C0190009818B9019884
:10043000B0F5A04FF1D12A48006800F4003010B1A7
:100440000120009001E0002000900098012846D192
:1004500023484030006840F0805021494031086016
:100460002048006840F440401E4908601C4808309D
:1004700000681B49083108600846006840F40040E5
:1004800008600846006840F4A05008601648091F3C
:100490000860081F006840F08070091F086000BFF6
:1004A0000F48006800F000700028F9D040F2057095
:1004B0000E4908600A480830006820F00300084927
:1004C000083108600846006840F00200086000BF7C
:1004D00003480830006800F00C000828F8D10CBD73
:1004E000003802400070004019544007003C0240B0
:1004F0007047000010B51548006840F470001349BB
:1005000008601348006840F00100114908600020AD
:100510000F49083108600E4800680E4908400C4930
:1005200008600D48091D0860081F006820F480203D
:10053000091F0860002006490C310860FFF762FFC0
:100540004FF0006001498039086010BD88ED00E07F
:1005500000380240FFFFF6FE1030002421B102886F
:1005600042F08002028004E002884FF67F731A4056
:100570000280704721B1028842F00102028004E04B
:1005800002884FF6FE731A40028070471CB5FFF7D1
:10059000B1FF01210220FFF703FF01210420FFF733
:1005A000EFFE4FF47070009002208DF804000320DD
:1005B0008DF8050000208DF8060001208DF8070059
:1005C00069460448FFF711FE022206210148FFF7A1
:1005D00054FE1CBD0008024031B1B0F8442042F482
:1005E0000042A0F8442005E0B0F84420C2F30E0217
:1005F000A0F844207047000010B5044655488442D6
:1006000008D101210846FFF7EBFE00210120FFF78A
:10061000E7FE9DE0B4F1804F08D101210846FFF7C5
:10062000CFFE00210120FFF7CBFE91E04A48844233
:1006300008D101210220FFF7C3FE00210220FFF7AD
:10064000BFFE85E04548844208D101210420FFF720
:10065000B7FE00210420FFF7B3FE79E04048844252
:1006600008D101210820FFF7ABFE00210820FFF789
:10067000A7FE6DE03B48844208D101211020FFF71E
:100680009FFE00211020FFF79BFE61E03648844268
:1006900008D101212020FFF793FE00212020FFF741
:1006A0008FFE55E03148844208D101210220FFF736
:1006B00097FE00210220FFF793FE49E02C48844278
:1006C00009D101210804FFF78BFE00214FF480308F
:1006D000FFF786FE3CE02748844209D10121480407
:1006E000FFF77EFE00214FF40030FFF779FE2FE088
:1006F0002148844209D101218804FFF771FE0021BD
:100700004FF48020FFF76CFE22E01C48844208D1A1
:1007100001214020FFF754FE00214020FFF750FE4A
:1007200016E01748844208D101218020FFF748FED7
:1007300000218020FFF744FE0AE01248844207D1DE
:1007400001218015FFF73CFE0021A015FFF738FEC0
:1007500010BD0000000001400004004000080040FF
:10076000000C004000100040001400400004014054
:100770000040014000440140004801400018004092
:10078000001C00400020004070B50024002200231F
:10079000058C4FF6FE7635400584028C8388048BE9
:1007A0004FF68F752C40B51E2C400D882C43751EBE
:1007B0002A408D892A434D882A43104DA84202D0F1
:1007C0000F4DA84213D14FF6F7752A40CD892A4321
:1007D0004FF6FB752A408D882A434FF6FF652B4064
:1007E0004FF6FF552B400D8A2B434D8A2B438380B8
:1007F00004838D684563028470BD000000000140E1
:10080000000401400A460021018B4FF6F77319409E
:10081000114301837047000000220288184B984260
:100820000ED0184B98420BD0B0F1804F08D0164B29
:10083000984205D0154B984202D0154B984204D1EE
:100840004FF68F731A404B881A43124B984207D0C9
:10085000114B984204D04FF6FF431A400B891A43BC
:1008600002804B68C3620B880385054B984202D017
:10087000044B984201D18B7A03860123838270470F
:100880000000014000040140000400400008004056
:10089000000C0040001000400014004000BFFEE7C4
:1008A00002E008C8121F08C1002AFAD17047704739
:1008B000002001E001C1121F002AFBD17047000097
:1008C000FFF764FEFFF71CFDFFF7FEFC4FF4F0613D
:1008D0001348FFF7F5FC22E01248008801280DD1EB
:1008E00011480088401C104908800846008840F2E2
:1008F000E731884202D100200B490880FFF700FD54
:1009000000200949088004E007480088401C064987
:1009100008800548008841F6FF718842F4DBDBE778
:10092000001402400A0000200C0000204C090008BE
:100930000000002010000000A00800085C0900086A
:100940001000002000040000B00800084D01F9006C
:0C095000A60053000000000000000000A2
:040000050800018965
:00000001FF
