:020000040800F2
:10000000780400209D010008C90900086D09000856
:10001000C5090008E5010008D90D0008000000002E
:100020000000000000000000000000003D0C00087F
:10003000ED07000800000000650A00086D0D0008CB
:10004000B7010008B7010008B7010008B7010008B0
:10005000B7010008B7010008B7010008B7010008A0
:10006000B7010008B7010008B7010008B701000890
:10007000B7010008B7010008B7010008B701000880
:10008000B7010008B7010008B7010008B701000870
:10009000E9010008B7010008B7010008B70100082E
:1000A000B7010008B7010008B7010008B701000850
:1000B000B7010008B7010008B7010008B701000840
:1000C000B7010008B7010008B7010008B701000830
:1000D000B7010008B7010008B7010008B701000820
:1000E000B7010008B7010008B7010008B701000810
:1000F000B7010008B7010008B7010008B701000800
:10010000B7010008B7010008B7010008B7010008EF
:10011000B7010008B7010008B7010008B7010008DF
:10012000B7010008B7010008B7010008B7010008CF
:10013000B7010008B7010008B7010008B7010008BF
:10014000B7010008B7010008B7010008B7010008AF
:10015000B7010008B7010008B7010008B70100089F
:10016000B7010008B7010008B7010008B70100088F
:10017000B7010008B7010008B7010008B70100087F
:10018000B7010008B7010008DFF80CD000F018F83C
:1001900000480047FD0D000878040020064880470D
:1001A00006480047FEE7FEE7FEE7FEE7FEE7FEE75C
:1001B000FEE7FEE7FEE7FEE7710D00088901000893
:1001C000064C074D06E0E06840F0010394E80700A4
:1001D00098471034AC42F6D3FFF7DAFF080F000857
:1001E000280F000800BFFEE710B50D4A00210D489A
:1001F00000F0F1F90A48006840F2213188420ED13E
:100200000748007A58B90648807A012807D104497E
:10021000C87A00F0ADFB0248C07A0349087010BDEF
:100220006000002000640040000000201CB5012197
:10023000082000F019FC092200212A4800F06AFB7E
:1002400009220121274800F065FB032000900220CD
:100250008DF804008DF8050000208DF806000120BF
:100260008DF8070069461F4800F00CFB0121480685
:1002700000F00AFC1C4800F03FF800201B49887180
:10028000C871087248728872C8728870C870052078
:1002900008710720487102200880134800F011F906
:1002A000002013498872C87201200873002008805A
:1002B00048808880C880088101204873084600F083
:1002C00037F840F221300B490860012048600020D7
:1002D000487208720120887201220221024800F04F
:1002E000E7F81CBD000C0240006400403000002014
:1002F0003C0000204C00002010B504460B4884420E
:1003000009D10121480600F0CFFB00214FF0007019
:1003100000F0CAFB08E00121880600F0C5FB0021BF
:100320004FF0806000F0C0FB10BD00000064004092
:1003300010B50021837A012202FA03F13D4A1268C6
:1003400042F001023B4B1A603A4A1C3212688A435F
:10035000384B1C331A60027BCAB9364A0C32126819
:100360008A43344B0C331A604288C38842EA034301
:10037000304A4032847A42F834300288838842EA34
:1003800003432C4A4032847A02EBC4025360027B5E
:10039000012A19D1274A0C3212680A43254B0C3323
:1003A0001A604288038842EA0343224A4032847A30
:1003B00042F83430C288838842EA03431D4A4032FF
:1003C000847A02EBC4025360C27A3AB9194A121D08
:1003D00012688A43174B1B1D1A6006E0154A121D4E
:1003E00012680A43134B1B1D1A60028932B9114A65
:1003F000143212688A430F4B14331A600289012A9F
:1004000006D10C4A143212680A430A4B14331A609C
:10041000427B012A06D1074A1C3212680A43054B67
:100420001C331A60034A126822F00102014B1A6061
:1004300010BD00000066004010B50246002001F427
:10044000700343B19369C1F3130423400BB101203E
:100450002DE000202BE001F0807343B15368C1F31D
:10046000130423400BB1012021E000201FE001F024
:10047000006343B19368C1F3130423400BB101201F
:1004800015E0002013E001F0007343B1D368C1F31D
:10049000130423400BB1012009E0002007E0136999
:1004A000C1F3130423400BB1012000E0002010BD74
:1004B0001AB143690B43436102E043698B434361D3
:1004C000704730B5024600200023146824F002046F
:1004D0001460146844F00104146000E05B1C54686C
:1004E00004F001041CB94FF6FF74A342F6D154681E
:1004F00004F001040CB900206CE08C79012C04D1CB
:10050000146844F08004146003E0146824F080044C
:100510001460CC79012C04D1146844F040041460B8
:1005200003E0146824F0400414600C7A012C04D118
:10053000146844F02004146003E0146824F02004DC
:1005400014604C7A012C04D1146844F01004146037
:1005500003E0146824F0100414608C7A012C04D198
:10056000146844F00804146003E0146824F00804DC
:100570001460CC7A012C04D1146844F00404146093
:1005800003E0146824F0040414608C78A407CD7888
:1005900044EA05640D7944EA05444D7944EA05547A
:1005A0000D886D1E2C43D461146824F0010414607E
:1005B000002300E05B1C546804F001041CB14FF6FA
:1005C000FF74A342F6D1546804F001040CB100207A
:1005D00000E0012030BD10B500F5D87303EB011326
:1005E0001B6803F004031372137A53B900F5D87330
:1005F00003EB01131B6840F2FF7404EA53531360CA
:1006000009E000F5D87303EB01131B686FF0604439
:1006100004EAD303536000F5D87303EB01131B689E
:1006200003F00203537200F5D87303EB01135B6808
:1006300003F00F03937200F5D87303EB01135B68AB
:100640001B0AD37400F5D87303EB01139B68D372B4
:1006500000F5D87303EB01139B681C0A147300F5B3
:10066000D87303EB01139B681C0C547300F5D8730B
:1006700003EB01139B681B0E937300F5D87303EB18
:100680000113DB68D37300F5D87303EB0113DB6848
:100690001C0A147400F5D87303EB0113DB681C0CFF
:1006A000547400F5D87303EB0113DB681B0E9374CD
:1006B00021B9C36843F02003C36003E0036943F03A
:1006C0002003036110BD10B502460020936803F0BB
:1006D0008063B3F1806F00D110E0936803F0006392
:1006E000B3F1006F01D1012008E0936803F080535B
:1006F000B3F1805F01D1022000E00420042874D00F
:1007000002F5C07303EB00131B6803F0010402F54C
:10071000C07303EB00131C600B7A7BB94B7A0C8817
:1007200043EA445302F5C07404EB001424682343E5
:1007300002F5C07404EB0014236010E00B7A4C68DF
:1007400043EAC4034C7A234302F5C07404EB00145B
:100750002468234302F5C07404EB001423608B7AF1
:1007600003F00F038B7202F5C07303EB00135B6899
:1007700023F00F0402F5C07303EB00135C6002F575
:10078000C07303EB00135B688C7A234302F5C074DB
:1007900004EB001463608B7B1C064B7B44EA034430
:1007A0000B7B44EA0323CC7A234302F5C07404EBA9
:1007B0000014A3608B7C1C064B7C44EA03440B7C36
:1007C00044EA0323CC7B234302F5C07404EB0014FA
:1007D000E36002F5C07303EB00131B6843F00104F0
:1007E00002F5C07303EB00131C6010BD70470000DE
:1007F000002123498279002A3AD00A461268036808
:100800009A430B461A600A1D126803689A430B1D2F
:100810001A60027911440A6803681A430A60184A88
:100820000832126803689A43154B08331A601A1D80
:10083000126803689A43124B0C331A604279102AEB
:100840000ED11A1F126803681A430D4B08331A6041
:100850001A1D126803681A43094B0C331A600DE025
:100860000749427911440A6803681A430A6005E09F
:10087000027911440A6803689A430A6070470000CD
:10088000003C0140F0B50A4600210023002400BFCF
:100890003DE0012505FA01F3156805EA03049C42D1
:1008A00034D105684F000326BE40B5430560157975
:1008B0004E00B5400668354305601579012D02D01C
:1008C0001579022D16D185684F000326BE40B54329
:1008D000856055794E00B54086683543856045682A
:1008E00001268E40B5434560456896798E40B6B284
:1008F00035434560C5684F000326BE40B543C5601B
:10090000D5794E00B540C6683543C560491C1029ED
:10091000BFD3F0BDF0B5002300244D07ED0E02FA61
:1009200005F3CE1000F1200555F826504E07F70EBE
:100930000F26BE40B543CF1000F1200646F82750E1
:10094000CE1000F1200555F8265045EA0304CE10DC
:1009500000F1200545F82640F0BD0246002013694D
:100960000B400BB1012000E00020704700BFFEE704
:1009700010B50446002000F0DDF8012000F0DAF8A0
:10098000022000F0D7F8032000F0D4F8012C06D0A4
:10099000022C08D0032C0AD0042C10D10BE000202C
:1009A00000F0D4F80CE0012000F0D0F808E00220BC
:1009B00000F0CCF804E0032000F0C8F800E000BF2D
:1009C00000BF10BD00BFFEE7704708B514208DF8CA
:1009D000000000208DF801008DF8020001208DF844
:1009E0000300684600F002F808BD000070B5002161
:1009F00000230F22C4781CB3174C246804F4E0646D
:100A0000C4F5E064C4F30721C1F10404E3B20A4170
:100A100044789C40E1B28478144021430C07210EB5
:100A20000E4C05786155047804F01F050124AC4094
:100A300005786D11AD0005F1E025C5F8004109E02C
:100A4000047804F01F050124AC40054D06787611AA
:100A500045F8264070BD00000CED00E000E400E029
:100A600080E100E07047000029B1064A12680243A5
:100A7000044B1A6004E0034A12688243014B1A6077
:100A8000704700003038024029B1064A126802431C
:100A9000044B1A6004E0034A12688243014B1A6057
:100AA000704700004038024029B1064A12680243EC
:100AB000044B1A6004E0034A12688243014B1A6037
:100AC000704700002038024029B1064A12680243EC
:100AD000044B1A6004E0034A12688243014B1A6017
:100AE00070470000443802401CB504460E4951F8D6
:100AF00024000121FFF7B8FF0C4830F814000090E3
:100B000001208DF8040000208DF8060001208DF8EA
:100B1000070002208DF80500054951F824006946B8
:100B2000FFF7B0FE1CBD0000B40E0008AC0E0008BC
:100B300004000020034931F81010034A52F8202025
:100B400051837047AC0E000804000020034931F8BF
:100B50001010034A52F8202011837047AC0E000891
:100B60000400002010B50446044A32F81410044A68
:100B700052F82400FFF7F1FE10BD0000C40E00087B
:100B80001400002030B585B004460D46244951F8C4
:100B900024000121FFF768FF01218803FFF794FF7C
:100BA00000208DF810008DF813001E4830F8140056
:100BB00003901D4951F8240003A9FFF763FE012D9E
:100BC0002CD11A4A12F81410194A12F8140000F025
:100BD00037F8184830F81400019000208DF808000C
:100BE0001CB10C208DF8090002E008208DF80900E6
:100BF00001208DF80A0001A8FFF7FAFD0E4810F851
:100C000014008DF800000F208DF801008DF802000F
:100C100001208DF803006846FFF7E8FE05B030BDFF
:100C2000CC0E0008C40E000814000020E40E0008DA
:100C3000DE0E0008D80E0008EA0E0008704700001B
:100C400030B500228B071C0F0F2303FA04F20B4B65
:100C50008C1053F824309343084C8D1044F8253001
:100C600023468C1053F824308C07240F00FA04F428
:100C70002343024C8D1044F8253030BD0838014024
:100C80000CB50020019000903448006840F480309A
:100C90003249086000BF3148006800F4003000901D
:100CA0000198401C0190009818B90198B0F5A04F28
:100CB000F1D12A48006800F4003010B10120009002
:100CC00001E0002000900098012846D123484030E0
:100CD000006840F080502149403108602048006899
:100CE00040F440401E4908601C48083000681B4919
:100CF000083108600846006840F400400860084673
:100D0000006840F4A05008601648091F0860081FDA
:100D1000006840F08070091F086000BF0F4800683D
:100D200000F000700028F9D040F205700E4908600C
:100D30000A480830006820F00300084908310860BC
:100D40000846006840F00200086000BF0348083011
:100D5000006800F00C000828F8D10CBD00380240F3
:100D60000070004019544007003C024070470000EA
:100D700010B51548006840F4700013490860134826
:100D8000006840F001001149086000200F49083157
:100D900008600E4800680E4908400C4908600D487C
:100DA000091D0860081F006820F48020091F0860E2
:100DB000002006490C310860FFF762FF4FF0006029
:100DC00001498039086010BD88ED00E0003802401C
:100DD000FFFFF6FE1030002400BFFEE702E008C867
:100DE000121F08C1002AFAD170477047002001E0A5
:100DF00001C1121F002AFBD170470000FFF7E5FD7B
:100E00000020FFF771FE0120FFF76EFE0220FFF7C2
:100E10006BFE0320FFF768FE00210220FFF7B2FE01
:100E2000FFF704FA37E031E01B480078042803D1CB
:100E300000201949087029E017490978491CC9B2EE
:100E4000154A11700846FFF793FD134800781349BF
:100E5000C8721348FFF737FC00BF12491048FFF76C
:100E6000EBFA0028F9D10F49FF310D48FFF7E4FAFA
:100E70000028F2D10C490A48FFF7DEFA0028ECD12D
:100E800000BF0220FFF76EFE0128FAD10220FFF713
:100E900069FE0028C8D0C6E7000000204C000020F2
:100EA00000640040010000380000013880000001AB
:100EB00000020004200000002000000020000000CC
:100EC00020000000010000200001000001000000DF
:100ED00004000000000100000100002000010000EB
:100EE0000200080000000D0008000600280017009E
:100EF00010000000010000000100000000020004DA
:100F000009000A0007000700280F00080000002061
:100F100030000000DC0D0008580F000830000020F1
:100F200048040000EC0D000800000000001402401E
:100F3000001402400014024000140240000002406D
:100F40000008024000200240001001400000024062
:080F5000000002400000000057
:040000050800018965
:00000001FF
